:020000040000FA
:10000000D8A1012005030000556C0000C1020000CA
:10001000C5020000C9020000CD020000000000007F
:10002000000000000000000000000000D1020000FD
:100030007F0D000000000000A5030000858D00007A
:100040001F0300001F0300001F0300001F03000028
:100050001F0300001F0300008D0E0000AD0E000006
:10006000BD0E0000CD0E0000DD0E00006D0B000087
:10007000890B0000A50B0000C10B0000DD0B000088
:10008000F90B0000150C00001F0300001F03000007
:100090001F0300001F0300001F030000ED0E0000FF
:1000A0001F0300001F0300001F0300001F030000C8
:1000B0001F0300001F0300001F030000C9630000AE
:1000C000B96300001F0300001F0300001F030000AE
:1000D0001F030000B58D00001F0300001F03000078
:1000E0009D0E00001F030000000000001F03000021
:1000F0001F0300001F0300001F030000310C00005D
:100100001F0300001F0300001F0300001F03000067
:100110001F0300001F0300001F0300001F03000057
:10012000690C0000850C0000A10C0000BD0C000053
:10013000D90C00007D0E00001F0300001F0300000B
:1001400000000000000000000000000000000000AF
:10015000F50C0000110D00002D0D00001F03000024
:100160001F0300001F0300001F0300001F03000007
:100170001F0300001F0300001F0300001F030000F7
:100180001F0300001F0300001F0300001F030000E7
:100190001F0300001F0300001F0300001F030000D7
:1001A000C5690000B56900004D0C00001F03000088
:1001B0001F0300001F0300001F0300001F030000B7
:1001C0001F0300001F0300001F0300001F030000A7
:1001D0001F0300001F0300001F0300001F03000097
:1001E0001F0300001F0300001F0300001F03000087
:1001F0001F0300001F0300001F0300001F03000077
:100200001F0300001F0300001F0300001F03000066
:100210001F0300001F0300001F0300001F03000056
:100220001F0300001F0300006D6A000000000000B3
:100230001F0300001F030000000000001F03000058
:100240001F0300001F0300001F0300001F03000026
:100250001F0300001F0300001F0300001F03000016
:100260001F0300001F0300001F0300001F03000006
:100270001F0300001F0300001F0300000000000018
:100280001F0300001F0300001F0300000000000008
:10029000000000001F03000003464FF000021EF0A4
:1002A000040F0CBFEFF30880EFF309801EF0100F6E
:1002B00006BF20ED108AD143114620E9F00F184700
:1002C0000C48E9E70C48E7E70C48E5E70C48E3E7AA
:1002D0001EF0040F0CBFEFF30882EFF309821168E0
:1002E000506804B58847BDE804401060704700DFDF
:1002F000704700BFA16300003D6C0000850A00004C
:10030000D18D00000948804709480047FEE7FEE715
:10031000FEE7FEE7FEE7FEE7FEE7FEE7FEE7FEE7B5
:1003200004480549054A064B70470000B903000020
:1003300001000290D89B0120D8A10120D89D012066
:10034000D89D01201948026804B505F041FCBDE8BC
:100350000440002808BF7047EFF309801EF0100F1B
:1003600008BF20ED108A20E9F04F10600F480068A8
:100370000068B0E8F04F1EF0100F08BFB0EC108A14
:1003800080F3098870470A480A4901604FF000006D
:1003900080F31488054909680868B0E8F04F80F3D5
:1003A0000988704702480068004700BF50090020D4
:1003B000540900204503000008B500F03DFB084843
:1003C000006840F47000064908600648006840F084
:1003D00060400449086008460068009000BF08BDFE
:1003E00088ED00E0DC44025840F2CD1CC9F2020C5A
:1003F000604740F2F31CC9F2020C604746F2C37C2E
:10040000C9F2020C604746F22F2CC9F2020C604779
:1004100046F2FD4CC9F2020C604746F6E11CC9F2F7
:10042000020C604745F6C95CC9F2020C604745F60C
:10043000AF7CC9F2020C604745F6F96CC9F2020CB8
:10044000604740F2C52CC9F2020C604740F2D52C3F
:10045000C9F2020C604745F6357CC9F2020C6047D0
:1004600045F6737CC9F2020C604742F2493CC9F27E
:10047000030C604745F67F3CC9F2020C604745F625
:10048000D13CC9F2020C604745F6234CC9F2020C7C
:10049000604745F6754CC9F2020C604740F2192CD2
:1004A000C9F2020C604747F2151CC9F2020C604702
:1004B0002DE9F74F804692F8240182B0144610F0DF
:1004C000100F14BF4FF480510021B4F828010C2202
:1004D000382302EA102C0CEB040703EA1013C0F3D4
:1004E00082061E43D7F81431C0F3090C06F5707666
:1004F000042513F80CC005EA10159B5D00F00207F7
:10050000C0F3023647EA050094F82C713144C34029
:1005100001EB0C19214602EA8306D4F8FC20484678
:100520009047D4F8FC20054609F108002146904781
:10053000C7F10703024604EB880E4FF0000C990048
:10054000009113F101094FF0010BDEF83C015DD081
:10055000B3F1004F5AD2B9F1000FC8BF002318DD24
:100560000BFA03FC05EA0C0A02EA0C0C4AEA4C0CF2
:100570003CFA03FC09D0C3F1000A4CEA060C01EB7B
:100580008A0A0CFA0AFC4CEA00005B1CB9F101096A
:10059000E6D1002FCEF83C0118BFB8F1000F2BD0E8
:1005A000A8F10101C7F1070004EB810900990728B0
:1005B00001F10408D9F83C113CBFC0F10703002049
:1005C00018D200BFC0F107070BFA07FC05EA0C0AB6
:1005D00002EA0C0C4AEA4C0C3CFA07FC07D04CEA45
:1005E000060C08EB80070CFA07FC4CEA0101401CE2
:1005F0005B1EE7D1C9F83C11039810F0020F04BF4D
:100600000020C4F83C0105B0BDE8F08F0BFA0CF9EE
:1006100005EA090A02EA09094AEA490939FA0CF91C
:1006200005D049EA060909FA01F949EA0000091F5B
:100630000CF1010C9C45E9D9ABE700002DE9F0472E
:10064000044690F8240110F0100F14BF4FF48052AC
:10065000002294F82C81B8F1000F08BFBDE8F087A4
:10066000B4F828010C233821042503EA102C0CEBE4
:10067000040701EA1011C0F382060E43D7F81411E3
:10068000C0F3090C06F5707605EA101511F80CC0D8
:1006900000F00207895DC0F3023647EA05003244E4
:1006A000C14002EB0C17D4F8FC2003EA8106214676
:1006B00038469047D4F8FC20054607F1080021464B
:1006C00090478446D4F8B811C8F107004FF00109EB
:1006D0008200072802F104083CBFC0F10703002094
:1006E00014D200BFC0F1070709FA07F205EA020AAF
:1006F0000CEA02024AEA4202FA4004D0324308EB12
:100700008007BA401143401C5B1EEBD1C4F8B811FE
:10071000BDE8F0872DE9F34F91F8240181B00C4634
:1007200010F0100F14BF4FF480520022B4F82801CB
:100730000C21382301EA102C0CEB040703EA1013F8
:10074000C0F382061E43D7F81431C0F3090C06F536
:100750007076042513F80CC005EA10159B5D00F0B7
:100760000207C0F3023647EA050094F82C713244C0
:10077000C34002EB0C18D4F8FC2001EA83062146A2
:1007800040469047D4F8FC20054608F10800214671
:100790009047019AC7F107014FF0010B8B000093BE
:1007A00004EB820E4FF0000211F10108DEF83CC1AB
:1007B00053D0B1F1004F50D2B8F1000FC8BF0022A2
:1007C00019DD00BF0BFA02F905EA090A00EA090976
:1007D0004AEA490939FA02F909D0C2F1000A49EA9C
:1007E000060903EB8A0A09FA0AF949EA0C0C521CB9
:1007F000B8F10108E6D1002FCEF83CC104BF03B028
:10080000BDE8F08F009B019A1F1D521E072904EBC3
:100810008208D8F83C213CBFC1F10703002117D260
:10082000C1F107040BFA04FC05EA0C0900EA0C0C00
:1008300049EA4C0C3CFA04FC07D04CEA060C07EBE6
:1008400081040CFA04FC4CEA0202491C5B1EE7D14D
:10085000C8F83C2103B0BDE8F08F0BFA02F805EAB6
:10086000080900EA080849EA480838FA02F805D0F9
:1008700048EA060808FA03F848EA0C0C521C1B1F49
:100880008A42EAD9B7E701EB80032DE9F00193F83A
:100890003C3101EB800601F2144491F8252103F06C
:1008A0000F0312F0010F224601EBC005D6F83C0100
:1008B000E35C05F234513ED000F0F00C03F030035D
:1008C0000B7002EB1C1500F4706400F4704302EB33
:1008D000142C2C7802EB133304F0300881F80180DB
:1008E0009CF800C000F4702700F4700500F07066FA
:1008F0000CF0300C81F802C002EB174402EB1555E6
:1009000002EB166602EB10701A7802F03002CA7021
:10091000227802F030020A712A7802F030024A711D
:10092000327802F030028A71007800F03000C8712D
:10093000BDE8F001704700F0F00C0B7000F470643B
:1009400002EB1C1C00F4704302EB14249CF800C062
:1009500000F4702502EB133381F801C000F4700736
:1009600002EB154C257800F070668D7002EB175481
:1009700002EB166602EB10701A78CA709CF8002021
:100980000A7122784A7132788A710078CFE70000C4
:10099000F0B504466368002B01DA0020F0BD04F1D5
:1009A00008050022591C0EE0491E00276E5C06EB6C
:1009B00002220A48B2FBF0F0C7B20848B2FBF0FCD2
:1009C00000FB1C226F540029EEDC01E05B1E63601B
:1009D000E85C0028FAD01046E0E700008096980016
:1009E000F0B502465668002E01DA0020F0BD13680B
:1009F00002F108050021741C07E0641E2F5D0C48FD
:100A0000784301EBC0112955090A9C42F5DC01E04D
:100A1000761E5660A85D0028FAD003E05B1EE954FC
:100A2000090A136009B1002BF8DC0846DEE7000074
:100A30002D3101007047000010B5FFF7FBFF0020CB
:100A40000E4908600E48006820F030000C4908602C
:100A500006F0D0FE07F03CF800BF00BF00BFBFF3B8
:100A60004F8F00BF00BF00BF00BF00BF00BFBFF37C
:100A70006F8F00BF00BF00BF10BD000008ED00E099
:100A80004C44025804460D462A462146024800F0CE
:100A90000EFB00BFFEE70000381401202DE9F041F5
:100AA00007460C4615462E46234604486FF00701BC
:100AB0000268304602F0B6FCBDE8F08190130020D9
:100AC0002DE9F04107460C4615462E4623460448BC
:100AD0006FF007010268304602F0A4FCBDE8F08127
:100AE000901300202DE9F04107460C4615462E468E
:100AF000234604486FF007010268304602F092FC7A
:100B0000BDE8F0819013002002460B469420C058A7
:100B1000805C704702460B469420C058805C70474A
:100B200010B502460B4603F1D000C2F3822450F800
:100B30002400C2F30904005D10BD10B513469424CF
:100B4000E458605410BD10B513469424E458605422
:100B500010BD30B5134603F1D004C1F3822554F81B
:100B60002540C1F30905605530BD000010B5024AAB
:100B700050681168884710BDC0070020014A5160C5
:100B800010607047C007002010B5024A5068116815
:100B9000884710BDC8070020014A516010607047A7
:100BA000C807002010B5024A50681168884710BD78
:100BB000D0070020014A516010607047D007002024
:100BC00010B5024A50681168884710BDD807002048
:100BD000014A516010607047D807002010B5024AE2
:100BE00050681168884710BDE0070020014A516035
:100BF00010607047E007002010B5024A5068116885
:100C0000884710BDE8070020014A51601060704716
:100C1000E807002010B5024A50681168884710BDE7
:100C2000F0070020014A516010607047F007002073
:100C300010B5024A50681168884710BDF8070020B7
:100C4000014A516010607047F807002010B5024A51
:100C500050681168884710BD58080020014A51604B
:100C6000106070475808002010B5024A506811689B
:100C7000884710BD00080020014A5160106070478D
:100C80000008002010B5024A50681168884710BD5E
:100C900008080020014A51601060704708080020D1
:100CA00010B5024A50681168884710BD100800202E
:100CB000014A5160106070471008002010B5024AC8
:100CC00050681168884710BD18080020014A51601B
:100CD000106070471808002010B5024A506811686B
:100CE000884710BD20080020014A516010607047FD
:100CF0002008002010B5024A50681168884710BDCE
:100D000028080020014A5160106070472808002020
:100D100010B5024A50681168884710BD300800209D
:100D2000014A5160106070473008002010B5024A37
:100D300050681168884710BD38080020014A51608A
:100D40001060704738080020704770B5044625468B
:100D50009C20405928B19C2250594FF4D1625159DE
:100D6000884770BD70B5044625469C20405928B17F
:100D70009C2250594FF4D1625159884770BD704739
:100D80002DE9F04F81468C469046D9E900456FF039
:100D9000004A05EA0A0A4FF0000E84EA0E008AEAC9
:100DA0000E0A50EA0A0007D1CCF800008246C8F8C3
:100DB00000A0C8F804A04CE02F48224605EA000332
:100DC00040F2FF7A0AEA1551401281422BD14FF0CE
:100DD000000A504682EA0A0A58405AEA000A11D12B
:100DE0004FF0004A002005EA0A0A834640408AEA9A
:100DF0000B0A50EA0A0003D06FF00100BDE8F08F43
:100E00000220FBE74FF4002A002003EA0A0A834687
:100E100040408AEA0B0A50EA0A0001D1001FEDE7C0
:100E20006FF00200EAE731B940F2FE30091A3439B6
:100E300016461F4608E040F2FF30091A34394FF4D5
:100E40008010164643EA0007C8E90067CCF8001096
:100E500000BF4FF0004A4FF0000005EA0A0A83463F
:100E600080EA00008AEA0B0A50EA0A0002D04FF03A
:100E7000FF30C3E70120C1E7FFFF0F0010B5024AB2
:100E800050681168884710BD7008002010B5024AEC
:100E900050681168884710BD8008002010B5024ACC
:100EA00050681168884710BDB008002010B5024A8C
:100EB00050681168884710BD8808002010B5024AA4
:100EC00050681168884710BD9008002010B5024A8C
:100ED00050681168884710BD9808002010B5024A74
:100EE00050681168884710BDA008002010B5024A5C
:100EF00050681168884710BDA80800202DE9F74FF9
:100F000088B00646304603F0D1FF099805680A9973
:100F1000D1E9007815F1400F16DD002D0CDA05F14E
:100F2000400238464146CDE90487FFF75DFA07469F
:100F300088466FF03F0507E0902030604FF0FF30AB
:100F400070600BB0BDE8F08F6D42403D072005EAB0
:100F5000000A4FEAE50B06F1080000EB0B09002040
:100F6000039000241CE0C4F10700C200384641464B
:100F7000CDE90687FFF73DFAC0B20190019840FA2B
:100F80000AF00290DDE90201084389F80000CAF185
:100F9000080101988840C0B2039009F10109641C5E
:100FA000082CE0D3039889F8000006F108095C4694
:100FB00000E0641C902C03DA19F804000028F8D033
:100FC00034600BF1080400E0641E002C03DB19F808
:100FD00004000028F8D0746000BFB2E72DE9F74F95
:100FE00088B00546284603F061FF099806680A980C
:100FF000D0E90078002E14DA16F13F0F07DA9020BE
:1010000028604FF0FF3068600BB0BDE8F08F72428F
:1010100038464146CDE90487FFF7EBF90746884695
:101020000026072006EA000A4FEAE60B05F1080051
:1010300000EB0B090020039000241AE0E200384680
:101040004146CDE90687FFF7D4F9C0B20290029875
:1010500000FA0AF0C1B2019101990398084389F896
:101060000000CAF1080102980841039009F1010942
:10107000641C082CE2D3039889F8000005F10809E4
:101080005C4600E0641C902C03DA19F80400002888
:10109000F8D02C600BF1080400E0641E002C03DB88
:1010A00019F804000028F8D06C6000BFACE730B538
:1010B00003460020002A42D100241C6051F8205031
:1010C0005D61401C51F820509D61401C51F820503A
:1010D000DD61401C51F820501D62401C51F8205029
:1010E0005D62401C51F820509D62401C51F8205018
:1010F000DD62401C51F820501D63401C51F8204017
:101100005C60401C51F820509D60401C51F82050FC
:10111000DD60401C51F820501D61401C51F82050EA
:101120005D63401C51F820409C63401C51F82040F6
:10113000DC63401C51F820401C64401CD8E04FF098
:10114000FF341C6051F820505D61401C51F8205064
:101150009D61401C51F82050DD61401C51F8205029
:101160001D62401C51F820505D62401C51F8205017
:101170009D62401C51F82050DD62401C51F8205007
:101180001D63401C51F820508424E550401C51F848
:1011900020508824E550401C51F820508C24E55004
:1011A000401C51F820509024E550401C51F820502C
:1011B0009424E550401C51F820509824E550401CE0
:1011C00051F820509C24E550401C51F82050A02498
:1011D000E550401C51F82050A424E550401C51F823
:1011E0002050A824E550401C51F82050AC24E55074
:1011F000401C51F82050B024E550401C51F82050BC
:10120000B424E550401C51F82050B824E550401C4F
:1012100051F82050BC24E550401C51F82050C02407
:10122000E550401C51F820405C60401C51F82050B3
:101230009D60401C51F82050DD60401C51F820504A
:101240001D61401C51F820505D63401C51F8204046
:101250009C63401C51F82040DC63401C51F8204046
:101260001C64401C51F820405C64401C51F8205024
:101270009D64401C51F82050DD64401C51F8205002
:101280001D65401C51F820505D65401C51F82050F0
:101290009D65401C51F82050DD65401C51F82050E0
:1012A0001D66401C51F820505D66401C51F82050CE
:1012B0009D66401C51F82050DD66401C51F82050BE
:1012C0001D67401C51F820505D67401C51F82050AC
:1012D0009D67401C51F82050DD67401C51F820509C
:1012E0008024E550401C51F82040C3F8C440401C05
:1012F00030BD70B50A460178442901D0642906D171
:1013000046781673801C4FF0FF36966003E0117329
:10131000401C002696600023002506782D2E01D162
:10132000401C5D1E017807E003EB83067300A1F10A
:1013300030063344401C0178302901DB3929F3DDC4
:1013400005B15B4206782E2E10D1401C0024017896
:1013500007E004EB84067400A1F130063444401C1D
:101360000178302903DB3929F3DD00E0062413601E
:10137000546070BDF0B50A460024002607782D2F72
:1013800001D1401C661E017807E004EB84077C0055
:10139000A1F130073C44401C0178302901DB392998
:1013A000F3DD06B1644207782E2F10D1401C0023D4
:1013B000017807E003EB83077B00A1F130073B4492
:1013C000401C0178302903DB3929F3DD00E00623D6
:1013D000146053600025017802E06D1C401C017808
:1013E0004C29FAD06C29F8D0012D03DD4FF0FF37DE
:1013F000976001E000279760442901D0642902D159
:101400004927177300E01173F0BD2DE9F041044640
:101410000D4626462F463946304601F078FF3046C5
:1014200001F0DDFF0744D6F88C80B0208059A0EB96
:101430000800C0F387303870BDE8F0812DE9F04135
:10144000054688462E4644462146304601F05FFF59
:10145000304601F0C4FF044496F8B000207096F8BE
:10146000B100607096F8B200A07096F8B300E0701A
:1014700096F8B400207196F8B5006071002705E079
:1014800006F1B600C15DB81D21547F1C082FF7DBA3
:10149000BDE8F08110B50024C460046102604360BF
:1014A000012906D002290FD0042918D008292CD1EF
:1014B00020E004248460174C4461174C8461174C6D
:1014C000C461174C046222E002248460154C44611C
:1014D000154C8461154CC461154C046217E001245D
:1014E0008460144C4461144C8461144CC461144CE9
:1014F00004620CE001248460124C4461124C84614B
:10150000124CC461124C046201E000BFFEE700BF50
:1015100010BD0000B3160000E51700001116000012
:1015200085150000211A0000371B00009B190000E0
:101530002F190000171D0000E91D0000AF1C00005E
:10154000651C0000811F000095200000191F00008D
:10155000CF1E000010B504462046216A884710BD02
:1015600070B504460D4629462046E269904770BD95
:1015700070B504460D461646324629462046636934
:10158000984770BD38B501460A694C688B68A51A42
:101590009D4210DA00220D68A81800BF05788DF86A
:1015A000005045788DF8015085788DF80250C57847
:1015B0008DF8035023E00D68A81800BF05788DF85A
:1015C000005045788DF8015085788DF80250C57827
:1015D0008DF8035000BF009D9D4210DA00220D6877
:1015E000A81800BF05788DF8005045788DF8015097
:1015F00085788DF80250C5788DF8035000BF009DA6
:101600002A44A24202D100250D6100E00A6138BDE2
:10161000F8B502460D46136956689468D068176994
:10162000B84242D0F01AA04212DA00230020106122
:101630001068C11800BF08788DF8000048788DF850
:10164000010088788DF80200C8788DF8030025E045
:101650001068C11800BF08788DF8000048788DF830
:10166000010088788DF80200C8788DF8030000BF6B
:101670000098A04212DA0023002010611068C118FF
:1016800000BF08788DF8000048788DF80100887850
:101690008DF80200C8788DF8030000BF0098001B89
:1016A00028601F1910683844F8BD0020286000BF6A
:1016B000FAE72DE9F74381B003468846DC681E69E6
:1016C000D3F804C09D68039828440390B44201DA1B
:1016D000371B04E0ACEB0407B74200DA3746039847
:1016E000874204DC4FF0FF3004B0BDE8F083ACEB80
:1016F00004000090DDF80C900098484526DA009828
:10170000A84211DB196821440020009000BF9DF819
:10171000000008709DF8010048709DF80200887074
:101720009DF80300C87000BF196800BF9DF80C0049
:1017300008709DF80D0048709DF80E0088709DF8A7
:101740000F00C87000BF2944002410E0196821442C
:1017500000BF9DF80C0008709DF80D0048709DF8C2
:101760000E0088709DF80F00C87000BF29444246E3
:101770000398401B009014E00098083800901078FF
:1017800008705078487090788870D078C870107958
:1017900008715079487190798871D079C871083191
:1017A000083200980728E7DC08E00098801E0090C7
:1017B0001078087050784870891C921C0098012895
:1017C000F3DC0098002801DD1078087003982044AD
:1017D000604502D10020D86002E003982044D86020
:1017E000002081E72DE9FF4781B004468C469146F1
:1017F000E3682669D4F80480A568681CDDF810A0A9
:1018000050440490B34201DAF71A04E0A8EB03074E
:10181000B74200DA37460498874204DC4FF0FF30C5
:1018200005B0BDE8F087A8EB03000090DDF810A03C
:10183000009850452ADA0098A84211DB2168194423
:101840000020009000BF9DF8000008709DF8010086
:1018500048709DF8020088709DF80300C87000BFB2
:10186000216800BF9DF8100008709DF811004870B5
:101870009DF8120088709DF81300C87000BF2944BD
:101880009CF800000870491C002314E021681944EA
:1018900000BF9DF8100008709DF8110048709DF879
:1018A000120088709DF81300C87000BF29449CF88E
:1018B00000000870491C4A460498401B401E0090D6
:1018C00014E000980838009010780870507848703C
:1018D00090788870D078C870107908715079487104
:1018E00090798871D079C87108310832009807283A
:1018F000E7DC08E00098801E0090107808705078AF
:101900004870891C921C00980128F3DC009800287C
:1019100001DD1078087004981844404502D1002079
:10192000E06002E004981844E060002078E738B5F1
:10193000026944688368A51A9D420BDA0022056893
:1019400005EB420100BF0D88ADF800504D88ADF8A1
:10195000025019E0056805EB420100BF0D88ADF8A3
:1019600000504D88ADF8025000BF009D9D420BDA3B
:101970000022056805EB420100BF0D88ADF800505C
:101980004D88ADF8025000BF009D2A44A24202D10A
:101990000025056100E0026138BDF8B502460D463C
:1019A000136956689468D0681769B84234D0F01A41
:1019B000A0420DDA002300201061106800EB430103
:1019C00000BF0888ADF800004888ADF802001BE0B1
:1019D000106800EB430100BF0888ADF8000048889C
:1019E000ADF8020000BF0098A0420DDA00230020ED
:1019F0001061106800EB430100BF0888ADF80000DB
:101A00004888ADF8020000BF0098001B28601F192D
:101A1000106800EB4700F8BD0020286000BFFAE71F
:101A20002DE9F74381B003468846DC681E69D3F888
:101A300004C09D68039828440390B44201DA371B20
:101A400004E0ACEB0407B74200DA3746039887425C
:101A500004DC4FF0FF3004B0BDE8F083ACEB0400D1
:101A60000090DDF80C90009848451CDA0098A842D8
:101A70000CDB196801EB44010020009000BFBDF8A9
:101A800000000880BDF80200488000BF196800BF50
:101A9000BDF80C000880BDF80E00488000BF01EBC7
:101AA000450100240CE0196801EB440100BFBDF8BA
:101AB0000C000880BDF80E00488000BF01EB450116
:101AC00042460398401B009014E0009808380090AC
:101AD000108808805088488090888880D088C88086
:101AE000108908815089488190898881D089C8816E
:101AF0001031103200980728E7DC08E00098801EBB
:101B000000901088088050884880091D121D009898
:101B10000128F3DC0098002801DD10880880039874
:101B20002044604502D10020D86002E003982044A0
:101B3000D86000208FE72DE9FF4781B004468C462E
:101B40009146E3682669D4F80480A568681CDDF82E
:101B500010A050440490B34201DAF71A04E0A8EB55
:101B60000307B74200DA37460498874204DC4FF097
:101B7000FF3005B0BDE8F087A8EB03000090DDF86A
:101B800010A00098504520DA0098A8420CDB21688C
:101B900001EB43010020009000BFBDF80000088069
:101BA000BDF80200488000BF216800BFBDF81000EA
:101BB0000880BDF81200488000BF01EB4501BCF869
:101BC00000000880891C002310E0216801EB43011C
:101BD00000BFBDF810000880BDF81200488000BFAB
:101BE00001EB4501BCF800000880891C4A460498B6
:101BF000401B401E009014E00098083800901088A8
:101C000008805088488090888880D088C880108953
:101C100008815089488190898881D089C881103194
:101C2000103200980728E7DC08E00098801E00903A
:101C30001088088050884880091D121D00980128CE
:101C4000F3DC0098002801DD10880880049818440F
:101C5000404502D10020E06002E004981844E060B2
:101C6000002086E770B50169456884686E1AA6424F
:101C700006DA0021066806EB810200BF13680EE059
:101C8000066806EB810200BF136800BFA34206DAB4
:101C90000021066806EB810200BF136800BF1944EB
:101CA000A94202D10026066100E0016170BDF0B5D5
:101CB00002460E46136957689468D068D2F810C07F
:101CC000604524D0F81AA04208DA002300201061F1
:101CD000106800EB830100BF0D6810E0106800EB96
:101CE000830100BF0D6800BFA54208DA0023002071
:101CF0001061106800EB830100BF0D6800BF281B56
:101D0000306003EB040C106800EB8C00F0BD002089
:101D1000306000BFFAE72DE9F04703468A461446D3
:101D2000DE68D3F810C0D3F804909F683C44664541
:101D300002DAACEB060804E0A9EB0608E04500DA9D
:101D4000E046A04503DC4FF0FF30BDE8F087A9EB8B
:101D50000605A54210DABD4206DB196801EB8601D3
:101D6000002500BF0D6000BF196800BF0C6000BFF8
:101D700001EB8701002607E0196801EB860100BF2F
:101D80000C6000BF01EB87015246E51B12E0083DE5
:101D9000106808605068486090688860D068C860C3
:101DA000106908615069486190698861D069C861AB
:101DB00020312032072DEADC06E0AD1E10680860F5
:101DC0005068486008310832012DF6DC002D01DD35
:101DD000106808603019484502D10020D86001E041
:101DE0003019D8600020B0E72DE9F04F044689464D
:101DF0009246E668D4F810C0D4F804B0A768781CFE
:101E00000344664502DAACEB060804E0ABEB0608D7
:101E1000E04500DAE046984503DC4FF0FF30BDE8CE
:101E2000F08FABEB06059D4214DABD4206DB21685C
:101E300001EB8601002500BF0D6000BF216800BFD7
:101E40000B6000BF01EB8701D9F800000860091D95
:101E500000260BE0216801EB860100BF0B6000BF8C
:101E600001EB8701D9F800000860091D5246D81B14
:101E7000451E12E0083D1068086050684860906890
:101E80008860D068C86010690861506948619069CD
:101E90008861D069C86120312032072DEADC06E074
:101EA000AD1E106808605068486008310832012D86
:101EB000F6DC002D01DD10680860F018584502D1ED
:101EC0000020E06001E0F018E0600020A7E770B5B6
:101ED0000169456884686E1AA64206DA0021066820
:101EE00006EBC10200BF13680EE0066806EBC102F4
:101EF00000BF136800BFA34206DA0021066806EBA4
:101F0000C10200BF136800BF1944A94202D10026D4
:101F1000066100E0016170BDF0B502460E4613692E
:101F200057689468D068D2F810C0604524D0F81A79
:101F3000A04208DA002300201061106800EBC30102
:101F400000BF0D6810E0106800EBC30100BF0D6812
:101F500000BFA54208DA002300201061106800EBE2
:101F6000C30100BF0D6800BF281B306003EB040CE9
:101F7000106800EBCC00F0BD0020306000BFFAE735
:101F80002DE9F04F03468A461446DE68D3F810C0A8
:101F9000D3F804909F683C44664502DAACEB06082F
:101FA00004E0A9EB0608E04500DAE046A04503DCC2
:101FB0004FF0FF30BDE8F08FA9EB0605A54210DA1F
:101FC000BD4206DB196801EBC601002500BF0D60AC
:101FD00000BF196800BF0C6000BF01EBC7010026FD
:101FE00007E0196801EBC60100BF0C6000BF01EB00
:101FF000C7015246E51B2AE0083DD2E9000B086004
:10200000C1F804B0D2E902B0C1F808B0C860D2E9A2
:1020100004B0C1F810B04861D2E9060B8861C1F87C
:102020001CB0D2E908B0C1F820B04862D2E90A0B6E
:102030008862C1F82CB0D2E90CB0C1F830B0486366
:10204000D2E90E0B8863C1F83CB040314032072D15
:10205000D2DC0CE0AD1ED2E9000B0860C1F804B080
:10206000D2E902B0C1F808B0C86010311032012DB9
:10207000F0DC002D04DDD2E9000B0860C1F804B0EB
:102080003019484502D10020D86001E03019D860ED
:1020900000208FE72DE9F04F044689469646E66812
:1020A000D4F810C0D4F804A0A768781C034466458F
:1020B00002DAACEB060804E0AAEB0608E04500DA19
:1020C000E046984503DC4FF0FF30BDE8F08FAAEB07
:1020D00006059D4216DABD4206DB216801EBC6010A
:1020E000002500BF0D6000BF216800BF0B6000BF6E
:1020F00001EBC701D9E9000B0860C1F804B0083151
:1021000000260DE0216801EBC60100BF0B6000BF97
:1021100001EBC701D9E9000B0860C1F804B0083130
:102120007246D81B451E2AE0083DD2E9000B086024
:10213000C1F804B0D2E9020B8860C1F80CB0D2E952
:10214000040B0861C1F814B0D2E906B0C1F818B0A8
:10215000C861D2E908B0C1F820B04862D2E90A0BE0
:102160008862C1F82CB0D2E90C0B0863C1F834B016
:10217000D2E90E0B8863C1F83CB040314032072DE4
:10218000D2DC0CE0AD1ED2E900B0C1F800B048606E
:10219000D2E902B0C1F808B0C86010311032012D88
:1021A000F0DC002D04DDD2E9000B0860C1F804B0BA
:1021B000F018504502D10020E06001E0F018E06026
:1021C000002082E710B5034608686FF30F0010B1D6
:1021D0004FF0FF3010BD088880B20860186818B949
:1021E00000204861196017E01A68108880B20C68F6
:1021F000A04202D16FF00100ECE708E052691088BC
:1022000080B20C68A04202D16FF00100E2E7506991
:102210000028F3D1486151610020DBE710B50024AC
:102220008460036144600160C26010BD70B5054602
:10223000286800B970BD2C684EE0228890B22169F0
:1022400088470646206800F0004058B3B6B1002029
:10225000A060E06800283EDD6068A968884202DA74
:102260006068401C6060E1686068884233D1236820
:1022700043F48021D5E9032090472CE0A068401C5E
:10228000A060A0686968884225DD206820F00040D1
:1022900020600020A060236843F40031D5E90320CA
:1022A000904718E0AEB100206060A068401CA060BC
:1022B000A068696888420EDD206840F00040206018
:1022C0000020A060236843F48031D5E903209047C3
:1022D00001E00020A0606469002CAED100BFA9E736
:1022E00030B5039C0025056041608260C3600461D5
:1022F00030BD00002DE9F05F85690446FE4F6FF0A8
:10230000090CAEB241F6215106F1040043F6412218
:1023100080B245F2637315F0004F04D08E4239D875
:10232000814251D241E08E4202D881424CD23CE0FF
:10233000964202D8824247D230E09E4202D883427F
:1023400042D232E047F285418E4210D881423BD2E0
:10235000A0F5E84045F44005A0F1860080B215F0F4
:10236000804F31D1A18A41F40061A1822CE0D4F8E0
:1023700070562046C4F890C6FEF740F802F07EFB87
:102380003968324603F0B6FF02F064FB6FF00900D3
:10239000A847FEE7964204D8824215D245F440058C
:1023A00012E09E4204D883420ED245F400050BE0B1
:1023B00049F2A1118E427ED8814205D2A0F511408A
:1023C000A23880B245F44005CC49E369002205EA11
:1023D000010C94F829104CEA0006A661180CC3F30E
:1023E0000A0CBCF1020F28BF9B1E0AD2CCF10103DC
:1023F000C31A9BB2491E01F0070184F8291003EBB0
:10240000004394F82AC0E361012794F820301CF0BF
:10241000FF0FBB4E18BF07280BD906EB931007FA26
:1024200001F10078084204D094F8240010F0100F55
:1024300054D0E16A94F839000B0CC1F30A0CBCF1DA
:10244000020F28BF891E0AD2CCF10101591A89B2A4
:10245000401E00F0070084F8390001EB034194F8B6
:102460003AC0E16294F830101CF0FF0F18BF072B40
:102470000BD906EB911307FA00F01B78034204D046
:1024800094F8340010F0100F30D0E16B94F8440051
:102490000B0C032B39D210F00F0F53D010F0800F1C
:1024A0002DD080280CBF0020401E00D0C0B284F880
:1024B000440047E0FFE7D4F870562046C4F890C6C1
:1024C000FDF79CFF02F0DAFA3968324603F012FF9A
:1024D00002F0C0FA6FF00900A847FEE713F0100FF2
:1024E00014BF03F00F0294F82820A2E711F0100F98
:1024F00014BF01F00F0094F838000244C5E70F281C
:1025000014BF401C8F20D1D1D1E7C1F30A0CBCF11C
:10251000040F28BF091F14D2CCF10301A3EB010162
:1025200089B210F00F0F01EB034136D010F0800F8D
:102530003ED080280CBF0020401E00D0C0B284F8DE
:102540004400E1634FF4706CE36C0CEA002CB4F8C7
:1025500056104CEA0208C3F30A00022828BF981E4E
:1025600016D21A0C94F85130C0F10100101A80B242
:1025700000EB0240002B4FEA81320CBF82EA41326D
:1025800082EA012202F4804242EA5101A4F8561084
:1025900011F0010FE06425D110E094F8403013F001
:1025A0007F0F1CBF94F8423013F0FF0FBED1C8E775
:1025B0000F2814BF401C8F20C0D1C0E794F85800EA
:1025C00010F0FF0F0ED094F8500010F0100F0CBF59
:1025D00094F8540000F00F004FF4702101EA00401D
:1025E00040EA0808206E94F871600027C0F30A01E1
:1025F000022928BFA0F1020A58D2020C94F87030C8
:10260000C1F1010194F86F00511A89B201EB024A3D
:1026100043B910F0010F33D07E2E03D2B11CCEB2DD
:1026200084F8716094F86E10400884F86F000229F5
:1026300024BF481E84F86E0038D2B4F86800082120
:1026400084F86E10002804BFFF2084F870002DD09D
:10265000B4F866B0401E1FFA80F9A4F86890D4F868
:10266000F0202146584690470BF1010184F86F0095
:10267000B9F1000F41F40040A4F8660007D013E060
:10268000012ECFD9B11ECEB284F87160CAE794F89A
:10269000640010F0400F7DD0B4F86C00B4F86A10FC
:1026A000A4F86800A4F8661084F870704FF0FE403B
:1026B00000EA0660C4F860A040EA080111F01F00BB
:1026C0000CD0104B00EBC0024FF4FE5C00FB03F398
:1026D00002EB00100CEB800093FBF0F00A4A0A407A
:1026E00027D00A4EC1F30343C1F303224FF6E96C2E
:1026F000090E03FB06F30BE09813002000003FFFD8
:10270000580D002043F02F00000F0F7F49AD02004D
:10271000C94E02FB0CFC01FB06F103EB8C03DFF856
:102720001C836FF00042194492FBF1F1643198FB75
:10273000F1F21318A26FD4E91F105B1A1B0493FB6C
:10274000F2F200281144E167C4BF401EC4F88000C3
:102750000CDC0920C4F88000D4E92102FF2822F80B
:1027600010101CBF401CC4F884001BD015F4000FCF
:102770006FD094F827000F2100B394F8200084F85C
:10278000277000F00F0084F8281000BF84F826009E
:102790002DE0FFE710F0800F86D0A08A40F4806023
:1027A000A08281E7C4F884704FF48072D4F8783640
:1027B000D4F88810D4F854069847D7E794F8260040
:1027C000002818BF401EE1D194F8202094F828007A
:1027D00002F00F0384F8263000281CBF401E84F846
:1027E000280004D112F0200F18BF84F8281094F8A4
:1027F000370050B194F8300084F8377000F00F00C3
:1028000084F8381084F8360018E094F83600002870
:1028100018BF401EF6D194F8302094F8380002F02A
:102820000F0384F8363000281CBF401E84F838009F
:1028300004D112F0200F18BF84F83810B4F840000B
:1028400010F0800F06D020F07F02C0F30620104366
:1028500005E033E010F07F0F1CBF401E80B210F483
:10286000004F08BF20F0800094F85320A4F84000E7
:102870005AB194F8500084F8537000F00F0084F8B7
:10288000541000BF84F8520018E094F85200002859
:1028900018BF401EF6D194F8502094F8540002F06E
:1028A0000F0384F8523000281CBF401E84F85400E7
:1028B00004D112F0200F18BF84F8541015F4800FC3
:1028C00008BFBDE8F09F94F8742012F0010F0AD001
:1028D00094F8200010F0200F05D1608D10F0FF0F4C
:1028E0001CBF401E6085A08C20F4FD6121F4F041E6
:1028F000B1F5004F20D1E369618C6FF31A430829C9
:1029000043EA0143E36138BF40F01000030A13F0CB
:10291000080F03F0070327D0002B04BF00216184B8
:102920000AD021FA03F3DB43194489B26184B1F57B
:10293000006F28BF40F0100010F0070F05D010F016
:10294000080F04BF401E80B204D020F00F01C0F376
:1029500002300843A08412F0020F10D094F8300027
:1029600010F0200F05D00AE021FA03F3194489B2D0
:10297000DCE7608F10F0FF0F1CBF401E6087A08E49
:1029800020F4FD6121F4F041B1F5004F18D000BFF3
:1029900010F0070F05D010F0080F04BF401E80B2E2
:1029A00004D020F00F01C0F302300843A08612F0DB
:1029B000040F2AD0B4F8400010F4004F1DD024E0DA
:1029C000E36A618E6FF31A43082943EA0143E36225
:1029D00038BF40F01000030A13F0080F03F007039C
:1029E00021FA03F30CBF1944C91A89B26186B1F503
:1029F000006F28BF40F01000CAE7B4F8420010F0A2
:102A0000FF0F1CBF401EA4F8420012F0080F08BFC1
:102A1000BDE8F09F94F8500010F0200F18BFBDE8FB
:102A2000F09FB4F8580010F0FF0F1CBF401EA4F830
:102A30005800BDE8F09F00008D7201007EE44F0059
:102A4000A0F58042153A1CBF000A70478A8A002010
:102A500012F4806F18BF802012F4006F18BF40F08E
:102A60004000B1F8683022F400628A82002B18BF5F
:102A700040F0100091F8582012F0FF0F18BF40F0FE
:102A8000080091F8422012F0FF0F18BF40F0040038
:102A900091F83A2012F0FF0F18BF40F0020091F8B1
:102AA0002A1011F0FF0F18BF40F00100704700001E
:102AB000034B01F01F0153F8213011461847000065
:102AC0007C0D00202DE9F041D1F84C8682B0D1F880
:102AD0006C560C46064600BFD4F87C16D4F8540653
:102AE0008847A4F846062046B047D4F87C16D4F8A8
:102AF00054068847A4F846062046B0476946404633
:102B0000A8470028E8D10198072844D2DFE800F060
:102B10004404164343283300009F20463946FDF7FE
:102B200072FCD4F8082107F5C57120469047D4F807
:102B300064266946D4F85006904726E0009F204658
:102B40003946FDF765FCD4F80C2107F5C571204620
:102B50009047D4F864266946D4F85006904714E0AC
:102B6000009869460068C4F83C06D4F86426D4F896
:102B70005006904709E0009869460068C4F840068E
:102B8000D4F86426D4F85006904769464046A847D2
:102B90000028B8D0A0E7FEE7D4F870560020C4F8AB
:102BA00090062046FDF72AFC01F068FF04A103F01F
:102BB000A1FB01F04FFF0020A84702B0BDE8F08163
:102BC0000D0A485F4E45533AE7BABFE7A88BE6AD1A
:102BD000A3E5B8B8E98080E587BA0D0A00000000D7
:102BE00004460020A4F8460684F8440684F8450606
:102BF00084F848062046FDF710FC2046FDF712FC3D
:102C00002046FDF714FCD4F88006012809D00228DC
:102C100004BF2146054806D0032804BF21460448C6
:102C200001D004482146FFF74DFFFEE7D9420000DE
:102C30004D340000953B00002DE9F04107460C465D
:102C4000B7F5804F6FD207F00705042D7AD0072D16
:102C50007ED1B4F8285105F47C50B0F57C5F07D1E3
:102C600005F01F0104F21440465C84F834611AE058
:102C700094F83461C5F30D00B0F5005F0BD304F593
:102C80008A70C5F3812150F82100C5F30901415C28
:102C900084F8341107E0C5F30D00FC210A592146E0
:102CA000904784F83401D4F8300120B194F825011C
:102CB00000F0180090B94FF49270005D00F004002D
:102CC00028B9681CC0F30D01A4F8281137E005F1FC
:102CD0002000C0F30D01A4F8281130E005F01F001A
:102CE0001F2805D14FF6E070284080F4806501E090
:102CF000681C85B205F4E040B0F5E04F1AD1C5F389
:102D00000B05C5F34418B8F11D0F05D14FF61F4050
:102D1000284080F4006510E0B8F11F0F06D14FF68F
:102D20001F40054009E028E00CE011E005F120001B
:102D300085B202E005F5805085B2A4F828513046EE
:102D4000BDE8F08194F8271104F23440405CF7E7C5
:102D5000022D0AD104F59270465D26F0800141559E
:102D6000002184F82D113046EAE7042D01DD3812E8
:102D7000E6E704F59270405DE2E744F21600874210
:102D800019D14FF4C960005D00F0010048B140F274
:102D90004660065D84F8446606F0010040F040009D
:102DA000CEE794F84466701084F8440606F00100FB
:102DB00040F04000C4E744F2170087421BD14FF4B3
:102DC000C960005D00F0010058B140F24660005B50
:102DD000061240F24560065506F0010040F0400042
:102DE000AEE740F24560065D7110015506F0010046
:102DF00040F04000A4E721463846FFF721FE9FE758
:102E00002DE9F04106460F46144644F2140087426D
:102E100007D13002E082A08A40F00100A082BDE824
:102E2000F081B7F5804F7CD207F00705082D79D2E5
:102E3000DFE805F0D8EBF0EC8A90B804B4F828513C
:102E400005F47C50B0F57C5F1BD105F0030080B920
:102E500006F03F0105F01F0204F21440815406F011
:102E60003F0105F01F0080F0100204F2144081546D
:102E70001EE006F03F0105F01F0204F214408154E9
:102E800016E0C5F30D00B0F5005F09D304F58A70B4
:102E9000C5F3812150F82100C5F30901465407E02C
:102EA000C5F30D014FF48070035922463046984710
:102EB000D4F8300120B194F8250100F0180090B941
:102EC0004FF49270005D00F0040028B9681CC0F354
:102ED0000D01A4F8281136E005F12000C0F30D0122
:102EE000A4F828112FE005F01F001F2805D14FF688
:102EF000E070284080F4806501E0681C85B205F42C
:102F0000E040B0F5E04F19D1C5F30B05C5F3441807
:102F1000B8F11D0F07D14FF61F40284080F400651F
:102F20000FE079E076E0B8F11F0F03D14FF61F40B4
:102F3000054006E005F1200085B202E005F580506D
:102F400085B2A4F8285166E094F8271104F23440C1
:102F5000465460E094F82D0178B9FF2184F82D11D2
:102F6000B4F82A0120F01F0040EAE601A4F82A1173
:102F700006F0070184F82C1113E0002184F82D11CC
:102F8000B4F82A0147F2E03188434FF4E04101EA06
:102F9000063108434FF4787101EA86010143A4F831
:102FA0002A1138E094F82D0170B9FF2184F82D1111
:102FB000B4F82A0120F4FE414FF47C5000EA0620C8
:102FC0000143A4F82A110CE0002184F82D11B4F873
:102FD0002A0120F0FF0040EA0605A4F82A51A4F8CF
:102FE000285118E0B4F82A1166F38B21A4F82A11AD
:102FF00006F0800040B194F8260100F0800018B17E
:10300000A08A40F48070A08200BF00BF04F59270D7
:10301000465500E000BF19E044F21600874210D187
:1030200006F007064FF4C960065506F0010068B1C6
:1030300040F24660055B84F844562912401E015553
:1030400004E0224639463046FFF732FD00BFE6E68F
:1030500070B505462C46A020005910B16FF0010054
:1030600070BD1C49AC20015190200059B0F5004FB3
:1030700009D21949F42001511849F0200151184989
:10308000F820015108E01749F42001511649F020B9
:1030900001511649F82001519820005920B91449CE
:1030A0004FF48070015103E012494FF480700151D8
:1030B0001149FC200151204600F091F94FF4827132
:1030C00008510E49C4F808110D49C4F80C1100202C
:1030D000C6E70000490D00001D7700007D74000068
:1030E0009573000089770000E17400000974000006
:1030F0003B0B00009D0A0000090B00000F3300008D
:103100007333000070B505462C46A02000590028F6
:1031100010DA4FF40051A02001514FF40050D4F8C0
:10312000841688479C2108519C20005910B96FF0E3
:10313000030070BDB020D4F88C10015190200059CC
:10314000A0F58040D4F88C100144C4F8B41015499F
:10315000AC2001511449F42001511449F0200151CF
:103160001349F82001519820005920B911494FF412
:103170008070015103E010494FF4807001510F49F4
:10318000FC200151204600F02AF9401C4FF48271C6
:1031900008510B49C4F808110A49C4F80C11002061
:1031A000C7E700004B0D000045750000C571000029
:1031B0009D720000470B0000C10A0000150B0000C3
:1031C0000B140000D569000070B506463446A020F7
:1031D0000059002810DA4FF40051A02001514FF49B
:1031E0000050D4F8841688479C2108519C2000592F
:1031F00010B96FF0030070BD002184F8B01084F89E
:10320000B11084F8B21084F8B31084F8B41084F8C4
:10321000B510002504E0002104F1B60041556D1CF5
:10322000082DF8DB90200059A0F50050D4F88C1040
:103230000144C4F8CC10204603F054FC1649AC20DD
:1032400001511649F42001511549F0200151154949
:10325000F82001519820005920B913494FF480708B
:10326000015103E011494FF4807001511049FC20D5
:103270000151204600F0B3F80E304FF4827108512E
:103280000C49C4F808110C49C4F80C110B49C4F8D6
:1032900010110020AFE70000650D0000B5750000BB
:1032A0003172000019730000530B0000E50A0000A2
:1032B000210B00003D1400000F6A0000896A000025
:1032C0002DE9F04704460D4616461F4600BFD4F8C8
:1032D0007086C4F890562046FDF790F800BF01F0C4
:1032E000CDFB82463A46314603F004F8814601F0B0
:1032F000B1FB00BF2846C04700BFBDE8F08770B5EE
:103300000546AC2044590CB12846A04770BDF0B525
:1033100005460E462B463246002103E01F697F5CBE
:103320005754491CB1F5006FF8DB02F5006200212B
:1033300004E0D3F834767F5C5754491CB1F5805FC4
:10334000F7DB02F58052A027F8589C27FC5802E0D2
:10335000401E275C17540028FADC0244A827F858BE
:10336000A427FC5802E0401E275C17540028FADC12
:10337000F0BDF0B505460E462B463246002105E06D
:10338000575CD3F810C00CF80170491CB1F5006F00
:10339000F6DB02F50062002106E012F801C0D3F866
:1033A000347607F801C0491CB1F5805FF5DB02F502
:1033B0008052A027F8589C27FC5802E0401E175C5A
:1033C00027540028FADC0244A827F858A427FC5800
:1033D00002E0401E175C27540028FADCF0BD0146CD
:1033E0000A46A020805800F5C050A8239B581844D6
:1033F0007047000070B505460C462E46FF2C0CD8D1
:10340000074850F8240010B96FF0020070BD04485E
:1034100050F8241030468847F8E76FF00200F5E7CF
:103420007C0F00202DE9F0478046894614461D4652
:1034300000BF01F023FB07462A46214602F05AFF4F
:10344000064601F007FB00BFBDE8F0872DE9F04F0D
:103450000446D0F8380183B00028D4F840A6D4F848
:10346000108114BF00204FF0FF302146C4F838010E
:103470000520FCF7E1FF00254FF01F092820214619
:10348000FCF7DAFF94F8250110F0180F17D010F0B0
:10349000080F03D0A81C2146FDF73CF92146284619
:1034A000FDF7F1F9B4F8280139EA000107BF20F06F
:1034B0001F0080F48060401C80B2A4F828016D1CBD
:1034C0001E2DDBD328202146FCF7B6FF94F82501FA
:1034D00010F0180F16D010F0080F1CBF2046FDF793
:1034E000ADF821461E20FDF7CEF9B4F8280139EADF
:1034F000000107BF20F01F0080F48060401C80B2F4
:10350000A4F8280128202146FCF796FF94F825010D
:1035100010F0180F1BD01F202146FDF7B4F9B4F8A6
:1035200028014FF4E04181431CBF00F5805080B278
:1035300034D000BFB4F82A1120F01F0020F48060BE
:1035400021F4DF5121F460410843A4F8280114203C
:103550002146FCF771FF94F82501214610F0180F61
:1035600071D0002003F078FBB8F1000F064604BFCD
:1035700021464FF4A07062D094F82401BAF1000FF4
:10358000009004DD0AEB8A002146FCF755FF009805
:10359000CAF1400710F0100F17D110E0C0F30B0074
:1035A000C0F344111D2904BF20F4787080F400603A
:1035B000C0D01F290CBF20F478702030BAE716F075
:1035C000010F02D021465846C047002F04DD2820B5
:1035D0002146083FFCF730FF5FF0000526FA05F0B2
:1035E00000F00300022802D121465846C047002FB0
:1035F00004DD28202146083FFCF71EFF6D1C062D28
:10360000ECDB0220B0EB961F02D121465846C047A2
:10361000002F04DD28202146083FFCF70DFF16F09F
:10362000800F06D1009810F0100F02D021465846A6
:10363000C047002FC4BF07EB870021460EDDFCF713
:10364000FBFE0BE0FFE74FF4A070FCF7F5FE3F2216
:103650004FF4807104F23450FCF7F3FED4F8743662
:10366000002204F23451D4F854069847142021461D
:10367000FCF7E2FE802104F59E70FCF7E7FE94F86B
:10368000251111F0180F13D011F0080F03D00020EE
:103690002246FCF70DFFB4F8280139EA000107BF04
:1036A00020F01F0080F48060401C80B2A4F8280144
:1036B00028202146FCF7C0FE94F8251111F0180FC0
:1036C00013D011F0080F03D001202246FCF7F0FEC2
:1036D000B4F8280139EA000107BF20F01F0080F488
:1036E0008060401C80B2A4F8280114202146FCF719
:1036F000A3FE0AEB8A004FF0010B01900520214642
:10370000FCF79AFE002521462820FCF795FE94F848
:10371000256116F0180F22D016F0080F03D0A81C50
:103720002146FCF7F7FF16F0100F1CBF06F004004F
:1037300050EA05002146284602D004F001FC01E0D1
:10374000FDF7A1F8B4F8280139EA000107BF20F01D
:103750001F0080F48060401C80B2A4F828016D1C1A
:103760001E2DD0D328202146FCF766FE94F8255163
:1037700015F0180F1DD015F0080F1CBF2046FCF7E0
:103780005DFF15F0100F21464FF01E0002D004F02F
:10379000D7FB01E0FDF777F8B4F8280139EA00011A
:1037A00007BF20F01F0080F48060401C80B2A4F8A6
:1037B000280128202146FCF73FFE94F8250110F04F
:1037C000180F22D010F0100F21464FF01F0002D02A
:1037D00004F0B6FB01E0FDF756F8B4F828014FF409
:1037E000E04181431CBF00F5805080B233D000BF60
:1037F000B4F82A1120F01F0020F4806021F4DF517A
:1038000021F460410843A4F8280114202146FCF764
:1038100013FE94F82501214610F0180F6ED058467B
:1038200003F01AFAB8F1000F064604BF21464FF420
:10383000A07060D094F82401BAF1000F009003DD6D
:1038400001982146FCF7F8FD0098CAF1400510F0F8
:10385000100F17D110E0C0F30B00C0F344111D2965
:1038600004BF20F4787080F40060C1D01F290CBF21
:1038700020F478702030BBE716F0010F02D021460B
:103880005846C047002D04DD28202146083DFCF79E
:10389000D3FD002726FA07F000F00300022802D12A
:1038A00021465846C047002D04DD28202146083D0A
:1038B000FCF7C2FD7F1C062FECDB0220B0EB961F4D
:1038C00002D121465846C047002D04DD282021465C
:1038D000083DFCF7B1FD16F0800F06D1009810F0FE
:1038E000100F02D021465846C047002DC4BF05EB3B
:1038F000850021460DDDFCF79FFD0AE04FF4A07026
:10390000FCF79AFD3F224FF4807104F23450FCF72B
:1039100098FDD4F8743604F23451D4F854065A465B
:10392000984714202146FCF787FD802104F59E70FE
:10393000FCF78CFD94F8251111F0180F13D011F03D
:10394000080F03D000202246FCF7B2FDB4F828018E
:1039500039EA000107BF20F01F0080F48060401C9E
:1039600080B2A4F8280128202146FCF765FD94F8D0
:10397000251111F0180F13D011F0080F03D00120FA
:103980002246FCF795FDB4F8280139EA000107BF8B
:1039900020F01F0080F48060401C80B2A4F8280151
:1039A00014202146FCF748FD0BF1010BBBF1F00F91
:1039B000FFF4A4AE0020C4F8300175482146FCF79E
:1039C0003BFD94F82601D4F83C5640F0800084F882
:1039D0002601002D04DD05EB85002146FCF72CFDBA
:1039E00094F8240110F0800F03D0A08A40F4807076
:1039F000A08241F6A420401B002804DD00EB8000DB
:103A00002146FCF719FD94F826114FF0FF30C4F859
:103A1000300140F2145021F0E00184F826112146D3
:103A2000FCF70AFD94F8250110F0180F3BD0B4F80C
:103A300028014FF4E04181431CBF00F5805080B263
:103A40001CD000BFB4F82A1120F01F0020F48060C1
:103A500021F4DF5121F46041B8F1000F40EA010088
:103A6000A4F828011FD094F8240100F03801082997
:103A70001CBF00F03000202811D014E0C0F30B0070
:103A8000C0F344111D2904BF20F4787080F4006055
:103A9000D8D01F290CBF20F478702030D2E72146FF
:103AA00040F20510C047DC202146FCF7C5FC94F825
:103AB000250110F0180F0ED0B4F82801B4F82A111F
:103AC00020F4DF5021F01F0120F4C04021F4044114
:103AD0000843A4F8280164202146FCF7ADFC94F8C3
:103AE000250110F0180F18BFB8F1000F09D094F895
:103AF000240100F03800102803D1214640F20510BF
:103B0000C04714202146FCF797FC802104F59E70E5
:103B1000FCF79CFC94F8251111F0180F13D011F04C
:103B2000080F03D000202246FCF7C2FCB4F828019D
:103B300039EA000107BF20F01F0080F48060401CBC
:103B400080B2A4F8280128202146FCF775FC94F8DF
:103B5000251111F0180F13D011F0080F03D0012018
:103B60002246FCF7A5FCB4F8280139EA000107BF9A
:103B700020F01F0080F48060401C80B2A4F828016F
:103B800003B021461420BDE8F04FFCF755BC0000FF
:103B9000B05301002DE9F04F0446D0F8380183B04E
:103BA0000028D4F840A6D4F810811CBF0020C4F827
:103BB000380107D14FF0FF302146C4F83801042006
:103BC000FCF749FC00254FF01F0920202146FCF797
:103BD00042FC94F8250110F0180F17D010F0080FD0
:103BE00003D0A81C2146FCF795FD21462846FCF78A
:103BF0004AFEB4F8280139EA000107BF20F01F008F
:103C000080F48060401C80B2A4F828016D1C1E2D39
:103C1000DBD320202146FCF71EFC94F8250110F090
:103C2000180F16D010F0080F1CBF2046FCF706FD39
:103C300021461E20FCF727FEB4F8280139EA0001CE
:103C400007BF20F01F0080F48060401C80B2A4F801
:103C5000280120202146FCF7FEFB94F8250110F0F6
:103C6000180F1AD01F202146FCF70DFEB4F82801CA
:103C70004FF4E04181431CBF00F5805080B233D047
:103C8000B4F82A1120F01F0020F4806021F4DF51E5
:103C900021F460410843A4F8280110202146FCF7D4
:103CA000DAFB94F82501214610F0180F70D000209F
:103CB00002F0D2FFB8F1000F064604BF21464FF4D0
:103CC000807061D094F82401BAF1000F009004DDF7
:103CD0004FEA8A002146FCF7BEFB0098CAF1400774
:103CE00010F0100F17D110E0C0F30B00C0F3441117
:103CF0001D2904BF20F4787080F40060C0D01F2913
:103D00000CBF20F478702030BAE716F0010F02D013
:103D100021465846C047002F04DD20202146083F99
:103D2000FCF799FB5FF0000526FA05F000F00300B0
:103D3000022802D121465846C047002F04DD20202A
:103D40002146083FFCF787FB6D1C062DECDB0220AB
:103D5000B0EB961F02D121465846C047002F04DD24
:103D600020202146083FFCF776FB16F0800F06D195
:103D7000009810F0100F02D021465846C047002F7F
:103D8000C4BFB80021460EDDFCF765FB0BE0FFE782
:103D90004FF48070FCF75FFB3F224FF4807104F218
:103DA0003450FCF74EFBD4F87436002204F2345140
:103DB000D4F85406984710202146FCF74CFB80218C
:103DC00004F59E70FCF742FB94F8251111F0180FD2
:103DD00013D011F0080F03D000202246FCF768FB37
:103DE000B4F8280139EA000107BF20F01F0080F471
:103DF0008060401C80B2A4F8280120202146FCF7F6
:103E00002AFB94F8251111F0180F13D011F0080FA8
:103E100003D001202246FCF74BFBB4F8280139EA15
:103E2000000107BF20F01F0080F48060401C80B2BA
:103E3000A4F8280110202146FCF70DFB4FEA8A0068
:103E40004FF0010B019004202146FCF704FB0025F4
:103E500021462020FCF7FFFA94F8256116F0180F90
:103E600022D016F0080F03D0A81C2146FCF752FC04
:103E700016F0100F1CBF06F0040050EA05002146A2
:103E8000284602D004F05CF801E0FCF7FCFCB4F832
:103E9000280139EA000107BF20F01F0080F480608C
:103EA000401C80B2A4F828016D1C1E2DD0D3202008
:103EB0002146FCF7D0FA94F8255115F0180F1DD0C3
:103EC00015F0080F1CBF2046FCF7B8FB15F0100FCB
:103ED00021464FF01E0002D004F032F801E0FCF75A
:103EE000D2FCB4F8280139EA000107BF20F01F0016
:103EF00080F48060401C80B2A4F828012020214674
:103F0000FCF7A9FA94F8250110F0180F21D010F051
:103F1000100F21464FF01F0002D004F011F801E00D
:103F2000FCF7B1FCB4F828014FF4E04181431CBF19
:103F300000F5805080B232D0B4F82A1120F01F0072
:103F400020F4806021F4DF5121F460410843A4F89B
:103F5000280110202146FCF77EFA94F8250121461D
:103F600010F0180F70D0584602F076FEB8F1000F2E
:103F7000064604BF21464FF4807061D094F82401B6
:103F8000BAF1000F009003DD01982146FCF763FAB7
:103F90000098CAF1400510F0100F18D111E0C0F3DD
:103FA0000B01C1F344101D2804BF21F4787080F484
:103FB0000060C1D01F280CBF21F4787001F12000EF
:103FC000BAE716F0010F02D021465846C047002D2F
:103FD00004DD20202146083DFCF73DFA5FF0000794
:103FE00026FA07F000F00300022802D121465846C5
:103FF000C047002D04DD20202146083DFCF72BFAA8
:104000007F1C062FECDB0220B0EB961F02D121466D
:104010005846C047002D04DD20202146083DFCF70E
:104020001AFA16F0800F06D1009810F0100F02D087
:1040300021465846C047002DC4BFA80021460EDDCA
:10404000FCF709FA0BE0FFE74FF48070FCF703FA86
:104050003F224FF4807104F23450FCF7F2F9D4F8A7
:10406000743604F23451D4F854065A469847102056
:104070002146FCF7F0F9802104F59E70FCF7E6F983
:1040800094F8251111F0180F13D011F0080F03D078
:1040900000202246FCF70CFAB4F8280139EA0001A6
:1040A00007BF20F01F0080F48060401C80B2A4F89D
:1040B000280120202146FCF7CEF994F8251111F0B3
:1040C000180F13D011F0080F03D001202246FCF77F
:1040D000EFF9B4F8280139EA000107BF20F01F000A
:1040E00080F48060401C80B2A4F828011020214692
:1040F000FCF7B1F90BF1010BBBF1F00FFFF4A3AE2C
:1041000000202146C4F830014FF4AB60FCF7A3F95E
:1041100094F82601D4F83C5640F0800084F826013B
:10412000002D03DDA8002146FCF795F994F8240141
:1041300010F0800F03D0A08A40F48070A08241F676
:10414000A420401B002803DD80002146FCF783F9F2
:1041500094F826114FF0FF30C4F830014FF482601C
:1041600021F0E00184F826112146FCF774F994F857
:10417000250110F0180F3AD0B4F828014FF4E041AF
:1041800081431CBF00F5805080B21BD0B4F82A11C7
:1041900020F01F0020F4806021F4DF5121F4604101
:1041A000B8F1000F40EA0100A4F828011FD094F8EC
:1041B000240100F0380108291CBF00F0300020283D
:1041C00011D014E0C0F30B00C0F344111D2904BF4B
:1041D00020F4787080F40060D8D01F290CBF20F440
:1041E00078702030D2E7214640F20510C047B02059
:1041F0002146FCF730F994F8250110F0180F0ED085
:10420000B4F82801B4F82A1120F4DF5021F01F017E
:1042100020F4C04021F404410843A4F828015020B0
:104220002146FCF718F994F8250110F0180F18BF73
:10423000B8F1000F09D094F8240100F038001028DC
:1042400003D1214640F20510C04710202146FCF75B
:1042500002F9802104F59E70FCF7F8F894F8251116
:1042600011F0180F13D011F0080F03D000202246D0
:10427000FCF71EF9B4F8280139EA000107BF20F065
:104280001F0080F48060401C80B2A4F82801202028
:104290002146FCF7E0F894F8251111F0180F13D01F
:1042A00011F0080F03D001202246FCF701F9B4F801
:1042B000280139EA000107BF20F01F0080F4806068
:1042C000401C80B2A4F8280103B021461020BDE8AC
:1042D000F04FFCF7C0B800002DE9F04F0446D0F8CD
:1042E000380183B00028D4F840A6D4F8108114BF58
:1042F00000204FF0FF302146C4F838010520FCF7BC
:10430000AFF800254FF01F0928202146FCF7A8F838
:1043100094F8250110F0180F17D010F0080F03D0F3
:10432000A81C2146FCF7F6F921462846FCF7ABFA13
:10433000B4F8280139EA000107BF20F01F0080F41B
:104340008060401C80B2A4F828016D1C1E2DDBD3B8
:1043500028202146FCF784F894F8250110F0180F66
:1043600016D010F0080F1CBF2046FCF767F9214655
:104370001E20FCF788FAB4F8280139EA000107BFCB
:1043800020F01F0080F48060401C80B2A4F8280157
:1043900028202146FCF764F894F8250110F0180F46
:1043A0001BD01F202146FCF76EFAB4F828014FF409
:1043B000E04181431CBF00F5805080B234D000BF83
:1043C000B4F82A1120F01F0020F4806021F4DF519E
:1043D00021F460410843A4F8280114202146FCF789
:1043E0003FF894F82501214610F0180F71D00020F5
:1043F00002F032FCB8F1000F064604BF21464FF42C
:10440000A07062D094F82401BAF1000F009004DD8E
:104410000AEB8A002146FCF723F80098CAF140070E
:1044200010F0100F17D110E0C0F30B00C0F34411CF
:104430001D2904BF20F4787080F40060C0D01F29CB
:104440000CBF20F478702030BAE716F0010F02D0CC
:1044500021465846C047002F04DD28202146083F4A
:10446000FBF7FEFF5FF0000526FA05F000F0030001
:10447000022802D121465846C047002F04DD2820DB
:104480002146083FFBF7ECFF6D1C062DECDB0220FC
:10449000B0EB961F02D121465846C047002F04DDDD
:1044A00028202146083FFBF7DBFF16F0800F06D1DE
:1044B000009810F0100F02D021465846C047002F38
:1044C000C4BF07EB870021460EDDFBF7C9FF0BE0F9
:1044D000FFE74FF4A070FBF7C3FF3F224FF480715A
:1044E00004F23450FBF7ADFFD4F87436002204F226
:1044F0003451D4F85406984714202146FBF7B0FFF6
:10450000802104F59E70FBF7A1FF94F8251111F0AE
:10451000180F13D011F0080F03D000202246FBF72C
:10452000C7FFB4F8280139EA000107BF20F01F00D7
:1045300080F48060401C80B2A4F828012820214625
:10454000FBF78EFF94F8251111F0180F13D011F01E
:10455000080F03D001202246FBF7AAFFB4F8280178
:1045600039EA000107BF20F01F0080F48060401C82
:1045700080B2A4F8280114202146FBF771FF0AEB52
:104580008A004FF0010B019005202146FBF768FFE0
:10459000002521462820FBF763FF94F8256116F0DB
:1045A000180F22D016F0080F03D0A81C2146FCF7E4
:1045B000B1F816F0100F1CBF06F0040050EA050019
:1045C0002146284602D003F0BBFC01E0FCF75BF972
:1045D000B4F8280139EA000107BF20F01F0080F479
:1045E0008060401C80B2A4F828016D1C1E2DD0D321
:1045F00028202146FBF734FF94F8255115F0180FB9
:104600001DD015F0080F1CBF2046FCF717F815F059
:10461000100F21464FF01E0002D003F091FC01E084
:10462000FCF731F9B4F8280139EA000107BF20F09E
:104630001F0080F48060401C80B2A4F8280128206C
:104640002146FBF70DFF94F8250110F0180F22D03A
:1046500010F0100F21464FF01F0002D003F070FC45
:1046600001E0FCF710F9B4F828014FF4E041814370
:104670001CBF00F5805080B233D000BFB4F82A11BF
:1046800020F01F0020F4806021F4DF5121F460410C
:104690000843A4F8280114202146FBF7E1FE94F812
:1046A0002501214610F0180F6ED0584602F0D4FABA
:1046B000B8F1000F064604BF21464FF4A07060D049
:1046C00094F82401BAF1000F009003DD019821460F
:1046D000FBF7C6FE0098CAF1400510F0100F17D185
:1046E00010E0C0F30B00C0F344111D2904BF20F4F7
:1046F000787080F40060C1D01F290CBF20F478705E
:104700002030BBE716F0010F02D021465846C047C3
:10471000002D04DD28202146083DFBF7A1FE0027DF
:1047200026FA07F000F00300022802D1214658467D
:10473000C047002D04DD28202146083DFBF790FEF0
:104740007F1C062FECDB0220B0EB961F02D1214626
:104750005846C047002D04DD28202146083DFBF7C0
:104760007FFE16F0800F06D1009810F0100F02D0D7
:1047700021465846C047002DC4BF05EB85002146A1
:104780000DDDFBF76DFE0AE04FF4A070FBF768FE4D
:104790003F224FF4807104F23450FBF752FED4F8FC
:1047A000743604F23451D4F854065A46984714200B
:1047B0002146FBF755FE802104F59E70FBF746FE6F
:1047C00094F8251111F0180F13D011F0080F03D031
:1047D00000202246FBF76CFEB4F8280139EA0001FC
:1047E00007BF20F01F0080F48060401C80B2A4F856
:1047F000280128202146FBF733FE94F8251111F0FB
:10480000180F13D011F0080F03D001202246FBF738
:104810004FFEB4F8280139EA000107BF20F01F005D
:1048200080F48060401C80B2A4F828011420214646
:10483000FBF716FE0BF1010BBBF1F00FFFF4A4AE7A
:1048400000202146C4F8300140F2AE60FBF708FEBC
:1048500094F82601D4F83C5640F0800084F82601F4
:10486000002D04DD05EB85002146FBF7F9FD94F8EA
:10487000240110F0800F03D0A08A40F48070A08241
:1048800045F63E50401B002804DD00EB8000214629
:10489000FBF7E6FD94F826114FF0FF30C4F8300125
:1048A00040F2145021F0E00184F826112146FBF774
:1048B000D7FD94F8250110F0180F3AD0B4F828016C
:1048C0004FF4E04181431CBF00F5805080B21BD003
:1048D000B4F82A1120F01F0020F4806021F4DF5189
:1048E00021F46041B8F1000F40EA0100A4F828016A
:1048F0001FD094F8240100F0380108291CBF00F0F3
:104900003000202811D014E0C0F30B00C0F3441194
:104910001D2904BF20F4787080F40060D8D01F29CE
:104920000CBF20F478702030D2E7214640F2051009
:10493000C047DC202146FBF793FD94F8250110F0D9
:10494000180F0ED0B4F82801B4F82A1120F4DF5063
:1049500021F01F0120F4C04021F404410843A4F8D1
:10496000280164202146FBF77BFD94F8250110F017
:10497000180F18BFB8F1000F09D094F8240100F007
:104980003800102803D1214640F20510C0471420FA
:104990002146FBF765FD802104F59E70FBF756FD6F
:1049A00094F8251111F0180F13D011F0080F03D04F
:1049B00000202246FBF77CFDB4F8280139EA00010B
:1049C00007BF20F01F0080F48060401C80B2A4F874
:1049D000280128202146FBF743FD94F8251111F00A
:1049E000180F13D011F0080F03D001202246FBF757
:1049F0005FFDB4F8280139EA000107BF20F01F006D
:104A000080F48060401C80B2A4F8280103B02146E5
:104A10001420BDE8F04FFBF723BD000010B50020C7
:104A20000A494860FBF721FD084908600848016809
:104A30004FF480608847054988600846006810B1D7
:104A40000846806808B900BFFEE710BD2C1401209D
:104A50001027039010B5044607484068A04201DAC9
:104A60000548446004498868214601F07DFF0249F9
:104A7000086800F0EDFC10BD2C14012010B50349AE
:104A8000086800F03BFC0148806810BD2C14012030
:104A9000F8B516460D460446C06800F025FC2068AF
:104AA0006946FCF75DFD10B100992960F8BD002E44
:104AB00008BF002109DAE06800F044FB206869467D
:104AC000FCF74EFD0028EFD1FEE7EED0E06831465E
:104AD00000F09CFB20686946FCF742FD002808BFF7
:104AE0004FF0FF31E1D0DFE710B504460068FCF776
:104AF0003FFD002818BF10BDE068BDE8104000F081
:104B0000B1BAD0F810C060472DE9F84F044680686C
:104B10004FF000099A460090164665680F46C84651
:104B20000246964214DC324629463846FBF7A2FC80
:104B30000099A81908EB0605891B00910ABF206897
:104B40006060FCF707FD0098A0602846BDE8F88F7C
:104B5000002A1ADD29463846FBF78CFC0098361AE5
:104B6000074480442068FCF7F5FC00226946204693
:104B7000FFF78EFF050003D000980028F2D0CFE7A2
:104B80004046C4F80890BDE8F88F52466946204672
:104B9000FFF77EFF054608E02068FCF7DBFC0022FB
:104BA00069462046FFF774FF05461DB100980028AE
:104BB000B6D1F1E74FF0FF30C4F80890BDE8F88FA8
:104BC0002DE9F84F044680684FF000099A4600909E
:104BD000164665680F46C8460246964215DC3246C0
:104BE00029463846FBF74BFC009905EB460008EBDD
:104BF0000605891B00910ABF20686060FCF7AAFCCB
:104C00000098A0602846BDE8F88F002A1BDD2946E1
:104C10003846FBF734FC0098361A07EB400780440F
:104C20002068FCF797FC002269462046FFF730FF1A
:104C3000050003D000980028F2D0CDE74046C4F824
:104C40000890BDE8F88F524669462046FFF720FFDE
:104C5000054608E02068FCF77DFC002269462046F6
:104C6000FFF716FF05461DB100980028B4D1F1E703
:104C70004FF0FF30C4F80890BDE8F88F2DE9F84FE9
:104C8000044680684FF000099A4600901646656811
:104C90000F46C8460246964215DC3246294638463B
:104CA000FBF7F2FB009905EB860008EB0605891B74
:104CB00000910ABF20686060FCF74CFC0098A0607F
:104CC0002846BDE8F88F002A1BDD29463846FBF749
:104CD000DBFB0098361A07EB800780442068FCF75E
:104CE00039FC002269462046FFF7D2FE050003D0BA
:104CF00000980028F2D0CDE74046C4F80890BDE8FF
:104D0000F88F524669462046FFF7C2FE054608E086
:104D10002068FCF71FFC002269462046FFF7B8FE1A
:104D200005461DB100980028B4D1F1E74FF0FF30DF
:104D3000C4F80890BDE8F88F2DE9F84F0446806864
:104D40004FF000099A460090164665680F46C8461F
:104D50000246964215DC324629463846FBF799FB57
:104D6000009905EBC60008EB0605891B00910ABFF8
:104D700020686060FCF7EEFB0098A0602846BDE864
:104D8000F88F002A1BDD29463846FBF782FB009886
:104D9000361A07EBC00780442068FCF7DBFB0022D3
:104DA00069462046FFF774FE050003D000980028EE
:104DB000F2D0CDE74046C4F80890BDE8F88F5246DF
:104DC00069462046FFF764FE054608E02068FCF7C8
:104DD000C1FB002269462046FFF75AFE05461DB179
:104DE00000980028B4D1F1E74FF0FF30C4F80890E4
:104DF000BDE8F88F0068FFF777BE406801F0D0B9D2
:104E00000068FFF77EBE406801F006BA0FB42DE9D6
:104E1000F04786B0814610A805904F460F9C0025AC
:104E200034E003E020787855641C6D1C20787B28E2
:104E300002D020780028F5D1207800B929E0641C40
:104E4000A0464FF0000A267803E00AF1010A641C2C
:104E500026787D2E01D0002EF7D1207800B918E0F9
:104E6000641CBAF1000F11DD01A94046FCF741FABC
:104E70009DF810600C4850F8260038B178190A499E
:104E800051F8263005AA01A9984705442078002842
:104E9000C7D100BF002005907855284606B0BDE870
:104EA000F0075DF814FB00001C27039010B50246C4
:104EB00002F10800122113E0083900240460446064
:104EC0008460C460046144618461C46104624462BA
:104ED0008462C4620023036343638463C463403019
:104EE0000829E9DA04E0491E00240460446008301F
:104EF0000029F8DC10BD0000F0B4584B4FF0FF362D
:104F0000D3F800C0CCF8046041680022544D4FF043
:104F1000805461B1CCF80420DCF80C0000281CBFE0
:104F2000CCF80C202C604FF0FF30F0BC704746608E
:104F3000016800297DD0D1F800C0BCF1010F03D079
:104F4000BCF1030F42D0FEE70A600260D1F814C042
:104F50008869BCF1000F12BFCCF818001F68F86513
:104F6000002818BFC0F814C00A611868D0F83CC007
:104F70000B6CDCF840709F421BDAD0F840C0CE6169
:104F8000BCF1000F11D0466C9E42D8BF436C436405
:104F90004A61C1F818C0CCF8141001644260C168BD
:104FA00000291CBFC2602C600DE043644A618A6125
:104FB000F3E7CA614A61C1F818C0CCF81410C163A4
:104FC0004260C2602C600020F0BC70470A60026042
:104FD000D1F814C08869BCF1000F12BFCCF81800DA
:104FE0001F68786538B1C0F814C0D0F848C08F6C1D
:104FF000BC44C0F848C00A611868D0F83CC00B6CCB
:10500000DCF840709F42D4DAD0F840C0CE61BCF1E9
:10501000000F13D0466C9E42D8BF436C43644A6174
:10502000C1F818C0CCF8141001644260C1680029AE
:1050300000E007E01CBFC2602C60C4E743644A6123
:105040008A61F1E7CCF80420DCF80C0000281CBFD2
:10505000CCF80C202C600020F0BC704748090020E0
:1050600004ED00E0F0B4416800291EBF4FF0FF30AE
:10507000F0BC70474FF0FF3343600168002919BF4F
:105080000F68002F0020F0BC08BF70474FF00106EA
:10509000012F4FF000024FF08054284DDFF8A0C0E0
:1050A00002D0032F23D0FEE70A600260DCF8000084
:1050B000D0F870C0BCF1000F08D0836541680029AA
:1050C00014BFC3602C600020F0BC70470667D0F8A6
:1050D00068C0C66EB44518BF0267EED1BCF1000FC0
:1050E00007BF01668366416682660267E6E70A607B
:1050F0000260DCF80000D0F884C0BCF1000F08D0DA
:1051000003654168002914BFC3602C600020F0BC17
:105110007047C0F88460D0F87CC0D0F88060B44597
:1051200018BFC0F88420EBD1BCF1000F07BF416766
:10513000C3678167C267C0F88420E2E704ED00E03E
:10514000480900202DE9F0472E4F05460026386813
:10515000016809684C68696800293DD14FF0FF3843
:10516000C0F804804FF00109C4F800906564C4F8E9
:10517000108060693868A169C1634E61026C3AB100
:10518000096C436C994203DD0664104600F018FF79
:105190003968C86DA0616661002818BF4461CC659C
:1051A0002C60686800281CBF2868002806D026608C
:1051B0002E603868016F91B1C0F858803968C1F825
:1051C00010804E60CE604FF080500F4A106008692A
:1051D0000028FCD1686898B16E60BDE8F087C0F81F
:1051E0007090816EC26E914218BF0667E4D10029AB
:1051F00007BF0466C0F86880446686660667DDE718
:10520000FEE700004809002004ED00E02DE9F0472A
:10521000334F0546894600263868016809684C689E
:10522000696800293CD1B9F1010F54DB4FF0FF3818
:10523000C0F80480032020606564C4F810806069B1
:105240003868A169C1634E61026C3AB1096C436C64
:10525000994203DD0664104600F0B2FE494620463E
:1052600000F07EFE2C60686800281CBF28680028BB
:1052700008D026602E603868D0F88410A9B100BF2D
:10528000C0F850803868C0F810804660C6604FF0A3
:105290008051144A116001690029FCD16868D0B1BD
:1052A0006E604FF00000BDE8F0874FF00101C0F8DC
:1052B0008410C16FD0F88020914218BFC0F884607C
:1052C000DED1002907BF4467C0F87C808467C667C9
:1052D000C0F88460D6E74FF0FF30BDE8F0870000EB
:1052E0004809002004ED00E0416800290FBF4FF09D
:1052F000FF30002141600020704700002DE9F05F81
:10530000514F80463868016809684C684FF0FF3992
:10531000C0F80490D8F800500026DFF830B14FF004
:10532000805A7DB1A5421CD1D8F80810491CC8F894
:1053300008104660C16800291CBFC660CBF800A0F9
:10534000BDE8F09FC8F80040206CC8F80400386839
:105350004660C16800291CBFC660CBF800A0BDE84C
:10536000F09F01202060C4F810906069A16938683E
:10537000C1634E61026C3AB1096C436C994203DD22
:105380000664104600F01CFE226CD8F80C000028C1
:1053900004BF6661A66115D0016C91420FDA816984
:1053A00049B10846096C9142F9DB4169A06161612C
:1053B0008C61446108E0A6616061846104E066611B
:1053C000A0614461C8F80C40286C90421BDD2A643F
:1053D0002869C0B9C5F81090E86900B33968086C4D
:1053E0000E6400F0EDFD6969A869002906BF3A68FE
:1053F000D063886141612E613968C86BEE616E616E
:10540000A8614561CD633868C0F810904660C660F9
:10541000CBF800A001690029FCD1BDE8F09F6869C4
:10542000A969002812BF81613A68D16348613A686E
:10543000106C0028DFD0096C536C9942C4BF16640D
:1054400000F0BEFDD7E700004809002004ED00E0B1
:105450002DE9F05FDFF858810746D8F800000168B1
:1054600009684C683968A14218BFBDE8F09FB96867
:1054700000291EBF481EB860BDE8F09F4FF0FF39FD
:10548000C0F80490FD680026DFF828B14FF0805A7C
:10549000002D2ED07968226C21648A4251DAC4F83A
:1054A0001090E169002930D0016C0664084600F0D4
:1054B00087FD6069A169002806BFD8F80020D16384
:1054C000816148612661D8F80000C26B216C136CC1
:1054D0008B4231DA026CC4F81C90002A28D0436C4D
:1054E0008B42D8BF416C41646661A261546104641F
:1054F00027E03E60D8F800004660C16800291CBF64
:10550000C660CBF800A0BDE8F09F6269A169002ADF
:1055100014BF9161C1634A61026C002AD2D0096C48
:10552000436C9942CEDD0664104600F049FDC9E7A0
:1055300041646661A661DAE7E6616661A261546171
:10554000C4632E603D60286C7860A869002818BF8D
:105550004661F8602E61D8F80000C26B296C136CAC
:105560008B4219DA026CC5F81C908AB1436C8B42ED
:10557000D8BF416C41646E61AA61556105644660A3
:10558000C16800291CBFC660CBF800A0BDE8F09F31
:1055900041646E61AE61F1E7EE616E61AA615561D1
:1055A000C5634660C660CBF800A0BDE8F09F000070
:1055B0004809002004ED00E02DE9F04104464FF0D9
:1055C000FF37364D3E46286846604FF00108A06818
:1055D000C4F808802069006800F0FBF8DFF8C0C05C
:1055E0004FF080534FF0000158B1A160286841602E
:1055F000C268002A1CBFC160CCF800303846BDE844
:10560000F0810027A16061602268002AF6D010684E
:1056100000283AD0012802D003281BD0FEE71160F1
:1056200021602868046F2CB186654160C160CCF8A8
:105630000030E3E7C0F87080846EC56EAC4218BFDE
:105640000167F1D1002C07BF02668666426681665B
:105650000167EAE7116021602868D0F884400CB146
:105660000665E2E7C0F88480C46FD0F88050AC4291
:1056700018BFC0F88410F3D1002C07BF4267C6677B
:105680008267C167C0F88410EBE728684160C26890
:10569000002A1CBFC160CCF80030AFE748090020E9
:1056A00004ED00E02DE9F047DFF8F4A00546894657
:1056B0004FF0FF38DAF80000006800684468C5F869
:1056C00004800027EE68002E0CDD2869761E49460E
:1056D00050F8260000F0D6F8002808BFBDE8F08793
:1056E000002EF2DCDAF80000C0F804800126266003
:1056F0006564C4F810806069A069DAF80010C863B6
:1057000047610A6C3AB1006C4B6C984203DD0F6440
:10571000104600F055FCDAF80010C86DA061676112
:10572000002818BF4461CC652C60686850B92868AF
:1057300040B127602F60DAF80000016F01B300BFAD
:10574000C0F85880DAF80000C0F810804760C760E1
:105750004FF08051134A116001690029FCD1EC68B7
:10576000002C0CDD2869641E494650F8240000F026
:1057700089F8002808BFBDE8F087002CF2DCFEE7BE
:105780000667816EC26E914218BF0767D8D10029A3
:1057900007BF0466C0F86880446687660767D1E77C
:1057A0004809002004ED00E070B5C4680E460546C7
:1057B000002C0BDD2869641E314650F8240000F0EF
:1057C00061F8002808BF70BD002CF3DC4FF0FF30FB
:1057D00070BD70B4D0F808C0C2689445B8BFA2EBE1
:1057E0000C0203DB0369A3EB0C031A44012ADEBF9E
:1057F0004FF0FF3070BC7047D0E90023072B0CFB43
:1058000003221DDD5D420124EE1705EB5675ED10F8
:105810006D4213E00E7816704E7856708E78967042
:10582000CE78D6700E7916714E7956718E79967142
:10583000CE79D67108310832083B641CA542E9DAFA
:10584000012B10DD5D42012405EBD5756D106D4215
:1058500007E00E7816704E785670891C921C9B1EBD
:10586000641CA542F5DA002BC4BF097811700169E8
:10587000491E61450CBF00210CF10101816070BC23
:105880000020704770B48268D0F80CC0624502BF37
:105890004FF0FF3070BC7047D0E90023072B0CFBA2
:1058A00003221DDD5D420124EE1705EB5675ED1058
:1058B0006D4213E016780E7056784E7096788E70A2
:1058C000D678CE7016790E7156794E7196798E71A2
:1058D000D6790832083BCE710831641CA542E9DA5A
:1058E000012B10DD5D42012405EBD5756D106D4275
:1058F00007E016780E705678921C9B1E4E70891C1D
:10590000641CA542F5DA002BC4BF12780A70016945
:10591000491E61450CBF00210CF10101C16070BC42
:10592000002070474DF8044DD0F804C083689C45B2
:1059300002BF4FF0FF305DF8044B7047D0F800C055
:105940000CEBC30CDCF800400C60DCF804101160B8
:10595000C168491E99420CBF0021591C81605DF845
:10596000044B002070474DF8044D4368D0F808C040
:105970006345B8BFACEB030C02DBC468E41AA44473
:10598000BCF1010FDEBF4FF0FF305DF8044B7047F4
:10599000D0F800C00CEBC30CCCF80010CCF80420FD
:1059A000C168491E99420CBF0021591C41605DF835
:1059B000044B0020704700002DE9F05F344F05468E
:1059C00092468B464FF0FF3838680068006844689C
:1059D000C5F80480A868FFF7A5FF002808BFBDE848
:1059E000F09F3868C0F8048000264FF00109C4F821
:1059F00000906564C4F810806069A1693868C1636B
:105A00004E61026C3AB1096C436C994203DD066445
:105A1000104600F0D5FA3968C86DA06166610028AB
:105A200018BF4461CC652C60686848B9286838B1F3
:105A300026602E603868016FC1B100BFC0F8588081
:105A40003868C0F810804660C6604FF08051114A37
:105A5000116001690029FCD1A86852465946FFF738
:105A600061FF002808BFBDE8F09FFEE7C0F8709016
:105A7000816EC26E914218BF0667DFD1002907BF51
:105A80000466C0F86880446686660667D8E700004A
:105A90004809002004ED00E02DE9F04106464A4C9B
:105AA0004FF0FF3520684560B068FFF75CFFDFF816
:105AB0001CC14FF080534FF0000258B12068426083
:105AC000C16800291CBFC260CCF800304FF0FF3025
:105AD000BDE8F0817260316800296AD00868012849
:105AE00002D0032837D0FEE70A6032604E69886929
:105AF000002E12BFB0612768F865002818BF466104
:105B00000A612068C66B0C6C376CA74217DA066C0A
:105B1000CD6186B1456CA542D8BF446C44644A61EE
:105B20008E61716101644260C16800291CBFC2605E
:105B3000CCF800300CE044644A618A61F2E7CA6143
:105B40004A618E617161C1634260C260CCF800300D
:105B50000020BDE8F0810A6032604E698869002E3D
:105B600012BFB0612768786520B14661866C8F6C82
:105B70003E4486640A612068C66B0C6C376CA74291
:105B8000DDDA066CCD6186B1456CA542D8BF446CA8
:105B900044644A618E61716101644260C168002998
:105BA0001CBFC260CCF80030D2E744644A618A610D
:105BB000F2E720684260C16800291CBFC260CCF8CF
:105BC00000300020BDE8F0814809002004ED00E02D
:105BD0002DE9F001C64C20684168002940F083811E
:105BE000002303614FF0FF3CC0F808C0816C076DD3
:105BF00051EA070265D000292AD08364C16C31B311
:105C00000A6822BB8A69002A18BF53610B61C66B00
:105C10000D6CD6F84080A84512DA066CC1F81CC09D
:105C200056B1D0F84480A845D8BF456C45644B6157
:105C30008E617161016408E045644B618B61F9E735
:105C4000CB614B618E617161C1631100D8D1C164B8
:105C5000002F5ED00365416D002931D00A684AB13A
:105C6000002941651CBF8969002952D08A690D68E5
:105C700045B34CE08A6922B1956C8E6C35449564CD
:105C800053610B61C66B0D6C376CAF4211DA066C59
:105C9000C1F81CC04EB1476CAF42D8BF456C4564DB
:105CA0004B618E617161016408E045644B618B61F9
:105CB000F9E7CB614B618E617161C1631100CDD198
:105CC000416526E04D69AA6122B1966C8F6C3E4415
:105CD000966455610B61C66B0D6C376CAF4211DA7F
:105CE000066CC1F81CC04EB1476CAF42D8BF456CC2
:105CF00045644B618E617161016408E045644B61EC
:105D00008B61F9E7CB614B618E617161C1631100F9
:105D1000ACD1C26FD0F880108A4232D0002907BFC0
:105D2000416FC0F880C0816FC0F880300A6942B30B
:105D30008A694D69002D0CBF4265AA6122B1966C3B
:105D40008F6C3E44966455610B61C56B0A6C2E6C7A
:105D5000964211DA056CC1F81CC04DB1466C9642F2
:105D6000D8BF426C42644B618D616961016408E097
:105D700042644B618B61F9E7CB614B618D61696175
:105D8000C1638360816D002957D08365C16D71B394
:105D90000A684AB10029C1651CBF896900294CD035
:105DA0008A690D682DB346E08A69002A18BF5361DD
:105DB0000B61C66B0D6C376CAF4211DA066CC1F823
:105DC0001CC04EB1476CAF42D8BF456C45644B61B7
:105DD0008E617161016408E045644B618B61F9E794
:105DE000CB614B618E617161C1631100D0D1C1651E
:105DF00023E04D69002AAA6118BF55610B61C66B8B
:105E00000D6C376CAF4211DA066CC1F81CC04EB194
:105E1000476CAF42D8BF456C45644B618E61716180
:105E2000016408E045644B618B61F9E7CB614B612C
:105E30008E617161C1631100B2D1826EC16E8A42FE
:105E40002ED0002907BF016EC0F86CC0416EC3663A
:105E50000A692AB38D694A69002A0CBFC565956134
:105E6000002D18BF6A610B61C26B0D6C166CAE42DF
:105E700011DA026CC1F81CC04AB1466CAE42D8BF00
:105E8000456C45644B618A615161016408E0456479
:105E90004B618B61F9E7CB614B618A615161C163F1
:105EA000016809684A68C16B8A421CD0114B856938
:105EB0009D420ADA104F114E3B6836683E60F31A75
:105EC0001D44856195682B44936000688A6A02606E
:105ED0002068026A914208BFC0F824C04FF0FF302A
:105EE000BDE8F0017047BDE8F001002070470000F8
:105EF00048090020801A06004C090020240C0040AC
:105F0000164A30B400251468E26CAAB1E26C002392
:105F1000F2B100BFD2F844C08C4513DDACEB010CEC
:105F20004164002BC2F844C04361826150610CBFE0
:105F3000E064986130BC7047416485614561E0640C
:105F400030BC704713469269A1EB0C01002AE1D1E5
:105F5000416443618561986130BC70474809002005
:105F6000164A30B400251468626DAAB1626D002330
:105F7000F2B100BFD2F848C08C4513DDACEB010C88
:105F80008164002BC2F848C04361826150610CBF3C
:105F90006065986130BC704781648561456160656A
:105FA00030BC704713469269A1EB0C01002AE1D185
:105FB000816443618561986130BC70474809002065
:105FC0001449002870B40E68D6F83CC018BF0025EC
:105FD00013D06146C5618469026CDCF8403093429D
:105FE00013DA896981B10B6C93420ADB4A698161DA
:105FF0004261906148612000EBD1C6F83CC070BCA2
:10600000704789690029EED1FEE7844645618161C8
:10601000F0E70000480900202DE9F041184CB0F1EC
:1060200000082068016809684D68D8BFBDE8F081A4
:106030004FF0FF3747600220002628602F61686913
:10604000AA692068C2635661016C39B1126C436C55
:106050009A4203DD06640846FFF7B2FF4146284630
:10606000FFF74EFF206807614660C6604FF0805121
:10607000044A116001690029FCD1BDE8F0810000EB
:106080004809002004ED00E030B405686FF0020418
:106090004FF0807C294441E90943044B41F804CC8A
:1060A00041E903324439016030BC7047B18D0000D2
:1060B000DFF8E4C0002130B4DCF800004268002AB8
:1060C00007BF8268002A30BC7047C06C4FF0FF34B5
:1060D0004FF00003A8B1426C022AA4BF521E4264D2
:1060E0000FDA43640360806930B1416C012903DA3F
:1060F000036080690028F8D1DCF800004FF0FF3120
:106100008464DCF80000406D00283AD0826C022ADA
:10611000A4BF521E826434DA83640360416C0B6056
:10612000DCF80010D1F88420002A18BF4FF0FF32AD
:106130000DD0806900B3816C01291DDA4FF0FF3268
:106140000360416C0B6080690028F4D115E00122E6
:10615000C1F88420CA6FD1F88050AA4218BF4FF00E
:10616000FF3206D1002A07BF4867CC678867CB6734
:106170000022C1F88430DCE73AB1DCF800000465A5
:1061800003E0002904BF30BC70474FF08050034942
:10619000086030BC704700004809002004ED00E0B2
:1061A00000210160C069FEF75DBFF8B504464FF0FD
:1061B000FF37606858B3E0681021FFF727F8002820
:1061C000F7D1A0686946FBF7CBF90028F1D0009E13
:1061D000002E15DD0546206AFFF790F8E069FFF70D
:1061E00083F8206800281CBFE069FEF7ABFF27603A
:1061F0003246D4E9090329469847206AFFF728F96F
:10620000A068FBF7A7F92069FEF776FED9E7A06939
:10621000FEF772FE0020F8BD2DE9F0470446406805
:1062200091468A461D46B8B12069FFF75DF8A0681F
:106230004A465146FBF79CF9002852D0002D4CD01D
:1062400032DA2069FEF77EFFA0684A465146FBF726
:106250008FF90028F5D144E0206A00251E46FFF79B
:106260004DF8E069FFF740F8206878B1002E18BFBC
:10627000E06908D002DAFEF765FF07E03146FEF775
:10628000C5FF206810B14FF0FF3507E04FF0FF3039
:106290002060D4E909034A4651469847206AFFF72F
:1062A000D7F82846BDE8F087114E4FF0FF30D6F8FA
:1062B00000803168A1EB08070CE02069E91BFEF7BC
:1062C000A5FF30684A465146A0EB0807A068FBF7D7
:1062D0004FF930B1AF42F0DB18B14FF0FF30BDE8FD
:1062E000F087E068FEF708FE0020BDE8F0870000B8
:1062F000B80800200FB42DE9F04786B0814610A8F9
:1063000005904F460F9C00253AE003E02078785531
:10631000641C6D1C2078252802D020780028F5D137
:10632000207800B92FE0641CA0464FF0010A2678BF
:1063300003E00AF1010A641C2678184850F8260088
:1063400028B9442E03D0642E01D0002EF1D120783C
:1063500000B918E0641CBAF1000F11DD01A9404634
:10636000FBF708F89DF810600C4850F8260038B18B
:1063700078190A4951F8263005AA01A99847054419
:1063800020780028C1D100BF00200590785528460C
:1063900006B0BDE8F0075DF814FB00001C27039071
:1063A00004460D462A4621460248FAF780FE00BF01
:1063B000FEE700003814012010B5024A5068116849
:1063C000884710BD6808002010B5024A506811685F
:1063D000884710BD6008002070B5016804460020A1
:1063E0004D6815F0200F02D020228A60104615F06B
:1063F000080F04D02268082140F00800916015F0D1
:10640000010F04D02268012140F001009160E0609A
:1064100000281CBF6068FEF725FE15F0100F05D0A0
:106420002168102088606068FEF71CFE15F0020FDE
:1064300008BF70BD0220216888606068BDE87040B8
:10644000FEF710BE70B50546006800680404240C11
:1064500014BF012670BD00BFB4FA84F0C0F11F0064
:1064600006FA00F18C4305EBC0014868896888474B
:10647000002CF1D170BD10B5044640680168096870
:1064800011F0010F15D04268416A12680A4215D016
:1064900080680160E06822694FF0FF31904760B189
:1064A000616809680A6812F4002F0CBF0861C860AF
:1064B00010BD816B8068016010BDFEE7FEE741689A
:1064C0004B684A6A1B68134208BF704789680A60B4
:1064D000416809680A6812F0010FFBD1816A084718
:1064E00041680968096811F0010F06D10068406928
:1064F00010F4805F1CBF002070474FF0FF307047E2
:10650000002AD8BF704710B504464FF0FF33002073
:1065100063612262A161E0610848A062214660686F
:10652000026C0748904760680068016841F01001FC
:106530000160A16A2046BDE810400847456500009B
:10654000BF64000001464FF0000C30B440680A6A96
:106550000068A2B18B69B2F5803F1ADB4FF6FF7C71
:10656000C0F804C04C6803EB0C00D4F800C0CCF8B1
:106570000C30A2F57F42FF3A0A6288610FE00268A0
:1065800022F010020260C1F814C0C86A096B30BC66
:106590000847426048680068C360C1F820C0486886
:1065A000826B8068026048680068016841F0010100
:1065B000016030BC70470000002AD8BF704710B59A
:1065C00004464FF0FF33002063612262A161E06165
:1065D0000848A06221466068026C074890476068DE
:1065E0000068016841F010010160A16A2046BDE821
:1065F00010400847FD650000BF64000001464FF0F1
:10660000000C30B440680A6A0068A2B18B69B2F528
:10661000803F1ADB4FF6FF7CC0F804C04C6803EBE8
:106620000C00D4F800C0CCF80C30A2F57F42FF3A41
:106630000A6288610FE0026822F010020260C1F86D
:1066400014C0C86A096B30BC0847426048680068DB
:10665000C360C1F820C04868826B806802604868E7
:106660000068016841F00101016030BC7047416978
:1066700000291CBF4FF0FF307047416A084702698C
:106680008A4208BF70474DF8044D01614A1ED0F898
:1066900000C002F01F031029DCF8002022F00102E4
:1066A000CCF80020D0F800C0DCF8084024F01F042B
:1066B00044EA0303CCF8083088BF4FF4A04104D863
:1066C00008298CBF4FF420510021436843B11B6857
:1066D000D3F800C02CF4F04C4CEA010CC3F800C015
:1066E00083683BB11B68D3F800C02CF4F04C4CEA33
:1066F00001011960036842F00101196041F4007161
:10670000006801605DF8044B7047C2620163704726
:1067100030B40168CA6912F0100F04BF30BC704772
:1067200010220A62816809680A6822F001020A6080
:1067300081684B68D1F82420D3F800C01CEA020F0E
:10674000FAD08A6B89680A608168D0F818C00B6833
:106750005A68016AACEB0202E1B144690025DC60D1
:1067600004EB0C01C0F820508368D0F818C01B68F7
:10677000C3F804C083681B68D3F800C04CF0010C58
:10678000C3F800C0BFF35F8F436BD0F830C030BC9C
:106790001846604741694FF0FF348C44C3F80CC081
:1067A0000462E1E72DE9F0411500044621D0A0681C
:1067B000426A8068026060680068026812F0010F37
:1067C000FBD12669002D0F46D8BFBDE8F081E168F6
:1067D000B542C1606068006810DD46603246E0681E
:1067E0003946F9F747FEBFF35F8FB9196162A81BFD
:1067F0000DE0606BE16ABDE8F041084745602A465C
:10680000E0683946F9F736FEBFF35F8F0020A062DB
:1068100060680068016841F001010160BDE8F08135
:106820002DE9F041044640684268416A12680A4214
:1068300008BFBDE8F0818068016060680068016899
:1068400011F0010FFBD1676AA66A2569002E23DDCE
:10685000E168AE42C160606800680BDD45602A46B1
:10686000E0683946F9F706FEBFF35F8F7919616278
:10687000701B08E046603246E0683946F9F7FAFDD9
:10688000BFF35F8F0020A06260680068016841F07C
:1068900001010160BDE8F081606BE16ABDE8F04193
:1068A0000847000010B5002009490860F9F7DDFD30
:1068B00008490860F9F7D9FD0749086005480068EC
:1068C00010B10846006808B900BFFEE710BD00001F
:1068D000D0080020C8080020CC08002070B505466C
:1068E0000E461048006810B94FF0FF3070BD0E48DA
:1068F0000068FEF703FD00BF0C490968102332460B
:1069000088682946FEF77CFA0446002C03DA05481D
:1069100000680028F0D104480068FEF799FD204681
:10692000E4E70000D0080020CC0800203009002057
:1069300010B504460948046009480068FEF7DEFC0B
:1069400008480068FEF7DAFC06480068FEF780FD9C
:1069500003480068FEF77CFD10BD0000D008002051
:10696000CC080020C808002070B505460E460E4829
:10697000006800B970BD0D480068FEF7BFFC00BF9D
:106980000B4909681023324688682946FEF73BFA0E
:1069900004461CB1044800680028F1D1034800688F
:1069A000FEF756FD00BFE5E7D0080020C80800202C
:1069B0003009002010B5024A50681168884710BDA0
:1069C0005008002010B5024A50681168884710BD71
:1069D000480800202DE9F04104460E46254637467A
:1069E00039462846FCF7C5FC2846FCF7F8FC074466
:1069F0003878810390204059B1FBF0F200FB12106F
:106A0000D5F88C100144B0204151BDE8F0812DE94A
:106A1000F041054688462E46444621463046FCF75E
:106A2000A8FC3046FCF7DBFC0444217886F8B01063
:106A3000617886F8B110A17886F8B210E17886F80E
:106A4000B310217986F8B410617986F8B510002763
:106A500005E0B81D215C06F1B600C1557F1C082F6A
:106A6000F7DB304600F03EF8BDE8F08110B5024A91
:106A700050681168884710BD40080020014A5160E5
:106A8000106070474008002070B505460A46104661
:106A900090F8B31090F8B4408CB1002680F8B46040
:106AA00090F8B230012907D133B990F8B5401CB144
:106AB000848A44F48054848280F8B33011E061B158
:106AC0004C1EE1B280F8B31059B990F8B54044B10A
:106AD000848A44F48054848203E090F8B26080F8A1
:106AE000B36070BDF0B50546284690F8B060D0F8A8
:106AF0008C3090273C5806F04007CFB990F8BC7016
:106B00007A03B2FBF4F704FB17229918C027395017
:106B100090F8BD707A03B2FBF4F704FB17229918C2
:106B2000C4273950A4F580429918C827395018E075
:106B3000A4F58042B2FBF4F704FB17229918C02792
:106B4000395090F8BD707A03B2FBF4F704FB1722BA
:106B50009918C427395090F8BC707A039918C8273F
:106B6000395094273B5898273C580CB94FF400549F
:106B700006F08007002F30D190F8B67007F0FE07BE
:106B8000BA029918D027395001F5806CC0F8D4C0EA
:106B900090F8B77007F0FE07BA029918D827395055
:106BA00001F5806CC0F8DCC090F8B870BA02991892
:106BB000E027395090F8B970BA029918E427395093
:106BC00090F8BA70BA029918E827395090F8BB705B
:106BD000BA029918EC2739502FE090F8B870BA0231
:106BE0009918D027395090F8B970BA029918D4275B
:106BF000395090F8BA70BA029918D827395090F8DD
:106C0000BB70BA029918DC27395090F8B67007F0BB
:106C1000FE07BA029918E027395001F5806CC0F8D8
:106C2000E4C090F8B77007F0FE07BA029918E82799
:106C3000395001F5806CC0F8ECC0F0BD04460D463B
:106C40002A4621460248FAF732FA00BFFEE7000062
:106C500038140120704700002DE9F04F4FF0000874
:106C60000C4683B0074645464646404600EBC00109
:106C7000401C04EB4101202881F8E48181F8E58182
:106C8000F4DB94F8240110F0200F00F0638194F8F5
:106C90003404B8429CBF381A10287CD294F836A429
:106CA00094F835141AF0800F18BFC0F10F000828AF
:106CB00001F0010223D2002A08BF00EB011007D027
:106CC00021F0010146F0010600EB011000F58050B3
:106CD000D4F8FC201FFA80F921461AF0400F4846EC
:106CE0001ED09047FE49D4F8FC2011F800B009F1FD
:106CF000080080B221469047F949085C19E008383D
:106D0000002A04BF00EB01101030E1D021F0010295
:106D100041F2100146F0010600EB02100844D7E7EB
:106D20009047D4F8FC20834609F10800214680B240
:106D3000904794F8372484F8BCB184F8BD0112F070
:106D400007014FEAD20984F8BEA109EBC90070D04F
:106D500004EB40004346B9F11F0F4FF0FF0C90F8D1
:106D6000E42100F5EA7002F1010900EB420A00EBB0
:106D700042028AF80080517080F8109080F811C0AB
:106D800013DA90F822206FF0070949FA81FA1230DD
:106D900002F1010900E009E000EB42010B7081F80B
:106DA00001A080F8109080F811C06D1C4FF004090C
:106DB00004EB090898F83404B8429CBF381A10282C
:106DC0007DD2072D00F3528198F836A498F8351437
:106DD0001AF0800F18BFC0F10F00082801F001025F
:106DE0003CD2002A08BF00EB01100AD021F00103B9
:106DF000012200EB031002FA05F1314300F5805047
:106E0000CEB2D4F8FC201FFA80FB21461AF0400FC6
:106E1000584636D09047B249085C214600900BF1A5
:106E20000800D4F8FC2080B29047AD49085C31E0FE
:106E3000FFE704EB4000FF2390F8E41100F5EA704F
:106E400001F1010C00EB410900EB410189F80080E0
:106E500081F8018080F810C04374A6E70838002A42
:106E600004BF00EB01101030CBD0012221F0010350
:106E700041F21001AA40324300EB03100844D6B29D
:106E8000BFE7904700900BF10800D4F8FC2080B2D7
:106E90002146904705EB4501009A214481F8BC2129
:106EA00081F8BD0181F8BEA198F8370410F0070100
:106EB0004FEAD0003BD000EBC002EBB200E023E091
:106EC00004EB42021F2802F5EA7092F8E42102F175
:106ED000010C00EB420800EB420288F800305170D0
:106EE00080F810C00FDA90F822206FF0070C1230F3
:106EF0004CFA81F800EB420102F1010C0B7081F8B1
:106F0000018080F810C06D1C09F10409B9F5807F7B
:106F1000FFF64EAF082D80F03B810120C5F108013E
:106F20008840401EA8403043C6B200F031B900EBA3
:106F3000C000002204EB400090F8E41100F5EA7074
:106F40004B1C00EB410C00EB41018CF800504A70E7
:106F50000374D8E710F0080F1ABF4FF48059FF26CA
:106F60004FF0000994F83404B8429CBF381A08283E
:106F70006DD294F8351494F836B41BF0800F4FEAB4
:106F800001111FBFC0F1070000F00700484400EBEB
:106F9000010A02BF484408441FFA80FA1BF0400F60
:106FA000D4F8FC20214650460DD090474C49085C4F
:106FB000214600900AF10800D4F8FC2080B29047E6
:106FC0004749085C08E0904700900AF10800D4F8AF
:106FD000FC2080B22146904794F83724009984F829
:106FE000BC1112F007014FEAD20A84F8BD0184F8FF
:106FF000BEB10AEBCA0043D004EB40004346BAF1ED
:107000001F0F4FF0FF0C90F8E42100F5EA7002F139
:10701000010A00EB420B00EB42028BF8008051703A
:1070200080F810A080F811C010DA90F822206FF0DC
:10703000070A4AFA81F1123002F1010A00EB42021A
:107040001370517080F810A080F811C06D1C4FF0C3
:10705000040A00BF04EB0A0898F83404B8429CBF45
:10706000381A08287ED2072D1FDD00BF94F82601AC
:1070700040F0200084F8260103B03046BDE8F08FD0
:1070800004EB4000FF2390F8E41100F5EA7001F1F1
:10709000010C00EB410A00EB41018AF8008081F805
:1070A000018080F810C04374D0E798F8351498F840
:1070B00036B41BF0800F4FEA01111DBFC0F107006D
:1070C00000F0070048444844084408BF80B21BF061
:1070D000400F0090D4F8FC20214610D0904701E0EA
:1070E0007C0E00203649085C214601900098D4F8B7
:1070F000FC20083080B290473149085C08E0904796
:10710000019021460098D4F8FC20083080B29047C6
:1071100005EB4501019A214481F8BC2181F8BD01AC
:1071200081F8BEB198F8370410F007014FEAD0009B
:1071300032D000EBC0021F2804EB420202F5EA70D5
:10714000EBB292F8E42102F1010C00EB420800EBF3
:10715000420288F80030517080F810C011DA6FF0E8
:10716000070C00E00EE090F8222012304CFA81FC6F
:1071700002F1010800EB42010B7081F801C080F8B8
:1071800010806D1C0AF1040ABAF5807FFFF662AF29
:1071900003B03046BDE8F08F00EBC000002204EBE6
:1071A000400090F8E41100F5EA704B1C00EB410C34
:1071B00000EB41018CF800504A700374E1E70000D5
:1071C0007C0E00202DE9F04104460F463E46B4F502
:1071D000004F1ED2B4F5C04F09D2234612486FF0BB
:1071E000060102683046FCF76BF800BFFEE79C2002
:1071F000855955B923460D486FF00601026830469F
:10720000FCF710F92012BDE8F081A4F5C040285C1D
:10721000F9E706F1B000C4F3803150F82150C4F30F
:107220000D00285CEFE7000080130020841300208D
:107230002DE9F04104460F463E46B4F5004F1ED2FC
:10724000B4F5C04F09D2234612486FF00601026818
:107250003046FCF735F800BFFEE79C20855955B94C
:1072600023460D486FF0060102683046FCF7DAF855
:107270002012BDE8F081A4F5C040285CF9E706F1D2
:10728000C000C4F3413150F82150C4F30C00285C15
:10729000EFE7000080130020841300202DE9F04167
:1072A00004460F463E46B4F5004F22D2B4F5C04F17
:1072B00009D2234616486FF0060102683046FBF7F4
:1072C000FFFF00BFFEE79C20855955B923461148B2
:1072D0006FF0060102683046FCF7A4F82012BDE802
:1072E000F081A4F5C04005442878697840EA01207F
:1072F000F5E706F1B000C4F3803150F82150C4F333
:107300000D0005442878697840EA0120E7E700008D
:1073100080130020841300202DE9F04104460F461D
:107320003E46B4F5004F22D2B4F5C04F09D22346F1
:1073300016486FF0060102683046FBF7C1FF00BF38
:10734000FEE79C20855955B9234611486FF0060188
:1073500002683046FCF766F82012BDE8F081A4F51B
:10736000C04005442878697840EA0120F5E706F135
:10737000C000C4F3413150F82150C4F30C0005445F
:107380002878697840EA0120E7E7000080130020B0
:10739000841300202DE9F04105460F463E46B5F521
:1073A000004F22D2B5F5C04F09D22B4614486FF0DA
:1073B000060102683046FBF783FF00BFFEE79C2012
:1073C000845954B92B460F486FF0060102683046C5
:1073D000FCF728F82812BDE8F081A5F5C040044468
:1073E0002078617840EA0120F5E7D6F88C40C5F3B3
:1073F0000D0004442078617840EA0120EBE70000AA
:1074000080130020841300202DE9F04105460F462B
:107410003E46B5F5004F22D2B5F5C04F09D22B46F6
:1074200014486FF0060102683046FBF749FF00BFC1
:10743000FEE79C20845954B92B460F486FF0060193
:1074400002683046FBF7EEFF2812BDE8F081A5F593
:10745000C04004442078617840EA0120F5E7D6F87E
:107460008C40A5F5004004442078617840EA012072
:10747000EBE7000080130020841300202DE9F04189
:1074800004460F463E46B4F5004F1ED2B4F5C04F39
:1074900009D2234610486FF0060102683046FBF718
:1074A0000FFF00BFFEE79C20855955B923460B48C6
:1074B0006FF0060102683046FBF7B4FF2012BDE80A
:1074C000F081A4F5C040285CF9E7D6F88C50C4F3ED
:1074D0000D00285CF3E700008013002084130020D7
:1074E0002DE9F04104460F463E46B4F5004F1ED24A
:1074F000B4F5C04F09D2234610486FF00601026868
:107500003046FBF7DDFE00BFFEE79C20855955B9EC
:1075100023460B486FF0060102683046FBF782FFF6
:107520002012BDE8F081A4F5C040285CF9E7D6F848
:107530008C50A4F50040285CF3E700008013002085
:10754000841300202DE9F04106460C46904645463E
:10755000B4F5004F1BD2B4F5C04F09D223461348EF
:107560006FF0070102682846FBF7AAFE00BFFEE79E
:107570009C2047593FB923460D486FF00701026828
:107580002846FBF74FFFA4F5C0403E540BE0B10383
:1075900090204059B1FBF0F200FB1210D5F88C108E
:1075A0000144B0204151BDE8F08100008813002063
:1075B0008C1300202DE9F04705460E4691464C46B7
:1075C000B6F5004F1BD2B6F5C04F09D2334651482D
:1075D0006FF0070102682046FBF772FE00BFFEE76E
:1075E0009C2007593FB933464B486FF007010268AA
:1075F0002046FBF717FFA6F5C0403D5488E046F251
:1076000001003040B0F5804F6CD00BDCB0B10128E8
:107610001AD0B0F5005F28D06FF40051084400285C
:1076200074D15EE06FF48041084400285DD0A0EB87
:10763000D14000285DD0012868D163E084F8B050C3
:107640002046FFF74FFA62E094F8B00000F0070818
:10765000B8F1020F01D225F0010504F1B60000F8DF
:1076600008502046FFF73EFA51E094F83806032808
:1076700036D005F00100D0B9D4F83406C4F81401AE
:10768000D4F8340600F580604FF48C7108514FF443
:107690008E70D4F834160151D4F8340600F58060A9
:1076A0004FF490710851022184F8381618E0D4F88C
:1076B0003406C4F814014FF48C70D4F83416015118
:1076C000D4F8340600F580604FF48E710851D4F878
:1076D000340600F58060091D0851012184F8381630
:1076E00015E014E084F8B25011E0FF2184F8B410E2
:1076F0000DE0002184F8B510A08A20F48050A0820B
:1077000005E003E0FF2184F8B51000E000BF00BFF2
:10771000BDE8F087881300208C1300202DE9F0418C
:1077200006460C461746B846B4F5004F1ED2B4F5CF
:10773000C04F09D2234612486FF007010268404645
:10774000FBF7BEFD00BFFEE79C2050F808504DB986
:1077500023460C486FF0070102684046FBF762FEC3
:10776000BDE8F081A4F5C0402E5407E0234604484C
:107770006FF0070102684046FBF7A2FD00BFEFE78C
:10778000881300208C1300202DE9F04106460C469A
:107790001746B846B4F5004F1ED2B4F5C04F09D213
:1077A000234612486FF0070102684046FBF788FD48
:1077B00000BFFEE79C2050F808504DB923460C4806
:1077C0006FF0070102684046FBF72CFEBDE8F08130
:1077D000A4F5C0402E5407E0234604486FF007018B
:1077E00002684046FBF76CFD00BFEFE788130020FE
:1077F0008C130020AF48006840F48040AD49086019
:10780000AC480C30006840F0DA00AA490C3108603E
:10781000A948006820F0300040F02000A649086028
:10782000081D006820F00400091D0860081D00689C
:1078300040F03000091D0860081D006820F030008D
:10784000091D08609C48006820F4405040F4005036
:1078500099490860081D006820F04000091D086073
:10786000081D006840F44050091D0860081D0068AC
:1078700020F44050091D08609048006820F4400042
:1078800040F400008D490860081D006820F4006085
:10789000091D0860081D006840F44000091D0860CB
:1078A000081D006820F44000091D08608348006836
:1078B00020F0407040F0007080490860081D0068AA
:1078C00020F48050091D0860081D006840F04070D9
:1078D000091D0860081D006820F04070091D08603F
:1078E0007748006820F0300040F0200074490860BC
:1078F0000846406820F0040048600846806840F070
:10790000300088600846C06820F03000C8606B48CE
:10791000006820F0406040F0006068490860081D81
:10792000006820F40050091D0860081D006840F040
:107930004060091D0860081D006820F04060091DB6
:1079400008605F48006820F4404040F400405C4913
:1079500008600846406820F080004860084680685B
:1079600040F4404088600846C06820F44040C86049
:107970000846006820F4403040F4003008600846B3
:10798000406820F4807048600846806840F44030C9
:1079900088600846C06820F44030C8600846006827
:1079A00020F4402040F4002008600846406820F49D
:1079B000007048600846806840F4402088600846AF
:1079C000C06820F44020C8600846006820F44010D9
:1079D00040F4001008600846406820F48060486069
:1079E0000846806840F4401088600846C06820F46B
:1079F0004010C86030482030006820F4706040F4C7
:107A000010602D49203108600846006820F0706041
:107A100040F0206008602948406A20F4704040F43B
:107A2000104126484162406A20F4702040F4102141
:107A3000224841622248006A20F4706040F41060DD
:107A40001F4908621D48406A20F4700040F410018C
:107A50001A4841621A48006A20F0704040F0204005
:107A6000174908620846406A20F00F0040F00A01FA
:107A700013484162406A20F0F00040F0A001104835
:107A80004162406A20F4706040F420610C48416219
:107A900000200C490860084600680B490843094962
:107AA00008600A4848600846006840F00100086025
:107AB00070470000D444025800040258000C0258D9
:107AC000001002580050005240030001000118004D
:107AD0004FF0FF300249C86102484861704700001A
:107AE00000500052EBED100F81F8200070470000AD
:107AF0008B8C10F0080FCA6923F47F4343EA0023FC
:107B00004FEA124243F0080300F0070013D040B1DF
:107B100022FA00F0C04310441FFA80F0B0F5006F65
:107B200004D2082A28BF23F0100201D243F0100229
:107B300048848A84704722FA00F0104480B2EDE74E
:107B40004DF8044DCA698B8C22F47F0242EA004250
:107B5000CA614FEA132C1CF0080F4FEA124216D0EC
:107B600010F0070007D022FA00F0C043104480B2A2
:107B7000B0F5006F04D2082A28BF23F0100201D20A
:107B800043F0100248848A845DF8044B70470CF07F
:107B9000070022FA00F0104480B2E9E74DF8044DE6
:107BA000234BCA6903EBD00360F31A62CA6191F8F0
:107BB00074C01B781CF0010F18BF43EA032326D0C2
:107BC0004B854FF0000C8B8CFF24120C81F829C0E0
:107BD00081F827404FEA132C1CF0080F20D010F03A
:107BE000070008D022FA00F0C04310441FFA80F0CA
:107BF000B0F5006F04D2082A28BF23F0100201D28A
:107C000043F0100248848A845DF8044B704791F871
:107C10002AC04FF6FF7404EA03234CEA0303CFE7BC
:107C20000CF0070022FA00F0104480B2E0E70000F8
:107C30005C0D002081F83000704730B4CB6A00F052
:107C40000702B1F834C010F0080F1C464FEA134386
:107C50002CF47F4C23FA02F34CEA00204FEA144242
:107C600040F0080C0CBF9818D01A80B2B0F5006F25
:107C700004D2082A28BF2CF0100201D24CF01002C6
:107C800048868A8630BC704730B4B1F834C0CB6ABD
:107C90001FFA8CF223F47F054FEA4C5445EA00406A
:107CA000C862630F4FEA10404FEA122C1CF0080F15
:107CB00020FA03F30CBF0344C31A9BB2B3F5006F61
:107CC00004D2082828BF22F0100001D242F0100090
:107CD0004B86888630BC704730B41E4BCA6A03EBB3
:107CE000D00360F31A62CA6291F874C018781CF06D
:107CF000020F18BF40EA002024D0488700208B8E56
:107D0000FF2481F83900100C81F837404FEA132C1A
:107D10001CF0080FC3F3072C0CF0070220FA02F244
:107D20000CBF0244821A92B2B2F5006F04D2082846
:107D300028BF23F0100001D243F010004A86888645
:107D400030BC704791F83A304FF6FF7C0CEA0020C7
:107D50001843D2E75C0D0020B1F8402022F47F42A6
:107D600042EA0020A1F8400070477047CA6B22F435
:107D70007F0242EA0040C86370470000104BCA6BA4
:107D800003EBD00360F31A62CA6391F87420187889
:107D900012F0040F18BF40EA002008D0A1F84200FA
:107DA000B1F8400040F08000A1F84000704791F821
:107DB00042204FF6FF7303EA00201043EEE7000075
:107DC0005C0D002081F850007047704710F0800271
:107DD00018BFFF2281F851208A6C00F00F0032F8A2
:107DE0001000A1F84E0070470C4A91F8743002EB75
:107DF000D00013F0080F007818BF40EA002005D02B
:107E0000A1F85800FF2081F85300704791F85820DE
:107E10004FF6FF7303EA00201043F1E75C0D0020EA
:107E200010F0800F81F8640003D18A8A22F4806206
:107E30008A82CA6D00F00F0032F81000A1F86200CB
:107E4000704700F07F0081F8710070474FF44042A6
:107E500042EA8010A1F86A007047012202EB00108C
:107E6000A1F86C007047704710F0010F81F87400A2
:107E700003D14A8D22F0FF024A8510F0020F03D190
:107E80004A8F22F0FF024A8710F0040F05D1B1F8A3
:107E9000422022F0FF02A1F8422010F0080F05D185
:107EA000B1F8582022F0FF02A1F8582010F0100F6E
:107EB00004BF0020A1F868000AD0B1F8680038B902
:107EC000B1F86C00B1F86A20A1F86800A1F866204A
:107ED000888A20F4806088827047704710F0400FD5
:107EE00003D08A8A22F400628A8210F0800F1ABFBF
:107EF0004FF4400242EA0060000688617047704714
:107F00002DE9FC4104460D46266BD4E90D01884756
:107F1000206800B90EE02C2030800022D4E908103F
:107F20004843CDE900022B4601223146A76C606B25
:107F3000B84700BFE16B606B8847BDE8FC8100007B
:107F40002DE9F04F83B000EBC00201EB800301EBA1
:107F5000420C01EBC00202920CF5EA7000909CF812
:107F6000E4010190002800F00582009C4FF0000C15
:107F7000604662464FF0010884F810C0009CD3F8B8
:107F80003C31647C002C08BF002673D0009C84F830
:107F900011C0DDF800C091F8BC6191F8BD7191F895
:107FA000BE919CF901C0BCF1000FA4BF07251C24A1
:107FB00007DACCF100044FF0000C64B2C4F10705FD
:107FC000AC004FEA897A19F0200F4FEA1A7A28D0CC
:107FD000AC454ED808FA0CF906EA090B07EA09097C
:107FE0004BEA490939FA0CFB15D04BEA0A0B4FF062
:107FF0000F0909FA04F90BFA04FB13EA090F4BEA1B
:10800000000008BF42EA090205D091F8269149F024
:10801000400981F82691241F0CF1010CAC45D9D9F7
:1080200027E0AC4525D800BF08FA0CF906EA090B91
:1080300007EA09094BEA490939FA0CFB14D04FF059
:108040000F094BEA0A0B09FA04F90BFA04FB13EACD
:10805000090F42EA09024BEA000005D091F8269187
:1080600049F0400981F82691241F0CF1010CAC4520
:10807000DAD90126DDF804C066456BD2DDF800C010
:108080000CEB460C9CF800409CF901C004EB440446
:108090000C44BCF1000F94F8BC8194F8BD9194F8A5
:1080A000BE71A4BF07251C2407DACCF100044FF0F1
:1080B000000C64B2C4F10705AC004FEA877A17F0F0
:1080C000200F4FEA1A7A20D0AC453ED8012707FA94
:1080D0000CF708EA070B09EA07074BEA470737FAE4
:1080E0000CFB0CD00F27A740384208D14BEA0A0BF3
:1080F0003B420BFA04FB4BEA000008BF3A43241F43
:108100000CF1010CAC45E1D91FE0AC451DD80127AD
:1081100007FA0CF708EA070B09EA07074BEA4707D3
:1081200037FA0CF70CD04FF00F0B0BFA04FB10EAE8
:108130000B0F05D147EA0A0742EA0B02A740384372
:10814000241F0CF1010CAC45E1D9DDF804C0761C0C
:10815000664593D391F8255101F21444029904F134
:10816000100C15F0010F01F2345102F00F0561D02F
:10817000002D07BF03F00F05655D00F00F051CF82B
:10818000055005F030050D7012F0F00F7ED000F0B4
:10819000F0050CEB15152D7805F0300581F8015030
:1081A00012F4706F73D000F470650CEB15252D7808
:1081B00005F0300581F8025012F4704F68D000F4D9
:1081C00070450CEB15352D7805F0300581F803501E
:1081D00012F4702F7ED000F470250CEB15452D782D
:1081E00005F0300581F8045012F4700F73D000F4DC
:1081F00070050CEB15552D7805F0300581F805500C
:1082000012F0706F68D000F070650CEB15652D787A
:1082100005F0300581F8065012F0704F0CBF04EBEA
:1082200013700CEB1070007800F03000C87103B0D0
:10823000BDE8F08F002D19BF00F00F051CF80550A8
:1082400003F00F05655D0D7012F0F00F07BF03F02E
:10825000F00504EB151500F0F0050CEB15152D7865
:1082600012F4706F4D7007BF03F4706504EB1525B1
:1082700000F470650CEB15252D7812F4704F8D709D
:1082800004BF03F4704504EB153502E03CE044E024
:108290004CE01CBF00F470450CEB15352D7812F442
:1082A000702FCD7007BF03F4702504EB154500F463
:1082B00070250CEB15452D7812F4700F0D7107BF6A
:1082C00003F4700504EB155500F470050CEB15551F
:1082D0002D7802E033E03BE043E012F0706F4D7127
:1082E00007BF03F0706504EB156500F070650CEBDB
:1082F00015652D7812F0704F8D710CBF04EB137063
:108300000CEB1070007891E703F0F00504EB151505
:108310002D7805F030054D7042E703F4706504EBED
:1083200015252D7805F030058D7045E703F470456F
:1083300004EB15352D7805F03005CD7048E703F4D2
:10834000702504EB15452D7805F030050D714BE7D0
:1083500003F4700504EB15552D7805F030054D71CB
:108360004EE703F0706504EB15652D7805F03005D8
:108370008D7151E791F825C101F21441D3F83C0108
:1083800002F234521CF0010F00F00F0C00F0F00369
:108390003DD000F4706611F80CC001EB131401EB32
:1083A00016230CF03006167000F47045267800F4A1
:1083B000702701EB153C01EB174400F4700500F049
:1083C000706706F0300882F8018001EB155501EB6B
:1083D000176601EB1070197801F0300191709CF86C
:1083E000001001F03001D170217801F030011171DD
:1083F000297801F030015171317801F0300191712B
:10840000007800F03000D07103B0BDE8F08F00F4C8
:10841000706611F80C5001EB1314157000F4704CD9
:1084200001EB1623267801EB1C3C00F470255670F6
:108430001B7800F4700800F07067937001EB15442E
:1084400001EB185501EB176601EB10709CF800105A
:10845000D17021781171297851713178917100783A
:10846000D1E703467B2018700120704703467D202A
:1084700018700120704703462520187001207047AE
:108480002DE9F74FB4B03598006809900998002895
:1084900006DA0998404209904FF0FF30089001E059
:1084A0000020089035984068079036980068C01DF5
:1084B00020F00701369801603698026802F1080042
:1084C0003699086092ED000B8DED0C0B02AA05A900
:1084D0000CA8F8F755FC0190349C0026B146019891
:1084E000001D07287ED2DFE800F0F2F1F0047D0ADB
:1084F000EF002D202070641C09F1010900BF274600
:108500000023DDE9021059405840014316D13020C4
:108510002070641C761C4FF0000A079800280CDDC0
:108520002E202070641C761C079D04E06D1E3020F8
:108530002070641C761C002DF8DCB5E002AA05A9A9
:108540000EA8F8F74BFD00BF0EA8F8F721FA0B9024
:108550004FF007080FE0A8F101080A210B98B0FBC3
:10856000F1F201FB120030302070641C761C0B9875
:10857000B0FBF1F00B90B8F1000FECDC0F98002885
:10858000E2DA00E0761E012E03DD701E385C302832
:10859000F8D0BC190025A6F101080AE0785D069024
:1085A00017F808007855069807F80800A8F10108A0
:1085B0006D1C4545F2DB02AA05A90EA8F8F79EFC42
:1085C0003878302832D14FF0000A002600BF0EA8BC
:1085D000F8F706FA8346AAF1070ABBF1000FF6D0B6
:1085E0003C460CE0CBE0761C0A20BBFBF0F100FB24
:1085F00011B030302070641C0A20BBFBF0FBBBF1D3
:10860000000FF0D10025A6F101080AE0785D069080
:1086100017F808007855069807F80800A8F101082F
:108620006D1C4545F2DB701E824401E0A6F1010A93
:108630000798002836DD0798801C864201DA30460C
:1086400001E00798801C054603E0681E385C7855F9
:108650006D1E012DF9DC2E207870761CB01E079956
:108660000D1A002D1CDD19E0ED1F0EA8F8F7B8F962
:1086700083464FF007080DE0A8F101080A20BBFB74
:10868000F0F100FB11B0303006EB080178540A20FD
:10869000BBFBF0FBB8F1000FEEDCF61D002DE3DCB8
:1086A0002E4400E00126BC19B1443598007B2070AF
:1086B000641C09F10109BAF1000F09D130202070C2
:1086C000641C09F1010931E037E030E03FE04AE0A5
:1086D000BAF1000F06DACAF1000A2D202070641CDE
:1086E00009F10109274600260BE0761C0A209AFBB7
:1086F000F0F100FB11A030302070641C0A209AFBBE
:10870000F0FABAF1000FF0DCB1440025A6F101083F
:108710000AE0785D069017F808007855069807F883
:108720000800A8F101086D1C4545F2DB29E02D2069
:108730002070641C09F1010900BF492020706E20DF
:1087400060706620A070E41C09F1030919E0512053
:1087500020704E2060704120A0704E20E070241DDB
:1087600009F104090DE0532020704E206070412073
:10877000A0704E20E070241D09F1040901E000BF43
:10878000FEE700BFCDF828900898D8B90998A0EB6B
:108790000905002D21DDC84607E0A8F1010834983D
:1087A00010F8081008EB05028154B8F1000FF4DC52
:1087B00003E06D1E202134984155002DF9DC099805
:1087C0000A900AE005E00A98401C0A9020202070D8
:1087D000641CDDE909108842F5DB0A9837B0BDE872
:1087E000F08F2DE9F74FB4B09246359800680890A5
:1087F0000898002806DA0898404208904FF0FF30A9
:10880000079001E0002007903598D0F804B0DAF81E
:108810000000C01D20F0070001460830CAF8000023
:1088200091ED000B8DED0C0B02AA05A90CA8F8F731
:10883000A7FA0190349C0026B0460198001D072835
:1088400078D2DFE800F0B3A79704BF0A9D002D207F
:108850002070641C08F1010800BFA1460023DDE977
:10886000020158405940084304D130202070641C54
:10887000761C3BE002AA05A90EA8F8F7AFFB00BFE3
:108880000EA8F8F785F80B9007270EE07F1E0A2147
:108890000B98B0FBF1F201FB120030302070641C29
:1088A000761C0B98B0FBF1F00B90002FEEDC0F98CC
:1088B0000028E5DA00E0761E012E04DD701E19F8AE
:1088C00000003028F7D009EB06040025771E0BE0E6
:1088D00019F80500069019F8070009F80500069830
:1088E00009F807007F1E6D1CBD42F1DBB044BBF1EF
:1088F000000F04DD2E202070641C08F10108002206
:10890000DDE9021051405040014308D15D4603E0CB
:108910006D1E30202070641C002DF9DC28E002AAB6
:1089200005A90EA8F8F7EAFABBF1000F20DD002632
:108930005D4619E046E0ED1F0EA8F8F751F80A90E1
:1089400007270EE07F1E0A210A98B0FBF1F201FB17
:1089500012003030F11960540A210A98B0FBF1F08E
:108960000A90002FEEDCF61D002DE4DC2E4434448A
:10897000D84429E02D202070641C08F1010800BFB4
:10898000492020706E2060706620A070E41C08F101
:10899000030819E0512020704E2060704120A07023
:1089A0004E20E070241D08F104080DE053202070D3
:1089B0004E2060704120A0704E20E070241D08F110
:1089C000040801E000BFFEE700BFCDF8248007984F
:1089D000B8B90898A0EB0805002D1DDD474604E056
:1089E0007F1E3498C15D7A198154002FF8DC03E0B2
:1089F0006D1E202134984155002DF9DC089809900E
:108A00000AE005E00998401C099020202070641CB1
:108A1000DDE908108842F5DB099837B0BDE8F08F32
:108A20002DE9F74F86B0814692460798806850B18D
:108A3000DAF80000C01D20F0070001460830CAF82F
:108A4000000060C908E0DAF80010081DCAF800004C
:108A50000D680495049DEE1707980068039003982D
:108A6000002806DA0398404203904FF0FF3002904E
:108A700001E0002002904C46002185EA010071408F
:108A8000084304D130202070641C01277AE04FF0A5
:108A9000004286EA020155EA010028D12D2020700B
:108AA000392060703220A070E07033202071607136
:108AB00060713720A0713220E071302020723320A5
:108AC00060723620A0723820E07235202073342086
:108AD00060733720A073E0733520207438206074F1
:108AE0003020A0743820E074143414274AE00021A8
:108AF0000846691A76EB000026DA00226D4262EB26
:108B00000606002715E07F1C0A220023284631466E
:108B1000F7F7C4FC30201018207004F101044FF066
:108B20000A024FF0000328463146F7F7B7FC054626
:108B30000E46002185EA010071400843E3D17F1C05
:108B40002D202070641C1DE0002715E07F1C0A22E8
:108B5000002328463146F7F7A1FC3020101820707A
:108B600004F101044FF00A024FF000032846314699
:108B7000F7F794FC05460E46002185EA0100714096
:108B80000843E3D14FF00008A7F1010B0DE019F8FD
:108B90000800019019F80B0009F80800019809F87D
:108BA0000B00ABF1010B08F10108D845EFDB05978D
:108BB0000298F0B90398A0EB0708B8F1000F23DD85
:108BC000BB4607E0ABF1010B19F80B000BEB0801FA
:108BD00009F80100BBF1000FF4DC04E0A8F1010882
:108BE000202009F80800B8F1000FF7DC0398059081
:108BF0000AE005E00598401C059020202070641CC8
:108C0000039905988842F5DB059809B0BDE8F08F17
:108C100070B503460C4600201668351D1560316896
:108C200004E00D781D70491C5B1C401C0D78002D64
:108C3000F7D170BD2DE9FE4F81468B461446DBF817
:108C400000A0BAF1000F01DACAF1000ADBF808004F
:108C500028B356462068C01D20F0070001460830A2
:108C60002060D1E9007817E0761EB2003846414610
:108C7000CDE90187F7F7BDFB0F2100EA01050A2DB9
:108C800004D205F1300089F8000003E005F1370057
:108C900089F8000009F10109002EE5DC1BE05646C9
:108CA0002168081D20600868009012E0761EB1005F
:108CB0000098C84000F00F050A2D04D205F13000DD
:108CC00089F8000003E005F1370089F8000009F198
:108CD0000109002EEADC5046BDE8FE8F2DE9FE4F6B
:108CE00081468B461446DBF800A0BAF1000F01DA8A
:108CF000CAF1000ADBF8080028B356462068C01DF8
:108D000020F00700014608302060D1E9007817E024
:108D1000761EB20038464146CDE90187F7F769FB78
:108D20000F2100EA01050A2D04D205F1300089F86F
:108D3000000003E005F1570089F8000009F101097E
:108D4000002EE5DC1BE056462168081D20600868FF
:108D5000009012E0761EB1000098C84000F00F05A8
:108D60000A2D04D205F1300089F8000003E005F176
:108D7000570089F8000009F10109002EEADC50468D
:108D8000BDE8FE8F10B505480068401C0349086027
:108D9000034A50681168884710BD0000B8080020D9
:108DA000B8070020014A516010607047B8070020E2
:108DB000F7F779BB10B5024A50681168884710BDB3
:108DC00078080020014A5160106070477808002040
:108DD00004460D462A4621460248F8F768F900BFC6
:088DE000FEE700003814012039
:02000004900268
:1000000000F002F800F05CF80AA090E8000C8244CE
:100010008344AAF10107DA4501D100F051F8AFF2AB
:10002000090EBAE80F0013F0010F18BFFB1A43F0D6
:1000300001031847102C0100602C01000A444FF006
:10004000000C10F8013B13F0070408BF10F8014B37
:100050001D1108BF10F8015B641E05D010F8016B7C
:10006000641E01F8016BF9D113F0080F1EBF10F8E0
:10007000014BAD1C0C1B09D16D1E58BF01F801CB03
:10008000FAD505E014F8016B01F8016B6D1EF9D586
:100090009142D6D37047000000230024002500269B
:1000A000103A28BF78C1FBD8520728BF30C148BFDB
:1000B0000B6070471FB512F0F3FA1FBD10B510BDED
:1000C00000F054F91146FFF7F5FF11F0C3FF00F0FF
:1000D00072F903B4FFF7F2FF03BC00F079F953EAB9
:1000E000020C00F069802DE9F04B4FF00006002B68
:1000F0001FBFB3FA83F503FA05F424FA05F65E4050
:1001000012BF1643B2FA82F502FA05F4C5F12005D2
:100110001EBF22FA05FC44EA0C04203556EA044CC2
:100120004FEA144418BF641C4FF000084FF0000958
:10013000904271EB030C39D3002919BFB1FA81F752
:1001400001FA07F6B0FA80F700FA07F6C7F12007C0
:100150001EBF20FA07FC46EA0C062037B6FBF4FC6B
:10016000A7EB0507103F07F01F0BCBF120060CFA99
:100170000BFB2CFA06F644BFB3460026202FA4BF83
:100180005E464FF0000B5BEA060C08BF4FF0010B18
:1001900019EB0B09ABFB027C48EB0608C01B06FB06
:1001A00002CC0BFB03CC71EB0C01C1E70B46024602
:1001B00041464846BDE8F08B13B54FF000004FF0C4
:1001C0000001AFF30080BDE81C407047B2F120038E
:1001D0000AD5C2F1200301FA02F120FA03F300FA72
:1001E00002F041EA0301704700FA03F14FF000000A
:1001F0007047B2F120030AD5C2F1200320FA02F0C1
:1002000001FA03F321FA02F140EA0300704721FAF0
:1002100003F04FF00001704710B54C1084EA53040E
:1002200004D54042C1F1000138BF491E1B4204D52C
:100230005242C3F1000338BF5B1EFFF750FF14F0BA
:10024000804F04D04042C1F1000138BF491E14F074
:10025000004F04D05242C3F1000338BF5B1E10BDF3
:1002600010B5203AC0F00B80B1E81850203AA0E851
:100270001850B1E81850A0E81850BFF4F5AF5FEA85
:10028000027C24BFB1E81850A0E8185044BF18C938
:1002900018C0BDE810405FEA827C24BF51F8043BDF
:1002A00040F8043B08BF7047D20728BF31F8023B33
:1002B00048BF11F8012B28BF20F8023B48BF00F8C7
:1002C000012B704702F0FF0343EA032242EA024295
:1002D00000F02CB84FF0000200B513469446964645
:1002E000203922BFA0E80C50A0E80C50B1F1200149
:1002F000BFF4F7AF090728BFA0E80C5048BF0CC0F7
:100300005DF804EB890028BF40F8042B08BF704754
:1003100048BF20F8022B11F0804F18BF00F8012BC6
:1003200070477047704770474FF000020429C0F0D3
:10033000128010F0030C3FF4CFAFCCF1040CBCF1F1
:10034000020F18BF00F8012BA8BF20F8022BA1EB69
:100350000C01FFF7C1BF5FEAC17C24BF00F8012B8D
:1003600000F8012B48BF00F8012B7047754600F0DC
:100370002BF8AE4605006946534620F00700854637
:1003800018B020B500F02BF8BDE820404FF0000673
:100390004FF000074FF000084FF0000B21F007016D
:1003A000AC46ACE8C009ACE8C009ACE8C009ACE8B0
:1003B000C0098D46704710B50446AFF30080204653
:1003C000BDE81040FFF785BE00487047789B0120CC
:1003D00001491820ABBEFEE726000200704740F23C
:1003E000213CC0F2000C604745F2451CC0F2000CF5
:1003F000604744F6F96CC0F2000C604745F2650CAA
:10040000C0F2000C604743F2254CC0F2000C60477C
:1004100046F2190CC0F2000C604745F2FD2CC0F208
:10042000000C604745F2514CC0F2000C604740F6AA
:100430005D4CC0F2000C604746F6DD0CC0F2000CCB
:10044000604744F67D2CC0F2000C604744F60D6C0A
:10045000C0F2000C604744F6552CC0F2000C604717
:1004600045F6B91CC0F2000C604747F6017CC0F2AB
:10047000000C604743F20F3CC0F2000C604743F2AF
:10048000DF3CC0F2000C604742F2F52CC0F2000CD9
:10049000604743F2F53CC0F2000C604743F2FF2C8A
:1004A000C0F2000C604742F6E13CC0F2000C60472D
:1004B00046F2890CC0F2000C604745F6C17CC0F2E0
:1004C000000C604742F2E12CC0F2000C604742F29F
:1004D0001D2CC0F2000C604742F2C51CC0F2000C9B
:1004E000604742F22D2CC0F2000C604745F2A97C17
:1004F000C0F2000C604746F2F52CC0F2000C6047D9
:1005000042F6394CC0F2000C604742F6016CC0F272
:10051000000C604743F2733CC0F2000C604746F6A3
:100520007D2CC0F2000C604748F6C55CC0F2000CA0
:10053000604745F2A56CC0F2000C604745F2B95C1B
:10054000C0F2000C604743F2C12CC0F2000C6047BF
:1005500046F6A50CC0F2000C604746F6311CC0F20E
:10056000000C604744F61D2CC0F2000C604745F6B5
:10057000992CC0F2000C604746F27F6CC0F2000C70
:10058000604746F20B7CC0F2000C604746F2015C0B
:10059000C0F2000C604746F26F6CC0F2000C60477E
:1005A00046F2B95CC0F2000C604748F6A55CC0F2A8
:1005B000000C604741F2954CC0F2000C604700000F
:1005C00070B504464E492068884203D04D492068E2
:1005D000884208D14C48006800F4403008B101203E
:1005E00009E0002007E04948006800F4403008B105
:1005F000012000E00020B8B103F06AFD0546606804
:10060000B0F5803F06D0B0F5003F04D0B0F5403FD4
:1006100008D105E000BF6068000CB5FBF0F502E012
:10062000AD0800E000BF2AE04FF4002002F0F4FB28
:1006300005466068C0F31101F9B980140C281CD27A
:10064000DFE800F01B060708090A0B11131517193C
:1006500000BF00BF00BF00BF00BF6068800C40004B
:10066000B5FBF0F50AE02D0908E06D0906E0AD09DB
:1006700004E0ED0902E02D0A00E000BF00BF01F038
:100680009FFF41F20301884210D82148854206D9D4
:100690002068806840F48070216888602FE02068BE
:1006A000806820F480702168886028E06D0819480F
:1006B000854206D82068806820F4407021688860F0
:1006C0001DE01548854208D82068806820F44070F5
:1006D00040F480702168886011E01048854208D895
:1006E0002068806820F4407040F4007021688860C1
:1006F00005E02068806840F440702168886070BD23
:1007000000200240002102400823024008630258F2
:10071000002D3101105E5F0020BCBE0040787D01DD
:1007200070B5044620680DF071FE064620680DF095
:1007300072FE98B396BB2068806800F00D00012817
:100740000AD1206881681A4A1140891C816000BF63
:1007500003202168086009E0606D40F010006065CA
:10076000A06D40F00100A065012070BD01F02EFFDA
:10077000054614E001F02AFF401B02280FD920682B
:10078000806800F0010050B1606D40F010006065BD
:10079000A06D40F00100A0650120E6E705E02068BB
:1007A000806800F001000028E4D10020DDE70000AF
:1007B000C0FFFF7F10B504464FF40070D4F88416D4
:1007C0008847C4F88800D4F8880000B901E0002008
:1007D00010BD4FF0FF30FBE702E0521E8B5C8354EC
:1007E000002AFADC704700002DE9F05F83460F46CF
:1007F00000BF264805682648D0F80080454502DA43
:10080000A8EB050A03E0C5F1080000EB080ABAF1FD
:10081000030F04DA1F480068FFF7E6FDE9E71E480A
:10082000D0F800901D4901EBC52677B9002409E0F6
:100830000020610046F82100012101EB440146F847
:100840002100641CFF2CF3DD14E0002410E037F9D4
:10085000140000FA09F0610046F8210037F914008D
:1008600000FA09F0012101EB440146F82100641C63
:10087000FF2CECDD072D03D100200449086002E0C5
:10088000681C02490860BDE8F09F00009C0700203A
:10089000A0070020A4070020A807002000080030BF
:1008A0002DE9F04107460D4600BF00BF00BFBFF372
:1008B0005F8F00BF00BF00BF25B90F480068FFF77A
:1008C00098FD03E00C480068FFF798FD0B480668A8
:1008D0000B480468A6420DD0072C03D1002008491C
:1008E000086002E0601C06490860064901EBC4206C
:1008F000BDE8F0810448FBE7A40700209C07002026
:10090000A007002000080030000000302DE9F04171
:1009100007460C4615462E46234604486FF007014D
:1009200002683046FFF76FFDBDE8F08190130020AC
:100930002DE9F04107460C4615462E46234604484D
:100940006FF0070102683046FFF75DFDBDE8F081FA
:100950009013002010B502460B4603F1C400C2F309
:10096000003450F82400C2F30B04005D10BD0246B1
:100970000B46B020C058805C704730B5134603F179
:10098000C404C1F3003554F82540C1F30B0560558C
:1009900030BD10B51346B024E458605410BD10B5F6
:1009A00004464FF40060D4F884168847206120691B
:1009B00000B901E0002010BD4FF0FF30FBE7000060
:1009C0002DED028B9FED0F0AB0EE408A00BF0E485E
:1009D000006806F02DFC04464FF4803106F050FC10
:1009E00070EE480A9FED091AB0EE480A00EE810A3F
:1009F000B0EE408A064880ED008A0A20FFF708FD25
:100A0000E5E7000000000000E80800200AD7233DC9
:100A10000400002070B504460D46D4F88C0608B9D1
:100A2000012070BD6E682946D4F86426D4F84C06BF
:100A3000904708B100BFFEE74FF4CA610859294644
:100A4000D4F8682690476868B04201D10020E8E7F2
:100A5000686820B90020C4F88C060120E1E700BFD7
:100A6000FEE7000010B518480068FFF7D6FC1748ED
:100A7000006840F010001549086013480068FFF74F
:100A8000D1FC1348016810208847124908600846C5
:100A9000006808B900BFFEE70E4801680E48FFF77E
:100AA000C6FC0E490B48006806F010FC00210948FE
:100AB000006806F028FC002207215A2001F000FE01
:100AC0005A2001F0E9FD10BDD4080020D44402589A
:100AD00010270390E0080020D963000000100052A6
:100AE0000146374A0868904249D0354A18320868AA
:100AF000904244D0324A3032086890423FD0304A67
:100B00004832086890423AD02D4A603208689042D4
:100B100035D02B4A78320868904230D0284A90323B
:100B2000086890422BD0264AA8320868904226D006
:100B3000244A0868904222D0224A1832086890421B
:100B40001DD0204A30320868904218D01D4A4832E1
:100B50000868904213D01B4A6032086890420ED059
:100B6000184A78320868904209D0164A90320868CC
:100B7000904204D0134AA8320868904201D1012063
:100B800000E00020B0B10A78103A1823B2FBF3F06D
:100B900000F007020C4B9A5CCA65032805D90A6865
:100BA0006FF30902121D8A6503E00A686FF30902F8
:100BB0008A6503E0086820F0FF008865886D70474B
:100BC0001000024010040240BA26039010B50268DB
:100BD0002B4C0368A34222D0294C14340368A3424F
:100BE0001DD0274C28340368A34218D0244C3C3431
:100BF0000368A34213D0224C50340368A3420ED0A2
:100C00001F4C64340368A34209D01D4C7834036838
:100C1000A34204D01A4C8C340368A34201D10123AF
:100C200000E000238BB10378083B1424B3FBF4F1FC
:100C3000144B03EB81030366124B8033436601F0D0
:100C40001F040123A340836618E00378103B182497
:100C5000B3FBF4F10C4B9A4204D80B4BA83B9A42DD
:100C600000D30831094B03EB81030366074B803344
:100C7000436601F01F040123A340836610BD0000FA
:100C80000854025800580258B804024000080240B4
:100C90000179A9B3082940D8204B02689A4222D092
:100CA0001E4B143302689A421DD01C4B2833026835
:100CB0009A4218D0194B3C3302689A4213D0174B12
:100CC000503302689A420ED0144B643302689A4241
:100CD00009D0124B783302689A4204D00F4B8C3300
:100CE00002689A4201D1012200E000224AB14A1E64
:100CF0000B4B03EB8202C266094A4032026708E0EE
:100D00000BE04A1E074B03EB8202C266054A4032E3
:100D100002674A1E012393404367704708540258F4
:100D20000059025800090240014600208A69D2B9E0
:100D30008A6A32B1012A0DD0022A03D0032A10D1C7
:100D40000EE000BFCA6A02F08072B2F1807F00D16B
:100D5000012007E0CA6AB2F1C07F00D1012001E0A2
:100D600000E000BF36E08A69B2F5005F1BD18A6AF5
:100D700032B1012A07D0022A03D0032A11D10AE096
:100D800000BF01200EE0CA6A02F08072B2F1807FDB
:100D900000D1012006E0CA6AB2F1C07F00D1012073
:100DA00000E000BF16E08A6A32B1012A05D0022AAB
:100DB00004D0032A0CD103E000BF00BF012008E0EB
:100DC000CA6A02F08072B2F1807F00D1012000E097
:100DD00000BF00BF704770B5044625469C204059AF
:100DE00028B19C2250594FF4D1625159884770BDA7
:100DF000704700002DE9F34F2DED048B8FB0814635
:100E00004D4601214846FFF717FB0746002F04DC3B
:100E10000FB0BDEC048BBDE8FC8F287820287DD175
:100E200048461499FFF708FB0746002F00DCEFE760
:100E300028784A2818D1092F00DAE9E7D449088828
:100E40006D1C00260BE0A95D502904D10121B140A1
:100E5000014388B202E00121B1408843761C082E8C
:100E6000F1DBCB490880D3E72878462806D1022F4A
:100E700000DACDE7687811F019F9C9E7C5A239465B
:100E800028460DF0A9FA00287DD0C648816809A837
:100E90008847DDE90D10084400EE100AF8EE400A1C
:100EA0009DED0C0AB8EE400A9FEDBF1A20EE011A24
:100EB00081EE200ADFEDBC0A30EEC00AB7EEC00AB0
:100EC000B0EE408BFFF7BDFA8346DDE90D10084414
:100ED0000C9A0999CDE90012029053EC182BB349F2
:100EE0005846FFF7B3FA8246FFF7B5FAB048816873
:100EF00009A88847DDE90D10084400EE100AF8EE55
:100F0000400A9DED0C0AB8EE400A9FEDA71A20EEAC
:100F1000011A81EE200ADFEDA40A00E036E130EE8E
:100F2000C00AB7EEC00AB0EE408BFFF78AFA8346DC
:100F3000DDE90D1008440C9A0999CDE900120290E0
:100F400053EC182B9B495846FFF780FA8246FFF76F
:100F500082FA9948816809A88847DDE90D1008449C
:100F600000EE100AF8EE400A9DED0C0AB8EE400AB9
:100F70009FED8D1A20EE011A81EE200ADFED8A0A1C
:100F800030EEC00A00E091E0B7EEC00AB0EE408B50
:100F9000FFF757FA8346DDE90D1008440C9A0999CA
:100FA000CDE90012029053EC182B84495846FFF704
:100FB0004DFA8246FFF74FFA8148816809A88847B1
:100FC000DDE90D10084400EE100AF8EE400A9DED30
:100FD0000C0AB8EE400A9FED741A20EE011A81EE59
:100FE000200ADFED710A30EEC00AB7EEC00AB0EE9B
:100FF000408BFFF726FA8346DDE90D1001440C9A79
:101000000998CDE90121009053EC182B6D49584601
:10101000FFF71CFA8246FFF71EFA05F0D3FD00EE3B
:10102000100AB8EEC00AF2EE040A80EE201AB7EEFB
:10103000C10AB0EE408BFFF704FA834653EC182B3D
:1010400061A1FFF703FA8246FFF705FA05F0E0FD1C
:10105000D0F834B0FFF7F5F95A4663A10890FFF7CE
:10106000F5F98246FFF7F7F905F0A6FD00EE100A44
:10107000B8EEC00AF2EE040A80EE201AB7EEC10AFA
:10108000B0EE408BFFF7DDF983465D4890ED000A36
:10109000B7EEC00A8DED000B53EC182B59A1584642
:1010A000FFF7D4F98246FFF7D6F96FE060A2394620
:1010B00028460DF091F9E8B306F074F880464446EE
:1010C00036E0656805B95EA594ED030AB8EEC00A7E
:1010D000B7EEC00A9FED5D1B20EE011B94ED040AE4
:1010E000B8EEC00B81EE002BB0EE428B94ED020AFD
:1010F000B8EEC00AF2EE040A80EE201AB7EEC10A7A
:10110000B0EE409BFFF79DF983468DED068BD4E949
:1011100003202168CDE9021204908DED009B2A4640
:101120004C495846FFF792F98246FFF794F96469F3
:10113000002C00E004E0C4D1404606F015F825E09C
:1011400045A2394628460DF047F9B0B1FFF779F9C5
:10115000834643A1FFF77AF98246FFF77CF94FF403
:10116000806001F029F9FFF76CF9834642A1FFF78F
:101170006DF98246FFF76FF908E0FFF762F98346E1
:1011800041A1FFF763F98246FFF765F900BF3FE62B
:10119000AC070020476574537461636B496E666FDA
:1011A00000000000102703900000C842542A03905A
:1011B000EC260390102A0390F826039088290390C8
:1011C00004270390CC29039052544F53E5A086E6A0
:1011D000A088E58DA0E794A8E78E873A7B662E323B
:1011E0007D250D0A00000000E7BABFE7A88BE5A047
:1011F00086E6A0883A7B697D427974650D0A000015
:1012000004000020435055E58DA0E794A8E78E87A1
:101210003A7B662E327D250D0A435055E6B8A9E586
:10122000BAA63A7B662E327DE284830D0A00000066
:10123000476574546872656164496E666F000000AA
:101240003CE69CAAE591BDE5908D3E0000000000C3
:10125000000059401C290390426C6F636B00000032
:10126000E998BBE5A19EE4B880E6AEB5E697B6E99D
:1012700097B42E2E2E0D0A00E998BBE5A19EE581BC
:101280009CE6ADA20D0A0000E697A0E69588E68CE4
:1012900087E4BBA40D0A0000044A116800BF034A9A
:1012A0001268521A8242FADB70470000B808002028
:1012B0001CB500BF6A4601A906480068FFF7D0F8D0
:1012C000054801990068FFF7D0F80098FFF791F8FA
:1012D000F0E70000940700202409002008B5074823
:1012E00005F0B6FE0EF09CFC0020054B4FF480622A
:1012F00001460090034805F0B1FE08BDB97B02909D
:10130000FEFFFF7F1512039072B600BFFEE770B5B7
:1013100005460C46A0B2012806D002280AD00328B0
:1013200009D0042813D10CE004F4003008B10DF00A
:101330001DFF0DE00CE004F4003008B10DF094F84E
:1013400006E004F4003008B10FF0D6F800E000BF6A
:1013500000BF70BD70B50646FFF773F80546054837
:10136000026805A12846FFF771F80446FFF773F8F5
:1013700070BD0000B80800200D0A74696D73456ED9
:10138000643A7B697D0D0A00002500BF0520FFF748
:101390003FF80B480068401BB0F57A7FF6DB05F597
:1013A0007A7508480068841B2644FFF74AF880468F
:1013B000224605A1FFF74AF80746FFF74CF8E5E794
:1013C000B8080020980700204650533A7B697D0DED
:1013D0000A00000010B5044606480068FFF71DF833
:1013E0002146054804F086F902480068FFF71AF81C
:1013F00010BD00003809002000C0042410B50446C8
:1014000006480068FFF709F82146054804F072F91C
:1014100002480068FFF706F810BD00003C090020F4
:101420000048003010B5044606480068FEF7F5FF96
:101430002146054804F05EF902480068FEF7F2FF15
:1014400010BD0000400900200000003810B504461F
:1014500006480068FEF7E1FF2146054804F04AF916
:1014600002480068FEF7DEFF10BD000044090020BE
:10147000A013002005F09ABB08B50E480168087853
:101480008DF8000048788DF8010088788DF802000A
:10149000C8788DF803000098002805DD0098001D2D
:1014A0000844044A106002E00348024A1060081D24
:1014B00008BD0000B00700200000049010B50446ED
:1014C00006480068FEF7A9FF2146054804F039FAEE
:1014D00002480068FEF7A6FF10BD00003809002092
:1014E00000C0042410B5044606480068FEF795FFC6
:1014F0002146054804F025FA02480068FEF792FFED
:1015000010BD00003C0900200048003010B5044622
:1015100006480068FEF781FF2146054804F011FAED
:1015200002480068FEF77EFF10BD00004009002061
:101530000000003810B5044606480068FEF76DFF4D
:101540002146054804F0FDF902480068FEF76AFFED
:1015500010BD000044090020A01300202DE9F04137
:1015600004460F4626463D4629463046FEF782FF92
:101570003046FEF784FF054496F8B000287096F8D0
:10158000B100687096F8B200A87096F8B300E870E1
:1015900096F8B500287196F8B6006871BDE8F0813C
:1015A0002DE9F04104460D4626462F463946304681
:1015B000FEF760FF3046FEF762FF0744942050F8C4
:1015C0000680B0208059A0EB0800C0F34730387087
:1015D000BDE8F0810146014800887047AC07002053
:1015E000F8B504460D4616460020009000BF94F85A
:1015F0005000012801D10220F8BD012084F85000DC
:1016000000BF2046FFF78CF80746A7BB606D20F4AB
:10161000885040F002006065206805F4803141F098
:10162000004106F0804211438268194B1A40114371
:10163000816000BF13E00098401C0090154900989D
:1016400088420CD3606D20F0020040F0100060650D
:1016500000BF002084F8500000BF0120CCE72068C4
:101660008168C90F0029E6D1606D20F0020040F0CA
:101670000100606504E0FFE7606D40F01000606508
:1016800000BF002084F8500000BF3846B4E70000D7
:10169000C0FFFE3F00F8C3252DE9F84F04460D4674
:1016A0004FF0000A0020009094F83800012800D183
:1016B00000E000BFF849E868884200D00EE0F74932
:1016C0002068884200D100BFF5492068884200D1D7
:1016D00000BFF4492068884200D100BF00BF94F8E1
:1016E0005000012802D10220BDE8F88F012084F8C3
:1016F000500000BF20680CF098FE00287ED12068C2
:10170000C1692868C0F3130018B92868C0F3846061
:1017100004E0286890FAA0F0B0FA80F000F01F0210
:101720000120904001432068C1612168D5E9002073
:1017300001F1300CC0F3012B0CEB8B03D3F800C08C
:1017400000F01F0E4FF01F0B0BFA0EFB2CEA0B0CD8
:1017500000F01F0BC2F3846E0EFA0BFE4CEA0E0C67
:10176000C3F800C000BF20680CF05FFE814620680F
:101770000CF047FE8046B9F1000F6FD1B8F1000FB1
:10178000FBD1AA68296820680CF054FEC64800689E
:1017900000F07040B0F1805F07D168692168C968C6
:1017A000C1F382014900884014E02068C06800F05D
:1017B000100038B968692168C968C1F3820149001D
:1017C000884007E068692168C96801F0100189084C
:1017D0004900884007462869042840D020682A68C4
:1017E000296900F1600C0CEB8103D3F800C00CF008
:1017F000004C02F0F84B4BEA070B00E0CCE14CEA5E
:101800000B0CC3F800C000BF20686A7E2969012A5A
:1018100001D1D20700E00022134600F1600C0CEB6E
:101820008102D2F800C02CF0004C4CEA030CC2F844
:1018300000C000BF20682B7E2969012B01D1DB028B
:1018400000E000231A46036923F4F04301F01F0C63
:1018500002FA0CFC43EA0C03036100BF37E0206886
:10186000006E00F0F8402978B0EB816F05D1206858
:10187000006E20F00040216808662068406E00F08D
:10188000F8402978B0EB816F05D12068406E20F0D8
:101890000040216848662068806E00F0F840297892
:1018A000B0EB816F05D12068806E20F00040216888
:1018B00088662068C06E00F0F8402978B0EB816F30
:1018C00005D12068C06E20F000402168C8662068FD
:1018D0000CF0A1FD002872D12068EA682968D0F8D0
:1018E000C030C1F3130C23EA0C0302F0180BDFF82D
:1018F000BCC12CFA0BFC0CEA010C43EA0C03C0F847
:10190000C03000BF6449E86888427DD12B68C3F3CA
:1019100013031BB92B68C3F3846304E02B6893FAA9
:10192000A3F3B3FA83F35B1C03F01F03092B3ED828
:101930002B68C3F313031BB92B68C3F3846304E060
:101940002B6893FAA3F3B3FA83F35B1C03F01F0332
:101950004FF0010C0CFA03FC2B68C3F313031BB903
:101960002B68C3F3846304E02B6893FAA3F3B3FA00
:1019700083F35B1C03F01F034CEA836C2B68C3F3F7
:1019800013031BB92B68C3F3846304E02B6893FA39
:10199000A3F3B3FA83F35B1C03F01F0303EB4303CE
:1019A0004FF0000B4BEA03534CEA030341E02B6872
:1019B000C3F3130323B92B68C3F3846305E0A9E0E1
:1019C0002B6893FAA3F3B3FA83F35B1C03F01F03B2
:1019D0004FF0010C0CFA03FC2B68C3F313031BB983
:1019E0002B68C3F3846304E02B6893FAA3F3B3FA80
:1019F00083F35B1C03F01F034CEA836C2B68C3F377
:101A000013032BB92B6800E018E0C3F3846304E0F0
:101A10002B6893FAA3F3B3FA83F35B1C03F01F0361
:101A20000A3B03EB43034FF0007B4BEA03534CEAC2
:101A300003031946AA6820680CF0FCFC286800F033
:101A40000040002866D0154A2168914203D0144A0C
:101A50002168914201D1164900E016490846816883
:101A600001F0E07600BF0D492068884203D00C49A0
:101A70002068884201D10E4800E00E480C49884297
:101A80001AD106480CF0C7FC834605480CF0C3FC8D
:101A90004BEA000013E000000000FF470020024076
:101AA00000210240006002580010005CFFFF0F00A0
:101AB00000230240006302583E480CF0ACFCE8BB37
:101AC0003D492868884226D106F4000018BB3949F0
:101AD0002068884266D1394B22689A4203D0384B3D
:101AE00022689A4201D1374A00E0374A104646F44C
:101AF00000010CF0B3FC354800683549B0FBF1F04B
:101B0000401C4000009002E00098401E00900098A9
:101B10000028F9D146E02F492868884219D106F0FB
:101B20008070B0B92349206888423BD1234B22689A
:101B30009A4205D0224B22689A4200E025E001D16A
:101B4000204A00E0204A104646F080710CF086FCE6
:101B500028E021492868884224D106F4800008BB87
:101B60001449206888421DD1144B22689A4203D040
:101B7000134B22689A4201D1124A00E0124A1046E1
:101B800046F480010CF06AFC0CE0606D40F020002F
:101B900060654FF0010A05E0606D40F0200060656F
:101BA0004FF0010A00BF002084F8500000BF5046EB
:101BB0009AE5000000600258000084CB002002403B
:101BC000002102400023024000630258C0080020A8
:101BD000400D0300000052C70000B8CF2DE9F84FB8
:101BE00004464FF000090020009014B90120BDE820
:101BF000F88FE06818B1207F012800D100BF606D28
:101C000030B9204600F030F90020A06584F850007B
:101C100020688168C1F3407131B120688168874ACA
:101C20001140816000BF00BF20680CF0F9FBA8B92B
:101C300020688168824A114041F08051816000BF74
:101C4000804800688049B0FBF1F0401C009002E041
:101C50000098401E009000980028F9D120680CF0F0
:101C6000DFFB48B9606D40F010006065A06D40F08A
:101C70000100A0654FF0010920680CF0D6FB064674
:101C8000606D00F0100000287ED1002EFCD1606D48
:101C900020F4807040F00200606520680CF0BBFB0F
:101CA00078BB6A492068884203D069492068884225
:101CB00001D1684800E068486649884209D1634814
:101CC0000CF0A9FB824662480CF0A5FB4AEA000032
:101CD00002E062480CF09FFB98B95C4B22689A4284
:101CE00003D05B4B22689A4201D15A4A00E05A4A1B
:101CF00010466168826822F47C120A43826000BF49
:101D000000BF00F05DFC41F2030188420ED9A068DB
:101D100010280BD1607D216B41EA4030A168084357
:101D200040F00C01207F41EA004508E0607D216B16
:101D300041EA4030A1680843217F40EA0145207F05
:101D4000012803D1208C401E45EA4045606A28B135
:101D5000A08C00F47870A16A084305432068C0682D
:101D60003F49084028432168C86020680CF05DFBAB
:101D7000804620680CF045FB0746B8F1000F3BD1C8
:101D8000D7BB207DE16A00E050E041EA8035206861
:101D9000C06844F20301884328432168C86094F86E
:101DA0003800012817D1606A08B1A06A00B900BFE5
:101DB000A08F401E012141EA0041206C0843616C64
:101DC0000843A16C084321680969264A1140084369
:101DD0002168086105E02068006920F001002168A1
:101DE00008612068006920F07040616B0843216839
:101DF00008612046FEF7E4FBE068012809D120686D
:101E0000006B20F00F00A169491E08432168086398
:101E100005E02068006B20F00F0021680863606D0A
:101E200020F0020040F00100606505E0606D40F0C8
:101E3000100060654FF001094846D8E6C0FFFF5F1B
:101E4000C0FFFF7FC0080020400D030000200240BB
:101E50000021024000230240006302580060025843
:101E600003C0F0FF1EF800FC08B5094A0168914262
:101E70000DD100BF0749096841F08071054A116022
:101E80001146096801F08071009100BF00BF08BDD4
:101E900000600258E04402582DE9F041044600F089
:101EA00095FB804614B90120BDE8F081FE49206809
:101EB000884249D0FC4918312068884244D0FA4908
:101EC0003031206888423FD0F74948312068884245
:101ED0003AD0F54960312068884235D0F2497831EE
:101EE0002068884230D0F0499031206888422BD059
:101EF000ED49A8312068884226D0EC492068884204
:101F000022D0EA491831206888421DD0E749303193
:101F10002068884218D0E54948312068884213D0AB
:101F2000E2496031206888420ED0E049783120686B
:101F3000884209D0DD4990312068884204D0DB49CD
:101F4000A8312068884201D1012000E0002000284B
:101F500073D0606A00B100BF022084F8350000BF72
:101F6000002084F8340000BFCF492068884249D05F
:101F7000CD4918312068884244D0CB49303120689F
:101F800088423FD0C8494831206888423AD0C64983
:101F900060312068884235D0C34978312068884252
:101FA00030D0C1499031206888422BD0BE49A83139
:101FB0002068884226D0BD492068884222D0BB498B
:101FC0001831206888421DD0B849303120688842D5
:101FD00018D0B64948312068884213D0B3496031DF
:101FE000206888420ED0B14978312068884209D0F3
:101FF000AE4990312068884204D0AC49A8312068AD
:10200000884206D12068006820F00100216808603D
:1020100005E02068006820F00100216808600DE0FC
:1020200000F0D4FAA0EB0800052807D9202060654D
:10203000032084F83500012036E76AE02068006854
:1020400000F001000028EBD12068056898480540A1
:10205000D4E9020108432169084361690843A16981
:102060000843E1690843216A08430543606A04287C
:1020700003D1D4E90B01084305438E4800686FF390
:102080000F00B0F1005F1DD36068292802D360689B
:102090002E2811D960683F2802D3606842280BD9E6
:1020A0006068472802D36068482805D960684F28CF
:1020B00004D36068522801D8012000E0002008B154
:1020C00045F48015206805602068456925F00705FE
:1020D000606A0543606A04280DD1A06A0543E06A7E
:1020E00048B12046FEF720FE28B14020606501205F
:1020F00084F83500D8E6206845612046FEF7F0FCFC
:10210000064694F85C0000F01F013F208840B06054
:102110009EE069492068884222D0674914312068CE
:1021200088421DD0644928312068884218D062490D
:102130003C312068884213D05F4950312068884282
:102140000ED05D4964312068884209D05A497831FF
:102150002068884204D058498C312068884201D1D7
:10216000012000E00020E0B353492068884222D0DB
:1021700051491431206888421DD04F4928312068C8
:10218000884218D04C493C312068884213D04A49D3
:102190005031206888420ED0474964312068884217
:1021A00009D0454978312068884204D042498C31B1
:1021B0002068884201D1012000E0002000B100BF6A
:1021C000022084F8350000BF002084F8340000BFEE
:1021D0002068056839480540A068402802D11021D0
:1021E00006E02EE0A068802801D1C10100E00021B6
:1021F000E06841EAD001206941EAD001606941EA22
:10220000D001A06941EAD001E06941EAD001206A29
:1022100041EA101005432068056027492068401AEC
:102220001421B0FBF1F08000E0652046FEF758FC79
:10223000074694F85C0000F01F0101208840786098
:1022400006E040206065032084F8350001202BE67D
:102250001549206888427FD0134918312068884288
:102260007AD0114930312068884275D00E49483102
:102270002068884270D00C496031206888426BD059
:10228000094978312068884266D007499031206832
:10229000884261D00449A831206888425CD0034953
:1022A0002068884258D00BE0100002401004024021
:1022B0003F8010FE0010005C085402580F00FEFF23
:1022C0003B4918312068884246D03949303120686E
:1022D000884241D036494831206888423CD0344950
:1022E00060312068884237D031497831206888428F
:1022F00032D02F499031206888422DD02C49A83106
:102300002068884228D02B492068884224D0294957
:102310001431206888421FD026492831206888421D
:102320001AD024493C312068884215D021495031C7
:102330002068884210D01F496431206888420BD041
:102340001C4978312068884206D01A498C312068AF
:10235000884200E000E001D1012000E0002000B34D
:102360002046FEF733FCA068802801D10020606081
:102370002079216E0860D4E919104860606860B166
:102380006068082809D82046FEF782FC0020E16E2C
:102390000860D4E91C10486003E00020E066206774
:1023A000606700206065012084F8350000207BE52F
:1023B000100402400854025800B50346581CFEF7AA
:1023C0006BFF00BDF8B502460B4600216F4DD7E00C
:1023D00001278F401E6806EA0704002C72D01E7980
:1023E00006F00306012E04D01E7906F00306022E25
:1023F00013D190684F000326BE40B0434F00DE6803
:10240000BE4030439060506801268E40B0431E7934
:10241000C6F300168E40304350601E7906F0030666
:10242000032E09D0D0684F000326BE40B0434F00B2
:102430009E68BE403043D0601E7906F00306022E2F
:1024400013D1CF0802F1200656F827004E07F70EE9
:102450000F26BE40B0434F07FF0E1E69BE403043FB
:10246000CF0802F1200646F8270010684F00032627
:10247000BE40B0431E7906F003064F00BE40304315
:1024800010605E6806F44036002E78D000BF404EE3
:10249000366846F002063E4F3E603E46366806F01D
:1024A0000206009600BF00BF3A4E8F0856F827007C
:1024B0008E07370F0F26BE40B043374EB24202D1CF
:1024C00000262EE05BE0354EB24201D1012628E025
:1024D000334EB24201D1022623E0324EB24201D144
:1024E00003261EE0304EB24201D1042619E02F4EE1
:1024F000B24201D1052614E02D4EB24201D106268A
:102500000FE02C4EB24201D107260AE02A4EB24219
:1025100001D1082605E0294EB24201D1092600E08A
:102520000A268F073F0FBE4030431A4E8F0846F8E9
:1025300027004FF0B0463068A0435E6806F480166E
:1025400006B120434FF0B04630607068A0435E682B
:1025500006F4001606B120434FF0B046706068687C
:10256000A0435E6806F4003606B120436860286820
:10257000A0435E6806F4803606B120432860491CFB
:102580001E68CE40002E7FF423AFF8BD80000058B7
:10259000F44402580804005800000258000402588D
:1025A00000080258000C025800100258001402588B
:1025B00000180258001C025800200258002402583B
:1025C00001480068000C70470010005C014800687A
:1025D00070470000B808002010B5032000F0AEF8E6
:1025E00001F0C0FD10490968C1F303210F4A515C95
:1025F00001F01F0120FA01F40B48006800F00F0001
:102600001146085C00F01F0024FA00F00849086039
:10261000084804600F2000F00FF808B1012010BD39
:1026200000F00EF80020FAE718440258AA2603909A
:10263000C4080020C00800200146002070470000A8
:102640001148006840F002000F4908600F48006818
:1026500040F001000D4908600C481C38006840F04B
:1026600070600A491C39086003200246084B19684B
:102670004FF6FF031940074B0B4343EA0221044B7B
:10268000196000BF70470000F4440258200400584D
:102690000CED00E00000FA050146084600280DDBBD
:1026A00000BF00BF00F01F0301229A4043099B00B6
:1026B00003F1E023C3F8002100BF00BF00BF704753
:1026C0002DE9F05F80460D4616460FF0B3FA074637
:1026D00039462A46334601F00700C0F1070ABAF12D
:1026E000040F02D94FF0040A01E0C0F1070AD146F5
:1026F00000F1040ABAF1070F02D24FF0000A01E01C
:10270000A0F1030AD4464FF0010A0AFA09FAAAF125
:10271000010A0AEA020A0AFA0CFA4FF0010B0BFA54
:102720000CFBABF1010B0BEA030B4AEA0B0421464D
:1027300040460FF087FABDE8F09F000000BF00F0B0
:102740000702064B19684FF6FF031940044B0B4371
:1027500043EA0221014B196000BF70470CED00E015
:102760000000FA0510B501F0B3FC05490968C1F392
:102770000211044A515C01F01F01C84010BD000065
:1027800020440258AA26039070B50146844D2D6856
:1027900005F00303824D2D68C5F30510804D2D1DF6
:1027A0002D6805F001047E4D0C352D68C5F3CC0570
:1027B00015FB04F501EE105AB8EE411AF0EE410A8D
:1027C00000286FD023B1012B4ED0022B6BD16BE0D0
:1027D000734D283D2D68C5F340153DB3704D283D20
:1027E0002D68C5F3C1066F4D25FA06F201EE102AD9
:1027F000F8EE411A01EE100AB8EE411A81EE812A74
:102800009FED691AC0EE811A654D08352D68C5F334
:10281000080501EE105AB8EE411A31EE811AF7EEB2
:10282000001A31EE211A22EE010A1CE001EE100A14
:10283000B8EE411ADFED5D1A81EE812A9FED5A1A3A
:10284000C0EE811A564D08352D68C5F3080501EE16
:10285000105AB8EE411A31EE811AF7EE001A31EE35
:10286000211A22EE010A5BE001EE100AB8EE411ACD
:10287000DFED4F1A81EE812A9FED4B1AC0EE811ACF
:10288000474D08352D68C5F3080501EE105AB8EE1E
:10289000411A31EE811AF7EE001A31EE211A22EEBA
:1028A000010A3DE077E01DE001EE100AB8EE411AA2
:1028B0009FED402AC2EE011A9FED3B1A80EE812A5D
:1028C000374D08352D68C5F3080501EE105AB8EEEE
:1028D000411A32EE011AB7EE002A31EE021A21EE49
:1028E000810A1DE001EE100AB8EE411ADFED2F1A41
:1028F00081EE812A9FED2C1AC0EE811A284D0835F1
:102900002D68C5F3080501EE105AB8EE411A31EEF4
:10291000811AF7EE001A31EE211A22EE010A00BFE9
:1029200000BF1F4D08352D68C5F3462501EE105A2E
:10293000B8EE411AF7EE001A31EE211AC0EE011A74
:10294000BCEEE11A81ED001A154D08352D68C5F36E
:10295000064501EE105AB8EE411AF7EE001A31EEB4
:10296000211AC0EE011ABCEEE11A81ED011A0C4DDC
:1029700008352D68C5F3066501EE105AB8EE411A08
:10298000F7EE001A31EE211AC0EE011ABCEEE11A80
:1029900081ED021A03E000250D604D608D6070BD71
:1029A000284402580090D003000000460024744CD4
:1029B0000024744A20BCBE4B70B50146844D2D687E
:1029C00005F00303824D2D68C5F30530804D2D1DA4
:1029D0002D68C5F300147E4D14352D68C5F3CC0564
:1029E00015FB04F501EE105AB8EE411AF0EE410A5B
:1029F00000286FD023B1012B4ED0022B6BD16BE09E
:102A0000734D283D2D68C5F340153DB3704D283DED
:102A10002D68C5F3C1066F4D25FA06F201EE102AA6
:102A2000F8EE411A01EE100AB8EE411A81EE812A41
:102A30009FED691AC0EE811A654D10352D68C5F3FA
:102A4000080501EE105AB8EE411A31EE811AF7EE80
:102A5000001A31EE211A22EE010A1CE001EE100AE2
:102A6000B8EE411ADFED5D1A81EE812A9FED5A1A08
:102A7000C0EE811A564D10352D68C5F3080501EEDC
:102A8000105AB8EE411A31EE811AF7EE001A31EE03
:102A9000211A22EE010A5BE001EE100AB8EE411A9B
:102AA000DFED4F1A81EE812A9FED4B1AC0EE811A9D
:102AB000474D10352D68C5F3080501EE105AB8EEE4
:102AC000411A31EE811AF7EE001A31EE211A22EE88
:102AD000010A3DE077E01DE001EE100AB8EE411A70
:102AE0009FED402AC2EE011A9FED3B1A80EE812A2B
:102AF000374D10352D68C5F3080501EE105AB8EEB4
:102B0000411A32EE011AB7EE002A31EE021A21EE16
:102B1000810A1DE001EE100AB8EE411ADFED301A0D
:102B200081EE812A9FED2C1AC0EE811A284D1035B6
:102B30002D68C5F3080501EE105AB8EE411A31EEC2
:102B4000811AF7EE001A31EE211A22EE010A00BFB7
:102B500000BF1F4D10352D68C5F3462501EE105AF4
:102B6000B8EE411AF7EE001A31EE211AC0EE011A42
:102B7000BCEEE11A81ED001A154D10352D68C5F334
:102B8000064501EE105AB8EE411AF7EE001A31EE82
:102B9000211AC0EE011ABCEEE11A81ED011A0C4DAA
:102BA00010352D68C5F3066501EE105AB8EE411ACE
:102BB000F7EE001A31EE211AC0EE011ABCEEE11A4E
:102BC00081ED021A03E000250D604D608D6070BD3F
:102BD000284402580090D003000000460024744CA2
:102BE0000024744A20BCBE4B70B50146844D2D684C
:102BF00005F00303824D2D68C5F30550804D2D1D52
:102C00002D68C5F300247E4D1C352D68C5F3CC0519
:102C100015FB04F501EE105AB8EE411AF0EE410A28
:102C200000286FD023B1012B4ED0022B6BD16BE06B
:102C3000734D283D2D68C5F340153DB3704D283DBB
:102C40002D68C5F3C1066F4D25FA06F201EE102A74
:102C5000F8EE411A01EE100AB8EE411A81EE812A0F
:102C60009FED691AC0EE811A654D18352D68C5F3C0
:102C7000080501EE105AB8EE411A31EE811AF7EE4E
:102C8000001A31EE211A22EE010A1CE001EE100AB0
:102C9000B8EE411ADFED5D1A81EE812A9FED5A1AD6
:102CA000C0EE811A564D18352D68C5F3080501EEA2
:102CB000105AB8EE411A31EE811AF7EE001A31EED1
:102CC000211A22EE010A5BE001EE100AB8EE411A69
:102CD000DFED4F1A81EE812A9FED4B1AC0EE811A6B
:102CE000474D18352D68C5F3080501EE105AB8EEAA
:102CF000411A31EE811AF7EE001A31EE211A22EE56
:102D0000010A3DE077E01DE001EE100AB8EE411A3D
:102D10009FED402AC2EE011A9FED3B1A80EE812AF8
:102D2000374D18352D68C5F3080501EE105AB8EE79
:102D3000411A32EE011AB7EE002A31EE021A21EEE4
:102D4000810A1DE001EE100AB8EE411ADFED301ADB
:102D500081EE812A9FED2C1AC0EE811A284D18357C
:102D60002D68C5F3080501EE105AB8EE411A31EE90
:102D7000811AF7EE001A31EE211A22EE010A00BF85
:102D800000BF1F4D18352D68C5F3462501EE105ABA
:102D9000B8EE411AF7EE001A31EE211AC0EE011A10
:102DA000BCEEE11A81ED001A154D18352D68C5F3FA
:102DB000064501EE105AB8EE411AF7EE001A31EE50
:102DC000211AC0EE011ABCEEE11A81ED011A0C4D78
:102DD00018352D68C5F3066501EE105AB8EE411A94
:102DE000F7EE001A31EE211AC0EE011ABCEEE11A1C
:102DF00081ED021A03E000250D604D608D6070BD0D
:102E0000284402580090D003000000460024744C6F
:102E10000024744A20BCBE4B2DE9F0418AB006461E
:102E2000B6F5807F70D1FE48006800F00708B8F161
:102E3000050F65D2DFE808F0031221623000F84880
:102E40005038006800F00070B0F1007F04D107A88E
:102E5000FFF79AFC089C00E0002453E0F04850384B
:102E6000006800F00060B0F1006F04D104A8FFF723
:102E7000A3FD049C00E0002444E0E94850380068C9
:102E800000F00050B0F1005F04D101A8FFF7ACFEE4
:102E9000019C00E0002435E0E148001F006800F0DC
:102EA0004055DF485038006800F00400042809D17C
:102EB00045B9DB4850380068C0F3C101D94820FA51
:102EC00001F41AE0D6485038006800F48070B0F57C
:102ED000807F04D1B5F1805F01D1D34C0DE0D048A3
:102EE0005038006800F40030B0F5003F04D1B5F16F
:102EF000005F01D1CD4C00E0002403E0CC4C01E0A8
:102F0000002400BF24E3FFE7B6F5007F7AD1C44870
:102F1000006800F4E078B8F1800F2CD006DCB8F13E
:102F2000000F0AD0B8F1400F69D115E0B8F1C00F19
:102F300063D0B8F5807F62D12CE0B9485038006882
:102F400000F00070B0F1007F04D107A8FFF71CFC6F
:102F5000089C00E0002454E0B1485038006800F0BC
:102F60000060B0F1006F04D104A8FFF725FD049CB8
:102F700000E0002445E0AA485038006800F0005006
:102F8000B0F1005F04D101A8FFF72EFE019C00E024
:102F9000002436E0A248001F006800F04055A04819
:102FA0005038006800F00400042809D145B99C4855
:102FB00050380068C0F3C1019A4820FA01F41BE0C0
:102FC00097485038006800F48070B0F5807F04D1D5
:102FD000B5F1805F01D1944C0EE091485038006803
:102FE00000F40030B0F5003F05D1B5F1005F02D12B
:102FF0008E4C01E006E0002403E08D4C01E000244B
:1030000000BFA5E2B6F5806F7BD185480830006827
:1030100000F46008B8F5800F2CD006DCB8F1000F82
:103020000AD0B8F5001F69D115E0B8F5C00F63D01C
:10303000B8F5000F62D12CE079485038006800F0F4
:103040000070B0F1007F04D107A8FFF79DFB089C3A
:1030500000E0002454E072485038006800F000603E
:10306000B0F1006F04D104A8FFF7A6FC049C00E0B7
:10307000002445E06A485038006800F00050B0F184
:10308000005F04D101A8FFF7AFFD019C00E0002420
:1030900036E06348001F006800F040556048503833
:1030A000006800F00400042809D145B95C48503894
:1030B0000068C0F3C1015B4820FA01F41BE05848E6
:1030C0005038006800F48070B0F5807F04D1B5F10D
:1030D000805F01D1544C0EE051485038006800F434
:1030E0000030B0F5003F05D1B5F1005F02D14F4C83
:1030F00001E006E0002403E04D4C01E0002400BFA5
:1031000026E2B6F5006F7BD145480830006800F034
:10311000E068B8F1007F2CD006DCB8F1000F0AD0CF
:10312000B8F1807F69D115E0B8F1407F63D0B8F184
:10313000806F62D12CE03A485038006800F000708F
:10314000B0F1007F04D107A8FFF71EFB089C00E048
:10315000002454E032485038006800F00060B0F1BC
:10316000006F04D104A8FFF727FC049C00E00024B2
:1031700045E02B485038006800F00050B0F1005F87
:1031800004D101A8FFF730FD019C00E0002436E0E7
:103190002348001F006800F040552148503800685F
:1031A00000F00400042809D145B91D4850380068D2
:1031B000C0F3C1011B4820FA01F41BE01848503845
:1031C000006800F48070B0F5807F04D1B5F1805FB5
:1031D00001D1154C0EE012485038006800F4003060
:1031E000B0F5003F05D1B5F1005F02D10F4C01E011
:1031F00006E0002403E00E4C01E0002400BFA7E13C
:10320000B6F5805F7CD10648006800F4E047B7F56A
:10321000005F32D00EDCA7B1B7F5805F6DD11EE044
:10322000504402580090D00300093D0040787D01D1
:103230000080BB00B7F5405F5DD0B7F5804F5CD133
:1032400029E0C548006800F00070B0F1007F04D1AB
:1032500007A8FFF799FA089C00E000244FE0BE4859
:10326000006800F00060B0F1006F04D104A8FFF71F
:10327000A3FB049C00E0002441E0B748006800F094
:103280000050B0F1005F04D101A8FFF7ADFC019C34
:1032900000E0002433E0B0484C30006800F04055B6
:1032A000AD48006800F00400042808D13DB9AA48E0
:1032B0000068C0F3C101A94820FA01F41AE0A64849
:1032C000006800F48070B0F5807F04D1B5F1805FB4
:1032D00001D1A34C0EE0A048006800F40030B0F526
:1032E000003F06D1B5F1005F03D19E4C02E007E03C
:1032F00003E0002403E09C4C01E0002400BF27E130
:10330000B6F5002F59D194485830006800F4403782
:1033100037B1B7F5803F11D0B7F5003F4AD11BE078
:103320008D48006800F00060B0F1006F04D104A87F
:10333000FFF742FB049C00E000243DE08648006863
:1033400000F00050B0F1005F04D101A8FFF74CFC81
:10335000039C00E000242FE07F484C30006800F020
:1033600040557D48006800F00400042808D13DB9AC
:1033700079480068C0F3C101784820FA01F418E0E8
:103380007548006800F48070B0F5807F04D1B5F115
:10339000805F01D1724C0CE06F48006800F400308F
:1033A000B0F5003F04D1B5F1005F01D16D4C00E0F4
:1033B000002401E0002400BFCAE0B6F5803F28D118
:1033C00065484C30006800F480371FB1B7F5803F86
:1033D0001CD10DE06048006800F00070B0F1007F83
:1033E00004D107A8FFF7D0F9089C00E000240FE003
:1033F0005948006800F00060B0F1006F04D104A8E3
:10340000FFF7DAFA069C00E0002401E0002400BF88
:103410009EE0B6F5804F60D14F485830006800F00C
:10342000E047B7F1405F2FD007DC6FB1B7F1805FA5
:103430000ED0B7F1005F4DD118E0B7F1804F33D017
:10344000B7F1A04F46D13AE0FFF78CF9044643E0CC
:103450004148006800F00060B0F1006F04D104A89A
:10346000FFF7AAFA059C00E0002435E03A4800681E
:1034700000F00050B0F1005F04D101A8FFF7B4FBE9
:10348000029C00E0002427E03348006800F00400BC
:10349000042807D130480068C0F3C1012F4820FA42
:1034A00001F400E0002417E02B48006800F480706D
:1034B000B0F5807F01D12A4C00E000240CE02648C2
:1034C000006800F40030B0F5003F01D1254C00E069
:1034D000002401E0002400BF3AE0B6F5004F36D1E9
:1034E0001D485030006800F0405737B1B7F1805F99
:1034F0000ED0B7F1005F27D118E01748006800F43C
:103500000030B0F5003F01D1164C00E000241DE072
:103510001148006800F00070B0F1007F04D107A8E6
:10352000FFF732F9089C00E000240FE00A48006829
:1035300000F00060B0F1006F04D104A8FFF73CFA7E
:10354000059C00E0002401E0002400BF00E000240E
:1035500020460AB0BDE8F081004402580090D00334
:1035600000093D0040787D010080BB002DE9F0415D
:1035700004460025A846206800F00060B0F1006F06
:1035800030D1606E48B1B0F5801F0DD0B0F5001F8E
:1035900010D0B0F5401F15D113E0F948006840F491
:1035A0000030F74908600FE00221201D0CF0F2FB0B
:1035B000054609E0022104F124000CF09DFC0546BB
:1035C00002E001E0012500BF00BF55B9EC482430FE
:1035D000006820F44010616E0843E9492431086016
:1035E00000E0A846208800F48070B0F5807F2DD1DF
:1035F000606D05281AD2DFE800F0030A10171800E2
:10360000DF48006840F40030DD49086010E0002128
:10361000201D0CF0BFFB05460AE0002104F1240048
:103620000CF06AFC054603E002E001E0012500BF62
:1036300000BF55B9D2482430006820F00700616D02
:103640000843CF492431086000E0A846208800F4F0
:103650000070B0F5007F33D1A06D802817D003DC57
:1036600040B140281CD10CE0C02817D0B0F5807FB5
:1036700016D114E0C248006840F40030C049086028
:1036800010E00021201D0CF085FB05460AE000211A
:1036900004F124000CF030FC054603E002E001E0F8
:1036A000012500BF00BF55B9B5482430006820F49B
:1036B000E070A16D0843B2492431086000E0A846DB
:1036C000208800F48060B0F5806F38D1D4F8A40071
:1036D000B0F5800F19D004DC50B1B0F5001F1DD13A
:1036E0000DE0B0F5C00F17D0B0F5000F16D114E003
:1036F000A348006840F40030A149086010E00021B0
:10370000201D0CF047FB05460AE0002104F12400CF
:103710000CF0F2FB054603E002E001E0012500BFEA
:1037200000BF5DB996482C30006820F46000D4F8E2
:10373000A410084392492C31086000E0A846208874
:1037400000F40060B0F5006F38D1D4F8A800B0F1F3
:10375000007F19D004DC50B1B0F1807F1DD10DE0A5
:10376000B0F1407F17D0B0F1806F16D114E08448DB
:10377000006840F400308249086010E00021201DFC
:103780000CF008FB05460AE0002104F124000CF0CF
:10379000B3FB054603E002E001E0012500BF00BFE6
:1037A0005DB977482C30006820F0E060D4F8A810AC
:1037B000084373492C31086000E0A846206800F0F7
:1037C0000070B0F1007F27D1A06CA0B1102804D008
:1037D000202809D030280FD10CE06948006840F457
:1037E00000306749086009E00221201D0CF0D2FA80
:1037F000054603E002E001E0012500BF00BF55B926
:103800005F482030006820F03000A16C08435C491C
:103810002031086000E0A846208800F48050B0F510
:10382000805F36D1E06DB0F5005F19D004DC50B197
:10383000B0F5805F1DD10DE0B0F5405F17D0B0F559
:10384000804F16D114E04E48006840F400304C49D7
:10385000086010E00021201D0CF09CFA05460AE0EB
:10386000002104F124000CF047FB054603E002E0D0
:1038700001E0012500BF00BF55B941482430006870
:1038800020F4E040E16D08433D492431086000E048
:10389000A846208800F40050B0F5005F34D1206EB7
:1038A000B0F5403F1DD007DC68B1B0F5803F0BD0CC
:1038B000B0F5003F18D10DE0B0F5802F12D0B0F573
:1038C000A02F11D10FE011E00121201D0CF062FAB0
:1038D00005460BE0012104F124000CF00DFB054628
:1038E00004E003E002E001E0012500BF00BF55B99C
:1038F00023482430006820F4E020216E084320494A
:103900002431086000E0A846208800F48040B0F52B
:10391000804F38D1D4F8AC00B0F1405F1DD007DC47
:1039200068B1B0F1805F0BD0B0F1005F18D10DE04D
:10393000B0F1804F12D0B0F1A04F11D10FE011E0E3
:103940000121201D0CF026FA05460BE0012104F1AF
:1039500024000CF0D1FA054604E003E002E001E0A7
:10396000012500BF00BF6DB905482C30006820F06C
:10397000E040D4F8AC10084301492C31086002E063
:103980002C440258A846208800F40040B0F5004FAF
:1039900026D1E06E98B1B0F1805F03D0B0F1005F46
:1039A0000ED106E0F948006840F40030F74908609D
:1039B00008E00121201D0CF0EDF9054602E001E0D0
:1039C000012500BF00BF55B9F0482430006820F041
:1039D0004050E16E0843ED492431086000E0A846FC
:1039E000206800F08070B0F1807F27D1606CA0B1BA
:1039F000012804D0022809D003280FD10CE0E348A5
:103A0000006840F40030E149086009E00221201D0F
:103A10000CF0C0F9054603E002E001E0012500BF1B
:103A200000BF55B9D9482030006820F00300616C10
:103A30000843D6492031086000E0A846206800F419
:103A40008000B0F5800F7DD1D148006840F48070CF
:103A5000CF490860FEF7BAFD064606E0FEF7B6FD60
:103A6000801B642801D9032505E0C948006800F4DB
:103A700080700028F2D000BF85BBC4484430006885
:103A800000F44070B4F8B01001F44071884213D0D3
:103A9000BE484430006820F44077BC484430006899
:103AA00040F48030B949443108600846006820F489
:103AB0008030086008460760D4F8B000B0F5807F19
:103AC00015D1FEF783FD064609E0FEF77FFD801B5A
:103AD00041F28831884202D9032507E038E0AB483B
:103AE00044300068C0F340000028EED000BF55BB52
:103AF00000BFB4F8B00000F44070B0F5407F0ED1C4
:103B0000A2481C38006820F47C51A24AD4F8B000C6
:103B1000104041EA10109D491C39086007E09B489D
:103B20001C38006820F47C5098491C39086097487C
:103B300044300068B4F8B010C1F30B010843934956
:103B4000443101E005E001E0086002E0A84600E041
:103B5000A846207800F0010068B3A06F182819D09B
:103B600005DC48B1082808D0102816D10BE0202821
:103B700011D0282811D10FE011E00121201D0CF0F7
:103B800009F905460BE0012104F124000CF0B4F919
:103B9000054604E003E002E001E0012500BF00BFAC
:103BA00055B97A482830006820F03800A16F0843E2
:103BB00076492831086000E0A846207800F002002D
:103BC000022828D1606F062815D2DFE800F0030430
:103BD0000A11121311E00121201D0CF0DBF805463B
:103BE0000BE0012104F124000CF086F9054604E005
:103BF00003E002E001E0012500BF00BF55B96348C2
:103C00002830006820F00700616F08435F492831C1
:103C1000086000E0A846207800F0040004282AD1BB
:103C2000D4F89000062815D2DFE800F003040A114A
:103C3000121311E00121201D0CF0ACF805460BE039
:103C4000012104F124000CF057F9054604E003E0DB
:103C500002E001E0012500BF00BF5DB94B482C30F8
:103C6000006820F00700D4F89010084347492C3131
:103C7000086000E0A846207800F02000202836D117
:103C8000D4F88C00B0F1405F1DD007DC68B1B0F112
:103C9000805F0BD0B0F1005F18D10DE0B0F1804F24
:103CA00012D0B0F1A04F11D10FE011E00021201D82
:103CB0000CF070F805460BE0022104F124000CF032
:103CC0001BF9054604E003E002E001E0012500BF26
:103CD00000BF5DB92D482830006820F0E040D4F8DE
:103CE0008C10084329492831086000E0A846207854
:103CF00000F04000402836D1D4F89800B0F5406F6D
:103D00001DD007DC68B1B0F5806F0BD0B0F5006F47
:103D100018D10DE0B0F5805F12D0B0F5A05F11D1E1
:103D20000FE011E00021201D0CF034F805460BE0F7
:103D3000022104F124000CF0DFF8054604E003E062
:103D400002E001E0012500BF00BF5DB90F482C3043
:103D5000006820F4E050D4F8981008430B492C3147
:103D6000086000E0A846207800F0800080283AD162
:103D7000D4F89C00B0F5C04F23D00DDC98B1B0F55D
:103D8000005F11D0B0F5804F1ED113E02C440258D3
:103D900000480258FFFCFF0FB0F5004F12D0B0F5FD
:103DA000204F11D10FE011E00021201D0BF0F2FF98
:103DB00005460BE0022104F124000CF09DF80546B5
:103DC00004E003E002E001E0012500BF00BF4DB9BF
:103DD000BE48006820F46040D4F89C100843BB49FA
:103DE000086000E0A846207800F00800082817D1F5
:103DF000D4F88000B0F5805F07D1022104F12400DF
:103E00000CF07AF808B14FF00108B048001F0068C4
:103E100020F44050D4F880100843AC49091F0860D2
:103E2000207800F01000102815D1D4F89400B0F5D7
:103E3000807F07D1022104F124000CF05DF808B165
:103E40004FF00108A148006820F44070D4F89410A5
:103E500008439E490860206800F40020B0F5002F58
:103E600026D1D4F8A00030B1B0F5803F09D0B0F52C
:103E7000003F0ED10CE00021201D0BF08BFF05460A
:103E800009E0022104F124000CF036F8054602E0B6
:103E900001E0012500BF00BF4DB98C48006820F447
:103EA0004030D4F8A01008438849086000E0A846D4
:103EB000206800F48020B0F5802F2DD1D4F8840044
:103EC000B0F5801F06D0B0F5001F0CD0B0F5401F34
:103ED00011D10FE07D482C38006840F400307B4958
:103EE0002C39086009E0012104F124000CF004F8E9
:103EF000054602E001E0012500BF00BF5DB973483F
:103F0000001F006820F44010D4F8841008436F4963
:103F1000091F086000E0A846206800F48030B0F572
:103F2000803F24D1E06C18B1B0F5803F0FD108E09C
:103F300066482C38006840F4003064492C39086029
:103F400007E00221201D0BF025FF054601E00125B9
:103F500000BF00BF55B95D480C38006820F48030C0
:103F6000E16C084359490C39086000E0A846206814
:103F700000F00050B0F1005F07D1022104F12400ED
:103F80000BF0BAFF08B14FF00108206800F40030D0
:103F9000B0F5003F27D1E06FA0B1B0F5807F06D02B
:103FA000B0F5007F0CD0B0F5407F0CD109E0474858
:103FB0002C38006840F4003044492C39086004E093
:103FC00003E002E001E0012500BF00BF55B93F4812
:103FD000001F006820F44070E16F08433B49091F4F
:103FE000086000E0A846206800F48010B0F5801F4B
:103FF00009D136480838006820F00040216F084396
:10400000324908390860206800F08050B0F1805FC4
:104010000AD12E484838006820F48040D4F8B41003
:1040200008432A4948390860206800F40010B0F5B8
:10403000001F09D125480838006820F08070A16E63
:104040000843224908390860206800F08040B0F138
:10405000804F11D100BF1D484838006820F400404F
:104060001A494839086008460068D4F8B81008436F
:1040700016494839086000BF206800F00040B0F1E0
:10408000004F09D111480C38006820F04050216DD4
:1040900008430E490C390860206800F40000B0F5B0
:1040A000000F0AD10948001F006820F44000D4F82E
:1040B000881008430549091F0860B8F1000F02D1B4
:1040C0000020BDE8F0810120FBE7000058440258C1
:1040D00010B500F047F80D490968C1F303210C4AF7
:1040E000515C01F01F0120FA01F40848006800F05B
:1040F0000F001146085C00F01F0024FA00F005498B
:104100000860054804600846006810BD184402585D
:10411000AA260390C4080020C008002000B5FFF7BD
:10412000D7FF05490968C1F30211044A515C01F047
:104130001F01C84000BD00001C440258AA2603907D
:1041400000B5FFF7C5FF05490968C1F30221044A1C
:10415000515C01F01F01C84000BD00001C44025822
:10416000AA260390F0B5824E366806F0380636B1BE
:10417000082E15D0102E15D0182E7DD114E07C4EAF
:10418000103E3668C6F3401646B1794E103E36688A
:10419000C6F3C107774E26FA07F000E07548E5E060
:1041A0007548E3E07548E1E0714E1836366806F070
:1041B00003046F4E18363668C6F305116C4E1C3674
:1041C000366806F001056A4E24363668C6F3CC061A
:1041D00016FB05F601EE106AB8EE410A002971D00F
:1041E00024B1012C50D0022C6DD16DE0604E103EF8
:1041F0003668C6F340163EB35D4E103E3668C6F3D1
:10420000C1075C4E26FA07F301EE103AF8EE411AA8
:1042100001EE101AB8EE411A81EE812A9FED581A6C
:10422000C0EE011A524E20363668C6F3080601EE7B
:10423000106AB8EE411A31EE811AF7EE001A31EE2B
:10424000211A62EE010A1EE001EE101AB8EE411AC0
:10425000DFED4C1A81EE812A9FED491AC0EE011A5A
:10426000434E20363668C6F3080601EE106AB8EEF3
:10427000411A31EE811A00E076E0F7EE001A31EED5
:10428000211A62EE010A5BE001EE101AB8EE411A43
:104290009FED3D2AC2EE011A9FED391A80EE012AE8
:1042A000334E20363668C6F3080601EE106AB8EEC3
:1042B000411A32EE011AB7EE002A31EE021A61EE0F
:1042C000810A3DE04EE01DE001EE101AB8EE411A01
:1042D000DFED2E1A81EE812A9FED291AC0EE011A18
:1042E000234E20363668C6F3080601EE106AB8EE93
:1042F000411A31EE811AF7EE001A31EE211A62EE00
:10430000010A1DE001EE101AB8EE411A9FED1E2AB7
:10431000C2EE011A9FED1A1A80EE012A144E2036C1
:104320003668C6F3080601EE106AB8EE411A32EE9E
:10433000011AB7EE002A31EE021A61EE810A00BFBF
:1043400000BF0B4E20363668C6F34626721C01EEBF
:10435000102AB8EE411AC0EE811ABCEEE11A11EE35
:10436000100A00E0002001E0034800BF00BFF0BDDC
:10437000104402580090D00300093D0040787D01B0
:10438000000000460024744C0024744A20BCBE4B3C
:104390002DE9F047044614B90120BDE8F087FEF787
:1043A0000FF9B0F5005F00D300BF94F83800012882
:1043B0000ED1E3492068884203D0E2492068884250
:1043C00004D16068012801D1606C08B10120E4E7E4
:1043D000DB492068884204D0D949203120688842CE
:1043E00002D1D74D2D1F25E0D7492068884204D03F
:1043F000D54920312068884202D1D34D2D1F19E0C4
:10440000D2492068884204D0D049203120688842AF
:1044100002D1CE4D2D1F0DE0CA492068884204D03C
:10442000C84920312068884202D1C64D2D1F01E0C5
:104430000120B2E794F8910028B9002084F8900098
:10444000204600F08BF920460BF08AFE08B10120CF
:10445000A3E7022084F89100E06820B1012804D08D
:10446000022806D103E0002705E0102703E02027FB
:1044700001E0002700BF00BFA06806281BD2DFE8CC
:1044800000F00305080B1015002616E04FF48066B7
:1044900013E04FF4006610E04FF4006647F00107A8
:1044A0000BE04FF4006647F0020706E04FF40066A9
:1044B00047F0030701E0002600BF00BF2F60206A1D
:1044C00000287AD04FF0000A9D492068884204D025
:1044D0009B4920312068884204D14FF48070FEF758
:1044E0009BFC824698492068884204D09649203136
:1044F0002068884204D14FF40070FEF78DFC82469C
:1045000092492068884204D090492031206888422E
:1045100004D14FF40070FEF77FFC82468949206881
:10452000884204D14FF48060FEF776FC82468549CC
:1045300020312068884204D14FF40060FEF76CFC03
:104540008246A069B0F5002F12D1616C042901D117
:10455000402005E0616C082901D1480100E0606D50
:104560000AEB8A014A00216A4143B2FBF1F810E0EC
:10457000A16AB1F1806F01D1022100E0012108465A
:104580000AEB8A014A00216A41430902B2FBF1F8B1
:1045900000BF0A20B8FBF0F16162B8FBF0F100FB4C
:1045A0001180082802D9606A401C6062606C04288F
:1045B00002D1606A4108616200BF606810B1606842
:1045C000022808D1206D012801D1002001E04FF41C
:1045D0000070814606E0206D012801D1400200E014
:1045E00000208146FDF7ECFFB0F5005F22D3206884
:1045F00000685749084021680860616C606808439A
:10460000A16C0843E16C084340EA09003043E16AC9
:10461000084361690843A1690843A18C40EA01503D
:10462000A16A084321690843216809680843216891
:1046300008601FE02068006846490840216808605B
:10464000616C60680843A16C0843E16C084340EA70
:1046500009003043E16A084361690843A1690843DE
:10466000A18C40EA0150A16A084321680968084307
:1046700021680860206840684EF20F018843216875
:104680004860216BE0690843616B08432168496811
:10469000084321684860206880682F4908402168E5
:1046A0008860606D401E616E0843E16D0843216EB5
:1046B0000843A16D491E40EA01202168896808432A
:1046C000216888602068C0684FF220010840216896
:1046D000C860D4E91A0108437421095B40EA01412A
:1046E000206F401E41EA00202168C9680843216804
:1046F000C86013492068884203D012492068884264
:1047000011D1686C20F00100686494F83800012829
:1047100009D1D4E90F01401E41EA00106864686CB9
:1047200040F0010068640020C4F89400012084F87F
:10473000910000BF002084F8900000BF00BF2CE66D
:104740000458014004540058045C014004600140D6
:1047500010C005F010C005F80080F8FF10B586B055
:1047600004463E492068884276D13D48006868B9D1
:1047700000BF3C48006840F400003A490860084621
:10478000006800F40000009000BF00BF34480068DB
:10479000401C3349086033481038006840F010006E
:1047A0003049103908604FF4C05001900220029047
:1047B00000200390022004900A20059001A92A48B5
:1047C000FDF700FE4FF400500190022002900020FF
:1047D0000390012004900A20059001A92248FDF7CA
:1047E000F1FD4FF4804001900220029000200390E0
:1047F000032004900A20059001A91B48FDF7E2FD63
:104800001A481B4908605A204860402118488160B6
:104810000021C1604FF4806101618900416189001C
:1048200081610021C16101624162032181624FF413
:104830000001C16200210163FDF72EFB08B1FCF706
:1048400063FD00BF0A48C4F88400846300BF00BF52
:10485000C4F88000846300BF06B010BD245C014032
:1048600034090020F044025800100258B8000240F9
:10487000001B012070B504460CB9012070BD606AB0
:1048800000B900BFA06AB0F5800F00D100BF924907
:10489000206888420CD091492068884208D090490D
:1048A0002068884204D0E0680F2801D90120E5E79C
:1048B00020460BF07DFC064687492068884209D0D7
:1048C00086492068884205D085492068884201D001
:1048D000082E0DD880492068884207D07F4920687B
:1048E000884203D07E492068884203D1102E01D926
:1048F0000120C3E7A06AB0F5800F1DD1764920687A
:1049000088420DD075492068884209D074492068D2
:10491000884205D0206BB0F5702F01D90120ADE79A
:10492000206B10B9A089050400E0256BE068B0EBAE
:10493000154F03D90120A1E7A089050494F881004F
:1049400028B9002084F88000204600F0CBF802202F
:1049500084F881002068006820F001002168086068
:10496000A069B0F1806F11D16068B0F5800F01D1FE
:10497000A06B28B1606848B9A06BB0F1805F05D129
:104980002068006840F4805021680860A16AE069EE
:1049900008432843E16B0843E168084321688860C5
:1049A000616A606B0843A16B0843A16908432169F0
:1049B000084361690843216A084361680843E16C60
:1049C0000843A1680843A16C0843A16D084321680E
:1049D000C860A06AB0F5800F4DD1206C012806D1C7
:1049E0002068006840F400402168086005E0206805
:1049F000006820F4004021680860606C012806D13E
:104A00002068006840F480402168086005E0206864
:104A1000006820F48040216808602F49206888429F
:104A20000AD02E492068884206D02D492068884245
:104A300002D0B5F5702F0ED027492068884207D0E4
:104A400026492068884203D025492068884209D138
:104A5000B5F5F81F06D12068006840F400502168C1
:104A6000086005E02068006820F4005021680860B4
:104A70002168E06A0864606888B9A06A38B920686B
:104A8000806820F4C05040F400602168886020688D
:104A9000806820F4C06040F48060216888602068ED
:104AA000006D20F0010021680865606800F4800056
:104AB000B0F5800F07D12068C06820F00040616D1C
:104AC00008432168C8600020C4F88400012084F8ED
:104AD00081000020D2E60000003001400038004094
:104AE000003C004010B586B00446142101A8FBF735
:104AF000F1FB73492068884269D100BF71480068A2
:104B000040F480506F4908600846006800F4805007
:104B1000009000BF00BF00BF6A481038006840F036
:104B200008006849103908600846006800F008006D
:104B3000009000BF00BF00BF0846006840F00200C0
:104B400008600846006800F00200009000BF00BF47
:104B50008020019002200290002003900320049006
:104B60000520059001A95848FDF72CFC082001906C
:104B7000022002900020039003200490052005905D
:104B800001A95248FDF71EFC5148524908602620F1
:104B9000486040214F4881600021C1604FF480612E
:104BA0000161002141618161C161016204214162B1
:104BB000032181620021C1620163FDF76DF908B133
:104BC000FCF7A2FB00BF4348A067846376E042493C
:104BD0002068884272D100BF3A48006840F4005013
:104BE000384908600846006800F40050009000BF93
:104BF00000BF00BF33481038006840F01000314952
:104C0000103908600846006800F01000009000BFEE
:104C100000BF4FF4E040019002200290002003907A
:104C2000012004900520059001A92C48FDF7CAFB3E
:104C30002B482C4908605320486000212948816096
:104C4000C1604FF480610161002141618161C161F6
:104C5000016204214162032181620021C16201637A
:104C6000FDF71AF908B1FCF74FFB00BF1D48E067DC
:104C7000846300BF1A4818301B49086054204860FC
:104C80004021194881600021C1604FF480610161B9
:104C9000002141618161C1610162042141620321FE
:104CA00081620021C1620163FDF7F6F808B1FCF7EB
:104CB0002BFB00BF0C48A067846300BF06B010BD8B
:104CC00000300140F0440258000C02580004025821
:104CD00010040240E8160120003401400010025880
:104CE0004000024060170120D817012030B502466D
:104CF0000B4600BF92F83C00012801D1022030BDD4
:104D0000012082F83C0000BF022082F83D001068BC
:104D1000416810688468214D1068A84203D0204D76
:104D20001068A84203D121F470015868014321F0B2
:104D300070011868014310684160184D1068A8425E
:104D40001BD01068B0F1804F17D0164D1068A842E4
:104D500013D0154D1068A8420FD0144D1068A8420A
:104D60000BD00F4D1068A84207D0114D1068A84213
:104D700003D0104D1068A84205D124F08004986833
:104D8000044310688460012082F83D0000BF0020C9
:104D900082F83C0000BF00BFB1E700000000014006
:104DA000000401400004004000080040000C0040E6
:104DB000001800400040014010B504460CB9012025
:104DC00010BD94F83D0028B9002084F83C0020462E
:104DD00000F02AF8022084F83D00211D20680BF025
:104DE000CFFE012084F8480000BF84F83E00012176
:104DF0003F200155402001554120015542200155D9
:104E00004320015500BF00BF012084F84400452025
:104E10000155462001554720015500BF012084F867
:104E20003D000020CCE7000008B5094A0168914226
:104E30000DD100BF0749096841F00801054A11601A
:104E40001146096801F00801009100BF00BF08BDCC
:104E5000000C0040E8440258014691F83D0001284A
:104E600001D001207047022081F83D001C4B0868EA
:104E700098421BD00868B0F1804F17D0194B0868D2
:104E8000984213D0184B086898420FD0174B086807
:104E900098420BD0164B0868984207D0154B08680B
:104EA000984203D0144B0868984210D10868806873
:104EB000124B00EA0302062A0FD0B2F5803F0CD055
:104EC0000868006840F001000B68186005E0086899
:104ED000006840F001000B6818600020C2E7000085
:104EE000000001400004004000080040000C0040A9
:104EF000000401400018004000400140070001008C
:104F00002DE9F04104460D46002700BF94F83C000F
:104F1000012802D10220BDE8F081012084F83C0084
:104F200000BF022084F83D002068866840480640A3
:104F300026F47F46206886602868702826D00CDC1E
:104F400000F00F01002966D10011072863D2DFE8C5
:104F500000F0555657584B374100B0F1101F52D052
:104F600009DCB0F5805F10D0B0F5005F1BD0B0F564
:104F7000801F50D146E0A0F580102038002843D093
:104F8000102842D0202846D140E046E0D5E902135F
:104F90006A6820680BF06BFE2068866846F077062A
:104FA0002068866039E0D5E902136A6820680BF052
:104FB0005EFE2068806840F48040216888602CE0B4
:104FC000EA68696820680CF01DF8502120680BF031
:104FD00059FE22E0EA68696820680CF026F8602132
:104FE00020680BF04FFE18E0EA68696820680CF052
:104FF00009F8402120680BF045FE0EE000BF00BF1D
:1050000000BF00BF00BF00BF00BF00BF296820680D
:105010000BF038FE01E0012700BF00BF012084F83B
:105020003D0000BF002084F83C0000BF384672E716
:1050300088FFCEFF10B586B00446142101A8FBF707
:1050400049F91049206888421AD100BF0E4800680B
:1050500040F002000C4908600846006800F00200B9
:10506000009000BF00BF102001900220029000209D
:10507000039004900220059001A90448FDF7A2F9CD
:1050800006B010BD00040040E0440258000402587D
:105090002DE9F04104460D461646002700BF94F85E
:1050A0003C00012802D10220BDE8F081012084F8F3
:1050B0003C0000BF0C2E51D005DC4EB1042E1ED09A
:1050C000082E7AD133E0102E60D0142EF9D175E07D
:1050D000294620680BF0E2FD2068806940F0080056
:1050E000216888612068806920F004002168886157
:1050F00020688069296908432168886178E0294629
:1051000020680BF021FE2068806940F4006021686F
:1051100088612068806920F4806021688861206847
:105120008069296940EA01202168886160E0294698
:1051300020680BF063FE2068C06940F00800216819
:10514000C8612068C06920F004002168C861206837
:10515000C069296908432168C86149E02946206877
:105160000BF0A6FE2068C06940F400602168C861A9
:105170002068C06920F480602168C8612068C06927
:10518000296940EA01202168C86131E02946206888
:105190000BF0C8FE2068406D40F0080021684865AB
:1051A0002068406D20F00400216848652068406D4B
:1051B00029690843216848651AE017E029462068F4
:1051C0000BF0E8FE2068406D40F4006021684865FF
:1051D0002068406D20F48060216848652068406D3B
:1051E000296940EA01202168486501E0012700BFE4
:1051F00000BF00BF002084F83C0000BF384653E7E2
:1052000010B504460CB9012010BD94F83D0028B932
:10521000002084F83C00204600F02AF8022084F8A0
:105220003D00211D20680BF0ABFC012084F84800F4
:1052300000BF84F83E0001213F2001554020015568
:1052400041200155422001554320015500BF00BFB8
:10525000012084F84400452001554620015547208F
:10526000015500BF012084F83D000020CCE700007C
:1052700008B5094A016891420DD100BF0749096884
:1052800041F00201054A11601146096801F002016E
:10529000009100BF00BF08BD00040040E844025870
:1052A00070B504460D4615B994F83E0015E0042D7E
:1052B00002D13F20005D10E0082D02D14020005DAA
:1052C0000BE00C2D02D14120005D06E0102D02D133
:1052D0004220005D01E04320005D012801D0012053
:1052E00070BD1DB9022084F83E001AE0042D03D1E0
:1052F00002213F20015514E0082D03D10221402056
:1053000001550EE00C2D03D102214120015508E08A
:10531000102D03D102214220015502E00221432039
:1053200001550122294620680BF090FC2B4920688A
:1053300088420FD02A49206888420BD0294920682A
:10534000884207D028492068884203D0274920682E
:10535000884201D1012000E0002028B12068406C83
:1053600040F40040216848641C49206888421BD0F2
:105370002068B0F1804F17D01D492068884213D0B3
:105380001C49206888420FD01B49206888420BD0F6
:1053900013492068884207D018492068884203D002
:1053A00010492068884210D120688068144900EABA
:1053B0000106062E0FD0B6F5803F0CD0206800689D
:1053C00040F001002168086005E02068006840F0B6
:1053D000010021680860002082E700000000014011
:1053E00000040140004001400044014000480140E9
:1053F0000004004000080040000C0040001800407D
:105400000700010070B5044600BF94F88000012831
:1054100001D1022070BD012084F8800000BF24204B
:10542000C4F88400206805682068006820F0010046
:105430002168086045F000554FF000506066206814
:10544000056020460BF05CFF2020C4F8840000BFFC
:10545000002084F8800000BF00BFDBE770B5044681
:105460000D4600BF94F88000012801D1022070BDD4
:10547000012084F8800000BF2420C4F88400206844
:1054800006682068006820F0010021680860206834
:10549000806820F0606028432168886020460BF017
:1054A0002FFF206806602020C4F8840000BF002081
:1054B00084F8800000BF00BFD9E770B504460D46F0
:1054C00000BF94F88000012801D1022070BD0120A6
:1054D00084F8800000BF2420C4F884002068066897
:1054E0002068006820F0010021680860206880685A
:1054F00020F0604028432168886020460BF000FFC0
:10550000206806602020C4F8840000BF002084F8D2
:10551000800000BF00BFD9E710B504460CB90120D8
:1055200010BDA06900B100E000BFD4F8840028B924
:10553000002084F88000204600F02AF82420C4F8D7
:1055400084002068006820F001002168086020467F
:105550000BF0BAFF012800D1E2E7A06A10B12046A3
:105560000BF0FAFE2068406820F490402168486003
:105570002068806820F02A00216888602068006820
:1055800040F001002168086020460BF061FFC7E78A
:1055900010B5B6B00446142131A8FAF79BFEBC2121
:1055A00002A8FAF797FE4D49206888427ED1012073
:1055B00002900020209002A8FDF7D8FF08B1FBF769
:1055C000A3FE00BF4648006840F010004449086050
:1055D0000846006800F01000019000BF00BF00BF47
:1055E0003F481038006840F001003D49103908601C
:1055F0000846006800F00100019000BF00BF4FF4B2
:10560000806031900220329001203390002034904D
:105610000720359031A93348FCF7D4FE4FF40070D1
:1056200031901220329001203390002034900720D6
:10563000359031A92B48FCF7C5FE2B482B49086053
:1056400029204860002129488160C1604FF48061B1
:105650000161002141618161C161016204214162F6
:1056600000218162C1620163FCF716FC08B1FBF7FF
:105670004BFE00BF1D48E067846300BF1A48183026
:105680001B4908602A204860402119488160002198
:10569000C1604FF480610161002141618161C1619C
:1056A0000162042141620321816200E014E00021D3
:1056B000C1620163FCF7F0FB08B1FBF725FE00BFF8
:1056C0000B48A067846300BF002201212520FCF75E
:1056D000F7FF2520FCF7E0FF36B010BD00100140B9
:1056E000F0440258000002581000024078190120CE
:1056F000F01901202DE9F04707468C46BCF1000F58
:1057000001D1BDE8F08739468E684FF0010909FAEA
:1057100006F8ACEB0800D0F8009029F00044D0F86F
:105720000490B9F1000F31D104F1010909FA06F929
:1057300009EB0003D1F80C90994524D0D3F80090E0
:1057400029F0004909F1010909FA06F909EB0305F5
:10575000D3F8009009F00049B9F1000F02D0486079
:10576000046092E04860D3F80090A14409F1010977
:10577000C0F80090D1F80C90A94503D0D0F8009063
:10578000C5F8049081E0486004607EE0D0F80490A1
:1057900009F1010909FA06F9A0EB090204F101096E
:1057A00009FA06F909EB0003D1F80C9099455AD093
:1057B000D3F8009029F0004909F1010909FA06F926
:1057C00009EB0305D2F8009009F00049B9F1000F88
:1057D00009D0D3F8009009F00049B9F1000F02D0C8
:1057E0004860046051E0D2F8009009F00049B9F136
:1057F000000F10D04860D3F80090A14409F10109CE
:10580000C0F80090D1F80C90A9453ED0D0F8009097
:10581000C5F8049039E0D3F8009009F00049B9F1D7
:10582000000F0CD04A60D2F80090A14409F10109A0
:10583000C2F80090D2F80090C3F8049025E04A60C6
:10584000D2F80090A144D3F800A0D14409F1020994
:10585000C2F80090D1F80C90A94516D0D2F800906B
:10586000C5F8049011E0D2F8009009F00049B9F1B0
:10587000000F02D04860046007E04A60D2F8009050
:10588000A14409F10109C2F8009000BF39E72DE9F0
:10589000F04F84460B4613B90020BDE8F08F6146F7
:1058A0008D68012000FA05F84E68A8F10100184043
:1058B00010B9087AC34004E091F808B023FA0BF05D
:1058C000431C324600BF146804F0004060BB9C4299
:1058D0002AD3E01A02280ED244F00040106002EBF6
:1058E000080A601CA8408618C868B04200D10E683B
:1058F0004E605046D1E7601CA84000EB0209581CDE
:10590000A8408718E01A401E38607B6043F00040D2
:105910001060C868484502D03868C9F804004F6074
:1059200002EB080A5046B8E724F00040401CA840AB
:105930000244C868904200D10A68B242C3D1002034
:10594000ABE72DE9F04106463546AA684FF0000C5A
:10595000C1F808C0C1F80CC0C1F810C0C1F814C02B
:105960002C68D4F800C02CF00043D4F800C00CF030
:10597000004CBCF1000F10D003FA02FCD1F80880F3
:10598000C444C1F808C003F1010C0CFA02FCD1F8C0
:105990001080C444C1F810C00FE003FA02FCD1F833
:1059A0000C80C444C1F80CC003F1010C0CFA02FCD9
:1059B000D1F81480C444C1F814C0D4F804C0BCF1B8
:1059C000000F06D04FF0FF3CC1F800C04C60BDE8AE
:1059D000F08103F1010C0CFA02FC0CEB04009AE0DC
:1059E000D5F80CC0844505D26FF0020CC1F800C098
:1059F0004860ECE7D0F800C02CF00043D0F804C0B9
:105A0000BCF1000F05D16FF0010CC1F800C0486077
:105A1000DDE7D0F804C00CF1010C0CFA02FCA0EB9D
:105A20000C0403F1010C0CFA02FC0CEB0007D5F896
:105A30000CC0BC4517D0D7F804C09C4505D06FF00A
:105A4000040CC1F800C04860C1E7D4F800C02CF0D5
:105A5000004CD0F80480C44513D06FF0050CC1F899
:105A600000C04860B3E7D4F800C02CF0004CD0F878
:105A70000480C44505D06FF0050CC1F800C0486033
:105A8000A5E7D0F800C00CF0004CBCF1000F10D01E
:105A900003FA02FCD1F80880C444C1F808C003F13D
:105AA000010C0CFA02FCD1F81080C444C1F810C0FB
:105AB0001CE0D4F800C00CF0004CBCF1000F05D184
:105AC0006FF0030CC1F800C04C6080E703FA02FCE1
:105AD000D1F80C80C444C1F80CC003F1010C0CFADD
:105AE00002FCD1F81480C444C1F814C0D4F800C03A
:105AF0002CF0004CD0F80480C44505D06FF0050CA4
:105B0000C1F800C04C6062E7044603F1010C0CFAD6
:105B100002FC0CEB0400D5F80CC084457FF460AFA8
:105B20004FF0000CC1F800C000BF50E7F0B50346CD
:105B30000C46012707FA02F5082D01D200BFFEE747
:105B400018468260102100E0491CB1FBF5F705FB07
:105B50001717002FF8D11E467718076007684760AF
:105B6000671A7F1BD740D0F800C0CCF80070002720
:105B7000D0F800C0CCF804703719C760F0BD30B55C
:105B800003460C461846214612E0083A0D78057087
:105B90004D7845708D788570CD78C5700D7905711B
:105BA0004D7945718D798571CD79C5710831083090
:105BB000072AEAD806E0921E0D7805704D784570E8
:105BC000891C801C012AF6D80AB10D78057030BDF9
:105BD00030B503460C461846214612E0083A0D88B7
:105BE00005804D8845808D888580CD88C5800D894C
:105BF00005814D8945818D898581CD89C58110318A
:105C00001030072AEAD806E0921E0D8805804D88DC
:105C10004580091D001D012AF6D80AB10D880580AE
:105C200030BD30B503460C461846214612E0083A0E
:105C30000D6805604D6845608D688560CD68C560FC
:105C40000D6905614D6945618D698561CD69C561E4
:105C500020312030072AEAD806E0921E0D68056040
:105C60004D68456008310830012AF6D80AB10D6840
:105C7000056030BD70B503460C461846214622E04B
:105C8000083AD1E90056C0E90056D1E90256C0E908
:105C90000256D1E90456C0E90456D1E90656C0E9D6
:105CA0000656D1E90856C0E90856D1E90A56C0E9B6
:105CB0000A56D1E90C56C0E90C56D1E90E56C0E996
:105CC0000E5640314030072ADAD80AE0921ED1E958
:105CD0000056C0E90056D1E90256C0E9025610311B
:105CE0001030012AF2D81AB1D1E90056C0E90056A5
:105CF00070BDFEB505460E4634462919042202A899
:105D0000FFF73DFF241D291904226846FFF737FFDE
:105D1000241D00270AE02919042201A8FFF72FFFFC
:105D20000298416801988847241D7F1C009887428B
:105D3000F1D3FEBD2DE9FF470D4690469A4605F189
:105D400008024FF0040C0C9B0CFB0320009A116816
:105D5000884706461EB9002004B0BDE8F08700243D
:105D60001AE05AF82400009A116888478146B9F170
:105D7000000F0ED105E0641E58F82400009A516807
:105D80008847002CF7D100984168304688470020AA
:105D9000E2E748F82490641C0C988442E1D32F4633
:105DA000F01904226946FFF7EAFE3F1DF0190422AC
:105DB0000CA9FFF7E4FE3F1D0C998A00F01941463B
:105DC000FFF7DDFE3046C7E7464A8267D0F8801607
:105DD000012902D002290AD104E0434A8264434ADD
:105DE000C26509E0424A8264424AC26504E03E4A12
:105DF00082643E4AC26500BF00BF4FF0806181618E
:105E00000022C26120210A5442841022828400228E
:105E100026210A5427210A540F2228210A5400223D
:105E200029210A544FF4206242850022C2623021A7
:105E30000A54428610228286002236210A543721D3
:105E40000A540F2280F83820002280F839204FF4BD
:105E5000206242870022C26340210A524FF420622E
:105E600042210A52802280F84420816C098841EA4C
:105E70000142C264002280F8502080F8512080F84E
:105E8000522080F853200F2280F8542001225621FE
:105E90000A524FF42062A0F85820C16D098841EAE7
:105EA00001420266002280F864204FF44042A0F8CC
:105EB00066200022A0F868204FF44042A0F86A2033
:105EC0000122A0F86C20082280F86E20FF2280F8C2
:105ED0007020002280F8712080F8742084210A50FC
:105EE000C26770472D160600FC0D00203C0E0020F6
:105EF0001C0E00205C0E002070B50E4609680D18BF
:105F0000002DC8BF347B13DD304608F0BBF92118E3
:105F1000A0EB0010CCB2032C054406D9221F30465A
:105F2000D4B2FAF7B1FA032CF8D8002DECDC3473B4
:105F3000356070BD70B50E4609680D18002DC8BFDC
:105F4000347B14DD304608F09DF92118A0EB800069
:105F5000CCB2032C05EB800506D9221F3046D4B203
:105F6000FAF792FA032CF8D8002DEBDC3473356085
:105F700070BD70B50E4609680D18002DC8BF347B82
:105F800013DD304608F07EF921184042CCB2032CD4
:105F900005EB001506D9221F3046D4B2FAF774FA81
:105FA000032CF8D8002DECDC3473356070BD10B5CF
:105FB0000446002004212060A17221462073A082A3
:105FC0004FF6FC70D4F8F8209047208110BD70B5D2
:105FD00004460D46049E214608784E2805D148788F
:105FE000452802D18878532802D06FF0010070BD97
:105FF000C87900F00C00042801D1801FF7E7087968
:1060000080031060487940033060887900F0040014
:1060100028B91020286010681030186006E04FF48E
:1060200004702860106800F5047018600020DEE736
:1060300070B586B006460C4602A803AB04AA05A9B3
:1060400000902046FFF7C3FF054615B1284606B06D
:1060500070BD03982318059822182146304600F099
:1060600001F8F4E72DE9FF4F83B0044689469346D3
:106070000020029000264D4628784E2805D16878E9
:10608000452802D1A878532804D06FF0010007B04A
:10609000BDE8F08FE87900F00C00042801D1871FDB
:1060A000AFE0A8790011E97940EA21100190A879C0
:1060B00000F00800C0BBA87900F00100C8B9D4F80E
:1060C0003406C4F814014FF48C70D4F8341601511E
:1060D000D4F8340600F580604FF48E710851D4F87E
:1060E000340600F58060091D0851012184F8381636
:1060F00035E0D4F83406C4F81401D4F8340600F5B9
:1061000080604FF48C7108514FF48E70D4F83416BF
:106110000151D4F8340600F580604FF490710851B5
:10612000022184F838161AE0FFE7D4F83406C4F8E0
:106130001401D4F8340600F580604FF48C710851D6
:10614000D4F8340600F50060091D0851D4F834066F
:1061500000F54060091D0851032184F8381628799C
:106160004FEA803868794FEA403AA87900F0040095
:1061700030B905F1100B08F110002844069005E035
:1061800005F5047B08F5047028440690A87900F012
:10619000020010B14FF0FF300290C4F88CB0C4F888
:1061A0009080BAF1000F10D14FF40051A820015196
:1061B0004FF40050D4F884168847064616B96FF09D
:1061C00004071EE09420065105E00021A82001519B
:1061D000942106980851C4F898A000219C200151F0
:1061E000A02102980851A42006510021C4F81011E2
:1061F00020460199FAF74DF907460FB9384646E7A8
:1062000000BF26B14FF4D160015930468847384667
:106210003DE770B504462046FAF740F9A420055939
:1062200025B14FF4D16001592846884770BD70B53B
:1062300004460E463546042221462846FAF7CCFA93
:106240002079287160796871A079A871A07AE871C5
:10625000E0792872022204F1080105F10900FAF739
:10626000BBFA207BE872022204F1140105F10C0054
:10627000FAF7B2FA022204F1160105F10E00FAF75C
:10628000ABFA042204F1180105F11000FAF7A4FAA0
:10629000042204F11C0105F11400FAF79DFA022210
:1062A00004F1220105F11800FAF796FA022204F12E
:1062B000240105F11A00FAF78FFA94F826002877DE
:1062C00094F82700687794F82800A87794F82900B4
:1062D000E877022204F12A0105F12000FAF77CFA9E
:1062E000042204F12C0105F12200FAF775FA0222CA
:1062F00004F1320105F12600FAF76EFA022204F1E8
:10630000340105F12800FAF767FA94F8360005F829
:106310002A0F94F83700687094F83800A87094F841
:106320003900E8702A3D022204F13A0105F12E00FD
:10633000FAF752FA042204F13C0105F13000FAF7B1
:106340004BFA022204F1400105F13400FAF744FA55
:10635000022204F1420105F13600FAF73DFA94F801
:10636000440085F83800042204F14C0105F139009D
:10637000FAF732FA94F8500005F83D0F94F85100FE
:10638000687094F85200A87094F85300E87094F87C
:10639000540028713D3D022204F1560105F14200EE
:1063A000FAF71AFA022204F1580105F14400FAF74B
:1063B00013FA042204F1600105F14600FAF70CFA21
:1063C00094F8640085F84A00022204F1660105F1A0
:1063D0004B00FAF701FA022204F1680105F14D00C1
:1063E000FAF7FAF9022204F16A0105F14F00FAF70F
:1063F000F3F9022204F16C0105F15100FAF7ECF90E
:1064000094F86E0005F8530F94F86F00687094F8D4
:106410007000A87094F87100E87094F87400287106
:10642000D4F81411D4F83406081AC0F38720687120
:106430004FF48C700159D4F83406081AC0F3872041
:10644000A8714FF48E700159D4F83406081AC0F3BD
:106450008720E8714FF490700159D4F83406081A77
:10646000C0F3872028724FF49270005D687294F830
:106470002501A87294F82601E87294F82701287380
:10648000533D022204F5947105F16000FAF7A4F976
:10649000022204F5957105F16200FAF79DF994F86E
:1064A0002C0185F8640094F82D0185F86500D4F876
:1064B000300118B9002085F8660002E0FF2085F859
:1064C000660094F8340185F86700202204F2144134
:1064D00005F16800FAF780F94FF4807204F2344154
:1064E00005F18800FAF778F994F8380685F88801FC
:1064F0004FF4C960005D85F8890170BD70B5044630
:106500000E463546042229462046FAF765F92879D1
:10651000207169796171A979A171E979A172297AEA
:10652000E171022205F1090104F10800FAF754F9BA
:10653000E87A2073022205F10C0104F11400FAF745
:106540004BF9022205F10E0104F11600FAF744F9A5
:10655000042205F1100104F11800FAF73DF90422B4
:1065600005F1140104F11C00FAF736F9022205F1D5
:10657000180104F12200FAF72FF9022205F11A019D
:1065800004F12400FAF728F9297F84F82610697F9E
:1065900084F82710A97F84F82810E97F84F829104F
:1065A000022205F1200104F12A00FAF715F904226C
:1065B00005F1220104F12C00FAF70EF9022205F18F
:1065C000260104F13200FAF707F9022205F1280149
:1065D00004F13400FAF700F915F82A1F84F8361090
:1065E000697884F83710A97884F83810E9782A3D5A
:1065F00084F83910022205F12E0104F13A00FAF76D
:10660000EBF8042205F1300104F13C00FAF7E4F85C
:10661000022205F1340104F14000FAF7DDF802220C
:1066200005F1360104F14200FAF7D6F895F8381072
:1066300084F84410042205F1390104F14C00FAF702
:10664000CBF815F83D1F84F85010697884F8511084
:10665000A97884F85210E97884F8531029793D3DDF
:1066600084F85410022205F1420104F15600FAF7B1
:10667000B3F8022205F1440104F15800FAF7ACF82E
:10668000042205F1460104F16000FAF7A5F895F837
:106690004A1084F86410022205F14B0104F16600EF
:1066A000FAF79AF8022205F14D0104F16800FAF7B1
:1066B00093F8022205F14F0104F16A00FAF78CF811
:1066C000022205F1510104F16C00FAF785F815F882
:1066D000531F84F86E10697884F86F10A97884F8D5
:1066E0007010E97884F87110297984F87410687949
:1066F000D4F8341601EB8020C4F81401A879D4F83A
:10670000341601EB80214FF48C700151E879D4F8F4
:10671000341601EB80214FF48E700151287AD4F8A1
:10672000341601EB80214FF490700151697A001DFD
:106730000155A97A84F82511E97A84F82611297B74
:10674000533D84F82711022205F1600104F594708D
:10675000FAF742F8022205F1620104F59570FAF7A2
:106760003BF895F8641084F82C1195F8651084F8BE
:106770002D1195F8660018B90021C4F8301103E016
:106780004FF0FF31C4F8301195F8671084F83411D8
:10679000202205F1680104F21440FAF71DF84FF4C5
:1067A000807205F1880104F23440FAF715F894F884
:1067B000380685F888014FF4C960005D85F88901C5
:1067C00070BD1CB504464FF4CB621159D4F8540681
:1067D00088470020019000904FF4CA61085969462B
:1067E000D4F8642690471CBD7CB505460C460120B4
:1067F0000190009469462846FAF70CF97CBD0146E1
:106800004FF48270405800F5C57070477CB505465E
:106810000C4602200190009469462846FAF7FAF8DF
:106820007CBD70B504460D46D4F88C0608B1022034
:1068300070BD29462046FFF7FBFBF9E770B505461A
:106840002C46A020005900281FDAA820005958B172
:106850004FF40041A02001514FF40040D4F88416B9
:1068600088479C2108510AE04FF40051A0200151B3
:106870004FF40050D4F8841688479C2108519C207E
:10688000005910B96FF0030070BD0C2184F8B010EE
:10689000002184F8B11084F8B21084F8B31084F8A1
:1068A000B51084F8B610204608F0A7FA1449AC20B9
:1068B00001511449F42001511349F02001511349A9
:1068C000F82001519820005920B911494FF48070E7
:1068D000015103E00F494FF4807001510E49FC2033
:1068E00001512046F9F7CBFD801D4FF4827108510C
:1068F0000A49C4F808110A49C4F80C110020C3E77A
:10690000D70D029029F9029091F60290FDF60290BF
:106910007B0902900D090290550902905D150290C5
:10692000F9E4029070B505462C46A020005910B13C
:106930006FF0010070BD94200159B02001511C4935
:10694000AC20015190200059B0F5004F09D21949EF
:10695000F42001511849F02001511849F820015143
:1069600008E01749F42001511649F0200151164959
:10697000F82001519820005920B914494FF4807033
:10698000015103E012494FF4807001511149FC207C
:1069900001512046F9F773FD401C4FF482710851F4
:1069A0000D49C4F808110D49C4F80C110020C1E7C5
:1069B000F10D0290F9F9029061F8029079F70290D6
:1069C00075FA0290C5F80290EDF7029093090290D3
:1069D000310902906F090290A115029043E50290DF
:1069E00010B54FF0FF334FF4987213500023921FED
:1069F0001352921E1352121D1354521C13544FF46F
:106A000092721354521C1354521C135480F8343194
:106A10004FF49C721350002115E0002300F59E7284
:106A200042F8213001EBC104983202EB4402537466
:106A300001EBC10400F5EA7202EB4402137400F2A8
:106A400014425354491C2029E7DB002104E00023B1
:106A500000F234425354491CFF29F8DD10BD73B5D0
:106A600082B005462E460398002803DA6FF00A002C
:106A700004B070BD0620019003A800906946284626
:106A8000F9F7C8FF0446012C05D14FF4C8600399FB
:106A900081510020ECE72046EAE7D0F88C2602B1CD
:106AA0007047C0F8801600BFFAE773B582B005469C
:106AB0002E460398002803DA6FF00A0004B070BD78
:106AC0000520019003A8009069462846F9F7A2FF27
:106AD0000446012C05D14FF4C86003998151002070
:106AE000ECE72046EAE77CB505462C4600BF694640
:106AF000D4F86C26D4F84C0690470028F7D0042030
:106B00000190002000904FF4CA6108596946D4F8FA
:106B1000642690472846F9F7C6FC7CBD7CB505463F
:106B20002C46D4F88C0600B97CBD00200190009062
:106B30006946D4F86426D4F84C06904708B100BFE3
:106B4000FEE700BF4FF4CA6108596946D4F86826C9
:106B5000904701980028F5D1C4F88C0600BFE3E700
:106B600010B504462046FFF754FB10BD7CB5054622
:106B70002C46D4F88C0608B100207CBD4FF4CA61C5
:106B800008596946D4F8682690470198042804D12A
:106B9000401FC4F88C060020EFE7019808B90120D7
:106BA000EBE700BFFEE70AF083BB000001460148A7
:106BB000FEF7A0BD781B01200148006840697047BE
:106BC0004809002010B582B00F4C4FF0FF3021680B
:106BD000486001A9684600F0F7F92068002141608B
:106BE000C26822B1C1604FF08050084908604FF47C
:106BF0007A71009800FB01F0019902B090FBF1F06E
:106C0000C0F57A7010BD00004809002004ED00E0D6
:106C10000248006800680068406870474809002022
:106C20002DE9F14FDFF8348100254D4F82B04FF44C
:106C30007A764FF0FF393A68906B002804BF506BAA
:106C400000283FD0C2F80490D2F838C09563506B4A
:106C500055635560D16821B1D5604FF08051414BEB
:106C600019605FEA0C010CD04B6A1BB119465B6AD4
:106C7000002BFBD1136BCCF820504B621962C2F889
:106C800030C0021E18BF6FF001041BD0D2F814C030
:106C90001460136A516A002B06BF3A681163596287
:106CA000002918BF0B625FEA0C02EFD150B100BFA0
:106CB00090F83C10446911F0010F08BF0BF05CF92B
:106CC0002000F5D13C68606AE8B16562206B00285D
:106CD00018BFDFF894C016D0D0E90B2B4FF000039B
:106CE0005FEA9B0108D0D2F800A0491EE24503D11B
:106CF000121D5B1C0029F6D159420BEB8101416347
:106D0000406A0028E8D1D4F818B0C3451FDBD4F896
:106D100030A0BAF1000F1CBF4FEAEB70009010D00A
:106D2000DAF808005A46009B80FB0601F9F7D7F90C
:106D3000CAF80400CAF80850DAF824A0BAF1000F23
:106D4000EED1206A4068C0F57A706061A561E169A2
:106D500000291CBF029888476DE70000801A0600D2
:106D60004809002004ED00E078A4EF9D2DE9F84FDC
:106D70008946824600F040F9882000F00FF90600AD
:106D800008BF00F011F9514D2E60002E00F09A80DE
:106D90004F480024B062671E4E486FF000483460D0
:106DA000F062286844608460C46004614761846163
:106DB000C4614462446384630464C0F84480C4646E
:106DC0008464446504658465C4658466C466046738
:106DD000C467C0F88040C0F884404C2008F004F834
:106DE0002968002808626AD009F10300896A00F066
:106DF0000302861A30468847296800280A6AD0624A
:106E000059D0896A08208847296800280A6A906250
:106E10000A6A4DD04260086A04602868016A4F60BF
:106E20008461016A0E63016AC1F84080B608006A95
:106E30003146C06A09F0F2FB28685346264A006AC8
:106E4000C06A00902868006A016B6846F9F730FB59
:106E50002868002E006A816A009808602146286828
:106E6000056AEA6A18BF1D4B08D0D2F800C0761E2A
:106E70009C4503D1491C121D002EF6D12A6B4B42B2
:106E800017A102EB83026A63026AD160016A0C6196
:106E9000016ACC61016A4C61016A8C61016AC1635B
:106EA0004C62016A0C62016A01630020BDE8F88F40
:106EB000C96AD06A88472968086AC96A8847286801
:106EC000FFF774FE4FF0FF30BDE8F88F480900204F
:106ED000E9ED029075140290216C029078A4EF9D68
:106EE0003C49444C455F5448524541443E000000F3
:106EF0000A4810B5016841F04041016000220F21AD
:106F00000017FBF7DDFB07490548086006490748FD
:106F10000968CA6B926A0260086010BD34EF00E035
:106F20008703000054090020480900205009002070
:106F30002DE9F041104D07460E462868816A14205D
:106F40008847040008BFBDE8F08106FB07F0296808
:106F5000896A8847206038B1276100206660A06098
:106F6000E0602046BDE8F0812868C16A2046884775
:106F70000020BDE8F08100004809002070B5064CF3
:106F800005462068C16A286888472068C16A284683
:106F9000BDE870400847000048090020014601484C
:106FA000FEF775BC781B01204DF804ED87B005484D
:106FB0006946FEF7C6FC0098002804BF07B05DF8DC
:106FC00004FBFEE7781B012030B587B00D46044670
:106FD00008486946FEF7B5FC009800280CBF4FF43E
:106FE0000040642028600CBF03980098206007B020
:106FF00030BD0000781B0120024803224FF40041FD
:10700000FEF794BD781B012070B50D4D064628682B
:10701000816A10208847040008BF70BDF00029680D
:10702000896A8847206028B1E66000206060A0601F
:10703000204670BD2868C16A20468847002070BD80
:107040004809002001490968C96A08474809002021
:1070500001490968C8617047480900202DE9F041DD
:107060001E460D460746104606990BF055FA041EBB
:1070700008BFBDE8F0816FF00040864239462A46DD
:1070800003D0206810F1020F05D020460AF074FFEB
:107090000020BDE8F081204601F022F800223146B0
:1070A000204609F0D7FF2046BDE8F0812DE9F041E8
:1070B0001F460D460646104606990BF02DFA0400B1
:1070C00008BFBDE8F081206831462A4610F1020F62
:1070D000204604D00AF050FF0020BDE8F08100F007
:1070E000FFFF03223946204609F0B4FF2046BDE8E1
:1070F000F0810000FFF7FCFE04480021FFF753FD7C
:1071000003494FF080500860FEE70000B1600000C6
:1071100004ED00E0124E31680A6812685468A063FA
:107120004FF0FF3048602060002520616069A2694F
:107130003168CA635561086C30B1126C4B6C9A426D
:10714000C4BF0D64F9F7B9F93068416B61614463FC
:107150004560C5604FF0805002490860FEE70000BE
:107160004809002004ED00E0002808BF704770B512
:107170000A4D4FF0FF312A68516029684469C96A95
:1071800088472000F9D1286800214160C26822B1F7
:10719000C1604FF080500249086070BD480900206E
:1071A00004ED00E02DE9F04100271F4E791E306804
:1071B0004160056B4FF00008002D25D116E01CB38F
:1071C0003068816A18208847606104461CB3C4F89F
:1071D0001480E86860606868A060286C2060686B54
:1071E000E060286B20616D6A002DE8D13068C0F83E
:1071F0000480C16829B1C0F80C804FF080500B4961
:1072000008603846BDE8F0813068816A18208847F8
:1072100007463C46DAE73800E8D031684769C96A72
:1072200088473800F9D1E1E74809002004ED00E083
:1072300001680A6C93B28A6812F0040FFBD18A6865
:1072400012F0010F0BD101220A6001688A6842F036
:1072500001028A6001680A6812F0010FFBD00A4639
:10726000142111600068816841F0040181601846B2
:107270007047026011B10B6840329A6041607047FC
:107280000F4B104A9FED101AF3EE0E0A1B8812885E
:1072900003FB01F302FB01F2190C431A00EE103A52
:1072A000C1EB1240B8EEC00A20EE011A00EE100A3F
:1072B000B8EEC00AC1EE001A31EEA00A7047000015
:1072C00020E8F11F40E8F11F0000A04210B504467D
:1072D0000160086810F0010FFBD1C86910F0200FA1
:1072E000FBD1486A10F0200FFBD10020086001227A
:1072F0002168CA64A060E0600AF0FCFF00286060BA
:1073000018BF10BDFEE70068C26C61F30F22C264B3
:10731000704700002DE9F04F01600A6812F0010F7C
:1073200008D00A6822F001020A6001680A6812F0B7
:10733000010FFBD1D94B102208244FF0200C04255B
:1073400099424FEA433A10D10123DFF85883C0F83D
:1073500024C04FEAF147C0F804A0C0E90C53C0E9CB
:107360000A42CF4EC0E90F3869E0CF4F4FF40073A7
:107370004FF480784FF04009FE14B9424FF4806713
:1073800012D1C74A0224DFF824C3C0F80CC0C0F8E9
:107390003490C0E901A2C64AC0E90F42C0E90963BE
:1073A000C0E90B7800F056B9DFF808B3594515D19C
:1073B0004FF40013BA4F4FF4801CC0F82CC0DA1001
:1073C000C0F804A09C10DFF8F0829610C0E90C26EB
:1073D000BA4AC0E90F52C0E9093417E0DFF8E0B259
:1073E000594517D14FF00062C0F804A0AC4F4FF0E0
:1073F000807C9310DFF8CC825610C6625511C0E92C
:107400000923B14AC0E90F42C0E90CC5C0E90278BE
:1074100000F020B9DFF8B4B2DFF8B4A2594512D1B8
:10742000DFF8B8820123C0F824C0C0F804A0C0E986
:107430000A42A84EA84FC0E90F28C0E90C53C0E982
:10744000026700F007B9DFF898B2594510D1A54C92
:10745000C0F804A09F4AC0F83490C0E90224A24AB0
:10746000C0E90FC2C0E90963C0E90B7800F0F2B8C7
:10747000DFF878B2594516D14FF48013C0F804A054
:107480009B4F4FF4001C9A10924D5C10961046636F
:10749000C0E90B32974AC0E90F92C0E909C4C0E9BC
:1074A000025700F0D7B8DFF850B2594517D14FF066
:1074B0000065924FC0F804A04FF0007C6C10854A24
:1074C0004FF08008A3109E104663C0E902278C4A43
:1074D000C0E90F82C0E90B43C0E9095CBAE0DFF8FC
:1074E00024B2DFF824A259450DD1894F0123C0F8F9
:1074F00024C0C760C0E90A42864A844EC0E90F82B0
:10750000C0E90C532AE0DFF810B259450ED1DFF87C
:107510000CC2834CC0F80CC0C0F834907B4AC0E960
:107520000963C0E9012AC0E90F3460E0DFF8F4B173
:10753000594516D14FF40012DFF8EC81C0F80C80E9
:107540004FF4802C9310714E541055114563C0E9CF
:107550000923764AC0E90F72C0E90B4CC0E9016A01
:1075600078E0DFF8CCB1594516D14FF00062DFF872
:10757000C4814FF0007CC0F80C805310634DD710CD
:1075800054114463C0E9092C6B4AC0E90F62C0E999
:107590000B37C0E9015A5DE0DFF8A0B1DFF8A0A128
:1075A0005945DFF8A0B110D1C0F824C00123C0F8BC
:1075B00004A0C0E90A42654A1F03634EC0E90F7286
:1075C000C0E90C53C0E902B644E0DFF884C161456C
:1075D00010D1604A4FF4005CC0F804A0C0F83490A9
:1075E000C0E902B25C4AC0E90FC2C0E90963C0E960
:1075F0000B782FE0594B994213D14FF40015C0F886
:1076000004A04FF4002C564E6B109A109410446353
:10761000C0E90B321711534AC0E90F72C0E9095C87
:1076200016E0514B994237D14FF000654F4E4FF461
:10763000800CC0F834C06B10C0F804A09A105C1025
:107640005712C0E90B324A4AC0E90F72C0E9095427
:10765000C0E902B6DFF81CC10022C0F810C00CF16E
:107660000403C0E90532C2610262D0E9092CD0E905
:107670000B34456B1A434CEA04031A432A438263D2
:107680000A6822F01E020A600068416921F0800148
:1076900041610020BDE8F08FFEE7000010000240CD
:1076A000080002407D0B0000280002400408024050
:1076B000990B00004000024008080240B50B000092
:1076C000580002400C080240D10B0000700002403C
:1076D000040002400C00024010080240ED0B0000C4
:1076E0008800024014080240090C0000A00002407B
:1076F00018080240250C0000B80002401C08024097
:10770000410C000010040240080402400004024042
:1077100020080240790C000028040240240802409E
:10772000950C00004004024028080240B10C000003
:10773000580402402C080240CD0C000070040240A6
:10774000040402400C04024030080240E90C00002E
:107750008804024034080240050D0000A0040240E5
:1077600038080240210D0000B80402403C080240E5
:107770003D0D000080080240002201604FEA020136
:1077800000EBC1039A605A601A61DA60891C102903
:10779000F6DB7047C0E9002109681C328A60016885
:1077A0000A6922F07F020A6101684A6842F04002D9
:1077B0004A6001680A6842F400320A600168096898
:1077C000C1F305518160704782688A4208BF7047E3
:1077D000816003681A6812F4005F02BF61F31952F6
:1077E0001A60704722F400521A6061F3195201685E
:1077F0000A6042F4005100680160704770B50D46A0
:1078000004460261C3600168086810F4803F04BF49
:1078100040F48030086060680168096811F0010F69
:1078200018BF70BD2146026C194890476068E9177F
:1078300005EB9171006889104160E06822690021C0
:10784000904761680968C860E06822690021904734
:1078500061680968086160680068016821F40021B6
:10786000016060680068016841F48021016060681F
:107870000068016841F0100101606068816B8068F8
:10788000016060680068016841F00101016070BD3D
:1078900077640000C0E9002100238360096820327A
:1078A0008A6001688A6842F400428A6001688A68D6
:1078B000C2F30272C2608A68436102F01F02521C66
:1078C0000261074A42624B6001680A6842F00102A5
:1078D0000A600068016841F40071016070470000AF
:1078E000E164000007291FD8C2688A4208BF7047B8
:1078F0004FF0E043C160026803EA0173116821F0B0
:10790000010CC2F800C041F001010268D2F808C0C1
:107910002CF0E04C4CEA030393600268116041F4E0
:1079200000710068016070470721DDE78260002276
:10793000C0E90031096828338B608168036824330B
:1079400009688B6001680B6823F001030B60016814
:107950000B6823F4F87323F098430B6001684B68BD
:1079600023F060034B6001688B6823F0010323F070
:1079700088538B60416809680B6843F480130B607F
:10798000816809680B6843F480130B60C26170471B
:107990002DE9F0410446DDE90606E769DDE908C5A1
:1079A000002F18BFBDE8F0814FF0FF380027C4F862
:1079B0001C8027626563E662C4F830C000EBD070BB
:1079C0004010C4E90530C4E90312A0680068C36030
:1079D000A068A1690068416021466068026C0F4898
:1079E000904760680068016841F010010160A0687C
:1079F0000068016841F0010101602068816841F080
:107A0000C00181602068016841F0100101602068B8
:107A1000016841F001010160BDE8F08121680000CA
:107A200038B504460D4623464FF6FF72012116482D
:107A30000095F8F747FD154BF02201211448F8F79F
:107A400046FD144BF02202211348F8F740FD134B7A
:107A5000F02203211248F8F73AFD124BF0220421DC
:107A60001148F8F734FD0A490748F8F735FD0A4987
:107A70000548F8F731FD0A490348F8F72DFD0A4992
:107A80000148F8F729FD38BD00150120E51F0390D6
:107A900014150120012003902C1501201D200390B6
:107AA00044150120392003905C15012010B50248CF
:107AB000F8F717FD10BD00000015012010B58AB0C1
:107AC0004FF0FF301C49086007211C480068FFF791
:107AD00009FF002004901A4805901A4806901A4899
:107AE00007901A4808901A4809900AF003FC1949AF
:107AF0000860194801684C20884718490860084602
:107B0000006808B900BFFEE7154801680F208847E4
:107B100004460CB900BFFEE74FF4A070F02100222C
:107B20001346CDE900210290224604A90B480068C3
:107B300008F030FC0AB010BD2C090020100900200C
:107B40007DE50290211C039025010390CD01039057
:107B5000B102039028090020102703902409002077
:107B6000F826039008B5002006F008FD0B480068D1
:107B700008F034FC4FF487710848006808F046FCB0
:107B8000F0204FF4A07300221146009003480068D3
:107B900008F094FC00200AF043F808BD24090020F6
:107BA0004FF4FA514143642291FBF2F1014A116012
:107BB0007047000034040040704700002DE9F04792
:107BC0008EB0814600241CE004EB4400C349085CED
:107BD0004FF4784101EA002004EB4401491CBF4AFC
:107BE000515C4FF4FC6202EAC101084304EB44011A
:107BF000891CBA4A515C40EAD100B94921F8140005
:107C0000641C402CE0DB002404E00020B54941F86E
:107C10002400641CB4F5007FF7D30020B24908604B
:107C2000B24908600AF066FBB1490860FFF79AFFA5
:107C30003220FFF7B5FFF0204FF480730022114689
:107C40000090AC48006808F039FCAB480390AB48A2
:107C50000490AB480590AB490691AB490791AB49FD
:107C60000891AB490991AB490A91AB480B90AB49DC
:107C70000C91AB490D91AB484268016803A80AF02A
:107C80006EFA9D4908600846006868B9F8F7D9FBA4
:107C90008246A5A1F8F7DAFB8046F8F7DCFB4FF047
:107CA000FF300EB0BDE8F087A648006900F0020082
:107CB00028B9914908680121FEF7EFFE0FE0A148BD
:107CC000006900F0040028B98B4908680321FEF719
:107CD000E4FE04E0884908680221FEF7DEFE8648DB
:107CE0000068994908600020984908600821984870
:107CF0000068FFF769FD0023964A4FF4006194483D
:107D00000068FFF77BFD0020934908600AF0F2FA53
:107D10009249086003200AF0BDFB914908608F4832
:107D20000068F8F766FB002002235A0272490090AF
:107D30008C48FFF793F907468BA0F86000200323D7
:107D40004FF480626C4900908B48FFF787F9074633
:107D50008AA0F86000218C48FFF762FE8B488C49AE
:107D6000086014251026644908682946FEF79DFE20
:107D7000614908683146FEF772FE08F083FC00BFD7
:107D80000820F8F745FBFFF791FE5B49886802A9D8
:107D9000F8F7ACFB0028F3D19DF8080033287BD01E
:107DA00006DC302814D0312833D0322868D150E096
:107DB0004C280AD04E2802D05328F7D102E007F011
:107DC000D5F98AE008F098FB87E006F04DFB84E0E7
:107DD000B5F5806F00DA6D1C474908682946FEF743
:107DE00064FE044654B1F8F72CFB8246224669A192
:107DF000F8F72CFB8046F8F72EFB09E0F8F721FB9B
:107E000082462A466DA1F8F721FB8046F8F723FB4E
:107E100063E0002D00DD6D1E374908682946FEF736
:107E200044FE044654B1F8F70CFB8246224659A1A1
:107E3000F8F70CFB8046F8F70EFB09E0F8F701FBBA
:107E400082462A465DA1F8F701FB8046F8F703FB5E
:107E500043E0B6F5806F00DA761C274908683146A2
:107E6000FEF7FDFD044664B1F8F7EBFA82462246C0
:107E70005BA1F8F7EBFA8046F8F7EDFA0BE00BE0C0
:107E80002AE0F8F7DEFA824632465FA1F8F7DEFA1A
:107E90008046F8F7E0FA20E0002E00DD761E164955
:107EA00008683146FEF7DBFD044654B1F8F7C9FA1D
:107EB000824622464AA1F8F7C9FA8046F8F7CBFA7B
:107EC00009E0F8F7BEFA824632464FA1F8F7BEFA4B
:107ED0008046F8F7C0FA00E000BF51E70800002034
:107EE000AC130120000000309C070020A0070020F8
:107EF000A407002024090020A0130120551302909C
:107F00008D260390D91F03904DF102903DF1029010
:107F10005DF10290157102905D000390E9070290F7
:107F2000D5150290102703900D0A6E65733AE4B8D8
:107F3000BBE69CBAE58886E9858DE5A4B1E8B4A5E1
:107F40000D0A00000000025888070020B407002036
:107F50001C090020A10802908C0700209007002037
:107F600094070020B1120290446973706C617954D7
:107F70006872656164000000891302904650535F87
:107F800054687265616400000F1302900000049051
:107F9000B00700200D0A56626C616E6B4E4D495F52
:107FA00044656C6179E8AEBEE7BDAEE5A4B1E8B466
:107FB000A5204572723A7B697D0D0A000D0A566252
:107FC0006C616E6B4E4D495F44656C6179E5B7B28B
:107FD000E8AEBEE7BDAEE4B8BA3A7B697D0D0A00F3
:107FE0000D0A4D4D43345F436F756E7444656C618B
:107FF00079E8AEBEE7BDAEE5A4B1E8B4A520457210
:10800000723A7B697D0D0A000D0A4D4D43345F4382
:108010006F756E7444656C6179E5B7B2E8AEBEE722
:10802000BDAEE4B8BA3A7B697D0D0A007CB5044662
:10803000256B216C606B88473620287000206870A3
:10804000401E0121CDE900106B1C0A462946666CD2
:10805000606BB0473A202870552068704FF0FF30B1
:108060000121CDE900106B1C0A462946666C606B45
:10807000B047C620287001206870801E0121CDE91C
:1080800000106B1C0A462946666C606BB0472120C5
:1080900028704FF0FF300021CDE900100B4601227F
:1080A0002946666C606BB047112028704FF0FF3096
:1080B0000021CDE900100B4601222946666C606B59
:1080C000B047292028704FF0FF300021CDE9001083
:1080D0000B4601222946666C606BB0477CBD0000F0
:1080E000F8B50446C06A0E4615460090216B890813
:1080F00008F094FA216B2B4632466846F8F7D8F917
:10810000A16A4FF0000200980860D4E90B1C5FEAF6
:108110009C0018BF074B07D00D68401E9D4203D13D
:10812000091D521C0028F7D150420CEB80006063FF
:10813000F8BD000078A4EF9D2DE9F04104460269E6
:10814000008902F58072A37A801CE179070ACD1EAE
:1081500043F0300C43F0040653185754214603F8FB
:10816000010C4FF6FE7003F802CCD4F8F8209047CB
:10817000A672E57120810720BDE8F0812DE9F0416C
:108180000446008944F21F08811C421C2679A77A04
:1081900090B28DB2804504D2D4F8F02021469047A9
:1081A00006E0B0F5005F1ED22169C0F30A00085C4A
:1081B000627921691044C0B2431C0A5CD8B2085CE1
:1081C00042EA0020804525D2D4F8F020214690478D
:1081D00046EA000111F0800F27F0820018BF40F03E
:1081E000800025D120E0D4F8706605466FF00500C8
:1081F000C4F890062046FEF7E4FAF8F722F90F4992
:108200002A460968F8F777F9F8F725F96FF00500BD
:10821000B047FEE7B0F5005F2DBF2146C0F30A006E
:10822000085CF8F76DF9D3E7002908BF40F00200B9
:108230002171A07206202581BDE8F0817C13002009
:1082400005F0C8FF05F0C6FF05F0C4FF2DE9F041B9
:108250000446008944F21F01821C431C2579A77A39
:1082600098B296B2814205D2D4F8F02021469047C8
:10827000014606E0B0F5005F0FD22169C0F30A00A5
:10828000095C27F082002269515C294311F0800FBC
:1082900018BF40F080001BD116E0D4F87066054688
:1082A0006FF00500C4F890062046FEF78AFAF8F74A
:1082B000C8F80A492A460968F8F71DF9F8F7CBF813
:1082C0006FF00500B047FEE7002908BF40F002004C
:1082D0002171A07203202681BDE8F0817C1300206B
:1082E00070B50446008944F21F01821C431CA67A23
:1082F00098B295B2814205D2D4F8F0202146904739
:10830000014606E0B0F5005F15D22169C0F30A000E
:10831000095C26F0830023695A5C12F0800F18BFB5
:1083200040F001005206120E12F0800F18BF40F00C
:1083300080001BD116E0D4F8706605466FF005008A
:10834000C4F890062046FEF73CFAF8F77AF80A4996
:108350002A460968F8F7CFF8F8F77DF86FF00500BE
:10836000B047FEE7002A08BF40F002005A54A0724E
:108370000520258170BD00007C13002005F02AFF38
:108380004DF8044DD0F810C0837AC1790CF5807C8B
:10839000028943F03004531C0CF801404A1E03814B
:1083A000C27103205DF8044B704700002DE9F041D5
:1083B0000446008944F21F01821C431C2779A57AD8
:1083C00098B296B2814204D2D4F8F0202146904768
:1083D00006E0B0F5005F0ED22169C0F30A00085C28
:1083E00047EA000111F0800F25F0820018BF40F02D
:1083F00080001BD116E0D4F8706605466FF00500CA
:10840000C4F890062046FEF7DCF9F8F71AF80A4996
:108410002A460968F8F76FF8F8F71DF86FF00500BD
:10842000B047FEE7002908BF40F002002171A072AA
:1084300002202681BDE8F0817C13002003890279A7
:10844000817A03F101039BB212F0800F21F08301C6
:1084500018BF41F001015206120E12F0800F18BF32
:1084600041F0800103D1002A08BF41F002010271EE
:10847000817203810220704705F0ACFE05F0AAFE70
:108480002DE9F0410446008944F21F08C11C421C3A
:108490002779A67A90B28DB2804504D2D4F8F8201C
:1084A000214690470CE0B0F5005F10D22169421CD4
:1084B000C0F30A00C2F30A02085C895C40EA0120AA
:1084C00080451BD2D4F8F0202146904721E0D4F813
:1084D000706605466FF00500C4F890062046FEF76A
:1084E00070F9F7F7AEFF15492A460968F8F703F85F
:1084F000F7F7B1FF6FF00500B047FEE7B0F5005F9A
:1085000004D22169C0F30A00085C02E02146F7F7B3
:10851000F7FF47EA000111F0800F26F0820018BF34
:1085200040F0800003D1002908BF40F00200217113
:10853000A07204202581BDE8F08100007C1300209A
:108540002DE9F0410446008944F21F07C11C421C7A
:10855000A67A90B21FFA81F8874205D2D4F8F820A3
:108560002146904705460CE0B0F5005F11D2216925
:10857000421CC0F30A00C2F30A02085C895C40EAAC
:108580000125AF421CD2D4F8F0202146284690475E
:1085900022E0D4F8706605466FF00500C4F8900636
:1085A0002046FEF70EF9F7F74CFF22492A460968E4
:1085B000F7F7A1FFF7F74FFF6FF00500B047FEE7B1
:1085C000B5F5005F04D22069C5F30A01405C03E001
:1085D00021462846F7F794FF10F0800F26F0830617
:1085E00018BF46F001064006000E10F0800F18BFBD
:1085F00046F0800603D1002808BF46F00206AF42CD
:1086000005D2D4F8F4302246294698470BE0B5F558
:10861000005F04D22169C5F30A02885403E02246B0
:108620002946F7F772FFA6720620A4F80880BDE875
:10863000F08100007C13002005F0CCFD70B5817A3C
:108640000446008911F0800F4FF0000100F1020292
:1086500095B202D0881C258170BD401C44F21F01D8
:1086600080B2814204D2D4F8F0202146904706E03F
:10867000B0F5005F15D22169C0F30A00085C291823
:1086800010F0800F88B21CBF00F57F4080B200F46C
:108690007F4105F47F42914214BF0221012105462A
:1086A000D8E7D4F8706605466FF00500C4F8900668
:1086B0002046FEF786F8F7F7C4FE05492A46096802
:1086C000F7F719FFF7F7C7FE6FF00500B047FEE7B1
:1086D0007C1300202DE9F0470446008944F21F086E
:1086E000811C421C2679A77A90B28DB2804504D2B3
:1086F000D4F8F0202146904706E0B0F5005F2AD27A
:108700002169C0F30A00085C216900F1010CA2791B
:108710000B5C0CF0FF00085C43EA0020131800F427
:108720007F4298B200F47F43934214BF4FF0010997
:108730004FF00009804525D2D4F8F020214690471B
:1087400046EA000111F0800F27F0820018BF40F0C8
:10875000800025D120E0D4F8706605466FF0050052
:10876000C4F890062046FEF72CF8F7F76AFE104989
:108770002A460968F7F7BFFEF7F76DFE6FF00500B0
:10878000B047FEE7B0F5005F2DBF2146C0F30A00F9
:10879000085CF7F7B5FED3E7002908BF40F00200F8
:1087A0002171A07209F105002581BDE8F087000064
:1087B0007C13002005F00EFD05F00CFD05F00AFD10
:1087C0002DE9F0410446008944F21F01821C431C3C
:1087D0002579A77A98B296B2814205D2D4F8F020D2
:1087E00021469047014606E0B0F5005F12D22169AC
:1087F000C0F30A00095C27F08200637922691944FA
:10880000C9B2515C294311F0800F18BF40F08000BD
:108810001BD116E0D4F8706605466FF00500C4F869
:1088200090062046FDF7CDFFF7F70BFE0A492A46D2
:108830000968F7F760FEF7F70EFE6FF00500B04726
:10884000FEE7002908BF40F002002171A072042059
:108850002681BDE8F08100007C13002070B504463D
:10886000008944F21F01821C431CA67A98B295B27B
:10887000814205D2D4F8F02021469047014606E017
:10888000B0F5005F18D22169C0F30A00095C26F038
:108890008300627923691144CAB2995C11F0800F98
:1088A00018BF40F001004906090E11F0800F18BFF3
:1088B00040F080001BD116E0D4F8706605466FF0DA
:1088C0000500C4F890062046FDF77BFFF7F7B9FDD9
:1088D00009492A460968F7F70EFEF7F7BCFD6FF065
:1088E0000500B047FEE7002908BF40F00200995498
:1088F000A0720620258170BD7C13002005F06AFC63
:108900000189827A491C22F00102827201810220CF
:10891000704700002DE9F0470446008944F21F0823
:10892000C11C421C2679A77A90B28DB2804504D230
:10893000D4F8F820214690470CE0B0F5005F1DD236
:108940002169421CC0F30A00C2F30A02085C895C78
:1089500040EA0120A27900F47F41104480B200F483
:108960007F428A4214BF4FF001094FF00009804551
:108970001BD2D4F8F0202146904721E0D4F870664D
:1089800005466FF00500C4F890062046FDF719FF74
:10899000F7F757FD15492A460968F7F7ACFDF7F7D1
:1089A0005AFD6FF00500B047FEE7B0F5005F04D256
:1089B0002169C0F30A00085C02E02146F7F7A0FD38
:1089C00046EA000111F0800F27F0820018BF40F046
:1089D000800003D1002908BF40F002002171A0727D
:1089E00009F104002581BDE8F08700007C13002018
:1089F00005F0F0FB05F0EEFB05F0ECFB2DE9F04790
:108A00000446008944F21F08C11C421C2679A77A3B
:108A100090B28DB2804504D2D4F8F8202146904718
:108A20000CE0B0F5005F1DD22169421CC0F30A00C2
:108A3000C2F30A02085C895C40EA0120627900F412
:108A40007F41104480B200F47F428A4214BF4FF04D
:108A500001094FF0000980451BD2D4F8F0202146CF
:108A6000904721E0D4F8706605466FF00500C4F821
:108A700090062046FDF7A5FEF7F7E3FC15492A46C8
:108A80000968F7F738FDF7F7E6FC6FF00500B04727
:108A9000FEE7B0F5005F04D22169C0F30A00085C6C
:108AA00002E02146F7F72CFD46EA000111F0800FA5
:108AB00027F0820018BF40F0800003D1002908BFD2
:108AC00040F002002171A07209F104002581BDE887
:108AD000F08700007C1300202DE9F0410446008956
:108AE00044F21F07C11C421CA67A90B21FFA81F8FB
:108AF000874204D2D4F8F820214690470CE0B0F524
:108B0000005F14D22169421CC0F30A00C2F30A02BA
:108B1000085C895C40EA01206179084485B2AF4273
:108B20001CD2D4F8F02021462846904722E0D4F801
:108B3000706605466FF00500C4F890062046FDF704
:108B400040FEF7F77EFC22492A460968F7F7D3FC76
:108B5000F7F781FC6FF00500B047FEE7B5F5005F61
:108B600004D22069C5F30A01405C03E0214628468F
:108B7000F7F7C6FC10F0800F26F0830618BF46F00A
:108B800001064006000E10F0800F18BF46F0800668
:108B900003D1002808BF46F00206AF4205D2D4F840
:108BA000F4302246294698470BE0B5F5005F04D221
:108BB0002169C5F30A02885403E022462946F7F7E3
:108BC000A4FCA6720720A4F80880BDE8F08100008C
:108BD0007C13002005F0FEFA2DE9F04101690446FE
:108BE000008944F21F0C01F58073E279811C401C5E
:108BF0009D180E0A971E80B29E54844505F8011CEC
:108C0000FDB204D2D4F8F820214690470CE0B0F52C
:108C1000005F0ED22169421CC0F30A00C2F30A02AF
:108C2000085C895C40EA0120E57120810620BDE8EE
:108C3000F081D4F8706605466FF00500C4F8900620
:108C40002046FDF7BEFDF7F7FCFB05492A460968FB
:108C5000F7F751FCF7F7FFFB6FF00500B047FEE7B1
:108C60007C1300202DE9F0410446008944F21F08DE
:108C7000811C421C2679A77A90B28DB2804504D21D
:108C8000D4F8F0202146904706E0B0F5005F1ED2F0
:108C90002169C0F30A00085C627921691044C0B2FE
:108CA000431C0A5CD8B2085C42EA0020804525D209
:108CB000D4F8F0202146904706EA000111F0800F19
:108CC00027F0820018BF40F0800025D120E0D4F8C2
:108CD000706605466FF00500C4F890062046FDF763
:108CE00070FDF7F7AEFB0F492A460968F7F703FC5A
:108CF000F7F7B1FB6FF00500B047FEE7B0F5005F96
:108D00002DBF2146C0F30A00085CF7F7F9FBD3E753
:108D1000002908BF40F002002171A07206202581C1
:108D2000BDE8F0817C13002005F054FA05F052FAFA
:108D300070B50446008944F21F01821C431CA67AC8
:108D400098B295B2814204D2D4F8F02021469047DF
:108D500006E0B0F5005F14D22169C0F30A00085C98
:108D600026F0C20123692279185C024200F0C0009B
:108D700040EA010008BF40F00200A07203202581F4
:108D800070BDD4F8706605466FF00500C4F8900613
:108D90002046FDF716FDF7F754FB05492A460968FA
:108DA000F7F7A9FBF7F757FB6FF00500B047FEE7B1
:108DB0007C1300202DE9F0410446008944F21F0194
:108DC000821C431C2579A77A98B296B2814205D2BB
:108DD000D4F8F02021469047014606E0B0F5005F48
:108DE0000FD22169C0F30A00095C27F082002269D2
:108DF000515C294011F0800F18BF40F080001BD15A
:108E000016E0D4F8706605466FF00500C4F89006C9
:108E10002046FDF7D6FCF7F714FB0A492A460968F5
