:020000040800F2
:1000000060E30020790300085D800008A96E000805
:10001000C37F0008ED070008B9AD0008000000002C
:1000200000000000000000000000000081900008B7
:100030001B0D0008000000001B040008819A000846
:100040009303000893030008930300089303000838
:100050009303000893030008930300089303000828
:100060009303000893030008930300085508000851
:10007000710800088D080008A9080008C5080008D4
:10008000E1080008FD080008930300089303000836
:1000900093030008930300089303000893030008E8
:1000A00093030008930300089303000893030008D8
:1000B000930300089303000893030008BD6E000833
:1000C000AD6E000893030008930300089303000833
:1000D00093030008D1AC00089303000893030008C1
:1000E0009303000893030008000000009303000836
:1000F00093030008930300089303000819090008FC
:100100009303000893030008930300089303000877
:100110009303000893030008930300089303000867
:1001200045090008610900087D09000899090008CF
:10013000B5090008C91100089303000893030008DB
:1001400000000000000000000000000000000000AF
:10015000D1090008ED090008090A00089303000806
:100160009303000893030008930300089303000817
:100170009303000893030008930300089303000807
:1001800093030008930300089303000893030008F7
:1001900093030008930300089303000893030008E7
:1001A0007D7B00086D7B000835090008930300087B
:1001B00093030008930300089303000893030008C7
:1001C00093030008930300089303000893030008B7
:1001D00093030008930300089303000893030008A7
:1001E0009303000893030008930300089303000897
:1001F0009303000893030008930300089303000887
:100200009303000893030008930300089303000876
:100210009303000893030008930300089303000866
:100220009303000893030008E17B0008000000002E
:1002300093030008930300080000000093030008E4
:100240009303000893030008930300089303000836
:100250009303000893030008930300089303000826
:100260009303000893030008930300089303000816
:1002700093030008930300089303000800000000A4
:100280009303000893030008930300080000000094
:10029000000000009303000800F002F800F05CF892
:1002A0000AA090E8000C82448344AAF10107DA45D1
:1002B00001D100F051F8AFF2090EBAE80F0013F0C7
:1002C000010F18BFFB1A43F00103184794B6000052
:1002D000E4B600000A444FF0000C10F8013B13F0A4
:1002E000070408BF10F8014B1D1108BF10F8015B8F
:1002F000641E05D010F8016B641E01F8016BF9D182
:1003000013F0080F1EBF10F8014BAD1C0C1B09D1D8
:100310006D1E58BF01F801CBFAD505E014F8016B4A
:1003200001F8016B6D1EF9D59142D6D370470000DC
:100330000023002400250026103A28BF78C1FBD8EE
:10034000520728BF30C148BF0B6070471FB50BF084
:1003500018F91FBD10B510BD00F058F91146FFF790
:10036000F5FF0AF0A5FE00F076F903B4FFF7F2FFFF
:1003700003BC00F079F900000948804709480047AC
:10038000FEE7FEE7FEE7FEE7FEE7FEE7FEE7FEE745
:10039000FEE7FEE704480549034A054B70470000A5
:1003A000D59E00089902000860C3002060E3002089
:1003B00060C300201A48D0F800C02DE9005005F0B5
:1003C00087FEBDE80050002808BF7047EFF30980A2
:1003D0001EF0100F08BF20ED108A20E9F04FCCF876
:1003E00000000F4800680068B0E8F04F1EF0100FE2
:1003F00008BFB0EC108A80F30988704709480A49A1
:1004000001604FF0000080F314880549096808680E
:10041000B0E8F04F80F30988704702480068004751
:10042000180100201C010020B503000853EA020C4B
:1004300000F069802DE9F04B4FF00006002B1FBF44
:10044000B3FA83F503FA05F424FA05F65E4012BF09
:100450001643B2FA82F502FA05F4C5F120051EBF73
:1004600022FA05FC44EA0C04203556EA044C4FEA13
:10047000144418BF641C4FF000084FF0000990426C
:1004800071EB030C39D3002919BFB1FA81F701FAD6
:1004900007F6B0FA80F700FA07F6C7F120071EBF8B
:1004A00020FA07FC46EA0C062037B6FBF4FCA7EB63
:1004B0000507103F07F01F0BCBF120060CFA0BFBD2
:1004C0002CFA06F644BFB3460026202FA4BF5E4692
:1004D0004FF0000B5BEA060C08BF4FF0010B19EB65
:1004E0000B09ABFB027C48EB0608C01B06FB02CCE9
:1004F0000BFB03CC71EB0C01C1E70B4602464146F6
:100500004846BDE8F08B13B54FF000004FF00001F6
:10051000AFF30080BDE81C407047B2F120030AD55C
:10052000C2F1200301FA02F120FA03F300FA02F00B
:1005300041EA0301704700FA03F14FF000007047F1
:10054000B2F120030AD5C2F1200320FA02F001FA29
:1005500003F321FA02F140EA0300704721FA03F0A5
:100560004FF00001704710B54C1084EA530404D5D5
:100570004042C1F1000138BF491E1B4204D552421E
:10058000C3F1000338BF5B1EFFF750FF14F0804F2C
:1005900004D04042C1F1000138BF491E14F0004FA1
:1005A00004D05242C3F1000338BF5B1E10BD4FF0B0
:1005B000000200B5134694469646203922BFA0E8B3
:1005C0000C50A0E80C50B1F12001BFF4F7AF0907BF
:1005D00028BFA0E80C5048BF0CC05DF804EB8900B0
:1005E00028BF40F8042B08BF704748BF20F8022BF3
:1005F00011F0804F18BF00F8012B7047704770470B
:10060000704700000048704700C300207546FFF7A0
:10061000F9FFAE4605006946534620F007008546BF
:1006200018B020B5FFF7B6FEBDE820404FF0000639
:100630004FF000074FF000084FF0000B21F00701CA
:10064000AC46ACE8C009ACE8C009ACE8C009ACE80D
:10065000C0098D46704710B50446AFF300802046B0
:10066000BDE81040FFF781BE01491820ABBEFEE790
:100670002600020070470000F0B504466368002BB6
:1006800001DA0020F0BD04F108050022591C0EE03B
:10069000491E00276E5C06EB02220A48B2FBF0F00E
:1006A000C7B20848B2FBF0FC00FB1C226F540029C3
:1006B000EEDC01E05B1E6360E85C0028FAD01046C7
:1006C000E0E7000080969800F0B502465668002EDC
:1006D00001DA0020F0BD136802F108050021741C46
:1006E00007E0641E2F5D0C48784301EBC0112955CB
:1006F000090A9C42F5DC01E0761E5660A85D0028E0
:10070000FAD003E05B1EE954090A136009B1002B1B
:10071000F8DC0846DEE700002D31010010B507F0D7
:1007200025F94FF480320021084607F023F900BF75
:1007300000BF00BFBFF34F8F00BF00BF00BF00BFAF
:1007400000BF00BFBFF36F8F00BF00BF00BF00F04E
:1007500001F810BD10B500204468B4F5803F01D207
:10076000042C08D2B4F1104F02D3B4F1124F02D3CB
:100770004FF0FF3010BD0021086880F3088800BFEB
:10078000002080F3148800BF00BF00BF00BFBFF38C
:100790006F8F00BF00BF00BF4868804700BFFEE703
:1007A00010B5FFF7BBFF4FF000600E4908600E4820
:1007B000006820F030000C49086008F007F808F0E5
:1007C00073F900BF00BF00BFBFF34F8F00BF00BF72
:1007D00000BF00BF00BF00BFBFF36F8F00BF00BFEF
:1007E00000BF10BD08ED00E04C44025800BFFEE71A
:1007F0002DE9F041064605F09DF8074613480068CC
:10080000846912480068C5693C4406B13D441048FB
:10081000844212DD4FF47A70684390FBF4F0C0F527
:100820007A700A49096848610020084909688861A6
:10083000002106480068C16105E004480068846141
:1008400002480068C561BDE8F08100001401002085
:10085000801A060010B5024A50681168884710BD1A
:100860000C000020014A5160106070470C0000200D
:1008700010B5024A50681168884710BD1400002066
:10088000014A5160106070471400002010B5024A00
:1008900050681168884710BD1C000020014A516053
:1008A000106070471C00002010B5024A50681168A3
:1008B000884710BD24000020014A51601060704735
:1008C0002400002010B5024A50681168884710BD06
:1008D0002C000020014A5160106070472C0000205D
:1008E00010B5024A50681168884710BD34000020D6
:1008F000014A5160106070473400002010B5024A70
:1009000050681168884710BD3C000020014A5160C2
:10091000106070473C00002010B5024A5068116812
:10092000884710BD44000020014A516010607047A4
:100930004400002010B5024A50681168884710BD75
:10094000A400002010B5024A50681168884710BD05
:100950004C000020014A5160106070474C0000209C
:1009600010B5024A50681168884710BD5400002035
:10097000014A5160106070475400002010B5024ACF
:1009800050681168884710BD5C000020014A516022
:10099000106070475C00002010B5024A5068116872
:1009A000884710BD64000020014A51601060704704
:1009B0006400002010B5024A50681168884710BDD5
:1009C0006C000020014A5160106070476C000020EC
:1009D00010B5024A50681168884710BD74000020A5
:1009E000014A5160106070477400002010B5024A3F
:1009F00050681168884710BD7C000020014A516092
:100A0000106070477C00002010B5024A50681168E1
:100A1000884710BD84000020014A51601060704773
:100A2000840000200146374A0868904249D0354A80
:100A300018320868904244D0324A303208689042F6
:100A40003FD0304A4832086890423AD02D4A60324E
:100A50000868904235D02B4A78320868904230D0EE
:100A6000284A9032086890422BD0264AA83208685B
:100A7000904226D0244A0868904222D0224A183256
:100A8000086890421DD0204A30320868904218D041
:100A90001D4A48320868904213D01B4A60320868E9
:100AA00090420ED0184A78320868904209D0164A0F
:100AB00090320868904204D0134AA83208689042E5
:100AC00001D1012000E00020B0B10A78103A1823CB
:100AD000B2FBF3F000F007020C4B9A5CCA650328E6
:100AE00005D90A686FF30902121D8A6503E00A68D6
:100AF0006FF309028A6503E0086820F0FF0088654B
:100B0000886D704710000240100402409CB5000838
:100B100010B502682B4C0368A34222D0294C143430
:100B20000368A3421DD0274C28340368A34218D081
:100B3000244C3C340368A34213D0224C5034036845
:100B4000A3420ED01F4C64340368A34209D01D4C4D
:100B500078340368A34204D01A4C8C340368A3424F
:100B600001D1012300E000238BB10378083B14245A
:100B7000B3FBF4F1144B03EB81030366124B803398
:100B8000436601F01F040123A340836618E0037845
:100B9000103B1824B3FBF4F10C4B9A4204D80B4BD6
:100BA000A83B9A4200D30831094B03EB810303664B
:100BB000074B8033436601F01F040123A340836683
:100BC00010BD00000854025800580258B8040240F2
:100BD000000802400179A9B3082940D8204B0268D7
:100BE0009A4222D01E4B143302689A421DD01C4BED
:100BF000283302689A4218D0194B3C3302689A4253
:100C000013D0174B503302689A420ED0144B643302
:100C100002689A4209D0124B783302689A4204D093
:100C20000F4B8C3302689A4201D1012200E000226E
:100C30004AB14A1E0B4B03EB8202C266094A40329C
:100C4000026708E00BE04A1E074B03EB8202C26614
:100C5000054A403202674A1E0123934043677047AA
:100C60000854025800590258000902400146002069
:100C70008A69D2B98A6A32B1012A0DD0022A03D018
:100C8000032A10D10EE000BFCA6A02F08072B2F1EE
:100C9000807F00D1012007E0CA6AB2F1C07F00D195
:100CA000012001E000E000BF36E08A69B2F5005F94
:100CB0001BD18A6A32B1012A07D0022A03D0032A43
:100CC00011D10AE000BF01200EE0CA6A02F0807272
:100CD000B2F1807F00D1012006E0CA6AB2F1C07F84
:100CE00000D1012000E000BF16E08A6A32B1012A7B
:100CF00005D0022A04D0032A0CD103E000BF00BFB4
:100D0000012008E0CA6A02F08072B2F1807F00D14F
:100D1000012000E000BF00BF704770472DE9F04F91
:100D20002DED028B8BB08046894645460121404619
:100D300006F0A4FD0646002E04DC0BB0BDEC028BD1
:100D4000BDE8F08F287820287ED14946404606F03D
:100D500095FD0646002E00DCEFE7AEA231462846A0
:100D600006F0C6FE002870D004F0DEFD00EE100A8A
:100D7000B8EEC00BB2EE041B80EE012BB0EE428B3E
:100D800003F0A6FF834653EC182BA6A104F09EF9AE
:100D9000824603F089FFA948816805A88847DDE9F4
:100DA0000910084400EE100AB8EE401B9DED080A39
:100DB000B8EE400B9FEDA22B20EE022B82EE010B32
:100DC0009FED9F1B31EE400BB0EE408B03F080FF98
:100DD0008346DDE909100844089A0599CDE9001217
:100DE000029053EC182B9849584604F06FF982464C
:100DF00003F05AFF9548816805A88847DDE9091086
:100E0000084400EE100AB8EE401B9DED080AB8EE4B
:100E1000400B9FED8B2B20EE022B82EE010B9FED02
:100E2000881B31EE400BB0EE408B03F051FF834640
:100E3000DDE909100844089A0599CDE900120290ED
:100E400053EC182B824901E0E2E0A0E0584604F0A0
:100E50003DF9824603F028FF7E48816805A888474F
:100E6000DDE90910084400EE100AB8EE401B9DEDC4
:100E7000080AB8EE400B9FED722B20EE022B82EE9B
:100E8000010B9FED6F1B31EE400BB0EE408B03F07A
:100E90001FFF8346DDE909100844089A0599CDE94A
:100EA0000012029053EC182B6B49584604F00EF9CF
:100EB000824603F0F9FE6948816805A88847DDE9A4
:100EC0000910084400EE100AB8EE401B9DED080A18
:100ED000B8EE400B9FED5A2B20EE022B82EE010B59
:100EE0009FED571B31EE400BB0EE408B03F0F0FE50
:100EF0008346DDE909100844089A0599CDE90012F6
:100F0000029053EC182B5649584604F0DFF88246FD
:100F100003F0CAFE04F01AFD00EE100AB8EEC00B92
:100F2000B2EE041B80EE012BB0EE428B03F0D0FE3C
:100F3000834653EC182B4BA104F0C8F8824603F00B
:100F4000B3FE04F03FFDD0F82CB003F0C1FE5A46CA
:100F50004CA1049004F0BAF8824603F0A5FE04F018
:100F6000E3FC00EE100AB8EEC00BB2EE041B80EEFC
:100F7000012BB0EE428B03F0ABFE834653EC182BF3
:100F800028A104F0A3F8824603F08EFE40E043A2BD
:100F90003146284606F0ACFD80B305F067FC0746F5
:100FA0003C4625E0656805B940A594ED020AB8EE17
:100FB000C00B9FED231B20EE011B94ED030AB8EE3E
:100FC000C00B81EE002BB0EE428B03F081FE834616
:100FD0008DED028BD4E90201CDE900012A463649A4
:100FE0005846236804F072F8824603F05DFE2469D7
:100FF000002CD7D1384605F0FBFB09E0FFE703F0F2
:1010000067FE83462DA104F061F8824603F04CFE92
:1010100000BF92E6476574537461636B496E666FF7
:1010200000000000435055E58DA0E794A8E78E87A7
:101030003A7B662E327D250D0A000000F0B50008CF
:1010400000000000000059401CB90008CCB50008A1
:10105000D8B80008D8B5000850B80008E4B50008B2
:1010600094B8000852544F53E5A086E6A088E58D59
:10107000A0E794A8E78E873A7B662E327D250D0A7D
:1010800000000000E7BABFE7A88BE5A086E6A088CD
:101090003A7B697D427974650D0A00004765745496
:1010A0006872656164496E666F0000003CE69CAA48
:1010B000E591BDE5908D3E00FCB70008E697A0E6FF
:1010C0009588E68C87E4BBA40D0A00002DE9F04F5B
:1010D00081468C469046D9E900456FF0004A05EA02
:1010E0000A0A4FF0000E84EA0E008AEA0E0A50EA5D
:1010F0000A0007D1CCF800008246C8F800A0C8F862
:1011000004A04CE02F48224605EA000340F2FF7A93
:101110000AEA1551401281422BD14FF0000A504685
:1011200082EA0A0A58405AEA000A11D14FF0004AEE
:10113000002005EA0A0A834640408AEA0B0A50EA80
:101140000A0003D06FF00100BDE8F08F0220FBE73A
:101150004FF4002A002003EA0A0A834640408AEA44
:101160000B0A50EA0A0001D1001FEDE76FF0020000
:10117000EAE731B940F2FE30091A343916461F4603
:1011800008E040F2FF30091A34394FF48010164657
:1011900043EA0007C8E90067CCF8001000BF4FF031
:1011A000004A4FF0000005EA0A0A834680EA000080
:1011B0008AEA0B0A50EA0A0002D04FF0FF30C3E778
:1011C0000120C1E7FFFF0F0010B5024A5068116807
:1011D000884710BDBC00002008B5074805F01CFA80
:1011E00007F0D8FA0020054B4FF4806201460090CA
:1011F000034805F017FA08BDA57A0008FEFFFF7F37
:10120000ADA1000872B600BFFEE7000010B50446AD
:101210000648006804F01EFE2146054803F0BEF9AA
:101220000248006805F064FC10BD000004010020C5
:101230000000002410B504460648006804F00AFEC9
:101240002146054803F0AAF90248006805F050FC61
:1012500010BD0000080100200000003010B5044659
:101260000648006804F0F6FD2146054803F096F9AB
:101270000248006805F03CFC10BD00000C01002095
:101280000000003810B504460648006804F0E2FD8E
:101290002146054803F082F90248006805F028FC61
:1012A00010BD0000100100202801002010B50446E8
:1012B000204604F02FFB10BD2DE9F74F88B00646FD
:1012C000304603F053FF099805680A99D1E9007880
:1012D00015F1400F16DD002D0CDA05F140023846FD
:1012E0004146CDE90487FFF718F9074688466FF0B5
:1012F0003F0507E0902030604FF0FF3070600BB08A
:10130000BDE8F08F6D42403D072005EA000A4FEA34
:10131000E50B06F1080000EB0B0900200390002408
:101320001CE0C4F10700C20038464146CDE90687FB
:10133000FFF706F9C0B20190019840FA0AF0029056
:10134000DDE90201084389F80000CAF108010198AB
:101350008840C0B2039009F10109641C082CE0D355
:10136000039889F8000006F108095C4600E0641C57
:10137000902C03DA19F804000028F8D034600BF13F
:10138000080400E0641E002C03DB19F804000028A8
:10139000F8D0746000BFB2E72DE9F74F88B005467A
:1013A000284603F0E3FE099806680A98D0E9007819
:1013B000002E14DA16F13F0F07DA902028604FF064
:1013C000FF3068600BB0BDE8F08F7242384641468E
:1013D000CDE90487FFF7B4F80746884600260720C2
:1013E00006EA000A4FEAE60B05F1080000EB0B09DC
:1013F0000020039000241AE0E20038464146CDE97F
:101400000687FFF79DF8C0B20290029800FA0AF032
:10141000C1B2019101990398084389F80000CAF10B
:10142000080102980841039009F10109641C082C85
:10143000E2D3039889F8000005F108095C4600E052
:10144000641C902C03DA19F804000028F8D02C60F2
:101450000BF1080400E0641E002C03DB19F8040003
:101460000028F8D06C6000BFACE7000002461046D0
:101470000A4B1B68596B0EE0084B1B685B6A8B427A
:1014800007D08B6B834204D1401E044B1B68596B01
:1014900001E0C96900BF0029EED1704714010020A6
:1014A00010B504460648006804F0D4FC21460548FF
:1014B00003F09BF90248006805F01AFB10BD00001C
:1014C000040100200000002410B50446064800680E
:1014D00004F0C0FC2146054803F087F90248006883
:1014E00005F006FB10BD00000801002000000030E0
:1014F00010B504460648006804F0ACFC21460548D7
:1015000003F073F90248006805F0F2FA10BD00001C
:101510000C0100200000003810B5044606480068A1
:1015200004F098FC2146054803F05FF90248006882
:1015300005F0DEFA10BD0000100100202801002097
:10154000024610466FF00043984201D1401E70479A
:101550000D4B1B68596B0EE00B4B1B685B6A8B4293
:1015600007D08B6B834204D1401C074B1B68596B1F
:1015700001E0C96900BF0029EED16FF00043984235
:1015800000D1401E00BFE2E71401002070B50A46FA
:101590000178442901D0642906D146781673801C4D
:1015A0004FF0FF36966003E01173401C00269660F2
:1015B0000023002506782D2E01D1401C5D1E0178E8
:1015C00007E003EB83067300A1F130063344401CAF
:1015D0000178302901DB3929F3DD05B15B4206785A
:1015E0002E2E10D1401C0024017807E004EB840665
:1015F0007400A1F130063444401C0178302903DB2B
:101600003929F3DD00E006241360546070BD00004A
:101610000020124A1268516B1BE0104A1268526A8D
:101620008A4215D0886BC96909E00C4A1268526A6F
:101630008A4203D08A6B824200DA886BC96900292A
:10164000F3D1401C6FF00042904200D1401E704721
:10165000C9690029E1D100BFF9E7000014010020A9
:101660000020124A1268516B1BE0104A1268526A3D
:101670008A4215D0886BC96909E00C4A1268526A1F
:101680008A4203D08A6B824200DD886BC9690029D7
:10169000F3D1401C6FF00042904200D1401E7047D1
:1016A000C9690029E1D100BFF9E700001401002059
:1016B00070B506460D46012D06D0022D08D0032D2B
:1016C0000AD0042D12D10CE0FFF7CAFF04460FE048
:1016D000FFF79EFF04460BE03046FFF731FF04465C
:1016E00006E03046FFF7C2FE044601E000BFFEE719
:1016F00000BF204670BD00002DE9F041044600F017
:101700008FFB804614B90120BDE8F081FE492068B6
:10171000884249D0FC4918312068884244D0FA49AF
:101720003031206888423FD0F749483120688842EC
:101730003AD0F54960312068884235D0F249783195
:101740002068884230D0F0499031206888422BD000
:10175000ED49A8312068884226D0EC4920688842AB
:1017600022D0EA491831206888421DD0E74930313B
:101770002068884218D0E54948312068884213D053
:10178000E2496031206888420ED0E0497831206813
:10179000884209D0DD4990312068884204D0DB4975
:1017A000A8312068884201D1012000E000200028F3
:1017B00073D0606A00B100BF00BF002084F834001D
:1017C00000BF022084F83500CF492068884249D004
:1017D000CD4918312068884244D0CB493031206847
:1017E00088423FD0C8494831206888423AD0C6492B
:1017F00060312068884235D0C349783120688842FA
:1018000030D0C1499031206888422BD0BE49A831E0
:101810002068884226D0BD492068884222D0BB4932
:101820001831206888421DD0B8493031206888427C
:1018300018D0B64948312068884213D0B349603186
:10184000206888420ED0B14978312068884209D09A
:10185000AE4990312068884204D0AC49A831206854
:10186000884206D12068006820F0010021680860E5
:1018700005E02068006820F00100216808600DE0A4
:1018800000F0CEFAA0EB0800052807D920206065FB
:10189000032084F83500012036E76AE020680068FC
:1018A00000F001000028EBD1206805689848054049
:1018B000D4E9020108432169084361690843A16929
:1018C0000843E1690843216A08430543606A042824
:1018D00003D1D4E90B01084305438E4800686FF338
:1018E0000F00B0F1005F1DD36068292802D3606843
:1018F0002E2811D960683F2802D3606842280BD98E
:101900006068472802D36068482805D960684F2876
:1019100004D36068522801D8012000E0002008B1FB
:1019200045F48015206805602068456925F00705A5
:10193000606A0543606A04280DD1A06A0543E06A25
:1019400048B12046FFF792F928B140206065012098
:1019500084F83500D8E6206845612046FFF762F834
:10196000064694F85C0000F01F013F208840B060FC
:101970009EE069492068884222D067491431206876
:1019800088421DD0644928312068884218D06249B5
:101990003C312068884213D05F495031206888422A
:1019A0000ED05D4964312068884209D05A497831A7
:1019B0002068884204D058498C312068884201D17F
:1019C000012000E00020E0B353492068884222D083
:1019D00051491431206888421DD04F492831206870
:1019E000884218D04C493C312068884213D04A497B
:1019F0005031206888420ED04749643120688842BF
:101A000009D0454978312068884204D042498C3158
:101A10002068884201D1012000E0002000B100BF11
:101A200000BF002084F8340000BF022084F8350095
:101A30002068056839480540A068402802D1102177
:101A400006E02EE0A068802801D1C10100E000215D
:101A5000E06841EAD001206941EAD001606941EAC9
:101A6000D001A06941EAD001E06941EAD001206AD1
:101A700041EA101005432068056027492068401A94
:101A80001421B0FBF1F08000E0652046FEF7CAFFAC
:101A9000074694F85C0000F01F0101208840786040
:101AA00006E040206065032084F8350001202BE625
:101AB0001549206888427FD0134918312068884230
:101AC0007AD0114930312068884275D00E494831AA
:101AD0002068884270D00C496031206888426BD001
:101AE000094978312068884266D0074990312068DA
:101AF000884261D00449A831206888425CD00349FB
:101B00002068884258D00BE01000024010040240C8
:101B10003F8010FE0010005C085402580F00FEFFCA
:101B20003B4918312068884246D039493031206815
:101B3000884241D036494831206888423CD03449F7
:101B400060312068884237D0314978312068884236
:101B500032D02F499031206888422DD02C49A831AD
:101B60002068884228D02B492068884224D02949FF
:101B70001431206888421FD02649283120688842C5
:101B80001AD024493C312068884215D0214950316F
:101B90002068884210D01F496431206888420BD0E9
:101BA0001C4978312068884206D01A498C31206857
:101BB000884200E000E001D1012000E0002000B3F5
:101BC0002046FEF7A5FFA068802801D100206060B4
:101BD0002079216E0860D4E919104860606860B10E
:101BE0006068082809D82046FEF7F4FF0020E16E5F
:101BF0000860D4E91C10486003E00020E06620671C
:101C0000606700206065012084F8350000207BE5D6
:101C10001004024008540258F8B502460023734DE0
:101C2000DEE001279F400E6806EA0704002C71D011
:101C30004E68012E08D04E68022E05D04E68112E37
:101C400002D04E68122E13D190685F000326BE406A
:101C5000B0435F00CE68BE403043906050680126BC
:101C60009E40B0430E79C6F300169E40304350604C
:101C7000D0685F000326BE40B0435F008E68BE4060
:101C80003043D0604E68022E02D04E68122E13D11F
:101C9000DF0802F1200656F827005E07F70E0F2630
:101CA000BE40B0435F07FF0E0E69BE403043DF0801
:101CB00002F1200646F8270010685F000326BE40A8
:101CC000B0430E7906F003065F00BE40304310605B
:101CD0004E6806F08056B6F1805F1BD100BF444EBF
:101CE000366846F00206424F3E603E46366806F0D1
:101CF0000206009600BF00BF3E4E9F0856F8270020
:101D00009E07370F0F26BE40B0433B4EB24202D172
:101D100000262EE063E0394EB24201D1012628E0D0
:101D2000374EB24201D1022623E0364EB24201D1F3
:101D300003261EE0344EB24201D1042619E0334E90
:101D4000B24201D1052614E0314EB24201D106263D
:101D50000FE0304EB24201D107260AE02E4EB242C9
:101D600001D1082605E02D4EB24201D1092600E03E
:101D70000A269F073F0FBE4030431E4E9F0846F87D
:101D800027002868A0434E6806F48036B6F5803FE9
:101D900000D1204328606868A0434E6806F40036EE
:101DA000B6F5003F00D1204368604FF0B046306880
:101DB000A0434E6806F48016B6F5801F00D120437C
:101DC0004FF0B04630607068A0434E6806F40016CD
:101DD000B6F5001F00D120434FF0B04670605B1C89
:101DE0000E68DE40002E7FF41CAFF8BD8000005866
:101DF000F444025808040058000002580004025835
:101E000000080258000C0258001002580014025832
:101E100000180258001C02580020025800240258E2
:101E20000148006870470000CC00002010B5032076
:101E300000F0AAF801F0FAF810490968C1F303218B
:101E40000F4A515C01F01F0120FA01F40B480068B1
:101E500000F00F001146085C00F01F0024FA00F0AB
:101E600008490860084804600F2000F00FF808B126
:101E7000012010BD00F00EF80020FAE718440258C7
:101E80008CB50008D8000020D400002001460020B6
:101E9000704700001148006840F002000F490860D8
:101EA0000F48006840F001000D4908600C481C38DC
:101EB000006840F070600A491C390860032002463F
:101EC000084B19684FF6FF031940074B0B4343EAD1
:101ED0000221044B196000BF70470000F44402580F
:101EE000200400580CED00E00000FA050146084609
:101EF000002809DB00F01F0301229A4043099B00E0
:101F000003F1E023C3F8002100BF70472DE9F05F23
:101F100080460D46164608F051FF074639462A46C8
:101F2000334601F00700C0F1070ABAF1040F02D9E5
:101F30004FF0040A01E0C0F1070AD14600F1040A9B
:101F4000BAF1070F02D24FF0000A01E0A0F1030A34
:101F5000D4464FF0010A0AFA09FAAAF1010A0AEA7C
:101F6000020A0AFA0CFA4FF0010B0BFA0CFBABF168
:101F7000010B0BEA030B4AEA0B042146404608F02A
:101F800025FFBDE8F09F000000BF00F00702064BF0
:101F900019684FF6FF031940044B0B4343EA022133
:101FA000014B196000BF70470CED00E00000FA051E
:101FB00010B500F0F1FF05490968C1F30211044AA8
:101FC000515C01F01F01C84010BD000020440258C0
:101FD0008CB5000870B50146844D2D6805F00303EB
:101FE000824D2D68C5F30530804D2D1D2D68C5F33C
:101FF00000147E4D14352D68C5F3CC0515FB04F592
:1020000001EE105AB8EE411AF0EE410A00286FD0E6
:1020100023B1012B4ED0022B6BD16BE0734D283DC9
:102020002D68C5F340153DB3704D283D2D68C5F3AF
:10203000C1066F4D25FA06F201EE102AF8EE411A9C
:1020400001EE100AB8EE411A81EE812A9FED691A5D
:10205000C0EE811A654D10352D68C5F3080501EEF7
:10206000105AB8EE411A31EE811AF7EE001A31EE2D
:10207000211A22EE010A1CE001EE100AB8EE411A04
:10208000DFED5D1A81EE812A9FED5A1AC0EE811AAA
:10209000564D10352D68C5F3080501EE105AB8EEFF
:1020A000411A31EE811AF7EE001A31EE211A22EEB2
:1020B000010A5BE001EE100AB8EE411ADFED4F1A9B
:1020C00081EE812A9FED4B1AC0EE811A474D1035E3
:1020D0002D68C5F3080501EE105AB8EE411A31EE2D
:1020E000811AF7EE001A31EE211A22EE010A3DE0C4
:1020F00077E01DE001EE100AB8EE411A9FED402A8C
:10210000C2EE011A9FED3B1A80EE812A374D103541
:102110002D68C5F3080501EE105AB8EE411A32EEEB
:10212000011AB7EE002A31EE021A21EE810A1DE0F3
:1021300001EE100AB8EE411ADFED301A81EE812A65
:102140009FED2C1AC0EE811A284D10352D68C5F36D
:10215000080501EE105AB8EE411A31EE811AF7EE79
:10216000001A31EE211A22EE010A00BF00BF1F4DF6
:1021700010352D68C5F3462501EE105AB8EE411A08
:10218000F7EE001A31EE211AC0EE011ABCEEE11A88
:1021900081ED001A154D10352D68C5F3064501EE89
:1021A000105AB8EE411AF7EE001A31EE211AC0EEBD
:1021B000011ABCEEE11A81ED011A0C4D10352D68A3
:1021C000C5F3066501EE105AB8EE411AF7EE001A93
:1021D00031EE211AC0EE011ABCEEE11A81ED021AAD
:1021E00003E000250D604D608D6070BD28440258ED
:1021F0000090D003000000460024744C0024744A70
:1022000020BCBE4B70B50146844D2D6805F003031C
:10221000824D2D68C5F30550804D2D1D2D68C5F3E9
:1022200000247E4D1C352D68C5F3CC0515FB04F547
:1022300001EE105AB8EE411AF0EE410A00286FD0B4
:1022400023B1012B4ED0022B6BD16BE0734D283D97
:102250002D68C5F340153DB3704D283D2D68C5F37D
:10226000C1066F4D25FA06F201EE102AF8EE411A6A
:1022700001EE100AB8EE411A81EE812A9FED691A2B
:10228000C0EE811A654D18352D68C5F3080501EEBD
:10229000105AB8EE411A31EE811AF7EE001A31EEFB
:1022A000211A22EE010A1CE001EE100AB8EE411AD2
:1022B000DFED5D1A81EE812A9FED5A1AC0EE811A78
:1022C000564D18352D68C5F3080501EE105AB8EEC5
:1022D000411A31EE811AF7EE001A31EE211A22EE80
:1022E000010A5BE001EE100AB8EE411ADFED4F1A69
:1022F00081EE812A9FED4B1AC0EE811A474D1835A9
:102300002D68C5F3080501EE105AB8EE411A31EEFA
:10231000811AF7EE001A31EE211A22EE010A3DE091
:1023200077E01DE001EE100AB8EE411A9FED402A59
:10233000C2EE011A9FED3B1A80EE812A374D183507
:102340002D68C5F3080501EE105AB8EE411A32EEB9
:10235000011AB7EE002A31EE021A21EE810A1DE0C1
:1023600001EE100AB8EE411ADFED301A81EE812A33
:102370009FED2C1AC0EE811A284D18352D68C5F333
:10238000080501EE105AB8EE411A31EE811AF7EE47
:10239000001A31EE211A22EE010A00BF00BF1F4DC4
:1023A00018352D68C5F3462501EE105AB8EE411ACE
:1023B000F7EE001A31EE211AC0EE011ABCEEE11A56
:1023C00081ED001A154D18352D68C5F3064501EE4F
:1023D000105AB8EE411AF7EE001A31EE211AC0EE8B
:1023E000011ABCEEE11A81ED011A0C4D18352D6869
:1023F000C5F3066501EE105AB8EE411AF7EE001A61
:1024000031EE211AC0EE011ABCEEE11A81ED021A7A
:1024100003E000250D604D608D6070BD28440258BA
:102420000090D003000000460024744C0024744A3D
:1024300020BCBE4B2DE9F04104460025A84620688B
:1024400000F00060B0F1006F30D1606E48B1B0F5BF
:10245000801F0DD0B0F5001F10D0B0F5401F15D172
:1024600013E0F948006840F40030F74908600FE0D5
:102470000221201D06F024FB054609E0022104F19B
:10248000240006F0CFFB054602E001E0012500BF75
:1024900000BF55B9EC482430006820F44010616E4C
:1024A0000843E9492431086000E0A846208800F488
:1024B0008070B0F5807F2DD1606D05281AD2DFE8DD
:1024C00000F0030A10171800DF48006840F40030DD
:1024D000DD49086010E00021201D06F0F1FA0546F4
:1024E0000AE0002104F1240006F09CFB054603E00D
:1024F00002E001E0012500BF00BF55B9D2482430F9
:10250000006820F00700616D0843CF49243108605E
:1025100000E0A846208800F40070B0F5007F33D1B9
:10252000A06D802817D003DC40B140281CD10CE0FE
:10253000C02817D0B0F5807F16D114E0C2480068DB
:1025400040F40030C049086010E00021201D06F072
:10255000B7FA05460AE0002104F1240006F062FB08
:10256000054603E002E001E0012500BF00BF55B9C8
:10257000B5482430006820F4E070A16D0843B249EA
:102580002431086000E0A846208800F48060B0F59F
:10259000806F38D1D4F8A400B0F5800F19D004DCD6
:1025A00050B1B0F5001F1DD10DE0B0F5C00F17D030
:1025B000B0F5000F16D114E0A348006840F40030D5
:1025C000A149086010E00021201D06F079FA0546B7
:1025D0000AE0002104F1240006F024FB054603E094
:1025E00002E001E0012500BF00BF5DB996482C3034
:1025F000006820F46000D4F8A410084392492C31FC
:10260000086000E0A846208800F40060B0F5006F84
:1026100038D1D4F8A800B0F1007F19D004DC50B153
:10262000B0F1807F1DD10DE0B0F1407F17D0B0F147
:10263000806F16D114E08448006840F4003082496D
:10264000086010E00021201D06F03AFA05460AE075
:10265000002104F1240006F0E5FA054603E002E05B
:1026600001E0012500BF00BF5DB977482C3000684C
:1026700020F0E060D4F8A810084373492C310860BA
:1026800000E0A846206800F00070B0F1007F27D17C
:10269000A06CA0B1102804D0202809D030280FD178
:1026A0000CE06948006840F400306749086009E0C0
:1026B0000221201D06F004FA054603E002E001E0D5
:1026C000012500BF00BF55B95F482030006820F0E9
:1026D0003000A16C08435C492031086000E0A84646
:1026E000208800F48050B0F5805F36D1E06DB0F501
:1026F000005F19D004DC50B1B0F5805F1DD10DE052
:10270000B0F5405F17D0B0F5804F16D114E04E48B9
:10271000006840F400304C49086010E00021201DA2
:1027200006F0CEF905460AE0002104F1240006F087
:1027300079FA054603E002E001E0012500BF00BF91
:1027400055B941482430006820F4E040E16D084369
:102750003D492431086000E0A846208800F400507C
:10276000B0F5005F34D1206EB0F5403F1DD007DCDE
:1027700068B1B0F5803F0BD0B0F5003F18D10DE047
:10278000B0F5802F12D0B0F5A02F11D10FE011E0DD
:102790000121201D06F094F905460BE0012104F10A
:1027A000240006F03FFA054604E003E002E001E001
:1027B000012500BF00BF55B923482430006820F42C
:1027C000E020216E084320492431086000E0A8463B
:1027D000208800F48040B0F5804F38D1D4F8AC00A8
:1027E000B0F1405F1DD007DC68B1B0F1805F0BD065
:1027F000B0F1005F18D10DE0B0F1804F12D0B0F110
:10280000A04F11D10FE011E00121201D06F058F971
:1028100005460BE0012104F1240006F003FA054609
:1028200004E003E002E001E0012500BF00BF6DB954
:1028300005482C30006820F0E040D4F8AC10084384
:1028400001492C31086002E02C440258A846208837
:1028500000F40040B0F5004F26D1E06E98B1B0F121
:10286000805F03D0B0F1005F0ED106E0F948006848
:1028700040F40030F749086008E00121201D06F00F
:102880001FF9054602E001E0012500BF00BF55B970
:10289000F0482430006820F04050E16E0843ED49D4
:1028A0002431086000E0A846206800F08070B0F194
:1028B000807F27D1606CA0B1012804D0022809D004
:1028C00003280FD10CE0E348006840F40030E149F0
:1028D000086009E00221201D06F0F2F8054603E039
:1028E00002E001E0012500BF00BF55B9D948203002
:1028F000006820F00300616C0843D649203108606D
:1029000000E0A846206800F48000B0F5800F7DD17B
:10291000D148006840F48070CF490860FFF780FA22
:10292000064606E0FFF77CFA801B642801D90325E0
:1029300005E0C948006800F480700028F2D000BFAC
:1029400085BBC4484430006800F44070B4F8B0104F
:1029500001F44071884213D0BE484430006820F42E
:102960004077BC484430006840F48030B949443175
:1029700008600846006820F4803008600846076058
:10298000D4F8B000B0F5807F15D1FFF749FA0646BC
:1029900009E0FFF745FA801B41F28831884202D9ED
:1029A000032507E038E0AB4844300068C0F340003E
:1029B0000028EED000BF55BB00BFB4F8B00000F453
:1029C0004070B0F5407F0ED1A2481C38006820F45A
:1029D0007C51A24AD4F8B000104041EA10109D4941
:1029E0001C39086007E09B481C38006820F47C50C4
:1029F00098491C390860974844300068B4F8B01012
:102A0000C1F30B0108439349443101E005E001E0C3
:102A1000086002E0A84600E0A846207800F0010027
:102A200068B3A06F182819D005DC48B1082808D071
:102A3000102816D10BE0202811D0282811D10FE042
:102A400011E00121201D06F03BF805460BE00121B5
:102A500004F1240006F0E6F8054604E003E002E095
:102A600001E0012500BF00BF55B97A482830006851
:102A700020F03800A16F084376492831086000E053
:102A8000A846207800F00200022828D1606F0628AE
:102A900015D2DFE800F003040A11121311E001213E
:102AA000201D06F00DF805460BE0012104F124007D
:102AB00006F0B8F8054604E003E002E001E0012575
:102AC00000BF00BF55B963482830006820F00700F8
:102AD000616F08435F492831086000E0A84620780C
:102AE00000F0040004282AD1D4F89000062815D25A
:102AF000DFE800F003040A11121311E00121201D88
:102B000005F0DEFF05460BE0012104F1240006F08C
:102B100089F8054604E003E002E001E0012500BF7A
:102B200000BF5DB94B482C30006820F00700D4F896
:102B30009010084347492C31086000E0A8462078EF
:102B400000F02000202836D1D4F88C00B0F1405F8E
:102B50001DD007DC68B1B0F1805F0BD0B0F1005F31
:102B600018D10DE0B0F1804F12D0B0F1A04F11D1CB
:102B70000FE011E00021201D05F0A2FF05460BE04B
:102B8000022104F1240006F04DF8054604E003E0BC
:102B900002E001E0012500BF00BF5DB92D482830EB
:102BA000006820F0E040D4F88C100843294928310F
:102BB000086000E0A846207800F04000402836D1A8
:102BC000D4F89800B0F5406F1DD007DC68B1B0F5BF
:102BD000806F0BD0B0F5006F18D10DE0B0F5805FBD
:102BE00012D0B0F5A05F11D10FE011E00021201D3F
:102BF00005F066FF05460BE0022104F1240006F013
:102C000011F8054604E003E002E001E0012500BF01
:102C100000BF5DB90F482C30006820F4E050D4F8B4
:102C2000981008430B492C31086000E0A846207832
:102C300000F0800080283AD1D4F89C00B0F5C04F55
:102C400023D00DDC98B1B0F5005F11D0B0F5804F06
:102C50001ED113E02C44025800480258FFFCFF0F1D
:102C6000B0F5004F12D0B0F5204F11D10FE011E0B8
:102C70000021201D05F024FF05460BE0022104F190
:102C8000240005F0CFFF054604E003E002E001E088
:102C9000012500BF00BF4DB9BE48006820F4604068
:102CA000D4F89C100843BB49086000E0A84620788F
:102CB00000F00800082817D1D4F88000B0F5805F34
:102CC00007D1022104F1240005F0ACFF08B14FF058
:102CD0000108B048001F006820F44050D4F880106C
:102CE0000843AC49091F0860207800F01000102844
:102CF00015D1D4F89400B0F5807F07D1022104F1FA
:102D0000240005F08FFF08B14FF00108A1480068CA
:102D100020F44070D4F8941008439E49086020685D
:102D200000F40020B0F5002F26D1D4F8A00030B177
:102D3000B0F5803F09D0B0F5003F0ED10CE0002186
:102D4000201D05F0BDFE054609E0022104F1240026
:102D500005F068FF054602E001E0012500BF00BF65
:102D60004DB98C48006820F44030D4F8A0100843D6
:102D70008849086000E0A846206800F48020B0F58B
:102D8000802F2DD1D4F88400B0F5801F06D0B0F587
:102D9000001F0CD0B0F5401F11D10FE07D482C383A
:102DA000006840F400307B492C39086009E00121BB
:102DB00004F1240005F036FF054602E001E001259C
:102DC00000BF00BF5DB97348001F006820F44010C9
:102DD000D4F8841008436F49091F086000E0A84632
:102DE000206800F48030B0F5803F24D1E06C18B149
:102DF000B0F5803F0FD108E066482C38006840F4F9
:102E0000003064492C39086007E00221201D05F0DC
:102E100057FE054601E0012500BF00BF55B95D48DA
:102E20000C38006820F48030E16C084359490C39B3
:102E3000086000E0A846206800F00050B0F1005F94
:102E400007D1022104F1240005F0ECFE08B14FF097
:102E50000108206800F40030B0F5003F27D1E06F92
:102E6000A0B1B0F5807F06D0B0F5007F0CD0B0F5F2
:102E7000407F0CD109E047482C38006840F400300E
:102E800044492C39086004E003E002E001E0012538
:102E900000BF00BF55B93F48001F006820F44070D4
:102EA000E16F08433B49091F086000E0A84620681D
:102EB00000F48010B0F5801F09D13648083800684A
:102EC00020F00040216F084332490839086020682B
:102ED00000F08050B0F1805F0AD12E484838006879
:102EE00020F48040D4F8B41008432A4948390860D7
:102EF000206800F40010B0F5001F09D125480838FB
:102F0000006820F08070A16E0843224908390860EB
:102F1000206800F08040B0F1804F11D100BF1D4803
:102F20004838006820F400401A49483908600846CB
:102F30000068D4F8B810084316494839086000BF43
:102F4000206800F00040B0F1004F09D111480C3862
:102F5000006820F04050216D08430E490C3908608C
:102F6000206800F40000B0F5000F0AD10948001FE6
:102F7000006820F44000D4F8881008430549091F70
:102F80000860B8F1000F02D10020BDE8F0810120F7
:102F9000FBE700005844025810B500F047F80D490F
:102FA0000968C1F303210C4A515C01F01F0120FAAA
:102FB00001F40848006800F00F001146085C00F0BA
:102FC0001F0024FA00F0054908600548046008461F
:102FD000006810BD184402588CB50008D8000020C5
:102FE000D400002000B5FFF7D7FF05490968C1F3F9
:102FF0000211044A515C01F01F01C84000BD0000ED
:103000001C4402588CB5000800B5FFF7C5FF054900
:103010000968C1F30221044A515C01F01F01C84054
:1030200000BD00001C4402588CB50008F0B5824E6B
:10303000366806F0380636B1082E15D0102E15D099
:10304000182E7DD114E07C4E103E3668C6F3401633
:1030500046B1794E103E3668C6F3C107774E26FA60
:1030600007F000E07548E5E07548E3E07548E1E009
:10307000714E1836366806F003046F4E18363668FF
:10308000C6F305116C4E1C36366806F001056A4E13
:1030900024363668C6F3CC0616FB05F601EE106A38
:1030A000B8EE410A002971D024B1012C50D0022C75
:1030B0006DD16DE0604E103E3668C6F340163EB3EB
:1030C0005D4E103E3668C6F3C1075C4E26FA07F324
:1030D00001EE103AF8EE411A01EE101AB8EE411A5C
:1030E00081EE812A9FED581AC0EE011A524E203609
:1030F0003668C6F3080601EE106AB8EE411A31EEE2
:10310000811AF7EE001A31EE211A62EE010A1EE072
:1031100001EE101AB8EE411ADFED4C1A81EE812A49
:103120009FED491AC0EE011A434E20363668C6F3A9
:10313000080601EE106AB8EE411A31EE811A00E07D
:1031400076E0F7EE001A31EE211A62EE010A5BE03A
:1031500001EE101AB8EE411A9FED3D2AC2EE011A97
:103160009FED391A80EE012A334E20363668C6F3B9
:10317000080601EE106AB8EE411A32EE011AB7EEF7
:10318000002A31EE021A61EE810A3DE04EE01DE0B8
:1031900001EE101AB8EE411ADFED2E1A81EE812AE7
:1031A0009FED291AC0EE011A234E20363668C6F369
:1031B000080601EE106AB8EE411A31EE811AF7EEF8
:1031C000001A31EE211A62EE010A1DE001EE101A1A
:1031D000B8EE411A9FED1E2AC2EE011A9FED1A1A8F
:1031E00080EE012A144E20363668C6F3080601EE3A
:1031F000106AB8EE411A32EE011AB7EE002A31EE2B
:10320000021A61EE810A00BF00BF0B4E20363668FD
:10321000C6F34626721C01EE102AB8EE411AC0EE23
:10322000811ABCEEE11A11EE100A00E0002001E064
:10323000034800BF00BFF0BD104402580090D00307
:1032400000093D0040787D01000000460024744CD8
:103250000024744A20BCBE4B30B502460B4600BF6A
:1032600092F83C00012801D1022030BD012082F8F3
:103270003C0000BF022082F83D00106841681068E1
:1032800084681F4D1068A84203D01E4D1068A842E4
:1032900003D121F470015868014321F070011868CE
:1032A000014310684160164D1068A84217D010689D
:1032B000B0F1804F13D0144D1068A8420FD0134DB9
:1032C0001068A8420BD0124D1068A84207D00D4DCF
:1032D0001068A84203D00F4D1068A84205D124F011
:1032E00080049868044310688460012082F83D00DF
:1032F00000BF002082F83C0000BF00BFB5E700001F
:1033000000000140000401400004004000080040AB
:10331000000C00400018004010B504460CB9012014
:1033200010BD94F83D0028B9002084F83C002046E8
:1033300000F02AF8022084F83D00211D206806F0E4
:10334000E1FD012084F8480000BF84F83E0001211F
:103350003F20015540200155412001554220015593
:103360004320015500BF00BF012084F844004520E0
:103370000155462001554720015500BF012084F822
:103380003D000020CCE7000008B5094A01689142E1
:103390000DD100BF0749096841F00801054A1160D5
:1033A0001146096801F00801009100BF00BF08BD87
:1033B000000C0040E8440258014691F83D00012805
:1033C00001D001207047022081F83D001A4B0868A7
:1033D000984217D00868B0F1804F13D0174B086897
:1033E00098420FD0164B086898420BD0154B0868CE
:1033F000984207D0144B0868984203D0134B0868D2
:10340000984210D108688068114B00EA0302062A2E
:103410000FD0B2F5803F0CD00868006840F0010082
:103420000B68186005E00868006840F001000B6850
:1034300018600020C6E700000000014000040040C2
:1034400000080040000C004000040140001800404B
:10345000070001002DE9F04104460D4600BF94F835
:103460003C00012802D10220BDE8F081012084F84F
:103470003C0000BF022084F83D0020688668404878
:10348000064026F47F46206886602868702826D08B
:103490000CDC00F00F01002966D10011072863D26F
:1034A000DFE800F0555657584B374100B0F1101F78
:1034B00052D009DCB0F5805F10D0B0F5005F1BD0B2
:1034C000B0F5801F50D146E0A0F5801020380028CC
:1034D00043D0102842D0202846D140E045E0D5E92D
:1034E00002136A68206806F073FD2068866846F05B
:1034F00077062068866038E0D5E902136A6820689C
:1035000006F066FD2068806840F48040216888608D
:103510002BE0EA686968206806F072FD5021206897
:1035200006F062FD21E0EA686968206806F07BFD2C
:103530006021206806F058FD17E0EA686968206895
:1035400006F05EFD4021206806F04EFD0DE000BF54
:1035500000BF00BF00BF00BF00BF00BF00BF2968A1
:10356000206806F041FD00E000BF00BF012084F8A4
:103570003D0000BF002084F83C0000BF00BF73E79F
:1035800088FFCEFF70B5044600BF94F88000012884
:1035900001D1022070BD012084F8800000BF2420EA
:1035A000C4F88400206805682068006820F00100E5
:1035B0002168086045F000554FF0005060662068B3
:1035C0000560204606F07AFF2020C4F8840000BF82
:1035D000002084F8800000BF00BFDBE770B5044620
:1035E0000D4600BF94F88000012801D1022070BD73
:1035F000012084F8800000BF2420C4F884002068E3
:1036000006682068006820F00100216808602068D2
:10361000806820F06060284321688860204606F0BA
:103620004DFF206806602020C4F8840000BF002001
:1036300084F8800000BF00BFD9E770B504460D468E
:1036400000BF94F88000012801D1022070BD012044
:1036500084F8800000BF2420C4F884002068066835
:103660002068006820F001002168086020688068F8
:1036700020F06040284321688860204606F01EFF45
:10368000206806602020C4F8840000BF002084F871
:10369000800000BF00BFD9E710B504460CB9012077
:1036A00010BDA06900B100E000BFD4F8840028B9C3
:1036B000002084F88000204600F02AF82420C4F876
:1036C00084002068006820F001002168086020461E
:1036D00006F0D8FF012800D1E2E7A06A10B1204629
:1036E00006F018FF2068406820F490402168486088
:1036F0002068806820F02A002168886020680068BF
:1037000040F0010021680860204606F07FFFC7E70F
:1037100010B5B6B00446142131A8FCF748FFBC210F
:1037200002A8FCF744FF4B49206888427DD1012064
:1037300002900020209002A8FEF77CFE08B1FDF761
:1037400061FD00BF4448006840F010004249086035
:103750000846006800F01000019000BF00BF00BFE5
:103760003D481038006840F001003B4910390860BE
:103770000846006800F00100019000BF00BF4FF450
:1037800080603190022032900120339000203490EC
:103790000720359031A93148FEF73EFA4FF400700A
:1037A0003190122032900120339000203490072075
:1037B000359031A92948FEF72FFA29482949086090
:1037C00029204860002127488160C1604FF4806152
:1037D0000161002141618161C16101624162FDF7C6
:1037E0008BFF08B1FDF70EFD00BF1E48E067846344
:1037F00000BF1B4818301C4908602A20486040213F
:10380000194881600021C1604FF48061016100218D
:1038100041618161C16101620421416203218162D0
:10382000C905C1620021016300E011E0FDF764FFFA
:1038300008B1FDF7E7FC00BF0B48A067846300BF39
:10384000002201212520FEF761FB2520FEF74EFB1B
:1038500036B010BD00100140F0440258000002587C
:1038600010000240108200208882002010B5002441
:10387000C460046102604360012906D002290FD0B0
:10388000042918D008292CD120E004248460174C86
:103890004461174C8461174CC461174C046222E0E8
:1038A00002248460154C4461154C8461154CC4613C
:1038B000154C046217E001248460144C4461144CDC
:1038C0008461144CC461144C04620CE001248460D3
:1038D000124C4461124C8461124CC461124C04625B
:1038E00001E000BFFEE700BF10BD00008B3A0008FA
:1038F000BD3B0008E93900085D390008F93D0008C2
:103900000F3F0008733D0008073D0008EF40000826
:10391000C1410008874000083D40000859430008A5
:103920006D440008F1420008A742000810B50446A3
:103930002046216A884710BD70B504460D462946C9
:103940002046E269904770BD70B504460D461646A4
:103950003246294620466369984770BD38B501460E
:103960000A694B688C689D1AA54210DA00220D681E
:10397000A81800BF05788DF8005045788DF80150E3
:1039800085788DF80250C5788DF8035023E00D68D6
:10399000A81800BF05788DF8005045788DF80150C3
:1039A00085788DF80250C5788DF8035000BF009DD2
:1039B000002D10DC00220D68A81800BF05788DF8D6
:1039C000005045788DF8015085788DF80250C57803
:1039D0008DF8035000BF009D2A449A4202D1002571
:1039E0000D6100E00A6138BDF8B502460C46136966
:1039F00056689568D0681769B84242D0F01AA84254
:103A000012DA0023002010611068C11800BF087886
:103A10008DF8000048788DF8010088788DF8020054
:103A2000C8788DF8030025E01068C11800BF087839
:103A30008DF8000048788DF8010088788DF8020034
:103A4000C8788DF8030000BF0098002812DC00231E
:103A5000002010611068C11800BF08788DF80000C0
:103A600048788DF8010088788DF80200C8788DF8C4
:103A7000030000BF0098401B20605F1910683844A5
:103A8000F8BD0020206000BFFAE72DE9F74381B0C0
:103A900003468846DC681E69D3F804C09D68039815
:103AA00028440390B44201DA371B04E0ACEB04076E
:103AB000B74200DA37460398874204DC4FF0FF3004
:103AC00004B0BDE8F083ACEB04000090DDF80C908E
:103AD0000098484526DA0098A84211DB196821446D
:103AE0000020009000BF9DF8000008709DF80100C4
:103AF00048709DF8020088709DF80300C87000BFF0
:103B0000196800BF9DF80C0008709DF80D00487002
:103B10009DF80E0088709DF80F00C87000BF294402
:103B2000002410E01968214400BF9DF80C000870C3
:103B30009DF80D0048709DF80E0088709DF80F00EC
:103B4000C87000BF294442460398401B009014E00F
:103B50000098083800901078087050784870907875
:103B60008870D078C8701079087150794871907950
:103B70008871D079C8710831083200980728E7DCCD
:103B800008E00098801E0090107808705078487007
:103B9000891C921C00980128F3DC0098002801DDA4
:103BA0001078087003982044604502D10020D86046
:103BB00002E003982044D860002081E72DE9FF4708
:103BC00081B004468C469146E3682669D4F80480A7
:103BD000A568681CDDF810A050440490B34201DAD7
:103BE000F71A04E0A8EB0307B74200DA3746049857
:103BF000874204DC4FF0FF3005B0BDE8F087A8EB4A
:103C000003000090DDF810A0009850452ADA0098D3
:103C1000A84211DB216819440020009000BF9DF8E4
:103C2000000008709DF8010048709DF8020088703F
:103C30009DF80300C87000BF216800BF9DF8100008
:103C400008709DF8110048709DF8120088709DF86A
:103C50001300C87000BF29449CF800000870491C7C
:103C6000002314E02168194400BF9DF8100008707B
:103C70009DF8110048709DF8120088709DF813009F
:103C8000C87000BF29449CF800000870491C4A46CF
:103C90000498401B401E009014E0009808380090E3
:103CA000107808705078487090788870D078C87014
:103CB000107908715079487190798871D079C871FC
:103CC0000831083200980728E7DC08E00098801ED9
:103CD00000901078087050784870891C921C0098E9
:103CE0000128F3DC0098002801DD107808700498A2
:103CF0001844404502D10020E06002E004981844D6
:103D0000E060002078E738B50269436884689D1A4E
:103D1000A5420BDA0022056805EB420100BF0D88C1
:103D2000ADF800504D88ADF8025019E0056805EB7C
:103D3000420100BF0D88ADF800504D88ADF802502B
:103D400000BF009D002D0BDC0022056805EB420141
:103D500000BF0D88ADF800504D88ADF8025000BF8F
:103D6000009D2A449A4202D10025056100E00261CB
:103D700038BDF8B502460C46136956689568D06898
:103D80001769B84234D0F01AA8420DDA0023002097
:103D90001061106800EB430100BF0888ADF8000017
:103DA0004888ADF802001BE0106800EB430100BF3B
:103DB0000888ADF800004888ADF8020000BF009800
:103DC00000280DDC002300201061106800EB430187
:103DD00000BF0888ADF800004888ADF8020000BFB9
:103DE0000098401B20605F19106800EB4700F8BD89
:103DF0000020206000BFFAE72DE9F74381B00346B9
:103E00008846DC681E69D3F804C09D68039828447E
:103E10000390B44201DA371B04E0ACEB0407B7426D
:103E200000DA37460398874204DC4FF0FF3004B0D5
:103E3000BDE8F083ACEB04000090DDF80C90009836
:103E400048451CDA0098A8420CDB196801EB4401D4
:103E50000020009000BFBDF800000880BDF80200FF
:103E6000488000BF196800BFBDF80C000880BDF88D
:103E70000E00488000BF01EB450100240CE01968EA
:103E800001EB440100BFBDF80C000880BDF80E0036
:103E9000488000BF01EB450142460398401B00905B
:103EA00014E00098083800901088088050884880F6
:103EB00090888880D088C88010890881508948817E
:103EC00090898881D089C8811031103200980728E4
:103ED000E7DC08E00098801E009010880880508879
:103EE0004880091D121D00980128F3DC0098002865
:103EF00001DD1088088003982044604502D100202D
:103F0000D86002E003982044D86000208FE72DE9B4
:103F1000FF4781B004468C469146E3682669D4F891
:103F20000480A568681CDDF810A050440490B342DA
:103F300001DAF71A04E0A8EB0307B74200DA3746C4
:103F40000498874204DC4FF0FF3005B0BDE8F087ED
:103F5000A8EB03000090DDF810A00098504520DA8F
:103F60000098A8420CDB216801EB4301002000907F
:103F700000BFBDF800000880BDF80200488000BF07
:103F8000216800BFBDF810000880BDF8120048800D
:103F900000BF01EB4501BCF800000880891C00232C
:103FA00010E0216801EB430100BFBDF8100008805C
:103FB000BDF81200488000BF01EB4501BCF80000CD
:103FC0000880891C4A460498401B401E009014E05B
:103FD00000980838009010880880508848809088A1
:103FE0008880D088C880108908815089488190894C
:103FF0008881D089C8811031103200980728E7DC09
:1040000008E00098801E0090108808805088488042
:10401000091D121D00980128F3DC0098002801DD1D
:104020001088088004981844404502D10020E060C0
:1040300002E004981844E060002086E770B501694A
:1040400044688568661AAE4206DA0021066806EB07
:10405000810200BF13680EE0066806EB810200BF14
:10406000136800BF002B06DC0021066806EB810206
:1040700000BF136800BF1944A14202D100260661A7
:1040800000E0016170BDF0B502460D461369576846
:104090009668D068D2F810C0604524D0F81AB042B3
:1040A00008DA002300201061106800EB830100BFD4
:1040B0000C6810E0106800EB830100BF0C6800BFC3
:1040C000002C08DC002300201061106800EB830145
:1040D00000BF0C6800BFA01B286003EB060C106833
:1040E00000EB8C00F0BD0020286000BFFAE72DE94E
:1040F000F04703468A461446DE68D3F810C0D3F86A
:1041000004909F683C44664502DAACEB060804E084
:10411000A9EB0608E04500DAE046A04503DC4FF0D5
:10412000FF30BDE8F087A9EB0605A54210DABD42D5
:1041300006DB196801EB8601002500BF0D6000BF9A
:10414000196800BF0C6000BF01EB8701002607E083
:10415000196801EB860100BF0C6000BF01EB87010D
:104160005246E51B12E0083D106808605068486040
:1041700090688860D068C8601069086150694861BB
:1041800090698861D069C86120312032072DEADC4E
:1041900006E0AD1E106808605068486008310832BB
:1041A000012DF6DC002D01DD10680860301948454E
:1041B00002D10020D86001E03019D8600020B0E7BB
:1041C0002DE9F04F044689469246E668D4F810C0BF
:1041D000D4F804B0A768781C0344664502DAACEB57
:1041E000060804E0ABEB0608E04500DAE046984537
:1041F00003DC4FF0FF30BDE8F08FABEB06059D42CE
:1042000014DABD4206DB216801EB8601002500BF00
:104210000D6000BF216800BF0B6000BF01EB87018C
:10422000D9F800000860091D00260BE0216801EBA9
:10423000860100BF0B6000BF01EB8701D9F80000C9
:104240000860091D5246D81B451E12E0083D106843
:1042500008605068486090688860D068C8601069DD
:1042600008615069486190698861D069C8612031EE
:104270002032072DEADC06E0AD1E106808605068A9
:10428000486008310832012DF6DC002D01DD106890
:104290000860F018584502D10020E06001E0F018F5
:1042A000E0600020A7E770B5016944688568661A78
:1042B000AE4206DA0021066806EBC10200BF1368B1
:1042C0000EE0066806EBC10200BF136800BF002BBA
:1042D00006DC0021066806EBC10200BF136800BFC0
:1042E0001944A14202D10026066100E0016170BDBF
:1042F000F0B502460D46136957689668D068D2F843
:1043000010C0604524D0F81AB04208DA002300201B
:104310001061106800EBC30100BF0C6810E010686A
:1043200000EBC30100BF0C6800BF002C08DC0023B9
:1043300000201061106800EBC30100BF0C6800BFD3
:10434000A01B286003EB060C106800EBCC00F0BD4E
:104350000020286000BFFAE72DE9F04F03468A46A7
:104360001446DE68D3F810C0D3F804909F683C442C
:10437000664502DAACEB060804E0A9EB0608E04566
:1043800000DAE046A04503DC4FF0FF30BDE8F08FD7
:10439000A9EB0605A54210DABD4206DB196801EB60
:1043A000C601002500BF0D6000BF196800BF0C608A
:1043B00000BF01EBC701002607E0196801EBC60149
:1043C00000BF0C6000BF01EBC7015246E51B2AE0AD
:1043D000083DD2E9000B0860C1F804B0D2E902B090
:1043E000C1F808B0C860D2E904B0C1F810B04861A3
:1043F000D2E9060B8861C1F81CB0D2E908B0C1F857
:1044000020B04862D2E90A0B8862C1F82CB0D2E928
:104410000CB0C1F830B04863D2E90E0B8863C1F824
:104420003CB040314032072DD2DC0CE0AD1ED2E969
:10443000000B0860C1F804B0D2E902B0C1F808B0BE
:10444000C86010311032012DF0DC002D04DDD2E9FE
:10445000000B0860C1F804B03019484502D10020B3
:10446000D86001E03019D86000208FE72DE9F04FC7
:10447000044689469646E668D4F810C0D4F804A0ED
:10448000A768781C0344664502DAACEB060804E032
:10449000AAEB0608E04500DAE046984503DC4FF059
:1044A000FF30BDE8F08FAAEB06059D4216DABD424B
:1044B00006DB216801EBC601002500BF0D6000BFCF
:1044C000216800BF0B6000BF01EBC701D9E9000BF9
:1044D0000860C1F804B0083100260DE0216801EB46
:1044E000C60100BF0B6000BF01EBC701D9E9000B9B
:1044F0000860C1F804B008317246D81B451E2AE096
:10450000083DD2E9000B0860C1F804B0D2E9020B03
:104510008860C1F80CB0D2E9040B0861C1F814B08E
:10452000D2E906B0C1F818B0C861D2E908B0C1F844
:1045300020B04862D2E90A0B8862C1F82CB0D2E9F7
:104540000C0B0863C1F834B0D2E90E0B8863C1F8D4
:104550003CB040314032072DD2DC0CE0AD1ED2E938
:1045600000B0C1F800B04860D2E902B0C1F808B0AC
:10457000C86010311032012DF0DC002D04DDD2E9CD
:10458000000B0860C1F804B0F018504502D10020BB
:10459000E06001E0F018E060002082E72DE9F047DC
:1045A00007468C46BCF1000F01D1BDE8F0873946C3
:1045B0008E684FF0010909FA06F8ACEB0800D0F854
:1045C000009029F00044D0F80490B9F1000F31D1E7
:1045D00004F1010909FA06F909EB0003D1F80C907E
:1045E000994524D0D3F8009029F0004909F1010938
:1045F00009FA06F909EB0305D3F8009009F0004920
:10460000B9F1000F02D04860046092E04860D3F82E
:104610000090A14409F10109C0F80090D1F80C9074
:10462000A94503D0D0F80090C5F8049081E0486017
:1046300004607EE0D0F8049009F1010909FA06F956
:10464000A0EB090204F1010909FA06F909EB0003DC
:10465000D1F80C9099455AD0D3F8009029F0004930
:1046600009F1010909FA06F909EB0305D2F80090EE
:1046700009F00049B9F1000F09D0D3F8009009F012
:104680000049B9F1000F02D04860046051E0D2F84F
:10469000009009F00049B9F1000F10D04860D3F83C
:1046A0000090A14409F10109C0F80090D1F80C90E4
:1046B000A9453ED0D0F80090C5F8049039E0D3F871
:1046C000009009F00049B9F1000F0CD04A60D2F80F
:1046D0000090A14409F10109C2F80090D2F80090BD
:1046E000C3F8049025E04A60D2F80090A144D3F8C2
:1046F00000A0D14409F10209C2F80090D1F80C9051
:10470000A94516D0D2F80090C5F8049011E0D2F86F
:10471000009009F00049B9F1000F02D04860046030
:1047200007E04A60D2F80090A14409F10109C2F8FB
:10473000009000BF39E72DE9F04F84460B4613B9CE
:104740000020BDE8F08F61468D68012000FA05F871
:104750004E68A8F10100184010B9087AC34004E07F
:1047600091F808B023FA0BF0431C324600BF1468DE
:1047700004F0004060BB9C422AD3E01A02280ED20B
:1047800044F00040106002EB080A601CA840861844
:10479000C868B04200D10E684E605046D1E7601C38
:1047A000A84000EB0209581CA8408718E01A401ED8
:1047B00038607B6043F000401060C868484502D014
:1047C0003868C9F804004F6002EB080A5046B8E7A1
:1047D00024F00040401CA8400244C868904200D128
:1047E0000A68B242C3D10020ABE72DE9F04106468A
:1047F0003546AA684FF0000CC1F808C0C1F80CC0DB
:10480000C1F810C0C1F814C02C68D4F800C02CF056
:104810000043D4F800C00CF0004CBCF1000F10D0E5
:1048200003FA02FCD1F80880C444C1F808C003F1BF
:10483000010C0CFA02FCD1F81080C444C1F810C07D
:104840000FE003FA02FCD1F80C80C444C1F80CC09C
:1048500003F1010C0CFA02FCD1F81480C444C1F835
:1048600014C0D4F804C0BCF1000F06D04FF0FF3CD8
:10487000C1F800C04C60BDE8F08103F1010C0CFAF6
:1048800002FC0CEB04009AE0D5F80CC0844505D27C
:104890006FF0020CC1F800C04860ECE7D0F800C02F
:1048A0002CF00043D0F804C0BCF1000F05D16FF02C
:1048B000010CC1F800C04860DDE7D0F804C00CF17D
:1048C000010C0CFA02FCA0EB0C0403F1010C0CFA35
:1048D00002FC0CEB0007D5F80CC0BC4517D0D7F88C
:1048E00004C09C4505D06FF0040CC1F800C04860BE
:1048F000C1E7D4F800C02CF0004CD0F80480C445C7
:1049000013D06FF0050CC1F800C04860B3E7D4F8CD
:1049100000C02CF0004CD0F80480C44505D06FF0E6
:10492000050CC1F800C04860A5E7D0F800C00CF045
:10493000004CBCF1000F10D003FA02FCD1F8088043
:10494000C444C1F808C003F1010C0CFA02FCD1F810
:104950001080C444C1F810C01CE0D4F800C00CF0B2
:10496000004CBCF1000F05D16FF0030CC1F800C082
:104970004C6080E703FA02FCD1F80C80C444C1F813
:104980000CC003F1010C0CFA02FCD1F81480C444F1
:10499000C1F814C0D4F800C02CF0004CD0F804804A
:1049A000C44505D06FF0050CC1F800C04C6062E74B
:1049B000044603F1010C0CFA02FC0CEB0400D5F8E0
:1049C0000CC084457FF460AF4FF0000CC1F800C00C
:1049D00000BF50E7F0B503460C46012707FA02F581
:1049E000082D01D200BFFEE718468260102100E0CA
:1049F000491CB1FBF5F705FB1717002FF8D11E4630
:104A00007718076007684760671A7F1BD740D0F8A0
:104A100000C0CCF800700027D0F800C0CCF80470BB
:104A20003719C760F0BD30B503460C46184621461D
:104A300012E0083A0D7805704D7845708D788570D4
:104A4000CD78C5700D7905714D7945718D79857178
:104A5000CD79C57108310830072AEAD806E0921EE0
:104A60000D7805704D784570891C801C012AF6D898
:104A70000AB10D78057030BD30B503460C461846B6
:104A8000214612E0083A0D8805804D8845808D88C2
:104A90008580CD88C5800D8905814D8945818D89A9
:104AA0008581CD89C58110311030072AEAD806E00A
:104AB000921E0D8805804D884580091D001D012A24
:104AC000F6D80AB10D88058030BD30B503460C46D6
:104AD0001846214612E0083A0D6805604D684560A9
:104AE0008D688560CD68C5600D6905614D6945615A
:104AF0008D698561CD69C56120312030072AEAD8EA
:104B000006E0921E0D6805604D684560083108306A
:104B1000012AF6D80AB10D68056030BD70B50346AC
:104B20000C461846214622E0083AD1E90056C0E971
:104B30000056D1E90256C0E90256D1E90456C0E94F
:104B40000456D1E90656C0E90656D1E90856C0E92F
:104B50000856D1E90A56C0E90A56D1E90C56C0E90F
:104B60000C56D1E90E56C0E90E5640314030072AA6
:104B7000DAD80AE0921ED1E90056C0E90056D1E920
:104B80000256C0E9025610311030012AF2D81AB18B
:104B9000D1E90056C0E9005670BDFEB505460E4687
:104BA00034462919042202A8FFF73DFF241D2919C4
:104BB00004226846FFF737FF241D00270AE0291961
:104BC000042201A8FFF72FFF029841680198884747
:104BD000241D7F1C00988742F1D3FEBD2DE9FF47BD
:104BE0000D4690469A4605F108024FF0040C0C9BC6
:104BF0000CFB0320009A1168884706461EB9002066
:104C000004B0BDE8F08700241AE05AF82400009AA6
:104C1000116888478146B9F1000F0ED105E0641E86
:104C200058F82400009A51688847002CF7D1009862
:104C30004168304688470020E2E748F82490641C29
:104C40000C988442E1D32F46F01904226946FFF7FD
:104C5000EAFE3F1DF01904220CA9FFF7E4FE3F1DF8
:104C60000C998A00F0194146FFF7DDFE3046C7E790
:104C700010B500200A49486006F030FB084908607A
:104C8000084801684FF480608847054988600846F5
:104C9000006810B10846806808B900BFFEE710BD83
:104CA00028810020F0B5000810B504460748406888
:104CB000A04201DA0548446004498868214602F0B0
:104CC00029FE0249086801F013FF10BD2881002069
:104CD00010B50349086801F0BDF80148806810BDAF
:104CE0002881002010B504462068FEF71FFE10BD85
:104CF000F8B504460D461646E06800F0F9FD694631
:104D00002068FEF719FE074617B10098286023E0D7
:104D1000002E0DDAE06800F0C5FC69462068FEF759
:104D20000BFE074617B10098286015E000BFFEE7AC
:104D300016B9002028600FE03146E06800F05AFD07
:104D400069462068FEF7F8FD074617B1009828600D
:104D500002E04FF0FF3028603846F8BD70B50446D9
:104D60000D461646324629462068FEF7EDFD10B97D
:104D7000E06800F021FC70BD2DE9F04104460D46CD
:104D800016461F463B46324629462046D4F810C0F8
:104D9000E047BDE8F0812DE9F84F04468846164605
:104DA0009946C2460027A0680090656800BF009839
:104DB000B04215DB324629465046FFF734FE3544F3
:104DC00037440098801B0090009818B92046FFF7E0
:104DD00089FF00E065600098A0603846BDE8F88F64
:104DE000009800281EDD29465046009AFFF71BFE5A
:104DF00000988244009807440098361A00BF204665
:104E0000FFF770FF002269462046FFF771FF054655
:104E100015B100980028F2D005B1C8E70020A060C5
:104E20003846DBE74A4669462046FFF761FF0546FC
:104E300008E02046FFF756FF002269462046FFF7AC
:104E400057FF054615B100980028F2D005B1AEE72E
:104E50000020A060401EC1E72DE9F84F04468846B7
:104E600016469946C2460027A0680090656800BFB4
:104E70000098B04216DB324629465046FFF7FCFD4B
:104E800005EB460537440098801B0090009818B940
:104E90002046FFF727FF00E065600098A0603846D5
:104EA000BDE8F88F009800281FDD29465046009A7B
:104EB000FFF7E2FD00980AEB400A009807440098CB
:104EC000361A00BF2046FFF70DFF00226946204634
:104ED000FFF70EFF054615B100980028F2D005B186
:104EE000C6E70020A0603846DAE74A466946204611
:104EF000FFF7FEFE054608E02046FFF7F3FE00221E
:104F000069462046FFF7F4FE054615B100980028D3
:104F1000F2D005B1ACE70020A060401EC0E72DE94B
:104F2000F84F0446884616469946C2460027A068B0
:104F30000090656800BF0098B04216DB32462946F3
:104F40005046FFF7C2FD05EB860537440098801BED
:104F50000090009818B92046FFF7C4FE00E0656095
:104F60000098A0603846BDE8F88F009800281FDD43
:104F700029465046009AFFF7A8FD00980AEB800AE0
:104F8000009807440098361A00BF2046FFF7AAFE93
:104F9000002269462046FFF7ABFE054615B1009892
:104FA0000028F2D005B1C6E70020A0603846DAE755
:104FB0004A4669462046FFF79BFE054608E0204624
:104FC000FFF790FE002269462046FFF791FE054656
:104FD00015B100980028F2D005B1ACE70020A06020
:104FE000401EC0E72DE9F84F04468846164699460C
:104FF000C2460027A0680090656800BF0098B042D4
:1050000016DB324629465046FFF788FD05EBC605FC
:1050100037440098801B0090009818B92046FFF78D
:1050200061FE00E065600098A0603846BDE8F88F3A
:10503000009800281FDD29465046009AFFF76EFDB4
:1050400000980AEBC00A009807440098361A00BF7F
:105050002046FFF747FE002269462046FFF748FE3C
:10506000054615B100980028F2D005B1C6E700202A
:10507000A0603846DAE74A4669462046FFF738FE20
:10508000054608E02046FFF72DFE0022694620462F
:10509000FFF72EFE054615B100980028F2D005B1A5
:1050A000ACE70020A060401EC0E770B504460D4686
:1050B0001646324629462068FFF750FE70BD10B5EF
:1050C0000446606801F066FE10BD00000FB42DE9D3
:1050D000F04786B0814610A805904F460F9C0025EA
:1050E00034E003E020787855641C6D1C20787B2820
:1050F00002D020780028F5D1207800B929E0641C7E
:10510000A0464FF0000A267803E00AF1010A641C69
:1051100026787D2E01D0002EF7D1207800B918E036
:10512000641CBAF1000F11DD01A94046FCF72EFA0C
:105130009DF810600C4850F8260038B178190A49DB
:1051400051F8263005AA01A998470544207800287F
:10515000C7D100BF002005907855284606B0BDE8AD
:10516000F0075DF814FB0000FCB5000810B502461E
:1051700002F10800122113E00839002404604460A1
:105180008460C460046144618461C46104624462F7
:105190008462C4620023036343638463C463403056
:1051A0000829E9DA04E0491E00240460446008305C
:1051B0000029F8DC10BD00002DE9F04306464FF051
:1051C000FF300027DFF8A080D8F80080D8F87440BE
:1051D000022C46DA00BF631CDFF88C80D8F8008010
:1051E000C8F874307F1CDFF88080D8F80080D8F8C9
:1051F000788008EB04114A688D68AA4202DAA5EBB0
:10520000020C03E0C2F1080808EB050CBCF1010F29
:1052100013DDD1F80C8048F82260072A04D14FF042
:105220000008C1F8048003E002F10108C1F804801D
:105230004FF0FF38C1F8008000201C4608B1022C56
:10524000C9DBDB1BDFF82080D8F80080C8F8743099
:1052500038B94FF0FF38DFF81090D9F80090C9F84E
:105260007080BDE8F083000014010020F0B5054611
:1052700000BF00BF00BF4FF0FF30DFF834C3DCF8E1
:1052800000C0CCF8040000BF00BF00BF686840B396
:1052900000BF00BF00BF0020DFF814C3DCF800C06F
:1052A000CCF80400C2480068C068A0B10020DFF854
:1052B00000C3DCF800C0CCF80C0000BF00BF00BF8A
:1052C000BC48006840F08050DFF8E8C2CCF800002D
:1052D00000BF00BF00BF00BF00BF00BF4FF0FF30E6
:1052E000F0BD4FF0FF3068602968002979D0086868
:1052F000012802D0032875D197E0002008602860BB
:105300000F698C68CA682CB9A9480068683040F8F1
:10531000272000E0E26002B1946000BF00204861F5
:10532000A3480068C26B8B6B906B98420DDD4FF009
:10533000000CC1F810C000208860CA6091609C48D1
:105340000068C1634FF0FF3623E099480068026CA3
:105350004FF0FF3CC1F810C05AB99548006843644B
:10536000002088608446C1F80CC091480068016440
:105370000EE08F480068406C984202DD8C4800685F
:10538000436400208860CA609160894800680164B5
:10539000002600BF3EBB00BF00BF00BF0020DFF8FB
:1053A00010C2DCF800C0CCF8040081480068C06876
:1053B000A0B10020DFF8F8C1DCF800C0CCF80C0088
:1053C00000BF00BF00BF7B48006840F08050DFF89E
:1053D000E4C1CCF8000000BF00BF00BF00BF00BFA9
:1053E00021E0BCE0B9E0FFE700BF00BF00BF002044
:1053F000DFF8BCC1DCF800C0CCF80400DFF8B0C1B5
:10540000DCF800C0CCF80C0000BF00BF00BF69484A
:10541000006840F08050DFF89CC1CCF8000000BF6D
:1054200000BF00BF00BF00205AE7002008602860CE
:105430008C68CA681CB95E480068426500E0E2609A
:1054400032B19460D2F840C0086C8444C2F840C0C5
:1054500000BF0020486156480068C26B8B6B906BA0
:1054600098420DDD4FF0000CC1F810C0002088609C
:10547000CA6091604E480068C1634FF0FF3623E078
:105480004B480068026C4FF0FF3CC1F810C05AB99D
:10549000474800684364002088608446C1F80CC017
:1054A0004348006801640EE041480068406C98423F
:1054B00002DD3F480068436400208860CA60916054
:1054C0003B4800680164002600BF2EBB00BF00BF40
:1054D00000BF0020DFF8D8C0DCF800C0CCF8040022
:1054E00033480068C068A0B10020DFF8C4C0DCF811
:1054F00000C0CCF80C0000BF00BF00BF2D48006802
:1055000040F08050DFF8ACC0CCF8000000BF00BF16
:1055100000BF00BF00BF1EE000BF00BF00BF0020F3
:10552000DFF88CC0DCF800C0CCF80400DFF880C0E5
:10553000DCF800C0CCF80C0000BF00BF00BF1D4865
:10554000006840F08050DFF86CC0CCF8000000BF6D
:1055500000BF00BF00BF0020C2E600BFFEE700BFE3
:1055600000BF00BF0020DFF848C0DCF800C0CCF866
:1055700004000F480068C068A0B10020DFF830C008
:10558000DCF800C0CCF80C0000BF00BF00BF094829
:10559000006840F08050DFF81CC0CCF8000000BF6D
:1055A00000BF00BF00BF00BF00BF002098E60000A2
:1055B0001401002004ED00E070B50546686810B1E4
:1055C0004FF0FF3070BD4FF0FF3068602C68002C4A
:1055D00061D0206800285AD0012802D0032858D171
:1055E00030E00020206028602046FFF7E5FD58B13C
:1055F0004FF0FF31226929480068603040F82210DE
:10560000084626490968886500BF00BF00BF2348D7
:105610000068406828B14FF0FF3020490968C86031
:105620000BE000BF00BF00BF1D48006840F0805085
:105630001B49086000BF00BF00BF00BF00BF00BF24
:105640000020BFE7002020602860401E1349096841
:10565000086500BF00BF00BF10480068406828B15F
:105660004FF0FF300D490968C8600BE000BF00BF74
:1056700000BF0B48006840F080500949086000BF37
:1056800000BF00BF00BF00BF00BF00209AE700209E
:1056900098E700BFFEE7002094E700001401002017
:1056A00004ED00E02DE9F04105465048006800682F
:1056B00000684468686818B100206860BDE8F0813F
:1056C00000BF00BF00BF4FF0FF3048490968486085
:1056D00000BF00BF00BF01202060E56300BF801E47
:1056E0006061D4F80880E66840480068C66300201E
:1056F000B0603E480068D0F84080B8F1000F0CD090
:10570000B06B3A490968496C884206DD0020374988
:1057100009680864404601F00BF900BF00BF334838
:105720000068C76D31480068683050F8276027610D
:10573000E6600020A06006B1B4602C4800686830C4
:1057400040F82740012F04D1002028490968C86586
:1057500003E0781C25490968C86500BF2C606868AB
:10576000A0B1286890B10020206028602046FFF793
:1057700023FD58B14FF0FF3122691C4800686030AA
:1057800040F82210084619490968886500BF00BF23
:1057900000BF4FF0FF3015490968086100BF00BF26
:1057A00000BF002011490968486010490968C860B5
:1057B00000BF00BF00BF0E48006840F080500C4999
:1057C000086000BF00BF00BF00BF00BF07480068FF
:1057D00000690028FAD100BF00BF00BF686808B99F
:1057E00000BFFEE70020686000BF67E714010020EB
:1057F00004ED00E02DE9F041044688463A4800688F
:10580000006800684568606818B100206060BDE805
:10581000F08100BF00BF00BF4FF0FF303249096880
:10582000486000BF00BF00BF03202860EC6300BFDA
:10583000001F6861AF68EE682B480068C6630020EF
:10584000B06029480068076C67B1B06B26490968E9
:10585000496C884206DD00202349096808643846FF
:1058600001F066F800BF4146284600F031FF256090
:10587000606840B1206830B1002028602060401E80
:1058800019490968086500BF00BF00BF4FF0FF302D
:1058900015490968086100BF00BF00BF0020124918
:1058A0000968486010490968C86000BF00BF00BFB0
:1058B0000E48006840F080500C49086000BF00BFEF
:1058C00000BF00BF00BF0848006800690028FAD187
:1058D00000BF00BF00BF606810B94FF0FF3096E70F
:1058E0000020606000BF92E71401002004ED00E09A
:1058F0000146486810B94FF0FF30704700204860FB
:1059000000BFFAE770B504460D462946204604F06C
:105910008BFC70BD10B5044621460248FEF73EFEE2
:1059200010BD0000008300200148006840697047F6
:1059300014010020034A1168034A1268881A024AB7
:1059400011607047240C0040200100201CB500BFEE
:1059500000BF00BF4FF0FF3018490968486000BF22
:1059600000BF00BF694601A800F090FB00BF00BF68
:1059700000BF002011490968486010480068C068ED
:1059800078B100200D490968C86000BF00BF00BFA2
:105990000B48006840F080500949086000BF00BF14
:1059A00000BF00BF00BF00BF4FF47A7101984843A9
:1059B000009990FBF1F0C0F57A701CBD1401002035
:1059C00004ED00E002480068006800684068704725
:1059D00014010020834600BF3D480068806B00280A
:1059E00053D000BF00BF00BF4FF0FF3038490968F7
:1059F000486000BF00BF00BF35480068D0F838904D
:105A000000203349096888634C460FE0D4F808A0A9
:105A10006FF001002060A769E6691FB92C48006893
:105A2000466300E0FE6106B1B7615446002CEDD13B
:105A300000BF00BF00BF0020254909684860244816
:105A40000068C06878B1002021490968C86000BFBB
:105A500000BF00BF1F48006840F080501D4908602B
:105A600000BF00BF00BF00BF00BF00BF4C460AE040
:105A7000D4F808A094F8340000F0010010B92046D2
:105A800005F0C8FA5446002CF2D111480068806A2B
:105A9000A0B100200E49096888620D480068456B76
:105AA0000AE0AA6A9108686A03F02CFB0422A96A3A
:105AB00002FB1010E862ED69002DF2D10448006885
:105AC000D0F82080B8F1000F86D05846C04783E751
:105AD0001401002004ED00E07CB506460D4600F000
:105AE000EDFA7C2002F062FABF49086000BF00BFF7
:105AF0000846006800B973E1BC48BB490968C86240
:105B0000BB49B948006801630020B74909680860CB
:105B1000B54909684860B44909688860B2490968AC
:105B2000C860B14909680861401EAF490968486109
:105B30000020AD49096888610021AB480068C16157
:105B40000020A94909680862A74909688862A6492E
:105B500009688863A449096808646FF00040A24995
:105B6000096848640020A0490968C8649E4909681A
:105B700088649D49096848659B49096808659A4990
:105B80000968886598490968C86500240BE0002108
:105B900095480068603040F82410934800686830E9
:105BA00040F82410641C022CF1DB00208E490968A7
:105BB000086700218C48006841678B480068C16A0B
:105BC0004420884788490968486287480068406AD5
:105BD00000B900E1ED1C05F003002D1A82480068B1
:105BE000C16A2846884780490968496A48627E48F0
:105BF0000068406A406A00B9E5E07B480068C16A15
:105C00000820884778490968496A08627648006828
:105C1000406A006A00B9CDE073480068406A724982
:105C20000968496A096A486000206F490968496A39
:105C300008606D480068406A85626FF000406A49FC
:105C40000968496A8863A908674A1268526A506AF3
:105C500003F06CFA64480068406A406A0190654845
:105C6000009061480068406A3346634A816A01A82F
:105C700000F08AFE5C4901980968496A096A08606F
:105C8000A908594A1268526A506A03F03BFA564909
:105C90000968496A896A042202FB1010524909689E
:105CA000496AC86255A050490968496A486000219C
:105CB0004D480068406A016100204B490968496A03
:105CC0008860002148480068406AC1600020464959
:105CD0000968496A486144480068406A424909685D
:105CE000C863002140480068406AC16100203E4905
:105CF0000968496A88613C480068406A3A4909680D
:105D0000486339480068C16A2020884736490968D5
:105D1000886735480068806F00B942E0002434E0AD
:105D200031480068C16A202088472F490968896F77
:105D300001EB0411C8602C480068806F00EB041070
:105D4000C06870B90AE0641E274A1268926F02EBBD
:105D50000412D068244A1268116B8847002CF2DCC8
:105D600017E0002120480068806F00EB04100160FC
:105D70001D480068806F00EB041041601A480068FD
:105D8000806F00EB04108160641C022CC8DB0020D3
:105D90007CBD154A1268906F134A1268116B8847D0
:105DA00000BF114A1268526A106A0F4A1268116BDA
:105DB000884700BF0C4A1268526A506A0A4A126841
:105DC000116B884700BF084A1268506A064A126879
:105DD000116B884700BF04480068FBF767FA00BFF3
:105DE0004FF0FF30D4E7000014010020AD7F000821
:105DF000AD1200084FA00008D55900083C49444C9A
:105E0000455F5448524541443E00000010B50C48DF
:105E1000006840F040400A49086000220F21901EAF
:105E2000FCF774F807480849086008480068C06B28
:105E3000006A07490860084604490968086010BDFF
:105E400034EF00E0FD0300081C01002014010020D5
:105E5000180100202DE9F04780467D480068006861
:105E60000068466800BF00BF00BF4FF0FF307849B0
:105E70000968486000BF00BF00BFD8F800403CBBC5
:105E8000C8F80060B06BC8F804000020C8F808002B
:105E900000BF00BF00BF6E49096848606C480068D9
:105EA000C06878B100206A490968C86000BF00BFB7
:105EB00000BF6848006840F080506649086000BF35
:105EC00000BF00BF00BF00BF00BF0020BDE8F087DB
:105ED000B44225D1D8F80800401CC8F8080000BF1B
:105EE00000BF00BF00205A49096848605848006850
:105EF000C06878B1002056490968C86000BF00BF7B
:105F000000BF5448006840F080505249086000BF0C
:105F100000BF00BF00BF00BF00BF4FF0FF30D5E79C
:105F20000120306000BF801E7061B768F568484886
:105F30000068C5630020A86045480068076C67B129
:105F4000A86B43490968496C884206DD0020404936
:105F500009680864384600F0EBFC00BF3146404653
:105F600001F014FED6F83890A06B484546DDC4F821
:105F700038906069002841D100BF401E60612069EF
:105F8000D0B9A768E5681FB931480068C56300E06B
:105F9000FD60AF602E480068076C07B3A86B2C4902
:105FA0000968496C88421ADD00202949096808649B
:105FB000384600F0BDFC12E025480068076C002060
:105FC000234909680864384600F0B2FCA768E56810
:105FD0001FB91F480068C56300E0FD60AF6000BFE7
:105FE000002060611A480068C56B00212161002013
:105FF000A060E560AC6016480068C46300BF00BFE5
:1060000000BF4FF0FF3012490968086100BF00BFB0
:1060100000BF00200E49096848600D490968C86042
:1060200000BF00BF00BF0B48006840F08050094926
:10603000086000BF00BF00BF00BF00BF0448006889
:1060400000690028FAD100BF00BF00BF00BF3DE7D4
:106050001401002004ED00E070B504462146034819
:10606000FEF769FB0546284670BD0000008300204E
:1060700000B587B001A90448FEF7B7FB019808B93D
:1060800007B000BD00BFFEE70083002030B587B039
:1060900004460D4601A90848FEF7A7FB019828B958
:1060A0004FF4804028600498206003E0642028605A
:1060B0000198206007B030BD0083002010B5032296
:1060C0004FF480410148FEF785FC10BD008300209D
:1060D0002DE9F84FFD480068406810B10020BDE888
:1060E000F88F00BF00BF00BF0020F84909680861B1
:1060F00000BF00BF00BFF5480068D0F848A0F348D3
:106100000068D0F850B0BAF1000F02D1BBF1000F17
:106110007ED000BF00BF00BF4FF0FF30EB490968E1
:10612000886000BF00BF00BFBAF1000F50D0002050
:10613000E64909688864E5480068C46C42E0206864
:1061400000283ED1E66806B1B06000BF0020606163
:10615000DE480068C56BA76BA86BB8420BDD002159
:1061600021610020A060E560AC60D8480068C4638D
:10617000481E009022E0D5480068056C4FF0FF31C2
:10618000216155B9D148006847640020A060002112
:10619000E160CE48006804640EE0CC480068406CC2
:1061A000B84202DDC948006847640020A060E5608D
:1061B000AC60C648006804640020009000BF34460C
:1061C00000E001E0002CBAD100BFC0480068C46400
:1061D000BBF1000F7CD00020BC4909680865BB48B2
:1061E0000068446D47E0E6682068002842D12EB17F
:1061F000316C206C014431640020B06000BF00208D
:106200006061B2480068C56BA76BA86BB84200E03C
:1062100090E00BDD002121610020A060E560AC6012
:10622000AA480068C463481E009022E0A74800689E
:10623000056C4FF0FF31216155B9A44800684764EF
:106240000020A0600021E160A048006804640EE026
:106250009E480068406CB84202DD9C480068476474
:106260000020A060E560AC609848006804640020ED
:10627000009000BF3446002CB5D1944800684465B6
:106280004ED0E4684AE0E6682068002845D1D4F89A
:106290000880C8F80C602EB1316C206C0144316468
:1062A000C6F8088000BF0020606188480068C56BA0
:1062B000A76BA86BB8420CDD002121610020A06013
:1062C000E560AC6081480068C463481E009023E02C
:1062D00026E07E480068056C4FF0FF31216155B91A
:1062E0007A48006847640020A0600021E160774898
:1062F000006804640EE075480068406CB84202DD36
:106300007248006847640020A060E560AC606F4898
:10631000006804640020009000BF3446002CB2D115
:1063200000BF00BF00BF002068490968886000BF47
:1063300000BF00BF65480068806D00287ED0002047
:106340006249096888658146B0E06048006860304D
:1063500050F82900002872D000215C4800686030A5
:1063600040F8291059480068683050F8294044E046
:106370002068E8BBE6680EB10020B06000BF0020D6
:10638000606152480068C56BA76BA86BB8420BDD13
:10639000002121610020A060E560AC604B480068EE
:1063A000C463481E009022E048480068056C4FF026
:1063B000FF31216155B94548006847640020A0605D
:1063C0000021E1604148006804640EE03F48006835
:1063D000406CB84202DD3D48006847640020A06080
:1063E000E560AC603948006804640020009000E07B
:1063F00002E000BF344600E001E0002CB8D100BF4D
:1064000032480068683040F82940002C4CD0E468DD
:1064100048E0E668206888BBD4F80880C8F80C60BB
:106420000EB1C6F8088000BF0020606127480068F0
:10643000C56BA76BA86BB8420EDD01E03AE033E014
:10644000002121610020A060E560AC601F48006869
:10645000C463481E009023E01C480068056C4FF0A0
:10646000FF3121615DB91948006847640020A060D0
:106470000021E1601548006804640FE011E0134852
:106480000068406CB84202DD104800684764002094
:10649000A060E560AC600D480068046400200090D6
:1064A00000BF3446002CB4D109F10109B9F1020F43
:1064B000FFF64BAF05480068006F002875D000203C
:1064C000024909680867814677E00000140100204E
:1064D000504B1B689B6F03EB09100368002B6AD0BD
:1064E000816800BF0023036042688A4261D0C368AC
:1064F00053F821406369EBB3E668D4F80880B8F13B
:10650000000F07D1D4F810C0424B1B68683343F822
:106510002C6001E0C8F80C600EB1C6F8088000BF1E
:10652000002363613B4B1B68DD6BA76BAB6BBB420E
:106530000EDD4FF0000CC4F810C00023A360E5602E
:10654000AC60344B1B68DC634FF0FF33009326E0F4
:10655000304B1B681D6C4FF0FF3CC4F810C06DB988
:106560002C4B1B685F640023A3609C46C4F80CC0DE
:10657000284B00E014E01B681C640EE0254B1B68F0
:106580005B6CBB4202DD234B1B685F640023A3608E
:10659000E560AC601F4B1B681C640023009300BFC8
:1065A000072903D1002181609CE709E0491C816033
:1065B00098E700BF00BF09F10109B9F1020F87DBBD
:1065C0001448006800680068D0F80480114800682A
:1065D000C66BB0451BD00F49306A0968096808606E
:1065E0000C480068446AA64208D14FF0FF300949C0
:1065F000096888620020FAF7FBF805E0A04503D19E
:106600004FF0FF30FAF7F4F84FF0FF3067E5002065
:1066100065E500001401002001490968086270471F
:10662000140100202DE9F04704460D461646984611
:10663000DDF820904946304604F0AAFE074617B917
:106640000020BDE8F08743462A462146384600F040
:10665000B3F920B1384604F0DDFC0020F1E73846FC
:10666000EFE72DE9F04704460D4616469846DDF85B
:1066700020904946304604F08BFE074617B90020AB
:10668000BDE8F08743462A462146384600F0B3F974
:1066900020B1384604F0BEFC0020F1E73846EFE7B1
:1066A000FFF7B4FB00210848FFF72CF900BF00BF3B
:1066B00000BF0648006840F080500449086000BFF1
:1066C00000BF00BF00BFFEE7296A000804ED00E03C
:1066D00070B50A46164D2D686B6D43B902640026ED
:1066E000C66000258560124D2D6868651EE0104D5E
:1066F0002D68696D002312E00C6C94420CDD02647D
:10670000A61A0E648360C16088601BB9084D2D68AD
:10671000686500E0D86070BD121B0B46D96800297F
:10672000EAD1026483600026C660D86000BFF2E749
:106730001401002007462C4800680068006844687F
:10674000276300BF00BF00BF4FF0FF302649096834
:10675000486000BF00BF00BF206000BF6061A66846
:10676000E56821480068C5630020A8601E480068ED
:10677000066C66B1A86B1C490968496C884206DD45
:106780000020194909680864304600F0D1F800BFBC
:1067900015480068866B2EB90020A060124800687A
:1067A000846308E0B56801E02E46B568002DFBD192
:1067B0000020A060B46000BF00BF00BF00200A49F5
:1067C0000968486008490968C86000BF00BF00BF89
:1067D0000648006840F080500449086000BF00BFD0
:1067E00000BF00BF00BFFEE71401002004ED00E081
:1067F00070B5044604B970BD254600BF00BF00BF98
:106800004FF0FF3017490968486000BF00BF00BF64
:1068100006E02C6913480068016B28468847254626
:10682000002DF6D100BF00BF00BF00200D49096850
:1068300048600C480068C06878B1002009490968C0
:10684000C86000BF00BF00BF0748006840F080502C
:106850000549086000BF00BF00BF00BF00BF00BF08
:1068600000BFC8E71401002004ED00E070B5002669
:10687000002400BF00BF00BF601E2B4909684860AC
:1068800000BF00BF00BF28480068456B28E03CB946
:1068900025480068C16A142088470646344606E049
:1068A00021480068C16A142088472061246964B9BE
:1068B000344606E026691C480068016B204688477C
:1068C0003446002CF6D100260CE0002020616868D8
:1068D0006060A86B2060E86AA060A86AE060ED696B
:1068E000002DD4D100BF00BF00BF00BF00200E4963
:1068F000096848600C480068C06878B100200A49FF
:106900000968C86000BF00BF00BF0848006840F0C9
:1069100080500649086000BF00BF00BF00BF00BF35
:1069200000BF304670BD00001401002004ED00E0FF
:10693000F0B5144E3668F36B1EE000270761C5689A
:106940001946846B8E6BA64205DD00268660C16009
:10695000886003460FE0C96809E08E6BA64205DD3A
:106960008A68C1608260D060886004E0C9680029DC
:10697000F3D100BFFEE728460028DED1014E36687D
:10698000F363F0BD1401002070B50446049D266831
:106990000E4426602068001F4FF080760660001FBE
:1069A0000260001F056014380360001F6FF00206CC
:1069B00006602038206070BD2DE9F04105460E4686
:1069C00017461C466FF00040844202D14000BDE8EB
:1069D000F0812868801C10B14FF0FF30F7E73A468D
:1069E0003146284601F060F800222146284603F08F
:1069F00035FB0020EBE72DE9F04104460E46174633
:106A00001D462068801C18B14FF0FF30BDE8F081B2
:106A10003A463146204601F047F8032229462046EF
:106A200003F01CFB0020F1E730B5034600222E4C9A
:106A3000246864681CB92C4C2468A46804B130BD77
:106A4000294C2468E06CD8B1C16B022916DA002405
:106A5000C4630460C06807E0C16B012902DA002446
:106A6000046000E002E0C0680028F5D100BF4FF0EC
:106A7000FF341D4D2D68AC64224601E04C1EC463FA
:106A8000194C2468606D00B3016C02291BDA0025E3
:106A9000056400240460C56B2C60C06809E0016CCB
:106AA000012904DA00240460C56B2C6000E002E0D8
:106AB000C0680028F3D100BF4FF0FF340A4D2D68A5
:106AC0002C65224601E04C1E04645AB100BF00BF91
:106AD00000BF064C246844F08054044D2C6000BF75
:106AE00000BF00BF00BFAAE71401002004ED00E0D2
:106AF0002DE9F05F8046A54800680068006844689A
:106B0000D8F80000A04201D0BDE8F09FD8F808A056
:106B1000BAF1000F04D0AAF10100C8F80800F3E7A9
:106B200000BF00BF00BF4FF0FF30984909684860C0
:106B300000BF00BF00BFD8F80C6006BB0020C8F83B
:106B4000000000BF00BF00BF9049096848608F483F
:106B50000068C06878B100208C490968C86000BF2F
:106B600000BF00BF8A48006840F080508849086034
:106B700000BF00BF00BF00BF00BF00BFC4E7D8F820
:106B80000470A06BB8427EDAA76300BF4FF0FF30FD
:106B90006061206910BBD4F80890E568B9F1000F76
:106BA00003D17A480068C56301E0C9F80C50C5F804
:106BB000089076480068D0F84090B9F1000F26D0D0
:106BC000A86B72490968496C884220DD00206F4932
:106BD000096808644846FFF7ABFE18E06B48006898
:106BE000D0F8409000206949096808644846FFF7DA
:106BF0009FFED4F80890E568B9F1000F03D163480F
:106C00000068C56301E0C9F80C50C5F8089000BFE2
:106C100000BF002060615D480068C56BA76BA86B72
:106C2000B8420BDD002121610020A060E560AC606E
:106C300056480068C4634FF0FF3B22E053480068A9
:106C4000056C4FF0FF31216155B950480068476429
:106C50000020A0600021E1604C48006804640EE060
:106C60004A480068406CB84202DD48480068476402
:106C70000020A060E560AC604448006804644FF008
:106C8000000B01E0FFE7A76300203060C8F8006058
:106C9000B06BC8F80400F5680DB10020A860C8F812
:106CA0000C5000BF0020706138480068C56BB76B9E
:106CB000A86BB8420BDD002131610020B060F560A7
:106CC000AE6032480068C6634FF0FF3B22E02F48B9
:106CD0000068056C4FF0FF31316155B92B480068F1
:106CE00047640020B0600021F16028480068066415
:106CF0000EE026480068406CB84202DD2348006878
:106D000047640020B060F560AE602048006806640B
:106D10004FF0000B00BFBBF1000F1DD100BF00BF43
:106D200000BF002019490968486018480068C06819
:106D300078B1002015490968C86000BF00BF00BFD6
:106D40001348006840F080501149086000BF00BF40
:106D500000BF00BF00BF16E000BF00BF00BF0020A3
:106D60000A490968486009490968C86000BF00BF4E
:106D700000BF0748006840F080500549086000BF28
:106D800000BF00BF00BF00BFBEE60000140100202E
:106D900004ED00E010B5044600202060E069FEF735
:106DA0000BFC10BDF8B50646344600BF606820B93C
:106DB000A069FEF75BFA0020F8BD1021E068FEF73D
:106DC00019FD0028F2D100BF6946A068FCF7B4FDA8
:106DD0000546002DEAD00098002809DD4FF0FF336A
:106DE00029462046009A00F098FE08B100BFFEE751
:106DF000A068FCF79BFD2069FEF738FAE4E7000085
:106E00002DE9F0470446894692461E46606838B927
:106E1000334652464946204600F07FFEBDE8F087E3
:106E20002069FEF765FD52464946A068FCF78CFDD7
:106E30000546002D30D016B94FF0FF30EEE7002E9A
:106E40000CDA08E02069FEF72DFC52464946A0689E
:106E5000FCF77AFD0546002DF4D11DE011480768C6
:106E60004FF0FF350068A0EB07080EE0A6EB080125
:106E70002069FEF7BFFC0B480068A0EB07085246EC
:106E80004946A068FCF760FD05460DB1B045EDDB55
:106E900015B14FF0FF30C1E7E068FEF7E7F90020D9
:106EA000BCE70000CC00002000BFFEE710B5024A9E
:106EB00050681168884710BDB400002010B5024A20
:106EC00050681168884710BDAC00002010B5844898
:106ED000006840F0DA00824908604FF48020814960
:106EE0000860402008607F481838006820F03000B3
:106EF00040F010007B4918390860081D006820F038
:106F00000400091D0860081D006820F0300040F0F2
:106F10001000091D0860081D006820F03000091DE0
:106F2000086070481838006820F4405040F48050E1
:106F30006C4918390860081D006820F04000091DE0
:106F40000860081D006820F4405040F48050091D7E
:106F50000860081D006820F44050091D0860624860
:106F6000006820F4400060490860081D006820F4B3
:106F70000060091D0860081D006820F4400040F40E
:106F80008000091D0860081D006820F44000091DEC
:106F900008605548006820F0407053490860081D9B
:106FA000006820F48050091D0860081D006820F06A
:106FB000407040F08070091D0860081D006820F0D6
:106FC0004070091D08604948006820F030004749BA
:106FD00008600846406820F0040048600846806861
:106FE00020F0300040F0100088600846C06820F0B3
:106FF0003000C8603C48006820F040603A490860B2
:10700000081D006820F40050091D0860081D006874
:1070100020F0406040F08060091D0860081D006895
:1070200020F04060091D08603048006820F44040AE
:107030002E4908600846406820F0800048600846F5
:10704000806820F4404040F4804088600846C06872
:1070500020F44040C8600846006820F440300860D2
:107060000846406820F4807048600846806820F434
:10707000403040F4803088600846C06820F44030DA
:10708000C8600846006820F4402008600846406850
:1070900020F4007048600846806820F4402040F4E6
:1070A000802088600846C06820F44020C8600846F8
:1070B000006820F4401008600846406820F48060B2
:1070C00048600846806820F4401040F480108860D2
:1070D0000846C06820F44010C86001F0D3FF10BD1E
:1070E000E044025818040258000C025800100258DC
:1070F00001460868006820F01E000A6810600868F1
:10710000406920F080000A6850610020704770B527
:1071100004460D4625602068006800F0010060B15B
:107120002068006820F001002168086000BF206826
:10713000006800F001000028F9D1204600F006F8B0
:107140002046FFF7D5FF002070BD00000168EE4A21
:10715000914216D1202242621022C262082282622B
:1071600004220263012242634A034260E64A083A6B
:1071700082604FEAF142C2600122C263E34A0264C4
:10718000ADE1E14A1832914216D1CA1442620A15A1
:10719000C2624A1582628A15026340224263DA4A59
:1071A000103A4260D84A083A8260D94AC260022244
:1071B000C263D84A026492E1D34A3032914217D175
:1071C000CA0342625210C2625210826252100263BB
:1071D00092104263CC4A103A4260CB4A083A82602D
:1071E000CB4A121DC2600422C263CB4A026476E11C
:1071F000C54A4832914218D14FF0006242625210A3
:10720000C262521082625210026392104263BE4AFE
:10721000103A4260BC4A083A8260BD4A0832C260F5
:107220000822C263BD4A026459E1B74A6032914202
:1072300017D1202242621022C262082282620422F6
:10724000026301224263B04A0C3A4260AE4A121F06
:107250008260AF4A0C32C2601022C263B04A02643C
:107260003DE1A94A7832914217D1CA1442620A1507
:10727000C2624A1582628A15026340224263A24AB0
:107280000C3A4260A04A121F8260A14A1032C260CA
:107290002022C263A34A026421E19B4A90329142B8
:1072A00018D14FF4001242625210C2625210826230
:1072B0005210026392104263934A0C3A4260924A1F
:1072C000121F8260924A1432C2604022C263964A00
:1072D000026404E18C4AA832914218D14FF0006256
:1072E00042625210C26252108262521002639210C5
:1072F0004263854A0C3A4260834A121F8260844A84
:107300001832C2608022C263884A0264E7E0884A79
:10731000914217D1202242621022C2620822826268
:107320000422026301224263814A103A4260804A89
:10733000083A8260764A1C32C2608A15C2637D4A6E
:107340000264CCE07A4A1832914217D1CA144262E0
:107350000A15C2624A1582628A150263402242639C
:10736000734A103A4260724A083A8260684A203290
:10737000C2604A15C263704A0264B0E06C4A30329F
:10738000914218D14FF4001242625210C262521060
:1073900082625210026392104263654A103A426060
:1073A000634A083A82605A4A2432C2600A15C263AC
:1073B000624A026493E05E4A4832914218D14FF02B
:1073C000006242625210C262521082625210026324
:1073D00092104263564A103A4260554A083A826017
:1073E0004B4A2832C260CA14C263554A026476E02E
:1073F0004F4A6032914217D1202242621022C2626B
:10740000082282620422026301224263484A0C3A43
:107410004260474A121F82603D4A2C32C2608A1481
:10742000C263484A02645AE0414A7832914218D114
:10743000CA1442620A15C2624A1582628A15026340
:10744000402242633A4A0C3A4260394A121F826033
:107450002F4A3032C2604FF40052C2633A4A02648B
:107460003DE0334A9032914219D14FF4001242620A
:107470005210C26252108262521002639210426332
:10748000234A3432C2604FF48042C263284A0C3A25
:107490004260274A121F82602C4A02641FE0244A7D
:1074A000A832914219D14FF0006242625210C2627A
:1074B0005210826252100263921042631C4A0C3ACC
:1074C00042601B4A121F8260114A3832C2604FF478
:1074D0000042C2631E4A026401E000BFFEE70C4B9B
:1074E0007C3303611B1D4361002282610023C36161
:1074F0000362C36A426A1A43836A1A43036B1A43DC
:10750000436B1A438263704710000240650800080D
:1075100004080240810800089D080008B908000816
:10752000D5080008F10800080D090008290900081D
:107530001004024055090008710900088D0900086F
:10754000A9090008C5090008E1090008FD090008AB
:10755000190A000870B504462068C06900F01000E0
:1075600000283DD0102021680862A06800680068EB
:1075700020F00100A16809680860A068806BA1681C
:1075800089680860A168A06909684968461A206A84
:1075900050B96569D4E905010844A1680968C86063
:1075A0004FF0FF30206208E0D4E905014518A168DA
:1075B00060690968C86000202062A168A069096844
:1075C0004860A0680068006840F00100A168096890
:1075D000086000BF00BF606B236B324629469847A6
:1075E00070BD000030B50360046828340D68AC60DD
:1075F000046824341568AC600468246824F001042D
:1076000005682C60046824680A4D2C4005682C60CD
:107610000468646824F0600405686C600468A46809
:10762000054D2C400568AC60416082600024C46157
:1076300030BD00000FFEFFB3FEFFFFEE2DE9F05F4F
:1076400004460D4616461F46DDE90CABDDE90A8906
:10765000E06908B1BDE8F09F4FF0FF30E061002025
:107660002062C4F834B0C4F82C90C4F830A0E560AF
:1076700026616761404608EBD0714910A161A1689D
:1076800060690968C860A168A069096848606068A5
:107690002146026C1348904760680068006840F01B
:1076A0001000616809680860A0680068006840F020
:1076B0000100A168096808602068806840F0C00087
:1076C000216888602068006840F010002168086028
:1076D00000BF00BF2068006840F00100216808601A
:1076E00000BFB7E7937700082DE9F04704468946C5
:1076F000174627B9606BE16A8847BDE8F087A06844
:10770000406AA1688968086000BF60680068006816
:1077100000F001000028F8D1C8463D462669002D3A
:1077200035DD6168E0680968C860B54215DD6068EC
:107730000068466032464146E068FDF774F900BFD4
:1077400000BF00BFBFF35F8F00BF00BF00BF08EBEB
:1077500006006062AD1BA56211E0606800684560CC
:107760002A464146E068FDF75EF900BF00BF00BF52
:10777000BFF35F8F00BF00BF00BF0020A062606842
:107780000068006840F0010061680968086000BF97
:10779000B3E72DE9F041044660684068006861681D
:1077A000496A084000284AD06068406A6168896870
:1077B000086000BF60680068006800F001000028F1
:1077C000F8D1676AA56A2669002D35DD6168E06831
:1077D0000968C860B54214DD6068006846603246DA
:1077E0003946E068FDF71FF900BF00BF00BFBFF3D7
:1077F0005F8F00BF00BF00BFB8196062AD1BA562FC
:1078000011E06068006845602A463946E068FDF787
:107810000AF900BF00BF00BFBFF35F8F00BF00BF0A
:1078200000BF0020A06260680068006840F00100AE
:1078300061680968086002E0606BE16A8847BDE83A
:10784000F081000010B500200949086003F046FDF2
:107850000849086003F042FD0749086005480068D0
:1078600010B10846006808B900BFFEE710BD00006F
:10787000E4000020DC000020E00000202DE9F041C1
:1078800006460D461248006818B94FF0FF30BDE8B3
:10789000F08110480068FEF7DDFA00BF0E4800686E
:1078A0004FF01008876843462A4631463868FDF78E
:1078B00063FA044600BF002C03DA0548006800287C
:1078C000ECD104480068FFF713F92046DFE7000019
:1078D000E4000020E00000200001002010B5044674
:1078E0000948046009480068FEF7B4FA08480068CF
:1078F000FEF7B0FA06480068FFF7FAF80348006898
:10790000FFF7F6F810BD0000E4000020E0000020C2
:10791000DC0000202DE9F04106460D4610480068C5
:1079200008B9BDE8F0810F480068FEF793FA00BF80
:107930000D4800684FF01008876843462A463146D4
:107940007868FFF75DFA044600BF1CB10448006880
:107950000028EDD103480068FFF7CAF800BFE0E750
:10796000E4000020DC0000200001002010B5FFF73B
:10797000ADFA10BD7CB504460D4616466408200CD1
:107980008DF80000200A8DF80200E0B28DF80400A6
:10799000FF208DF806009DF800008DF801009DF88D
:1079A00002008DF803009DF804008DF80500FF200B
:1079B0008DF807004FF48000374908604EF6EB3031
:1079C00002F04AFC3548006840F480003349086002
:1079D0000846006840F0807008603148006840F058
:1079E00010002F4908602D48006840F080602B4946
:1079F00008602B48006840F4804029490860084628
:107A0000006840F4803008600846006840F4802038
:107A100008600846006840F4801008600821684645
:107A200002F066FC1D48006820F440001B49086015
:107A30000846006820F0407008601948006820F08F
:107A40003000174908601548006820F0406013496D
:107A500008601348006820F4404011490860084657
:107A6000006820F4403008600846006820F4402098
:107A700008600846006820F4401008600421684649
:107A800001F082F93146284601F07EF94020024992
:107A9000086001F0F7FA7CBD18040258000C025887
:107AA00000100258704700007CB504460D4616468B
:107AB000606A0190A06A8108019801F037FB0B48C9
:107AC000009033462A4601A8A16AFEF75DFF01989F
:107AD000216A0860A26A9108606A01F013FB04221F
:107AE000A16A02FB1010E0627CBD00004FA00008FC
:107AF00010B503460CE0491E107808B9002010BDEF
:107B000010781C78A04201D00020F8E7521C5B1CC2
:107B10000029F0DC4FF0FF30F1E72DE9F041044699
:107B20000E4617461D46E069FDF7E2FE206898B153
:107B30001DB94FF0FF30BDE8F081002D03DAE06998
:107B4000FDF7B0FD08E02946E069FDF753FE206827
:107B500010B14FF0FF30EEE74FF0FF3020603A46B3
:107B60003146D4E9080398470020E4E710B5024AFB
:107B700050681168884710BD9C00002010B5024A6B
:107B800050681168884710BD9400002070B5024607
:107B9000D06828B900258D600026CE60D16070BD08
:107BA000856B8E6BB54205DD00258D60C8608160F8
:107BB000D160F4E7C3680BE01846856B8E6BB54265
:107BC00005DD8468C8608C60E1608160E7E7C368B8
:107BD000002BF1D10026CE608860C16000BFDEE7D7
:107BE00010B5024A50681168884710BD8C0000200B
:107BF00000BF00BF00BFBFF34F8F00BF00BF00BF7B
:107C000000BF00BF00BFBFF36F8F00BF00BF00BF4A
:107C100000204549086000BF00BF00BFBFF34F8F81
:107C200000BF00BF00BF00BF00BF00BFBFF36F8F2A
:107C300000BF00BF00BF00BF091D08604FF000601B
:107C4000091D08603948091D086000BF00BF0120F8
:107C50003549091D08604FF01040091D0860334880
:107C60000E30091D086000BF00BF02202E49091D0B
:107C700008600007091D08602D48091D086000BF45
:107C800000BF03202849091D08604FF01050091D4E
:107C900008602748001D091D086000BF00BF0420C0
:107CA0002149091D08604806091D08602148091D71
:107CB000086000BF00BF05201B49091D08604FF088
:107CC0006050091D08601A48801E091D086000BF29
:107CD00000BF00BF00BFBFF34F8F00BF00BF00BF9A
:107CE00000BF00BF00BFBFF36F8F00BF00BF00BF6A
:107CF00005200D49086000BF00BF00BFBFF34F8FD4
:107D000000BF00BF00BF00BF00BF00BFBFF36F8F49
:107D100000BF00BF00BF04487038006840F4E02096
:107D2000014970390860704794ED00E029000203B2
:107D30002100080325E0080310B50B48006840F057
:107D4000010009490860002201210C20FAF7DEF841
:107D50000C20FAF7CBF8002201211020FAF7D6F810
:107D60001020FAF7C3F810BDD84402580348006841
:107D700040F080000149086070470000E04402586C
:107D800000B587B000200390049005900690009005
:107D900001900290144815490860EF2048600021C6
:107DA00012488160491EC16000210161802181610A
:107DB000FBF7B2FA08B1F9F725FA4FF480500390B7
:107DC00003A90A48FBF746FB08B1F9F71BFA0020A4
:107DD0000090029069460548FBF73EFA08B1F9F7B2
:107DE00011FA07B000BD0000000C004034810020F3
:107DF00010B53A483A4908604FF4E1304860002134
:107E000037488160C16001610C21416100218161BD
:107E1000C161016241620020314988620846FBF776
:107E20003BFC08B1F9F7EEF900212D48FBF705FC02
:107E300008B1F9F7E7F900212948FBF7CFFB08B1B2
:107E4000F9F7E0F92648FBF79DFB08B1F9F7DAF9F5
:107E50002448016838208847234908602148016880
:107E600044208847214908601E480168442088470B
:107E70001F4908601C48006828B11C48006810B100
:107E80000846006808B900BFFEE7174801681948AE
:107E900002F026FF1248806F016814480068FFF75F
:107EA00036F90F48C06F016811480068FFF72FF9D5
:107EB0000B4803680E4802680C4801680A480068CD
:107EC000FFF790FB074B4FF48052114606480068BD
:107ED00002F00CFF0849086010BD000000100140CE
:107EE00080810020F0B50008F4000020F800002098
:107EF000FC000020557500080001002070B5044604
:107F000007480068FDF7A6FF21460648FCF713FC6A
:107F1000054603480068FEF7EBFD284670BD0000EB
:107F2000040100200000002470B5044607480068E2
:107F3000FDF790FF21460648FCF7FDFB0546034888
:107F40000068FEF7D5FD284670BD0000080100203E
:107F50000000003070B5044607480068FDF77AFF5E
:107F600021460648FCF7E7FB054603480068FEF794
:107F7000BFFD284670BD00000C0100200000003845
:107F800070B5044607480068FDF764FF21460648BF
:107F9000FCF7D1FB054603480068FEF7A9FD28461B
:107FA00070BD0000100100202801002070B50546BA
:107FB0002846FEF751F804460CB9FEF759F820465A
:107FC00070BD00BFFEE7000010B503224FF4803102
:107FD0000348FCF7FFFC03F081F90249086010BD7B
:107FE000000000240401002010B503224FF480316A
:107FF0000348FCF7EFFC03F071F90249086010BD7B
:10800000000000300801002010B503224FF40041A9
:108010000348FCF7DFFC03F061F90249086010BD7A
:10802000000000380C01002010B503224FF400417D
:108030000348FCF7CFFC03F051F90249086010BD7A
:10804000280100201001002010B5FFF7EDFFFFF719
:10805000BBFFFFF7C9FFFFF7D7FF10BD7047000058
:108060002DE9DF4F82B083468A464548006800F01C
:10807000807010B106B0BDE8D08F4148283000684C
:108080006AF309103E49283108600498401EC0F385
:1080900008010598401E4FF47E4202EA4020084342
:1080A0000E99491ED20102EA014108430F99491E67
:1080B000120202EA01610843314930310860BBFB1A
:1080C000FAF600270498ABFB001052460023CDE9D6
:1080D000001008460199F8F7A9F989468046284812
:1080E0002C300468274A0021B2EB080071EB09012B
:1080F00002D2F91E0C4014E023490020B1EB080124
:1081000070EB09000BD221490020891BB84103D232
:108110006FF002010C4004E002210C4301E0022157
:108120000C431B490020891BB84107D26FF00C019A
:1081300004EA01000C2140EA01041CE0154900207A
:10814000891BB84107D26FF00C0104EA0100082135
:1081500040EA01040FE00D490020891BB84107D215
:108160006FF00C0104EA0100042140EA010402E07E
:108170006FF00C010C4002482C30046000BF79E71E
:108180000044025800B1081900B0710B80841E0031
:1081900000127A0000093D000C49096821F0010134
:1081A0000A4A11600949083109684FF6F87291438B
:1081B00002EAC0021143054A083211600349096806
:1081C00041F00101014A1160704700002C4402583F
:1081D00010B51F4B1B6803F0807303B110BD40B195
:1081E0001B4B2C331B6843F48033194C2C34236015
:1081F00007E0174B2C331B6823F48033144C2C34CA
:10820000236041B1124B2C331B6843F40033104CF4
:108210002C34236007E00E4B2C331B6823F400330F
:108220000B4C2C34236042B1094B2C331B6843F4B4
:108230008023074C2C34236007E0054B2C331B684C
:1082400023F48023024C2C34236000BFC6E70000D7
:108250000044025868B10E49096841F080710C4A27
:10826000116000BF0A49096801F000710029F9D0C6
:108270000CE00749096821F08071054A116000BFD0
:108280000349096801F000710029F9D17047000025
:10829000004402582DE9DF4F82B083468A464548A4
:1082A000006800F0806010B106B0BDE8D08F414892
:1082B000283000686AF311303E492831086004987C
:1082C000401EC0F308010598401E4FF47E4202EAAA
:1082D000402008430E99491ED20102EA0141084399
:1082E0000F99491E120202EA0161084331493831EF
:1082F0000860BBFBFAF600270498ABFB001052465F
:108300000023CDE9001008460199F8F78FF8894657
:10831000804628482C300468274A0021B2EB080028
:1083200071EB090102D2F91E0C4014E02349002030
:10833000B1EB080170EB09000BD221490020891B29
:10834000B84103D26FF002010C4004E002210C435B
:1083500001E002210C431B490020891BB84107D2D0
:108360006FF0C00104EA0100C02140EA01041CE0F2
:1083700015490020891BB84107D26FF0C00104EAFB
:108380000100802140EA01040FE00D490020891B13
:10839000B84107D26FF0C00104EA0100402140EA71
:1083A000010402E06FF0C0010C4002482C30046070
:1083B00000BF79E70044025800B1081900B0710B02
:1083C00080841E0000127A0000093D000C490968F3
:1083D00021F010010A4A11600949103109684FF66D
:1083E000F872914302EAC0021143054A103211604B
:1083F0000349096841F01001014A1160704700000B
:108400002C44025810B51F4B1B6803F0806303B166
:1084100010BD40B11B4B2C331B6843F40023194C97
:108420002C34236007E0174B2C331B6823F4002304
:10843000144C2C34236041B1124B2C331B6843F491
:108440008013104C2C34236007E00E4B2C331B6838
:1084500023F480130B4C2C34236042B1094B2C3392
:108460001B6843F40013074C2C34236007E0054BD2
:108470002C331B6823F40013024C2C34236000BF00
:10848000C6E700000044025868B10E49096841F08F
:1084900080610C4A116000BF0A49096801F000615F
:1084A0000029F9D00CE00749096821F08061054AEC
:1084B000116000BF0349096801F000610029F9D18A
:1084C00070470000004402582DE9DF4F82B0834618
:1084D0008A464648006800F0805010B106B0BDE8FA
:1084E000D08F4248283000686AF319503F4928313C
:1084F00008600498401EC0F308010598401E4FF420
:108500007E4202EA402008430E99491ED20102EA47
:10851000014108430F99491E120202EA0161084312
:10852000324940310860BBFBFAF600270498ABFBE8
:10853000001052460023CDE9001008460199F7F7D4
:1085400075FF8946804629482C300468284A002156
:10855000B2EB080071EB090102D2F91E0C4014E0E5
:1085600024490020B1EB080170EB09000BD222492D
:108570000020891BB84103D26FF002010C4004E0D7
:1085800002210C4301E002210C431C490020891BFD
:10859000B84107D26FF4406104EA0100C94340EAE0
:1085A00001041EE016490020891BB84108D26FF46F
:1085B000406104EA01004FF4006140EA010410E068
:1085C0000D490020891BB84108D26FF4406104EACC
:1085D00001004FF4806140EA010402E06FF4406161
:1085E0000C4002482C30046000BF77E7004402587A
:1085F00000B1081900B0710B80841E0000127A00CF
:1086000000093D000C49096821F480710A4A116093
:108610000949183109684FF6F872914302EAC0021D
:108620001143054A183211600349096841F4807109
:10863000014A1160704700002C44025810B51F4BCE
:108640001B6803F0805303B110BD40B11B4B2C33AA
:108650001B6843F48003194C2C34236007E0174B4C
:108660002C331B6823F48003144C2C34236041B159
:10867000124B2C331B6843F40003104C2C34236042
:1086800007E00E4B2C331B6823F400030B4C2C34F7
:10869000236042B1094B2C331B6843F08073074CB5
:1086A0002C34236007E0054B2C331B6823F08073C8
:1086B000024C2C34236000BFC6E70000004402587F
:1086C00068B10E49096841F080510C4A116000BF41
:1086D0000A49096801F000510029F9D00CE0074966
:1086E000096821F08051054A116000BF03490968FB
:1086F00001F000510029F9D17047000000440258F0
:108700000020064908600648091D08604FF4401023
:10871000091D08600020091D086070474C4402587C
:108720000110010010B500F01BF80C480068FDF7BF
:1087300091FBFFF71BFBFFF787FCFFF7FDFAFFF745
:1087400057FBFFF77FF84FF0FF30FFF7C7F8FCF754
:108750008FFA02480068FEF7CBF910BDEC0000204C
:1087600010B502F0BBFD0749086002F0B7FD0649ED
:10877000086002F0B3FD0549086000200449086064
:1087800010BD0000E8000020EC000020F0000020F8
:10879000F400002010B5FFF72BFA00F033FC00F0D6
:1087A000E3FBF9F743FB01F081F900220449054896
:1087B00001F00EFDFFF7E4FA0348FAF7FDFD10BDE6
:1087C00081B5000800389C1C34810020AF48006847
:1087D00040F48040AD490860AC480C30006840F07F
:1087E000DA00AA490C310860A948006820F030007E
:1087F00040F02000A6490860081D006820F0040031
:10880000091D0860081D006840F03000091D08605F
:10881000081D006820F03000091D08609C480068B1
:1088200020F4405040F4005099490860081D006849
:1088300020F04000091D0860081D006840F4405009
:10884000091D0860081D006820F44050091D0860DB
:108850009048006820F4400040F400008D49086012
:10886000081D006820F40060091D0860081D0068EC
:1088700040F44000091D0860081D006820F4400015
:10888000091D08608348006820F0407040F00070C7
:1088900080490860081D006820F48050091D0860A8
:1088A000081D006840F04070091D0860081D006840
:1088B00020F04070091D08607748006820F0300003
:1088C00040F02000744908600846406820F0040029
:1088D00048600846806840F0300088600846C068FC
:1088E00020F03000C8606B48006820F0406040F025
:1088F000006068490860081D006820F40050091DE8
:108900000860081D006840F04060091D0860081DEF
:10891000006820F04060091D08605F48006820F48E
:10892000404040F400405C4908600846406820F040
:10893000800048600846806840F4404088600846EF
:10894000C06820F44040C8600846006820F4403009
:1089500040F4003008600846406820F480704860A9
:108960000846806840F4403088600846C06820F4BB
:108970004030C8600846006820F4402040F40020E1
:1089800008600846406820F4007048600846806827
:1089900040F4402088600846C06820F44020C86049
:1089A0000846006820F4401040F4001008600846B3
:1089B000406820F4806048600846806840F44010B9
:1089C00088600846C06820F44010C86030482030F5
:1089D000006820F4706040F410602D492031086078
:1089E0000846006820F0706040F020600860294868
:1089F000406A20F4704040F4104126484162406AC9
:108A000020F4702040F41021224841622248006A7C
:108A100020F4706040F410601F4908621D48406AED
:108A200020F4700040F410011A4841621A48006AAC
:108A300020F0704040F02040174908620846406A24
:108A400020F00F0040F00A0113484162406A20F014
:108A5000F00040F0A00110484162406A20F47060CC
:108A600040F420610C48416200200C49086008462F
:108A700000680B490843094908600A4848600846ED
:108A8000006840F00100086070470000D4440258BC
:108A900000040258000C0258001002580050005206
:108AA00040030001000119004FF0FF300249C86186
:108AB000024848617047000000500052EBED100F73
:108AC0002DE9F04104460E4600275548006800F0A5
:108AD0000300032802D10120BDE8F0815048283866
:108AE000006820F080604E4928390860F9F798F94D
:108AF000054606E0F9F794F9401B022801D9032046
:108B0000EAE7474828380068C0F3C0600028F1D180
:108B100000BF4348006820F47C30216840EA0130FF
:108B20003F490860A088401EC0F30800A168491EA4
:108B30004FF47E4202EA41210843A189491ED20135
:108B400002EA01410843217C491E120202EA016146
:108B5000084333491031086000BF3148001D0068E8
:108B600020F0C000616908432D49091D08600846CE
:108B7000006820F02000A16908432949091D086008
:108B80000846006820F0100008602548143000688E
:108B90004FF6F8718843E16940EAC1002049143179
:108BA00008601F48001D006840F010001C49091DA6
:108BB00008602EB90846006840F40020086012E002
:108BC000012E08D11648001D006840F48010144999
:108BD000091D086007E01248001D006840F40010FD
:108BE0000F49091D08600E482838006840F0806071
:108BF0000B4928390860F9F713F9054606E0F9F73B
:108C00000FF9401B022801D9032065E704482838E2
:108C10000068C0F3C0600028F1D038465CE700006F
:108C2000284402582DE9F04104460E4600275548D5
:108C3000006800F00300032802D10120BDE8F081A4
:108C400050482838006820F080504E492839086084
:108C5000F9F7E6F8054606E0F9F7E2F8401B0228C6
:108C600001D90320EAE7474828380068C0F340707C
:108C70000028F1D100BF4348006820F07C702188B3
:108C800040EA01503F490860A088401EC0F3080038
:108C9000A168491E4FF47E4202EA41210843A1899E
:108CA000491ED20102EA01410843217C491E1202F9
:108CB00002EA0161084333491831086000BF3148B6
:108CC000001D006820F44060616908432D49091DBA
:108CD00008600846006820F40070A169084329492B
:108CE000091D08600846006820F480700860254867
:108CF0001C3000684FF6F8718843E16940EAC10012
:108D000020491C3108601F48001D006840F4807035
:108D10001C49091D08602EB90846006840F480000F
:108D2000086012E0012E08D11648001D006840F4CA
:108D300000001449091D086007E01248001D006882
:108D400040F080700F49091D08600E4828380068FF
:108D500040F080500B4928390860F9F761F8054662
:108D600006E0F9F75DF8401B022801D9032065E70A
:108D7000044828380068C0F340700028F1D0384615
:108D80005CE700002844025830B502460B4603F069
:108D9000010404B15B1CB7E09B1E002000210424E9
:108DA0005B4D2C605B4C246804F4005414B140F01B
:108DB000080001E000F0F700574C246904F00404B7
:108DC00014B140F0040001E000F0FB00514C2468B5
:108DD00004F4805414B140F0020001E000F0FD0002
:108DE0004C4C246804F4006414B140F0010001E02C
:108DF00000F0FE00484C246904F4806414B141F092
:108E0000080101E001F0F701434C246904F4007407
:108E100014B141F0040101E001F0FB013E4C246972
:108E200004F4807414B141F0020101E001F0FD018D
:108E3000394C246904F0800414B141F0010101E0CF
:108E400001F0FE014FF48024314D2C600407200E08
:108E50000C07210E04242C602E4C246804F40054CA
:108E600014B140F0080001E000F0F7002A4C24693A
:108E700004F0040414B140F0040001E000F0FB0031
:108E8000244C246804F4805414B140F0020001E042
:108E900000F0FD001F4C246804F4006414B140F09D
:108EA000010001E000F0FE001B4C246904F4806422
:108EB00014B141F0080101E001F0F701164C2469FA
:108EC00004F4007414B141F0040101E001F0FB016D
:108ED000114C246904F4807414B141F0020101E0E2
:108EE00001F0FD010C4C246904F0800414B141F040
:108EF000010101E001F0FE014FF48024044D2C60DB
:108F00001070521C1170521C002B7FF445AF30BD05
:108F100018040258100C02580010025830B50A46C6
:108F20000446202300BF00BF00BFBFF34F8F00BF28
:108F300000BF00BF03E00B4D2C601C44D21A002A76
:108F4000F9DC00BF00BF00BFBFF34F8F00BF00BF01
:108F500000BF00BF00BF00BFBFF36F8F00BF00BFE7
:108F600000BF30BD70EF00E010B50023234C23603C
:108F700000BF00BF00BFBFF34F8F00BF00BF00BFE7
:108F8000231F1868C0F34E3100BFC0F3C90200BFF1
:108F900043F6E07303EA41134FF0404404EA82745D
:108FA0002343174C236000BF00BF131EA2F1010230
:108FB000EED10B1EA1F10101E7D100BF00BF00BF40
:108FC000BFF34F8F00BF00BF00BF0C4B703B1B684F
:108FD00043F48033094C703C236000BF00BF00BFE6
:108FE000BFF34F8F00BF00BF00BF00BF00BF00BF77
:108FF000BFF36F8F00BF00BF00BF10BD84ED00E066
:1090000060EF00E000BF00BF00BFBFF34F8F00BFA5
:1090100000BF00BF00BF00BF00BFBFF36F8F00BF26
:1090200000BF00BF00201449086000BF00BF00BFA0
:10903000BFF34F8F00BF00BF00BF00BF00BF00BF26
:10904000BFF36F8F00BF00BF00BF0C48006840F443
:1090500000300A49086000BF00BF00BFBFF34F8F58
:1090600000BF00BF00BF00BF00BF00BFBFF36F8FD6
:1090700000BF00BF00BF704750EF00E014ED00E0FC
:109080007047000004201D498861C001886100010B
:109090001B490860C01019498861194818380068D0
:1090A00040F480001649183908600846006820F02E
:1090B000407008601148006840F010000F490860D7
:1090C0000F481838006840F080600D491839086072
:1090D0000A48006840F48040084908600846006873
:1090E00020F4403008600846006840F480200860A2
:1090F0000846006840F4801008607047001002586D
:10910000180C025810B50246002008E0491E064C13
:109110001368A34202D1121D401C00E010BD0029BB
:10912000F4D100BFFAE7000078A4EF9D0AE0083907
:10913000094A026042608260C260026142618261EB
:10914000C26120300729F2DC03E0491E024A0260B6
:10915000001D0029F9DC704778A4EF9D03467B20B1
:1091600018700120704703467D2018700120704759
:10917000034625201870012070472DE9F74FB4B041
:109180003598006809900998002806DA0998404245
:1091900009904FF0FF30089001E0002008903598CA
:1091A0004068079036980068C01D20F00701369887
:1091B00001603698026802F108003699086092ED65
:1091C000000B8DED0C0B02AA05A90CA8F7F77EFF8A
:1091D0000190349C0026B1460198001D07287ED2DC
:1091E000DFE800F0F2F1F0047D0AEF002D2020709E
:1091F000641C09F1010900BF27460023DDE90210C4
:1092000059405840014316D130202070641C761C10
:109210004FF0000A079800280CDD2E202070641CF7
:10922000761C079D04E06D1E30202070641C761CA7
:10923000002DF8DCB5E002AA05A90EA8F8F7ACF8F5
:1092400000BF0EA8F7F718FA0B904FF007080FE0D1
:10925000A8F101080A210B98B0FBF1F201FB120002
:1092600030302070641C761C0B98B0FBF1F00B9032
:10927000B8F1000FECDC0F980028E2DA00E0761E6F
:10928000012E03DD701E385C3028F8D0BC19002593
:10929000A6F101080AE0785D069017F808007855F5
:1092A000069807F80800A8F101086D1C4545F2DB97
:1092B00002AA05A90EA8F7F7FFFF3878302832D1A7
:1092C0004FF0000A002600BF0EA8F7F7FDF983460D
:1092D000AAF1070ABBF1000FF6D03C460CE0CBE048
:1092E000761C0A20BBFBF0F100FB11B0303020707F
:1092F000641C0A20BBFBF0FBBBF1000FF0D1002582
:10930000A6F101080AE0785D069017F80800785584
:10931000069807F80800A8F101086D1C4545F2DB26
:10932000701E824401E0A6F1010A0798002836DD8C
:109330000798801C864201DA304601E00798801CBD
:10934000054603E0681E385C78556D1E012DF9DC7A
:109350002E207870761CB01E07990D1A002D1CDD8A
:1093600019E0ED1F0EA8F7F7AFF983464FF0070895
:109370000DE0A8F101080A20BBFBF0F100FB11B0E1
:10938000303006EB080178540A20BBFBF0FBB8F143
:10939000000FEEDCF61D002DE3DC2E4400E001267C
:1093A000BC19B1443598007B2070641C09F1010997
:1093B000BAF1000F09D130202070641C09F10109B5
:1093C00031E037E030E03FE04AE0BAF1000F06DA82
:1093D000CAF1000A2D202070641C09F101092746FA
:1093E00000260BE0761C0A209AFBF0F100FB11A08E
:1093F00030302070641C0A209AFBF0FABAF1000F9A
:10940000F0DCB1440025A6F101080AE0785D069081
:1094100017F808007855069807F80800A8F1010821
:109420006D1C4545F2DB29E02D202070641C09F1FC
:10943000010900BF492020706E2060706620A07076
:10944000E41C09F1030919E0512020704E206070DE
:109450004120A0704E20E070241D09F104090DE0A8
:10946000532020704E2060704120A0704E20E0708C
:10947000241D09F1040901E000BFFEE700BFCDF89B
:1094800028900898D8B90998A0EB0905002D21DD8E
:10949000C84607E0A8F10108349810F8081008EB56
:1094A00005028154B8F1000FF4DC03E06D1E2021A9
:1094B00034984155002DF9DC09980A900AE005E03E
:1094C0000A98401C0A9020202070641CDDE90910D5
:1094D0008842F5DB0A9837B0BDE8F08F2DE9F74FE9
:1094E000B4B092463598006808900898002806DACB
:1094F0000898404208904FF0FF30079001E00020AC
:1095000007903598D0F804B0DAF80000C01D20F0BC
:10951000070001460830CAF8000091ED000B8DED00
:109520000C0B02AA05A90CA8F7F7D0FD0190349CFA
:109530000026B0460198001D072878D2DFE800F029
:10954000B3A79704BF0A9D002D202070641C08F16A
:10955000010800BFA1460023DDE90201584059403F
:10956000084304D130202070641C761C3BE002AA22
:1095700005A90EA8F7F710FF00BF0EA8F7F77CF8B3
:109580000B9007270EE07F1E0A210B98B0FBF1F22B
:1095900001FB120030302070641C761C0B98B0FB6D
:1095A000F1F00B90002FEEDC0F980028E5DA00E0D8
:1095B000761E012E04DD701E19F800003028F7D049
:1095C00009EB06040025771E0BE019F8050006904C
:1095D00019F8070009F80500069809F807007F1E2A
:1095E0006D1CBD42F1DBB044BBF1000F04DD2E2049
:1095F0002070641C08F101080022DDE902105140CE
:109600005040014308D15D4603E06D1E30202070BC
:10961000641C002DF9DC28E002AA05A90EA8F7F7C2
:109620004BFEBBF1000F20DD00265D4619E046E051
:10963000ED1F0EA8F7F748F80A9007270EE07F1EE7
:109640000A210A98B0FBF1F201FB12003030F11947
:1096500060540A210A98B0FBF1F00A90002FEEDC6A
:10966000F61D002DE4DC2E443444D84429E02D209E
:109670002070641C08F1010800BF492020706E2092
:1096800060706620A070E41C08F1030819E0512006
:1096900020704E2060704120A0704E20E070241D8C
:1096A00008F104080DE0532020704E206070412026
:1096B000A0704E20E070241D08F1040801E000BFF6
:1096C000FEE700BFCDF824800798B8B90898A0EB52
:1096D0000805002D1DDD474604E07F1E3498C15D5E
:1096E0007A198154002FF8DC03E06D1E2021349894
:1096F0004155002DF9DC089809900AE005E0099829
:10970000401C099020202070641CDDE9081088426C
:10971000F5DB099837B0BDE8F08F2DE9F74F86B03B
:10972000814692460798806850B1DAF80000C01D63
:1097300020F0070001460830CAF8000060C908E0C0
:10974000DAF80010081DCAF800000D680495049DA1
:10975000EE170798006803900398002806DA03982C
:10976000404203904FF0FF30029001E00020029051
:109770004C46002185EA01007140084304D13020A5
:109780002070641C01277AE04FF0004286EA020153
:1097900055EA010028D12D20207039206070322038
:1097A000A070E07033202071607160713720A0716B
:1097B0003220E07130202072332060723620A07297
:1097C0003820E07235202073342060733720A07376
:1097D000E07335202074382060743020A074382065
:1097E000E074143414274AE000210846691A76EB25
:1097F000000026DA00226D4262EB0606002715E023
:109800007F1C0A22002328463146F6F7ACFE3020A2
:109810001018207004F101044FF00A024FF0000309
:1098200028463146F6F79FFE05460E46002185EA9A
:10983000010071400843E3D17F1C2D202070641C7F
:109840001DE0002715E07F1C0A2200232846314630
:10985000F6F789FE30201018207004F101044FF053
:109860000A024FF0000328463146F6F77CFE054613
:109870000E46002185EA010071400843E3D14FF014
:109880000008A7F1010B0DE019F80800019019F884
:109890000B0009F80800019809F80B00ABF1010B67
:1098A00008F10108D845EFDB05970298F0B9039855
:1098B000A0EB0708B8F1000F23DDBB4607E0ABF1D2
:1098C000010B19F80B000BEB080109F80100BBF1C3
:1098D000000FF4DC04E0A8F10108202009F80800DA
:1098E000B8F1000FF7DC039805900AE005E0059851
:1098F000401C059020202070641C03990598884224
:10990000F5DB059809B0BDE8F08F70B503460C464D
:1099100000201668351D1560316804E00D781D7053
:10992000491C5B1C401C0D78002DF7D170BD2DE942
:10993000FE4F81468B461446DBF800A0BAF1000FBB
:1099400001DACAF1000ADBF8080028B3564620689D
:10995000C01D20F00700014608302060D1E90078E2
:1099600017E0761EB20038464146CDE90187F6F78A
:10997000E7FD0F2100EA01050A2D04D205F13000B0
:1099800089F8000003E005F1370089F8000009F1CB
:109990000109002EE5DC1BE056462168081D206009
:1099A0000868009012E0761EB1000098C84000F0F0
:1099B0000F050A2D04D205F1300089F8000003E0FC
:1099C00005F1370089F8000009F10109002EEADCF1
:1099D0005046BDE8FE8F2DE9FE4F81468B4614466A
:1099E000DBF800A0BAF1000F01DACAF1000ADBF8D7
:1099F000080028B356462068C01D20F00700014625
:109A000008302060D1E9007817E0761EB2003846B1
:109A10004146CDE90187F6F793FD0F2100EA0105E4
:109A20000A2D04D205F1300089F8000003E005F1A9
:109A3000570089F8000009F10109002EE5DC1BE060
:109A400056462168081D20600868009012E0761EC6
:109A5000B1000098C84000F00F050A2D04D205F1AE
:109A6000300089F8000003E005F1570089F8000094
:109A700009F10109002EEADC5046BDE8FE8F000026
:109A800010B505480068401C03490860034A506847
:109A90001168884710BD0000CC00002004000020A1
:109AA000014A516010607047040000201CB500F0AE
:109AB00097F84648006840F002004449086043486F
:109AC0000C30006840F4404040490C31086000BF51
:109AD0003E480C30006800F40050B0F5005FF7D14C
:109AE0003B48006840F001003949086000BF374832
:109AF0000C30006800F40050B0F5005FF7D1022090
:109B000034490860002211460120FEF761FB022063
:109B100000900346C022052101902F48FEF7A0FACD
:109B20000020FEF739FB002211460120FEF76AFCF7
:109B300002200090052340F28D1216210190264844
:109B4000FEF7A8FB40F69B40FEF740FC01220021F7
:109B50000846FEF773FD102002210B46C022CDE916
:109B6000001005211C48FEF7AFFC0020FEF74AFD5F
:109B70000120FEF76FFB48201649103908604FF4AA
:109B80008860091D08604020091D086013480068AE
:109B900020F03F00001D40F02000104908600D48F3
:109BA0001838006820F00700C01C0A4918390860FE
:109BB00000BF08481838006800F038001828F8D1AD
:109BC00000F06EF8FEF79CFD1CBD00000C4802582A
:109BD0002C0400582844025840787D01002000528F
:109BE00010B52E48006800F03800B8B32B48103884
:109BF000006800F0010038B128481038006820F0F3
:109C0000010026491039086000BF24481038006858
:109C100000F004000028F8D120481038006820F037
:109C200018001E49103908600846006840F001001D
:109C3000086000BF19481038006800F004000028D0
:109C4000F8D01648006820F007001449086000BFEB
:109C50001248006800F038000028F9D10F48103889
:109C6000006800F4803038B90C481038006840F4BF
:109C700080300A491039086000BF08481038006871
:109C800000F400300028F8D00020FEF7E3FA0020AE
:109C9000FEF7FAFB0020FEF713FD10BD104402583A
:109CA000F0B5824F3F6807F0380737B1082F0DD065
:109CB000102F0DD0182F75D10CE07C4F103F3F684E
:109CC000C7F3C10C7A4F27FA0CF1D1E07949CFE004
:109CD0007949CDE0754F18373F6807F00304734F9B
:109CE00018373F68C7F30510704F1C373F6807F0FF
:109CF00001056E4F24373F68C7F3CC0717FB05F704
:109D000001EE107AB8EE410A00287DD024B1012C72
:109D10002AD0022C65D146E0644F103F3F68C7F35C
:109D2000C10C634F27FA0CF201EE102AB8EE412A5B
:109D300001EE100AB8EE411AC2EE011A9FED5F1A49
:109D400080EE012A594F20373F68C7F3080701EE1C
:109D5000107AB8EE411A32EE011AB7EE002A31EE4F
:109D6000021A61EE810A66E001EE100AB8EE411AAD
:109D70009FED532AC2EE011A9FED501A80EE012A80
:109D80004A4F20373F68C7F3080701EE107AB8EE54
:109D9000411A32EE011AB7EE002A31EE021A61EED4
:109DA000810A48E05BE001EE100AB8EE411A9FED2F
:109DB000452AC2EE011A9FED411A80EE012A3B4F5F
:109DC00020373F68C7F3080701EE107AB8EE411A52
:109DD00032EE011AB7EE002A31EE021A61EE810A64
:109DE00029E0324F103F3F68C7F3C10C304F27FACC
:109DF0000CF201EE102AB8EE412A01EE100AB8EE7C
:109E0000411AC2EE011A00E027E09FED2C1A80EE05
:109E1000012A264F20373F68C7F3080701EE107A62
:109E2000B8EE411A32EE011AB7EE002A31EE021AEC
:109E300061EE810A00BF00BF1C4F20373F68C7F3A7
:109E400046277B1C01EE103AB8EE411AC0EE811A8B
:109E5000BCEEE11A11EE101A00E0002108E0134FE9
:109E6000103F3F68C7F3C10C114F27FA0CF100BF38
:109E700000BF0E4F08373F68C7F30327DFF848C01D
:109E80001CF80760F140094F08373F6807F00F07DB
:109E90001CF8077007F01F0721FA07F7DFF82CC03E
:109EA000CCF800700A4F3960F0BD00001044025831
:109EB0000090D00300093D0040787D01000000467D
:109EC0000024744A20BCBE4B8CB50008D80000208A
:109ED000D400002008B5F6F763FC0848006840F499
:109EE0007000064908600648006840F06040044978
:109EF000086008460068009000BF08BD88ED00E0DB
:109F0000DC44025810B50268294B98420ED0B0F1DB
:109F1000804F0BD0274B984208D0274B984205D052
:109F2000264B984202D0264B984203D122F0700271
:109F30004B681A431E4B984217D0B0F1804F14D093
:109F40001C4B984211D01C4B98420ED01B4B984290
:109F50000BD01B4B984208D01A4B984205D01A4B95
:109F6000984202D0194B984203D122F44072CB6838
:109F70001A4322F080034C6943EA040202608B68B2
:109F8000C3620B6883620A4B98420BD00C4B984219
:109F900008D00C4B984205D00B4B984202D00B4B8B
:109FA000984201D10B6903630123436110BD000096
:109FB000000001400004004000080040000C004088
:109FC00000040140004001400044014000480140BD
:109FD00030B50C46816821F47F4142EA03252543D0
:109FE0002943816030BD00000A468168034B194057
:109FF00042F0070319438160704700008FFFCFFFD5
:10A0000030B50B461446026A056A25F00105056263
:10A01000816921F0F00141EA041122F00A021A4399
:10A020008161026230BD30B50B461446056A25F0E9
:10A03000100505628169026A21F4704141EA043128
:10A0400022F0A00242EA03128161026230BD10B523
:10A0500004462046FCF76EFB10BD00002DE9F047DA
:10A0600004460E4617464F480068006810B94FF086
:10A0700000080BE04FF0FF3800BF00BF00BF4046B4
:10A0800048490968486000BF00BF00BF0020206049
:10A090002FB139463046F7F70BFBA06300E0A6630B
:10A0A00040480068456B0020A061E561AC613D4817
:10A0B0000068446300BF002060613A480068C56BD7
:10A0C000A66BA86BB0420BDD002121610020A060CF
:10A0D000E560AC6033480068C4634FF0FF3922E0AC
:10A0E00030480068056C4FF0FF31216155B92D48AB
:10A0F000006846640020A0600021E16029480068F3
:10A1000004640EE027480068406CB04202DD254838
:10A11000006846640020A060E560AC6021480068EB
:10A1200004644FF0000900BFB8F1000F37D0B9F157
:10A13000000F1DD100BF00BF00BF002019490968F2
:10A14000486018480068C06878B10020154909685F
:10A15000C86000BF00BF00BF1348006840F08050D7
:10A160001149086000BF00BF00BF00BF00BF16E07C
:10A1700000BF00BF00BF00200A49096848600949C4
:10A180000968C86000BF00BF00BF0748006840F012
:10A1900080500549086000BF00BF00BF00BFBDE898
:10A1A000F08700001401002004ED00E038B50446FB
:10A1B000FEF7B8FA002003464FF480620146009093
:10A1C0000248FCF72FFA002038BD0000F5AD00086A
:10A1D00070B504460D461646124804604FF0E02064
:10A1E000006920F001004FF0E02108613146284667
:10A1F000FFF756FC00220E21501EF7F787FE4FF4A2
:10A200007A7094FBF0F0401E4FF0E021486100208E
:10A210008861062008610846006940F00100086175
:10A2200070BD0000D000002070B504460D464FF010
:10A23000E020006920F001004FF0E021086129468C
:10A240002046FFF72DFC4FF0E020006940F00100B0
:10A250004FF0E021086170BDF0B50446E5B2C4F3EB
:10A26000072680230021002235E003EA050020B103
:10A270004FF400601B4F386003E04FF00060194F4F
:10A28000386003EA060018B18020174FB86103E078
:10A290004FF40000144FB8610420144F3860490097
:10A2A000520010480838006800F4805010B141F0A6
:10A2B000010101E001F0FE010B48006900F480702B
:10A2C00010B142F0010201E002F0FE025B084FF41F
:10A2D0008020064F3860002BC7D141EA022080B2AF
:10A2E000F0BD0000180C0258001002581804025863
:10A2F00030B502460B4603F0010404B15B1C107834
:10A30000521C1178521CCFE09B1E00F0800424B137
:10A310004FF40054664D2C6003E04FF00054644D40
:10A320002C6000F040041CB10424624DAC6103E0D9
:10A330004FF480245F4DAC6100F0200424B14FF451
:10A3400080545B4D2C6003E04FF08054584D2C60DE
:10A3500000F0100424B14FF40064554D2C6003E06C
:10A360004FF00064524D2C6001F0800424B14FF492
:10A370008064504DAC6103E04FF080644D4DAC61A2
:10A3800001F0400424B14FF400744A4DAC6103E085
:10A390004FF00074474DAC6101F0200424B14FF43C
:10A3A0008074444DAC6103E04FF08074414DAC616A
:10A3B00001F010041CB180243E4DAC6103E04FF469
:10A3C00000043C4DAC6104243B4D2C600407200E7E
:10A3D0000C07210E4FF480242C6000F0800424B17F
:10A3E0004FF40054324D2C6003E04FF00054304DD8
:10A3F0002C6000F040041CB104242E4DAC6103E03D
:10A400004FF480242B4DAC6100F0200424B14FF4B4
:10A410008054274D2C6003E04FF08054244D2C6075
:10A4200000F0100424B14FF40064214D2C6003E0CF
:10A430004FF000641E4D2C6001F0800424B14FF4F5
:10A4400080641C4DAC6103E04FF08064194DAC6139
:10A4500001F0400424B14FF40074164DAC6103E0E8
:10A460004FF00074134DAC6101F0200424B14FF49F
:10A470008074104DAC6103E04FF080740D4DAC6101
:10A4800001F010041CB180240A4DAC6103E04FF4CC
:10A490000004084DAC610424074D2C601078521C58
:10A4A0001178521C24042C60002B7FF42DAF30BD9A
:10A4B000180C0258001002581804025870B5456E66
:10A4C0002DB90125A0F86A50A0F868501CE01023AF
:10A4D00010240568AD68C5F342610568AD686A0F70
:10A4E0000A4DAD5C15FB04F5094EB65C95FBF6F51F
:10A4F000A0F86A50054D6D5C15FB03F5044E765CC3
:10A5000095FBF6F5A0F8685070BD0000BCB50008DA
:10A51000C4B5000890F8281001F0010139B10168B4
:10A52000496821F40031C26A11430268516090F811
:10A53000281001F00201022907D10168496821F4BD
:10A540008031026B11430268516090F8281001F0CD
:10A550000401042907D10168496821F48021426B74
:10A5600011430268516090F8281001F00801082991
:10A5700007D10168496821F40041826B11430268E8
:10A58000516090F8281001F01001102907D10168DE
:10A59000896821F48051C26B11430268916090F880
:10A5A000281001F02001202907D10168896821F4D1
:10A5B0000051026C11430268916090F8281001F07C
:10A5C0004001402913D10168496821F48011426C8F
:10A5D000114302685160416CB1F5801F07D10168D9
:10A5E000496821F4C001826C11430268516090F8FF
:10A5F000281001F08001802907D10168496821F401
:10A600000021C26C114302685160704738B504469E
:10A610000020C4F88C00F7F703FC054620680068AA
:10A6200000F0080008280CD16FF07E402B46002275
:10A630004FF400110090204600F0EAFA08B1032020
:10A6400038BD2068006800F0040004280CD16FF0C9
:10A650007E402B4600224FF480010090204600F0FF
:10A66000D7FA08B10320EBE72020C4F88400C4F82F
:10A6700088000020E06600BF84F8800000BF00BFB3
:10A68000DEE700002DE9F04F89B005460020089074
:10A69000F8492868884200D100E000BF2969A8680D
:10A6A000084369690843E96940EA010828680068C5
:10A6B000F149084040EA08002968086028684068B5
:10A6C00020F44050E968084329684860D5F81880AC
:10A6D000E8492868884202D0286A40EA08082868C1
:10A6E0008068E649084040EA0800296888602868D0
:10A6F000C06A20F00F00696A08432968C86200BF79
:10A70000DF492868884220D1DE48006800F0380020
:10A71000182811D005DC48B1082809D0102811D11B
:10A7200008E020280AD028280CD109E001240BE0F9
:10A73000042409E0082407E0102405E0202403E0B5
:10A74000402401E0802400BFF8E0CF492868884217
:10A7500019D1CC48006800F00700062810D2DFE8C5
:10A7600000F0030507090B0D00240BE0042409E0A9
:10A77000082407E0102405E0202403E0402401E041
:10A78000802400BFDAE0C1492868884219D1BD4859
:10A79000006800F00700062810D2DFE800F003058B
:10A7A00007090B0D00240BE0042409E0082407E04E
:10A7B000102405E0202403E0402401E0802400BFB1
:10A7C000BCE0B3492868884219D1AE48006800F05F
:10A7D0000700062810D2DFE800F0030507090B0D7B
:10A7E00000240BE0042409E0082407E0102405E01D
:10A7F000202403E0402401E0802400BF9EE0A5491E
:10A800002868884219D19F48006800F00700062890
:10A8100010D2DFE800F0030507090B0D00240BE060
:10A82000042409E0082407E0102405E0202403E0C4
:10A83000402401E0802400BF80E0974928688842D6
:10A8400020D19048006800F03800182811D005DCAD
:10A8500048B1082809D0102811D108E020280AD0D2
:10A8600028280CD109E001240BE0042409E0082485
:10A8700007E0102405E0202403E0402401E08024C8
:10A8800000BF5BE085492868884219D17D4800688F
:10A8900000F00700062810D2DFE800F003050709E2
:10A8A0000B0D00240BE0042409E0082407E0102429
:10A8B00005E0202403E0402401E0802400BF3DE0C7
:10A8C00077492868884219D16E48006800F007006F
:10A8D000062810D2DFE800F0030507090B0D00245D
:10A8E0000BE0042409E0082407E0102405E02024FC
:10A8F00003E0402401E0802400BF1FE05D49286898
:10A9000088421AD15F48001D006800F00700062841
:10A9100010D2DFE800F0030507090B0D02240BE05D
:10A92000042409E0082407E0102405E0202403E0C3
:10A93000402401E0802400BF00E0802400BF4D4996
:10A94000286888427DD1102C1AD006DC022C09D050
:10A95000042C0BD0082C29D10DE0202C21D0402C28
:10A9600024D120E0F7F724FB064623E005A8F7F7FB
:10A9700031FB069E1EE002A8F7F744FC039E19E097
:10A98000404854380068C0F3401040B13D48543846
:10A990000068C0F3C101434820FA01F600E0414ECF
:10A9A00008E0414E06E04FF4004603E00026012097
:10A9B000089000BF00BF002E10D03C49686A31F8F3
:10A9C0001000B6FBF0F9686800EB4000484503D87A
:10A9D00068680003484502D20120089004E1334929
:10A9E000686A31F810C06246002330461946F5F710
:10A9F0001DFD4FF4807C00220346A3FB0C0B01FBE2
:10AA00000CB103FB021C69684908034659184CEB5A
:10AA10000200CDE90010D5F804C0624600230846C4
:10AA20000199F5F703FD0746B7F5407F06D3B7F563
:10AA3000801F03D22868C760D6E002E0012008909A
:10AA4000D2E0E869B0F5004F7CD1082C39D005DCA4
:10AA50005CB1012C2CD0042C4CD12DE0102C35D025
:10AA6000202C42D0402C45D141E0F8F7BBFA0646F5
:10AA700044E00000000C0058F369FFCFFFF4FF1121
:10AA80000010014054440258004400400048004077
:10AA9000004C00400050004000140140007800408D
:10AAA000007C00400090D00300093D00A4B50008E0
:10AAB000F8F7AAFA064621E005A8F7F78BFA069EF2
:10AAC0001CE002A8F7F79EFB039E17E04C480068C5
:10AAD000C0F3401038B14A480068C0F3C10149488A
:10AAE00020FA01F600E0474E08E0474E06E04FF43A
:10AAF000004603E000260120089000BF00BF06B317
:10AB00004249686A31F81000B6FBF0F0400069680D
:10AB100000EB5100B0FBF1F087B2102F0FD3B7F567
:10AB2000803F0CD24FF6F07007EA000AC7F34200EC
:10AB30004AEA000A2868C0F80CA055E002E00120AB
:10AB4000089051E0082C1AD005DC5CB1012C0DD026
:10AB5000042C2DD10EE0102C16D0202C23D0402C0C
:10AB600026D122E0F8F73EFA064625E0F8F74CFA3F
:10AB7000064621E005A8F7F72DFA069E1CE002A87C
:10AB8000F7F740FB039E17E01D480068C0F3401034
:10AB900038B11B480068C0F3C1011A4820FA01F619
:10ABA00000E0184E08E0184E06E04FF4004603E0BF
:10ABB00000260120089000BF00BFAEB11349686AAB
:10ABC00031F81000B6FBF0F0696800EB5100B0FB03
:10ABD000F1F087B2102F05D3B7F5803F02D2286875
:10ABE000C76001E0012008900120A5F86A00A5F8DF
:10ABF0006800002028676867089809B0BDE8F08FF2
:10AC0000004402580090D00300093D00A4B500089C
:10AC10002DE9F04104460D4617469846069E4AE047
:10AC2000701C002847D0F7F7FBF8A0EB0800B042F3
:10AC300000D8C6B92068006820F4D0702168086088
:10AC40002068806820F00100216888602020C4F816
:10AC50008400C4F8880000BF002084F8800000BF92
:10AC60000320BDE8F0812068006800F0040010B304
:10AC70002068C069C0F3C020E8B14FF400602168CB
:10AC800008622068006820F4D0702168086020689D
:10AC9000806820F00100216888602020C4F88400CA
:10ACA000C4F88800C4F88C0000BF002084F880003D
:10ACB00000BF0320D5E72068C0692840A84201D121
:10ACC000012000E00020B842AAD00020C9E700001F
:10ACD00010B5024A50681168884710BDC4000020B2
:10ACE000014A516010607047C40000202DE9F04116
:10ACF0008EB00646884617461D46102029688847AC
:10AD0000044604B946E0244801684FF4C06088470F
:10AD10006060606800B939E001200590CDF81880C6
:10AD2000002F0ADD801E079008974FF4807109916B
:10AD3000410C0A9119A10B9101E0002007901B49D9
:10AD40000D910C96294605A800F036FAA060A0687F
:10AD500000B916E02660E5601549164A4FF4806395
:10AD6000A068CDE90032CDE90210636803F5806187
:10AD70004FF400723046FCF761FC20460EB0BDE88F
:10AD8000F081054A60685168884700BF20466968BD
:10AD9000884700BF0020F1E7D8B50008555341525D
:10ADA000545F53747265616D00000000E97600081D
:10ADB000AB500008BF50000800BFFEE70248006823
:10ADC000C0F30220704700000CED00E010B5002831
:10ADD00004DB0A07130E054A135406E00A07140E93
:10ADE000034A00F00F031B1FD45410BD00E400E021
:10ADF00018ED00E0FAF7E6FD3949086008460068FA
:10AE000008B900BFFEE737A03549096848603848EF
:10AE1000006840F08050364908603648006840F4C9
:10AE200080703449086033480830006800F480308E
:10AE300038B930480830006840F001002D49083129
:10AE4000086000BF2B480830006800F480300028FC
:10AE5000F8D000BF00BF00BFBFF35F8F00BF00BFCF
:10AE600000BFF9F735FF06464FF0625022A1026895
:10AE70003046FAF72BF90446F9F716FF4FF0625007
:10AE80000068401C4FF06251086000BF00BF00BF67
:10AE9000BFF35F8F00BF00BF00BF04214FF06250BF
:10AEA000FEF73CF8F9F714FF0646194819A10268A5
:10AEB0003046FAF70BF90446F9F7F6FE1448006835
:10AEC000401C134908601B4801684FF40060884724
:10AED000054600BF4FF400612846F5F71FFFF9E76C
:10AEE000000000206170705F6D61696E00000000FD
:10AEF000E0440258004802580D0AE590AFE58AA8E0
:10AF0000E6A087E8AEB03A30787B58387D0D0A006D
:10AF100000F000380D0AE590AFE58AA8E6A087E8C2
:10AF2000AEB02852414D293A30787B58387D0D0A11
:10AF300000000000CCB5000810B5044624212046CE
:10AF4000F9F72BFE10BD10B50446E06800F008F8D4
:10AF50002068FFF7F1FF606941682046884710BD0F
:10AF600010B5044600BF00BF00BF4FF0FF302749B7
:10AF70000968486000BF00BF00BF206800B300BF81
:10AF800000BF00BF00202149096848601F480068D1
:10AF9000C06878B100201D490968C86000BF00BFC3
:10AFA00000BF1B48006840F080501949086000BF8E
:10AFB00000BF00BF00BF00BF00BF4FF0FF3010BD9B
:10AFC00012480068016B2046884700BF00BF00BFE1
:10AFD00000200E49096848600C480068C06878B1D4
:10AFE00000200A490968C86000BF00BF00BF0848C8
:10AFF000006840F080500649086000BF00BF00BFF5
:10B0000000BF00BF00BF0020D9E7000014010020EE
:10B0100004ED00E070B504462668B01C10B14FF096
:10B02000FF3070BD20480068006808B900250BE0BB
:10B030004FF0FF3500BF00BF00BF28461A4909681E
:10B04000486000BF00BF00BF174A206A1268116B3A
:10B050008847154A606A1268116B88471248006871
:10B06000016B20468847EDB100BF00BF00BF002044
:10B070000D49096848600C480068C06878B1002034
:10B0800009490968C86000BF00BF00BF07480068E1
:10B0900040F080500549086000BF00BF00BF00BFFE
:10B0A00000BF00BF0020BCE71401002004ED00E059
:10B0B0004FF400710020FAF70FFDF6F78DF8FBF75B
:10B0C000EFFA00BFFEE7FEB505460C461746012D18
:10B0D00006D0022D06D0042D07D0082D0BD107E095
:10B0E00001940AE06000019007E0A000019004E0F4
:10B0F000E000019001E0002600BF00BF012001AB8D
:10B1000002AA242100903846F9F768FD06460EB9D8
:10B110000020FEBD234629463046029AF8F7A6FBDA
:10B120003046F6E72DE9F04106460F461546182051
:10B1300029688847044604B933E02A463946304630
:10B14000FFF7C1FF2060206800B926E000F06EF82C
:10B15000E060E06800B91CE0012E06D0022E07D0A6
:10B16000042E08D0082E0CD108E00F48206109E019
:10B170000E48206106E00E48206103E00D48206182
:10B1800000E000BF00BF65610020A0602046BDE870
:10B19000F0812068FFF7D0FE00BF2046696888472D
:10B1A00000BF0020F3E70000974D0008594E00084B
:10B1B0001F4F0008E54F000870B588B004460E46E2
:10B1C0000C2031688847054605B92CE03246D4E9A1
:10B1D0000001FFF7A7FF2860286800B91FE020687A
:10B1E0000090A0680190E068029021690391616974
:10B1F0000491A1690591D4E90701CDE90601314621
:10B20000684600F055F96860686800B903E0AE6010
:10B21000284608B070BD2868FFF795FE00BF284695
:10B220007168884700BF0020F3E7000010B500BF39
:10B2300000BF00BF4FF0FF3026490968486000BFDB
:10B2400000BF00BF23480068C16A08208847044641
:10B25000FCB900BF00BF00BF00201E49096848605C
:10B260001C480068C06878B100201A490968C860A5
:10B2700000BF00BF00BF1848006840F0805016496A
:10B28000086000BF00BF00BF00BF00BF00BF0020BC
:10B2900010BD0020206000BF00BF00BF0D4909683D
:10B2A00048600C480068C06878B100200949096806
:10B2B000C86000BF00BF00BF0748006840F0805072
:10B2C0000549086000BF00BF00BF00BF00BF00BF4E
:10B2D0002046DDE71401002004ED00E010B500BFBA
:10B2E00000BF00BF4FF0FF3027490968486000BF2A
:10B2F00000BF00BF24480068C16A10208847044688
:10B30000FCB900BF00BF00BF00201F4909684860AA
:10B310001D480068C06878B100201B490968C860F2
:10B3200000BF00BF00BF1948006840F080501749B7
:10B33000086000BF00BF00BF00BF00BF00BF00200B
:10B3400010BD00202060A060E06000BF00BF00BF13
:10B350000D49096848600C480068C06878B1002051
:10B3600009490968C86000BF00BF00BF07480068FE
:10B3700040F080500549086000BF00BF00BF00BF1B
:10B3800000BF00BF2046DBE71401002004ED00E011
:10B390002DE9F04105460F46ED1C05F003002D1A7E
:10B3A00041480068006808B900260BE04FF0FF36FE
:10B3B00000BF00BF00BF30463B490968486000BF7E
:10B3C00000BF00BF38480068C16A4420884704466F
:10B3D00004B948E034480068C16A2846884760627A
:10B3E000606A00B939E030480068C16A08208847BF
:10B3F0002062206A00B92AE0EEB100BF00BF00BFA2
:10B40000002029490968486027480068C06878B169
:10B41000002025490968C86000BF00BF00BF23485D
:10B42000006840F080502149086000BF00BF00BFA5
:10B4300000BF00BF00BF206A44606FF001002060C1
:10B44000A5626763002060602046BDE8F081164A6F
:10B45000606A1268116B884700BF13480068016B6F
:10B460002046884700BFEEB100BF00BF00BF0020EC
:10B470000D49096848600C480068C06878B1002030
:10B4800009490968C86000BF00BF00BF07480068DD
:10B4900040F080500549086000BF00BF00BF00BFFA
:10B4A00000BF00BF0020D0E71401002004ED00E041
:10B4B000F8B505460E462C2031688847044604B985
:10B4C00059E0FFF7B3FEE061E06900B94FE0D5E96C
:10B4D0000601C4E90801A66200202060686800280F
:10B4E0002DD04FF0FF3060603246A9682868FFF722
:10B4F000EAFDA060A06800B935E0FFF797FEE060C4
:10B50000E06800B92BE0FFF791FE2061206900B9E7
:10B5100021E0FFF78BFEA061A06900B917E00020D1
:10B52000009021461548D5E90323FBF79AF860619E
:10B53000606900B907E069696069416001E0002065
:10B5400060602046F8BDA069FFF70AFD00BF2069D2
:10B55000FFF706FD00BFE068FFF702FD00BFA0682F
:10B56000FFF7EAFC00BFE069FFF7FAFC00BF2046E6
:10B570007168884700BF0020E4E70000A56D00085F
:10B5800070474FF04070E1EE100A70470000000075
:10B59000010203040102030406070809000610164D
:10B5A00000061016010002000400060008000A0050
:10B5B0000C00100020004000800000010101010388
:10B5C000070100000804020408010101FD7E0008D3
:10B5D0000D120008A1140008297F00083512000888
:10B5E000C9140008557F00085D120008F114000816
:10B5F000817F00088512000819150008000000006E
:10B60000000000000000000000000000000000003A
:10B61000000000000000000000000000000000002A
:10B62000000000000000000000000000000000001A
:10B63000000000000000000000000000000000000A
:10B6400000000000000000000000000000000000FA
:10B6500000000000000000000000000000000000EA
:10B6600000000000000000000000000000000000DA
:10B6700000000000000000000000000000000000CA
:10B6800000000000000000000000000000000000BA
:10B6900071910008000000000000000000000000A0
:10B6A000000000000000000000000000000000009A
:10B6B000000000000000000000000000000000008A
:10B6C000000000000000000000000000000000007A
:10B6D000000000000000000000000000000000006A
:10B6E000000000000000000000000000000000005A
:10B6F000000000000000000000000000000000004A
:10B700000000000000000000000000000000000039
:10B710007B910008DD94000800000000000000009C
:10B720001B9700080000000000000000000000005F
:10B730000000000000000000000000000000000009
:10B7400000000000000000000B990008000000004D
:10B750000000000000000000000000002F99000819
:10B7600000000000000000000000000000000000D9
:10B7700000000000000000000000000000000000C9
:10B7800000000000000000000000000000000000B9
:10B790007B910008DD94000800000000000000001C
:10B7A0001B970008000000000000000000000000DF
:10B7B0000000000000000000000000000000000089
:10B7C00000000000000000000B99000800000000CD
:10B7D000000000000000000000000000D7990008F1
:10B7E00000000000000000005D9100080000000063
:10B7F000679100080000000000000000E7BABFE702
:10B80000A88BE4BFA1E681AF3A0D0A2020E7BABFBA
:10B81000E7A88BE5908D3A7B737D0D0A2020E4BC70
:10B8200098E58588E7BAA73A7B697D0D0A2020E56F
:10B83000A086E6A088E58DA0E794A83A7B697D2FD5
:10B840007B697D3D7B662E327D250D0A0D0A000049
:10B8500044323A7B662E327D250D0A2020526573D4
:10B86000756C743A7B697D0D0A2020E58FAFE4BDCD
:10B87000BFE794A83A7B697D427974650D0A202060
:10B88000E680BBE585B13A7B697D427974650D0A36
:10B890000000000044333A7B662E327D250D0A20DD
:10B8A00020526573756C743A7B697D0D0A2020E522
:10B8B0008FAFE4BDBFE794A83A7B697D4279746598
:10B8C0000D0A2020E680BBE585B13A7B697D42798F
:10B8D00074650D0A000000004158493A7B662E321B
:10B8E0007D250D0A2020526573756C743A7B697D45
:10B8F0000D0A2020E58FAFE4BDBFE794A83A7B692D
:10B900007D427974650D0A2020E680BBE585B13A59
:10B910007B697D427974650D0A0000004454434DF3
:10B920003A7B662E327D250D0A2020526573756C98
:10B93000743A7B697D0D0A2020E58FAFE4BDBFE737
:10B9400094A83A7B697D427974650D0A2020E680CF
:10B95000BBE585B13A7B697D427974650D0A0000CB
:10B96000B0B900080000002028810000D4020008BF
:10B97000BCBA00080000002400000100D402000846
:10B98000C0BC00080000003000000100D402000824
:10B99000C4BE00080000003800800000D402000887
:10B9A000BCBA00082881002038620000300300087B
:10B9B00001D53C90D0030401FF01FF01FF01FF010D
:10B9C000FF01FF01FF01FF01FF01FF01FF01FF0177
:10B9D000FF01FF01FF01FF01FF01FF01FF01FF0167
:10B9E000FF01FF01FF01FF01FF01FF01FF01FF0157
:10B9F000FF01FF01FF01FF01FF01FF01FF01FF0147
:10BA0000FF01FF01FF01FF01FF01FF01FF01FF0136
:10BA1000FF01FF01FF01FF01FF01FF01FF01FF0126
:10BA2000FF01FF01FF01FF01FF01FF01FF01FF0116
:10BA3000FF01FF01FF01FF01FF01FF01FF01FF0106
:10BA4000FF01FF01FF01FF01FF01FF01FF01FF01F6
:10BA5000FF01FF01FF01FF01FF01FF01FF01FF01E6
:10BA6000FF01FF01FF01FF01FF01FF01FF01FF01D6
:10BA7000FF01FF01FF01FF01FF01FF01FF01FF01C6
:10BA8000FF01FF01FF01FF01FF01FF01FF01FF01B6
:10BA9000FF01FF01FF01FF01FF01FF01FF01FF01A6
:10BAA000FF01FF01FF01FF01FF01FF01FF01FF0196
:10BAB000FF01FF01FF01FF01CB00000001FF01FFBB
:10BAC00001FF01FF01FF01FF01FF01FF01FF01FF76
:10BAD00001FF01FF01FF01FF01FF01FF01FF01FF66
:10BAE00001FF01FF01FF01FF01FF01FF01FF01FF56
:10BAF00001FF01FF01FF01FF01FF01FF01FF01FF46
:10BB000001FF01FF01FF01FF01FF01FF01FF01FF35
:10BB100001FF01FF01FF01FF01FF01FF01FF01FF25
:10BB200001FF01FF01FF01FF01FF01FF01FF01FF15
:10BB300001FF01FF01FF01FF01FF01FF01FF01FF05
:10BB400001FF01FF01FF01FF01FF01FF01FF01FFF5
:10BB500001FF01FF01FF01FF01FF01FF01FF01FFE5
:10BB600001FF01FF01FF01FF01FF01FF01FF01FFD5
:10BB700001FF01FF01FF01FF01FF01FF01FF01FFC5
:10BB800001FF01FF01FF01FF01FF01FF01FF01FFB5
:10BB900001FF01FF01FF01FF01FF01FF01FF01FFA5
:10BBA00001FF01FF01FF01FF01FF01FF01FF01FF95
:10BBB00001FF01FF01FF01FF01FF01FF01FF01FF85
:10BBC00001FF01FF01FF01FF01FF01FF01FF01FF75
:10BBD00001FF01FF01FF01FF01FF01FF01FF01FF65
:10BBE00001FF01FF01FF01FF01FF01FF01FF01FF55
:10BBF00001FF01FF01FF01FF01FF01FF01FF01FF45
:10BC000001FF01FF01FF01FF01FF01FF01FF01FF34
:10BC100001FF01FF01FF01FF01FF01FF01FF01FF24
:10BC200001FF01FF01FF01FF01FF01FF01FF01FF14
:10BC300001FF01FF01FF01FF01FF01FF01FF01FF04
:10BC400001FF01FF01FF01FF01FF01FF01FF01FFF4
:10BC500001FF01FF01FF01FF01FF01FF01FF01FFE4
:10BC600001FF01FF01FF01FF01FF01FF01FF01FFD4
:10BC700001FF01FF01FF01FF01FF01FF01FF01FFC4
:10BC800001FF01FF01FF01FF01FF01FF01FF01FFB4
:10BC900001FF01FF01FF01FF01FF01FF01FF01FFA4
:10BCA00001FF01FF01FF01FF01FF01FF01FF01FF94
:10BCB00001FF01FF01FF01FF01FF01FF01FF110073
:10BCC00001FF01FF01FF01FF01FF01FF01FF01FF74
:10BCD00001FF01FF01FF01FF01FF01FF01FF01FF64
:10BCE00001FF01FF01FF01FF01FF01FF01FF01FF54
:10BCF00001FF01FF01FF01FF01FF01FF01FF01FF44
:10BD000001FF01FF01FF01FF01FF01FF01FF01FF33
:10BD100001FF01FF01FF01FF01FF01FF01FF01FF23
:10BD200001FF01FF01FF01FF01FF01FF01FF01FF13
:10BD300001FF01FF01FF01FF01FF01FF01FF01FF03
:10BD400001FF01FF01FF01FF01FF01FF01FF01FFF3
:10BD500001FF01FF01FF01FF01FF01FF01FF01FFE3
:10BD600001FF01FF01FF01FF01FF01FF01FF01FFD3
:10BD700001FF01FF01FF01FF01FF01FF01FF01FFC3
:10BD800001FF01FF01FF01FF01FF01FF01FF01FFB3
:10BD900001FF01FF01FF01FF01FF01FF01FF01FFA3
:10BDA00001FF01FF01FF01FF01FF01FF01FF01FF93
:10BDB00001FF01FF01FF01FF01FF01FF01FF01FF83
:10BDC00001FF01FF01FF01FF01FF01FF01FF01FF73
:10BDD00001FF01FF01FF01FF01FF01FF01FF01FF63
:10BDE00001FF01FF01FF01FF01FF01FF01FF01FF53
:10BDF00001FF01FF01FF01FF01FF01FF01FF01FF43
:10BE000001FF01FF01FF01FF01FF01FF01FF01FF32
:10BE100001FF01FF01FF01FF01FF01FF01FF01FF22
:10BE200001FF01FF01FF01FF01FF01FF01FF01FF12
:10BE300001FF01FF01FF01FF01FF01FF01FF01FF02
:10BE400001FF01FF01FF01FF01FF01FF01FF01FFF2
:10BE500001FF01FF01FF01FF01FF01FF01FF01FFE2
:10BE600001FF01FF01FF01FF01FF01FF01FF01FFD2
:10BE700001FF01FF01FF01FF01FF01FF01FF01FFC2
:10BE800001FF01FF01FF01FF01FF01FF01FF01FFB2
:10BE900001FF01FF01FF01FF01FF01FF01FF01FFA2
:10BEA00001FF01FF01FF01FF01FF01FF01FF01FF92
:10BEB00001FF01FF01FF01FF01FF01FF01FF01FF82
:10BEC00001FF110001FF01FF01FF01FF01FF01FF61
:10BED00001FF01FF01FF01FF01FF01FF01FF01FF62
:10BEE00001FF01FF01FF01FF01FF01FF01FF01FF52
:10BEF00001FF01FF01FF01FF01FF01FF01FF01FF42
:10BF000001FF01FF01FF01FF01FF01FF01FF01FF31
:10BF100001FF01FF01FF01FF01FF01FF01FF01FF21
:10BF200001FF01FF01FF01FF01FF01FF01FF01FF11
:10BF300001FF01FF01FF01FF01FF01FF01FF01FF01
:10BF400001FF01FF01FF01FF01FF01FF01FF01FFF1
:10BF500001FF01FF01FF01FF01FF01FF01FF01FFE1
:10BF600001FF01FF01FF01FF01FF01FF01FF01FFD1
:10BF700001FF01FF01FF01FF01FF01FF01FF01FFC1
:10BF800001FF01FF01FF01FF01FF01FF01FF01FFB1
:10BF900001FF01FF01FF01FF01FF01FF01FF01FFA1
:10BFA00001FF01FF01FF01FF01FF01FF01FF01FF91
:10BFB00001FF01FF01FF01FF01FF01FF01FF01FF81
:08BFC00001FF01FF01800000F8
:040000050800029954
:00000001FF
